{
  "contractName": "Land",
  "abi": [
    {
      "inputs": [],
      "payable": false,
      "stateMutability": "nonpayable",
      "type": "constructor"
    },
    {
      "anonymous": false,
      "inputs": [
        {
          "indexed": true,
          "internalType": "uint256",
          "name": "_landId",
          "type": "uint256"
        }
      ],
      "name": "AddingLand",
      "type": "event"
    },
    {
      "anonymous": false,
      "inputs": [
        {
          "indexed": false,
          "internalType": "address",
          "name": "_sellerId",
          "type": "address"
        }
      ],
      "name": "Landrequested",
      "type": "event"
    },
    {
      "anonymous": false,
      "inputs": [
        {
          "indexed": false,
          "internalType": "address",
          "name": "_registrationId",
          "type": "address"
        }
      ],
      "name": "Registration",
      "type": "event"
    },
    {
      "anonymous": false,
      "inputs": [
        {
          "indexed": false,
          "internalType": "address",
          "name": "_id",
          "type": "address"
        }
      ],
      "name": "Rejected",
      "type": "event"
    },
    {
      "anonymous": false,
      "inputs": [
        {
          "indexed": false,
          "internalType": "address",
          "name": "_id",
          "type": "address"
        }
      ],
      "name": "Verified",
      "type": "event"
    },
    {
      "anonymous": false,
      "inputs": [
        {
          "indexed": false,
          "internalType": "address",
          "name": "_buyerId",
          "type": "address"
        }
      ],
      "name": "requestApproved",
      "type": "event"
    },
    {
      "constant": true,
      "inputs": [
        {
          "internalType": "address",
          "name": "",
          "type": "address"
        }
      ],
      "name": "BuyerMapping",
      "outputs": [
        {
          "internalType": "address",
          "name": "id",
          "type": "address"
        },
        {
          "internalType": "string",
          "name": "name",
          "type": "string"
        },
        {
          "internalType": "uint256",
          "name": "age",
          "type": "uint256"
        },
        {
          "internalType": "string",
          "name": "city",
          "type": "string"
        },
        {
          "internalType": "string",
          "name": "aadharNumber",
          "type": "string"
        },
        {
          "internalType": "string",
          "name": "panNumber",
          "type": "string"
        },
        {
          "internalType": "string",
          "name": "document",
          "type": "string"
        },
        {
          "internalType": "string",
          "name": "email",
          "type": "string"
        }
      ],
      "payable": false,
      "stateMutability": "view",
      "type": "function"
    },
    {
      "constant": true,
      "inputs": [
        {
          "internalType": "address",
          "name": "",
          "type": "address"
        }
      ],
      "name": "BuyerRejection",
      "outputs": [
        {
          "internalType": "bool",
          "name": "",
          "type": "bool"
        }
      ],
      "payable": false,
      "stateMutability": "view",
      "type": "function"
    },
    {
      "constant": true,
      "inputs": [
        {
          "internalType": "address",
          "name": "",
          "type": "address"
        }
      ],
      "name": "BuyerVerification",
      "outputs": [
        {
          "internalType": "bool",
          "name": "",
          "type": "bool"
        }
      ],
      "payable": false,
      "stateMutability": "view",
      "type": "function"
    },
    {
      "constant": true,
      "inputs": [
        {
          "internalType": "uint256",
          "name": "",
          "type": "uint256"
        }
      ],
      "name": "InspectorMapping",
      "outputs": [
        {
          "internalType": "uint256",
          "name": "id",
          "type": "uint256"
        },
        {
          "internalType": "string",
          "name": "name",
          "type": "string"
        },
        {
          "internalType": "uint256",
          "name": "age",
          "type": "uint256"
        },
        {
          "internalType": "string",
          "name": "designation",
          "type": "string"
        }
      ],
      "payable": false,
      "stateMutability": "view",
      "type": "function"
    },
    {
      "constant": true,
      "inputs": [
        {
          "internalType": "uint256",
          "name": "",
          "type": "uint256"
        }
      ],
      "name": "LandOwner",
      "outputs": [
        {
          "internalType": "address",
          "name": "",
          "type": "address"
        }
      ],
      "payable": false,
      "stateMutability": "view",
      "type": "function"
    },
    {
      "constant": true,
      "inputs": [
        {
          "internalType": "uint256",
          "name": "",
          "type": "uint256"
        }
      ],
      "name": "LandVerification",
      "outputs": [
        {
          "internalType": "bool",
          "name": "",
          "type": "bool"
        }
      ],
      "payable": false,
      "stateMutability": "view",
      "type": "function"
    },
    {
      "constant": true,
      "inputs": [],
      "name": "Land_Inspector",
      "outputs": [
        {
          "internalType": "address",
          "name": "",
          "type": "address"
        }
      ],
      "payable": false,
      "stateMutability": "view",
      "type": "function"
    },
    {
      "constant": true,
      "inputs": [
        {
          "internalType": "uint256",
          "name": "",
          "type": "uint256"
        }
      ],
      "name": "PaymentReceived",
      "outputs": [
        {
          "internalType": "bool",
          "name": "",
          "type": "bool"
        }
      ],
      "payable": false,
      "stateMutability": "view",
      "type": "function"
    },
    {
      "constant": true,
      "inputs": [
        {
          "internalType": "address",
          "name": "",
          "type": "address"
        }
      ],
      "name": "RegisteredAddressMapping",
      "outputs": [
        {
          "internalType": "bool",
          "name": "",
          "type": "bool"
        }
      ],
      "payable": false,
      "stateMutability": "view",
      "type": "function"
    },
    {
      "constant": true,
      "inputs": [
        {
          "internalType": "address",
          "name": "",
          "type": "address"
        }
      ],
      "name": "RegisteredBuyerMapping",
      "outputs": [
        {
          "internalType": "bool",
          "name": "",
          "type": "bool"
        }
      ],
      "payable": false,
      "stateMutability": "view",
      "type": "function"
    },
    {
      "constant": true,
      "inputs": [
        {
          "internalType": "address",
          "name": "",
          "type": "address"
        }
      ],
      "name": "RegisteredSellerMapping",
      "outputs": [
        {
          "internalType": "bool",
          "name": "",
          "type": "bool"
        }
      ],
      "payable": false,
      "stateMutability": "view",
      "type": "function"
    },
    {
      "constant": true,
      "inputs": [
        {
          "internalType": "uint256",
          "name": "",
          "type": "uint256"
        }
      ],
      "name": "RequestStatus",
      "outputs": [
        {
          "internalType": "bool",
          "name": "",
          "type": "bool"
        }
      ],
      "payable": false,
      "stateMutability": "view",
      "type": "function"
    },
    {
      "constant": true,
      "inputs": [
        {
          "internalType": "uint256",
          "name": "",
          "type": "uint256"
        }
      ],
      "name": "RequestedLands",
      "outputs": [
        {
          "internalType": "bool",
          "name": "",
          "type": "bool"
        }
      ],
      "payable": false,
      "stateMutability": "view",
      "type": "function"
    },
    {
      "constant": true,
      "inputs": [
        {
          "internalType": "uint256",
          "name": "",
          "type": "uint256"
        }
      ],
      "name": "RequestsMapping",
      "outputs": [
        {
          "internalType": "uint256",
          "name": "reqId",
          "type": "uint256"
        },
        {
          "internalType": "address",
          "name": "sellerId",
          "type": "address"
        },
        {
          "internalType": "address",
          "name": "buyerId",
          "type": "address"
        },
        {
          "internalType": "uint256",
          "name": "landId",
          "type": "uint256"
        }
      ],
      "payable": false,
      "stateMutability": "view",
      "type": "function"
    },
    {
      "constant": true,
      "inputs": [
        {
          "internalType": "address",
          "name": "",
          "type": "address"
        }
      ],
      "name": "SellerMapping",
      "outputs": [
        {
          "internalType": "address",
          "name": "id",
          "type": "address"
        },
        {
          "internalType": "string",
          "name": "name",
          "type": "string"
        },
        {
          "internalType": "uint256",
          "name": "age",
          "type": "uint256"
        },
        {
          "internalType": "string",
          "name": "aadharNumber",
          "type": "string"
        },
        {
          "internalType": "string",
          "name": "panNumber",
          "type": "string"
        },
        {
          "internalType": "string",
          "name": "landsOwned",
          "type": "string"
        },
        {
          "internalType": "string",
          "name": "document",
          "type": "string"
        }
      ],
      "payable": false,
      "stateMutability": "view",
      "type": "function"
    },
    {
      "constant": true,
      "inputs": [
        {
          "internalType": "address",
          "name": "",
          "type": "address"
        }
      ],
      "name": "SellerRejection",
      "outputs": [
        {
          "internalType": "bool",
          "name": "",
          "type": "bool"
        }
      ],
      "payable": false,
      "stateMutability": "view",
      "type": "function"
    },
    {
      "constant": true,
      "inputs": [
        {
          "internalType": "address",
          "name": "",
          "type": "address"
        }
      ],
      "name": "SellerVerification",
      "outputs": [
        {
          "internalType": "bool",
          "name": "",
          "type": "bool"
        }
      ],
      "payable": false,
      "stateMutability": "view",
      "type": "function"
    },
    {
      "constant": true,
      "inputs": [
        {
          "internalType": "uint256",
          "name": "",
          "type": "uint256"
        }
      ],
      "name": "buyers",
      "outputs": [
        {
          "internalType": "address",
          "name": "",
          "type": "address"
        }
      ],
      "payable": false,
      "stateMutability": "view",
      "type": "function"
    },
    {
      "constant": true,
      "inputs": [],
      "name": "buyersCount",
      "outputs": [
        {
          "internalType": "uint256",
          "name": "",
          "type": "uint256"
        }
      ],
      "payable": false,
      "stateMutability": "view",
      "type": "function"
    },
    {
      "constant": true,
      "inputs": [],
      "name": "inspectorsCount",
      "outputs": [
        {
          "internalType": "uint256",
          "name": "",
          "type": "uint256"
        }
      ],
      "payable": false,
      "stateMutability": "view",
      "type": "function"
    },
    {
      "constant": true,
      "inputs": [
        {
          "internalType": "uint256",
          "name": "",
          "type": "uint256"
        }
      ],
      "name": "lands",
      "outputs": [
        {
          "internalType": "uint256",
          "name": "id",
          "type": "uint256"
        },
        {
          "internalType": "uint256",
          "name": "area",
          "type": "uint256"
        },
        {
          "internalType": "string",
          "name": "city",
          "type": "string"
        },
        {
          "internalType": "string",
          "name": "state",
          "type": "string"
        },
        {
          "internalType": "uint256",
          "name": "landPrice",
          "type": "uint256"
        },
        {
          "internalType": "uint256",
          "name": "propertyPID",
          "type": "uint256"
        },
        {
          "internalType": "uint256",
          "name": "physicalSurveyNumber",
          "type": "uint256"
        },
        {
          "internalType": "string",
          "name": "ipfsHash",
          "type": "string"
        },
        {
          "internalType": "string",
          "name": "document",
          "type": "string"
        },
        {
          "internalType": "address",
          "name": "old_owner",
          "type": "address"
        }
      ],
      "payable": false,
      "stateMutability": "view",
      "type": "function"
    },
    {
      "constant": true,
      "inputs": [],
      "name": "landsCount",
      "outputs": [
        {
          "internalType": "uint256",
          "name": "",
          "type": "uint256"
        }
      ],
      "payable": false,
      "stateMutability": "view",
      "type": "function"
    },
    {
      "constant": true,
      "inputs": [],
      "name": "requestsCount",
      "outputs": [
        {
          "internalType": "uint256",
          "name": "",
          "type": "uint256"
        }
      ],
      "payable": false,
      "stateMutability": "view",
      "type": "function"
    },
    {
      "constant": true,
      "inputs": [
        {
          "internalType": "uint256",
          "name": "",
          "type": "uint256"
        }
      ],
      "name": "sellers",
      "outputs": [
        {
          "internalType": "address",
          "name": "",
          "type": "address"
        }
      ],
      "payable": false,
      "stateMutability": "view",
      "type": "function"
    },
    {
      "constant": true,
      "inputs": [],
      "name": "sellersCount",
      "outputs": [
        {
          "internalType": "uint256",
          "name": "",
          "type": "uint256"
        }
      ],
      "payable": false,
      "stateMutability": "view",
      "type": "function"
    },
    {
      "constant": true,
      "inputs": [
        {
          "internalType": "uint256",
          "name": "i",
          "type": "uint256"
        }
      ],
      "name": "getPrevious",
      "outputs": [
        {
          "internalType": "string",
          "name": "",
          "type": "string"
        }
      ],
      "payable": false,
      "stateMutability": "view",
      "type": "function"
    },
    {
      "constant": true,
      "inputs": [
        {
          "internalType": "uint256",
          "name": "i",
          "type": "uint256"
        }
      ],
      "name": "isSame",
      "outputs": [
        {
          "internalType": "bool",
          "name": "",
          "type": "bool"
        }
      ],
      "payable": false,
      "stateMutability": "view",
      "type": "function"
    },
    {
      "constant": true,
      "inputs": [],
      "name": "getLandsCount",
      "outputs": [
        {
          "internalType": "uint256",
          "name": "",
          "type": "uint256"
        }
      ],
      "payable": false,
      "stateMutability": "view",
      "type": "function"
    },
    {
      "constant": true,
      "inputs": [],
      "name": "getBuyersCount",
      "outputs": [
        {
          "internalType": "uint256",
          "name": "",
          "type": "uint256"
        }
      ],
      "payable": false,
      "stateMutability": "view",
      "type": "function"
    },
    {
      "constant": true,
      "inputs": [],
      "name": "getSellersCount",
      "outputs": [
        {
          "internalType": "uint256",
          "name": "",
          "type": "uint256"
        }
      ],
      "payable": false,
      "stateMutability": "view",
      "type": "function"
    },
    {
      "constant": true,
      "inputs": [],
      "name": "getRequestsCount",
      "outputs": [
        {
          "internalType": "uint256",
          "name": "",
          "type": "uint256"
        }
      ],
      "payable": false,
      "stateMutability": "view",
      "type": "function"
    },
    {
      "constant": true,
      "inputs": [
        {
          "internalType": "uint256",
          "name": "i",
          "type": "uint256"
        }
      ],
      "name": "getArea",
      "outputs": [
        {
          "internalType": "uint256",
          "name": "",
          "type": "uint256"
        }
      ],
      "payable": false,
      "stateMutability": "view",
      "type": "function"
    },
    {
      "constant": true,
      "inputs": [
        {
          "internalType": "uint256",
          "name": "i",
          "type": "uint256"
        }
      ],
      "name": "getCity",
      "outputs": [
        {
          "internalType": "string",
          "name": "",
          "type": "string"
        }
      ],
      "payable": false,
      "stateMutability": "view",
      "type": "function"
    },
    {
      "constant": true,
      "inputs": [
        {
          "internalType": "uint256",
          "name": "i",
          "type": "uint256"
        }
      ],
      "name": "getState",
      "outputs": [
        {
          "internalType": "string",
          "name": "",
          "type": "string"
        }
      ],
      "payable": false,
      "stateMutability": "view",
      "type": "function"
    },
    {
      "constant": true,
      "inputs": [
        {
          "internalType": "uint256",
          "name": "i",
          "type": "uint256"
        }
      ],
      "name": "getPrice",
      "outputs": [
        {
          "internalType": "uint256",
          "name": "",
          "type": "uint256"
        }
      ],
      "payable": false,
      "stateMutability": "view",
      "type": "function"
    },
    {
      "constant": true,
      "inputs": [
        {
          "internalType": "uint256",
          "name": "i",
          "type": "uint256"
        }
      ],
      "name": "getPID",
      "outputs": [
        {
          "internalType": "uint256",
          "name": "",
          "type": "uint256"
        }
      ],
      "payable": false,
      "stateMutability": "view",
      "type": "function"
    },
    {
      "constant": true,
      "inputs": [
        {
          "internalType": "uint256",
          "name": "i",
          "type": "uint256"
        }
      ],
      "name": "getSurveyNumber",
      "outputs": [
        {
          "internalType": "uint256",
          "name": "",
          "type": "uint256"
        }
      ],
      "payable": false,
      "stateMutability": "view",
      "type": "function"
    },
    {
      "constant": true,
      "inputs": [
        {
          "internalType": "uint256",
          "name": "i",
          "type": "uint256"
        }
      ],
      "name": "getImage",
      "outputs": [
        {
          "internalType": "string",
          "name": "",
          "type": "string"
        }
      ],
      "payable": false,
      "stateMutability": "view",
      "type": "function"
    },
    {
      "constant": true,
      "inputs": [
        {
          "internalType": "uint256",
          "name": "i",
          "type": "uint256"
        }
      ],
      "name": "getDocument",
      "outputs": [
        {
          "internalType": "string",
          "name": "",
          "type": "string"
        }
      ],
      "payable": false,
      "stateMutability": "view",
      "type": "function"
    },
    {
      "constant": true,
      "inputs": [
        {
          "internalType": "uint256",
          "name": "id",
          "type": "uint256"
        }
      ],
      "name": "getLandOwner",
      "outputs": [
        {
          "internalType": "address",
          "name": "",
          "type": "address"
        }
      ],
      "payable": false,
      "stateMutability": "view",
      "type": "function"
    },
    {
      "constant": false,
      "inputs": [
        {
          "internalType": "address",
          "name": "_sellerId",
          "type": "address"
        }
      ],
      "name": "verifySeller",
      "outputs": [],
      "payable": false,
      "stateMutability": "nonpayable",
      "type": "function"
    },
    {
      "constant": false,
      "inputs": [
        {
          "internalType": "address",
          "name": "_sellerId",
          "type": "address"
        }
      ],
      "name": "rejectSeller",
      "outputs": [],
      "payable": false,
      "stateMutability": "nonpayable",
      "type": "function"
    },
    {
      "constant": false,
      "inputs": [
        {
          "internalType": "address",
          "name": "_buyerId",
          "type": "address"
        }
      ],
      "name": "verifyBuyer",
      "outputs": [],
      "payable": false,
      "stateMutability": "nonpayable",
      "type": "function"
    },
    {
      "constant": false,
      "inputs": [
        {
          "internalType": "address",
          "name": "_buyerId",
          "type": "address"
        }
      ],
      "name": "rejectBuyer",
      "outputs": [],
      "payable": false,
      "stateMutability": "nonpayable",
      "type": "function"
    },
    {
      "constant": false,
      "inputs": [
        {
          "internalType": "uint256",
          "name": "_landId",
          "type": "uint256"
        }
      ],
      "name": "verifyLand",
      "outputs": [],
      "payable": false,
      "stateMutability": "nonpayable",
      "type": "function"
    },
    {
      "constant": true,
      "inputs": [
        {
          "internalType": "uint256",
          "name": "_id",
          "type": "uint256"
        }
      ],
      "name": "isLandVerified",
      "outputs": [
        {
          "internalType": "bool",
          "name": "",
          "type": "bool"
        }
      ],
      "payable": false,
      "stateMutability": "view",
      "type": "function"
    },
    {
      "constant": true,
      "inputs": [
        {
          "internalType": "address",
          "name": "_id",
          "type": "address"
        }
      ],
      "name": "isVerified",
      "outputs": [
        {
          "internalType": "bool",
          "name": "",
          "type": "bool"
        }
      ],
      "payable": false,
      "stateMutability": "view",
      "type": "function"
    },
    {
      "constant": true,
      "inputs": [
        {
          "internalType": "address",
          "name": "_id",
          "type": "address"
        }
      ],
      "name": "isRejected",
      "outputs": [
        {
          "internalType": "bool",
          "name": "",
          "type": "bool"
        }
      ],
      "payable": false,
      "stateMutability": "view",
      "type": "function"
    },
    {
      "constant": true,
      "inputs": [
        {
          "internalType": "address",
          "name": "_id",
          "type": "address"
        }
      ],
      "name": "isSeller",
      "outputs": [
        {
          "internalType": "bool",
          "name": "",
          "type": "bool"
        }
      ],
      "payable": false,
      "stateMutability": "view",
      "type": "function"
    },
    {
      "constant": true,
      "inputs": [
        {
          "internalType": "address",
          "name": "_id",
          "type": "address"
        }
      ],
      "name": "isLandInspector",
      "outputs": [
        {
          "internalType": "bool",
          "name": "",
          "type": "bool"
        }
      ],
      "payable": false,
      "stateMutability": "view",
      "type": "function"
    },
    {
      "constant": true,
      "inputs": [
        {
          "internalType": "address",
          "name": "_id",
          "type": "address"
        }
      ],
      "name": "isBuyer",
      "outputs": [
        {
          "internalType": "bool",
          "name": "",
          "type": "bool"
        }
      ],
      "payable": false,
      "stateMutability": "view",
      "type": "function"
    },
    {
      "constant": true,
      "inputs": [
        {
          "internalType": "address",
          "name": "_id",
          "type": "address"
        }
      ],
      "name": "isRegistered",
      "outputs": [
        {
          "internalType": "bool",
          "name": "",
          "type": "bool"
        }
      ],
      "payable": false,
      "stateMutability": "view",
      "type": "function"
    },
    {
      "constant": false,
      "inputs": [
        {
          "internalType": "uint256",
          "name": "_area",
          "type": "uint256"
        },
        {
          "internalType": "string",
          "name": "_city",
          "type": "string"
        },
        {
          "internalType": "string",
          "name": "_state",
          "type": "string"
        },
        {
          "internalType": "uint256",
          "name": "landPrice",
          "type": "uint256"
        },
        {
          "internalType": "uint256",
          "name": "_propertyPID",
          "type": "uint256"
        },
        {
          "internalType": "uint256",
          "name": "_surveyNum",
          "type": "uint256"
        },
        {
          "internalType": "string",
          "name": "_ipfsHash",
          "type": "string"
        },
        {
          "internalType": "string",
          "name": "_document",
          "type": "string"
        }
      ],
      "name": "addLand",
      "outputs": [],
      "payable": false,
      "stateMutability": "nonpayable",
      "type": "function"
    },
    {
      "constant": false,
      "inputs": [
        {
          "internalType": "string",
          "name": "_name",
          "type": "string"
        },
        {
          "internalType": "uint256",
          "name": "_age",
          "type": "uint256"
        },
        {
          "internalType": "string",
          "name": "_aadharNumber",
          "type": "string"
        },
        {
          "internalType": "string",
          "name": "_panNumber",
          "type": "string"
        },
        {
          "internalType": "string",
          "name": "_landsOwned",
          "type": "string"
        },
        {
          "internalType": "string",
          "name": "_document",
          "type": "string"
        }
      ],
      "name": "registerSeller",
      "outputs": [],
      "payable": false,
      "stateMutability": "nonpayable",
      "type": "function"
    },
    {
      "constant": false,
      "inputs": [
        {
          "internalType": "string",
          "name": "_name",
          "type": "string"
        },
        {
          "internalType": "uint256",
          "name": "_age",
          "type": "uint256"
        },
        {
          "internalType": "string",
          "name": "_aadharNumber",
          "type": "string"
        },
        {
          "internalType": "string",
          "name": "_panNumber",
          "type": "string"
        },
        {
          "internalType": "string",
          "name": "_landsOwned",
          "type": "string"
        }
      ],
      "name": "updateSeller",
      "outputs": [],
      "payable": false,
      "stateMutability": "nonpayable",
      "type": "function"
    },
    {
      "constant": true,
      "inputs": [],
      "name": "getSeller",
      "outputs": [
        {
          "internalType": "address[]",
          "name": "",
          "type": "address[]"
        }
      ],
      "payable": false,
      "stateMutability": "view",
      "type": "function"
    },
    {
      "constant": true,
      "inputs": [
        {
          "internalType": "address",
          "name": "i",
          "type": "address"
        }
      ],
      "name": "getSellerDetails",
      "outputs": [
        {
          "internalType": "string",
          "name": "",
          "type": "string"
        },
        {
          "internalType": "uint256",
          "name": "",
          "type": "uint256"
        },
        {
          "internalType": "string",
          "name": "",
          "type": "string"
        },
        {
          "internalType": "string",
          "name": "",
          "type": "string"
        },
        {
          "internalType": "string",
          "name": "",
          "type": "string"
        },
        {
          "internalType": "string",
          "name": "",
          "type": "string"
        }
      ],
      "payable": false,
      "stateMutability": "view",
      "type": "function"
    },
    {
      "constant": false,
      "inputs": [
        {
          "internalType": "string",
          "name": "_name",
          "type": "string"
        },
        {
          "internalType": "uint256",
          "name": "_age",
          "type": "uint256"
        },
        {
          "internalType": "string",
          "name": "_city",
          "type": "string"
        },
        {
          "internalType": "string",
          "name": "_aadharNumber",
          "type": "string"
        },
        {
          "internalType": "string",
          "name": "_panNumber",
          "type": "string"
        },
        {
          "internalType": "string",
          "name": "_document",
          "type": "string"
        },
        {
          "internalType": "string",
          "name": "_email",
          "type": "string"
        }
      ],
      "name": "registerBuyer",
      "outputs": [],
      "payable": false,
      "stateMutability": "nonpayable",
      "type": "function"
    },
    {
      "constant": false,
      "inputs": [
        {
          "internalType": "string",
          "name": "_name",
          "type": "string"
        },
        {
          "internalType": "uint256",
          "name": "_age",
          "type": "uint256"
        },
        {
          "internalType": "string",
          "name": "_city",
          "type": "string"
        },
        {
          "internalType": "string",
          "name": "_aadharNumber",
          "type": "string"
        },
        {
          "internalType": "string",
          "name": "_panNumber",
          "type": "string"
        },
        {
          "internalType": "string",
          "name": "_landsOwned",
          "type": "string"
        },
        {
          "internalType": "string",
          "name": "_document",
          "type": "string"
        },
        {
          "internalType": "string",
          "name": "_email",
          "type": "string"
        }
      ],
      "name": "registerUser",
      "outputs": [],
      "payable": false,
      "stateMutability": "nonpayable",
      "type": "function"
    },
    {
      "constant": false,
      "inputs": [
        {
          "internalType": "string",
          "name": "_name",
          "type": "string"
        },
        {
          "internalType": "uint256",
          "name": "_age",
          "type": "uint256"
        },
        {
          "internalType": "string",
          "name": "_city",
          "type": "string"
        },
        {
          "internalType": "string",
          "name": "_aadharNumber",
          "type": "string"
        },
        {
          "internalType": "string",
          "name": "_email",
          "type": "string"
        },
        {
          "internalType": "string",
          "name": "_panNumber",
          "type": "string"
        }
      ],
      "name": "updateBuyer",
      "outputs": [],
      "payable": false,
      "stateMutability": "nonpayable",
      "type": "function"
    },
    {
      "constant": true,
      "inputs": [],
      "name": "getBuyer",
      "outputs": [
        {
          "internalType": "address[]",
          "name": "",
          "type": "address[]"
        }
      ],
      "payable": false,
      "stateMutability": "view",
      "type": "function"
    },
    {
      "constant": true,
      "inputs": [
        {
          "internalType": "address",
          "name": "i",
          "type": "address"
        }
      ],
      "name": "getBuyerDetails",
      "outputs": [
        {
          "internalType": "string",
          "name": "",
          "type": "string"
        },
        {
          "internalType": "string",
          "name": "",
          "type": "string"
        },
        {
          "internalType": "string",
          "name": "",
          "type": "string"
        },
        {
          "internalType": "string",
          "name": "",
          "type": "string"
        },
        {
          "internalType": "string",
          "name": "",
          "type": "string"
        },
        {
          "internalType": "uint256",
          "name": "",
          "type": "uint256"
        },
        {
          "internalType": "string",
          "name": "",
          "type": "string"
        }
      ],
      "payable": false,
      "stateMutability": "view",
      "type": "function"
    },
    {
      "constant": false,
      "inputs": [
        {
          "internalType": "address",
          "name": "_sellerId",
          "type": "address"
        },
        {
          "internalType": "uint256",
          "name": "_landId",
          "type": "uint256"
        }
      ],
      "name": "requestLand",
      "outputs": [],
      "payable": false,
      "stateMutability": "nonpayable",
      "type": "function"
    },
    {
      "constant": true,
      "inputs": [
        {
          "internalType": "uint256",
          "name": "i",
          "type": "uint256"
        }
      ],
      "name": "getRequestDetails",
      "outputs": [
        {
          "internalType": "address",
          "name": "",
          "type": "address"
        },
        {
          "internalType": "address",
          "name": "",
          "type": "address"
        },
        {
          "internalType": "uint256",
          "name": "",
          "type": "uint256"
        },
        {
          "internalType": "bool",
          "name": "",
          "type": "bool"
        }
      ],
      "payable": false,
      "stateMutability": "view",
      "type": "function"
    },
    {
      "constant": true,
      "inputs": [
        {
          "internalType": "uint256",
          "name": "_id",
          "type": "uint256"
        }
      ],
      "name": "isRequested",
      "outputs": [
        {
          "internalType": "bool",
          "name": "",
          "type": "bool"
        }
      ],
      "payable": false,
      "stateMutability": "view",
      "type": "function"
    },
    {
      "constant": true,
      "inputs": [
        {
          "internalType": "uint256",
          "name": "_id",
          "type": "uint256"
        }
      ],
      "name": "isApproved",
      "outputs": [
        {
          "internalType": "bool",
          "name": "",
          "type": "bool"
        }
      ],
      "payable": false,
      "stateMutability": "view",
      "type": "function"
    },
    {
      "constant": false,
      "inputs": [
        {
          "internalType": "uint256",
          "name": "_reqId",
          "type": "uint256"
        }
      ],
      "name": "approveRequest",
      "outputs": [],
      "payable": false,
      "stateMutability": "nonpayable",
      "type": "function"
    },
    {
      "constant": false,
      "inputs": [
        {
          "internalType": "uint256",
          "name": "_landId",
          "type": "uint256"
        },
        {
          "internalType": "address",
          "name": "_newOwner",
          "type": "address"
        }
      ],
      "name": "LandOwnershipTransfer",
      "outputs": [],
      "payable": false,
      "stateMutability": "nonpayable",
      "type": "function"
    },
    {
      "constant": true,
      "inputs": [
        {
          "internalType": "uint256",
          "name": "_landId",
          "type": "uint256"
        }
      ],
      "name": "isPaid",
      "outputs": [
        {
          "internalType": "bool",
          "name": "",
          "type": "bool"
        }
      ],
      "payable": false,
      "stateMutability": "view",
      "type": "function"
    },
    {
      "constant": false,
      "inputs": [
        {
          "internalType": "address payable",
          "name": "_receiver",
          "type": "address"
        },
        {
          "internalType": "uint256",
          "name": "_landId",
          "type": "uint256"
        }
      ],
      "name": "payment",
      "outputs": [],
      "payable": true,
      "stateMutability": "payable",
      "type": "function"
    }
  ],
  "bytecode": "0x60806040523480156200001157600080fd5b5060118054600160a060020a03191633179055604080518082018252600b81527f496e73706563746f7220310000000000000000000000000000000000000000006020808301919091528251808401909352600e83527f54656873696c204d616e6167657200000000000000000000000000000000000090830152620000a391602d90640100000000620000a9810204565b620001d7565b601580546001908101918290556040805160808101825283815260208082018881528284018890526060830187905260009586528482529290942081518155915180519194929362000102939085019291019062000132565b5060408201516002820155606082015180516200012a91600384019160209091019062000132565b505050505050565b828054600181600116156101000203166002900490600052602060002090601f016020900481019282601f106200017557805160ff1916838001178555620001a5565b82800160010185558215620001a5579182015b82811115620001a557825182559160200191906001019062000188565b50620001b3929150620001b7565b5090565b620001d491905b80821115620001b35760008155600101620001be565b90565b6141dc80620001e76000396000f3fe608060405260043610610482576000357c0100000000000000000000000000000000000000000000000000000000900480639dc1bfa911610260578063dbd0e1b611610160578063e7572230116100d8578063f34d4c63116100a7578063f58f85b51161008c578063f58f85b514610d3f578063f9c43bdf14610d5f578063fbfa4b7f14610d7f57610482565b8063f34d4c6314610cef578063f3f0c21814610d1f57610482565b8063e757223014610c7a578063ee95feaf14610c9a578063f0d3a9df14610cba578063f2aa821814610ccf57610482565b8063e165af871161012f578063e261f1e511610114578063e261f1e514610c04578063e4b2611514610c3a578063e530c40014610c5a57610482565b8063e165af8714610bc4578063e1ecc79414610be457610482565b8063dbd0e1b614610b37578063dd9d122d14610b4c578063dec091ad14610b61578063def936c314610b9457610482565b8063ba49a08c116101f3578063cd392a83116101c2578063d1760e60116101a7578063d1760e6014610ad7578063d713065114610af7578063d7d1bbdb14610b1757610482565b8063cd392a8314610a97578063cee26ed514610ab757610482565b8063ba49a08c14610a22578063bed403c714610a37578063c3c5a54714610a57578063c560b4e514610a7757610482565b8063ab5170741161022f578063ab5170741461096c578063b0a5dcd3146109a0578063b3c8fe85146109d0578063b9209e3314610a0257610482565b80639dc1bfa9146108ec578063a47d4c021461090c578063a4a0f6c01461092c578063a6dc41fb1461094c57610482565b8063601e7c34116103865780637a4a8b66116102fe5780638c5e13e5116102cd578063941e2426116102b2578063941e2426146108a2578063989376b4146108b75780639ae9711e146108d757610482565b80638c5e13e514610862578063933836481461088257610482565b80637a4a8b66146107e257806383546501146108025780638965cde11461082257806389d213541461084257610482565b806367a09c231161035557806368cfe6ee1161033a57806368cfe6ee1461076f5780636cbf6cf8146107a25780637910867b146107c257610482565b806367a09c231461073c5780636814800b1461074f57610482565b8063601e7c34146106ba578063603daf9a146106da57806363f17143146106fc5780636490c7a81461071c57610482565b80632607aafa1161041957806344c9af28116103e857806348a46bd3116103cd57806348a46bd31461065a5780634daa9dae1461067a5780634e2cba091461069a57610482565b806344c9af281461061a5780634528b3571461063a57610482565b80632607aafa146105985780632a55feec146105c55780633410452a146105e55780633f9b250a146105fa57610482565b8063170f390911610455578063170f3909146105215780631869a38b146105435780631a07f76e146105635780631c9afd0f1461058357610482565b806307d56ac01461048757806311ce462c146104bd578063155fec72146104df57806316d9d6661461050c575b600080fd5b34801561049357600080fd5b506104a76104a2366004613ae3565b610d94565b6040516104b49190613f65565b60405180910390f35b3480156104c957600080fd5b506104dd6104d8366004613763565b610dac565b005b3480156104eb57600080fd5b506104ff6104fa366004613ae3565b610ebc565b6040516104b49190613e4a565b34801561051857600080fd5b506104a7610edb565b34801561052d57600080fd5b50610536610ee2565b6040516104b49190613cae565b34801561054f57600080fd5b5061053661055e366004613ae3565b610ef1565b34801561056f57600080fd5b506104ff61057e366004613ae3565b610f0c565b34801561058f57600080fd5b506104a7610f21565b3480156105a457600080fd5b506105b86105b3366004613ae3565b610f27565b6040516104b49190613e58565b3480156105d157600080fd5b506104ff6105e036600461362f565b610fc9565b3480156105f157600080fd5b506104a7610ff2565b34801561060657600080fd5b506105b8610615366004613ae3565b610ff8565b34801561062657600080fd5b506105b8610635366004613ae3565b611063565b34801561064657600080fd5b506105b8610655366004613ae3565b6110ce565b34801561066657600080fd5b506104ff61067536600461362f565b611152565b34801561068657600080fd5b506104ff610695366004613ae3565b61119e565b3480156106a657600080fd5b506104dd6106b5366004613861565b6111b3565b3480156106c657600080fd5b506104ff6106d536600461362f565b61139d565b3480156106e657600080fd5b506106ef6113b2565b6040516104b49190613e32565b34801561070857600080fd5b506104ff61071736600461362f565b611414565b34801561072857600080fd5b506104a7610737366004613ae3565b611429565b6104dd61074a366004613655565b61143e565b34801561075b57600080fd5b506104dd61076a36600461362f565b61148b565b34801561077b57600080fd5b5061078f61078a36600461362f565b6114fb565b6040516104b49796959493929190613e69565b3480156107ae57600080fd5b506104ff6107bd366004613ae3565b6118ac565b3480156107ce57600080fd5b506104ff6107dd366004613ae3565b6118cb565b3480156107ee57600080fd5b506104dd6107fd36600461398c565b6118ea565b34801561080e57600080fd5b506104ff61081d366004613ae3565b611cb6565b34801561082e57600080fd5b506104dd61083d36600461362f565b611ccb565b34801561084e57600080fd5b506104ff61085d366004613ae3565b611d30565b34801561086e57600080fd5b506104ff61087d366004613ae3565b611d45565b34801561088e57600080fd5b506104dd61089d366004613763565b611d84565b3480156108ae57600080fd5b506104a7611f66565b3480156108c357600080fd5b506104ff6108d236600461362f565b611f6c565b3480156108e357600080fd5b506104a7611f81565b3480156108f857600080fd5b50610536610907366004613ae3565b611f87565b34801561091857600080fd5b506104ff61092736600461362f565b611fa2565b34801561093857600080fd5b506104a7610947366004613ae3565b611fb7565b34801561095857600080fd5b506104ff61096736600461362f565b611fcc565b34801561097857600080fd5b5061098c61098736600461362f565b611fe1565b6040516104b4989796959493929190613d92565b3480156109ac57600080fd5b506109c06109bb366004613ae3565b61236d565b6040516104b49493929190613f73565b3480156109dc57600080fd5b506109f06109eb36600461362f565b6123a1565b6040516104b496959493929190613eeb565b348015610a0e57600080fd5b506104ff610a1d36600461362f565b6126b7565b348015610a2e57600080fd5b506104a7612702565b348015610a4357600080fd5b506104dd610a52366004613b01565b612708565b348015610a6357600080fd5b506104ff610a7236600461362f565b612770565b348015610a8357600080fd5b506104dd610a9236600461368f565b612799565b348015610aa357600080fd5b506104ff610ab2366004613ae3565b612880565b348015610ac357600080fd5b50610536610ad2366004613ae3565b61289f565b348015610ae357600080fd5b506104dd610af236600461362f565b6128c6565b348015610b0357600080fd5b506105b8610b12366004613ae3565b612943565b348015610b2357600080fd5b506104dd610b32366004613ae3565b6129b1565b348015610b4357600080fd5b506106ef6129ee565b348015610b5857600080fd5b506104a7612a4e565b348015610b6d57600080fd5b50610b81610b7c36600461362f565b612a54565b6040516104b49796959493929190613d08565b348015610ba057600080fd5b50610bb4610baf366004613ae3565b612d4d565b6040516104b49493929190613fa8565b348015610bd057600080fd5b506104ff610bdf36600461362f565b612e8b565b348015610bf057600080fd5b506104dd610bff36600461362f565b612eac565b348015610c1057600080fd5b50610c24610c1f366004613ae3565b612f29565b6040516104b49a99989796959493929190613ff3565b348015610c4657600080fd5b506104ff610c5536600461362f565b6131a5565b348015610c6657600080fd5b506104dd610c75366004613b31565b6131ba565b348015610c8657600080fd5b506104a7610c95366004613ae3565b613337565b348015610ca657600080fd5b506104ff610cb536600461362f565b61334c565b348015610cc657600080fd5b506104a7613375565b348015610cdb57600080fd5b50610536610cea366004613ae3565b61337b565b348015610cfb57600080fd5b50610d0f610d0a366004613ae3565b613388565b6040516104b49493929190613cca565b348015610d2b57600080fd5b506104dd610d3a366004613655565b6133ca565b348015610d4b57600080fd5b506104ff610d5a36600461362f565b6134df565b348015610d6b57600080fd5b506104dd610d7a366004613ae3565b6134f4565b348015610d8b57600080fd5b506104a7613521565b6000818152602081905260409020600501545b919050565b3360009081526005602052604090205460ff168015610de1575033600081815260036020526040902054600160a060020a0316145b610dea57600080fd5b3360009081526003602090815260409091208751610e1092600190920191890190613527565b50336000908152600360208181526040909220600281018890558651610e3e93919092019190870190613527565b503360009081526003602090815260409091208451610e6592600490920191860190613527565b503360009081526003602090815260409091208351610e8c92600790920191850190613527565b503360009081526003602090815260409091208251610eb392600590920191840190613527565b50505050505050565b6000818152600f602052604081205460ff1615610da757506001610da7565b6014545b90565b601154600160a060020a031681565b6000908152600d6020526040902054600160a060020a031690565b60106020526000908152604090205460ff1681565b60145481565b6000818152602081815260409182902060070180548351601f6002600019610100600186161502019093169290920491820184900484028101840190945280845260609392830182828015610fbd5780601f10610f9257610100808354040283529160200191610fbd565b820191906000526020600020905b815481529060010190602001808311610fa057829003601f168201915b50505050509050919050565b600160a060020a03811660009081526007602052604081205460ff1615610da757506001610da7565b60185490565b6000818152602081815260409182902060080180548351601f6002600019610100600186161502019093169290920491820184900484028101840190945280845260609392830182828015610fbd5780601f10610f9257610100808354040283529160200191610fbd565b6000818152602081815260409182902060030180548351601f6002600019610100600186161502019093169290920491820184900484028101840190945280845260609392830182828015610fbd5780601f10610f9257610100808354040283529160200191610fbd565b60008181526020818152604080832060090154600160a060020a03168352600280835292819020600190810180548351601f6000199483161561010002949094019091169590950491820184900484028501840190925280845260609392830182828015610fbd5780601f10610f9257610100808354040283529160200191610fbd565b600160a060020a03811660009081526009602052604081205460ff16806111915750600160a060020a0382166000908152600b602052604090205460ff165b15610da757506001610da7565b600f6020526000908152604090205460ff1681565b3360008181526005602090815260408083208054600160ff1991821681179092556007845282852080549091168217905560178054820190558151610100810183528581528084018d81528184018d9052606082018c9052608082018b905260a082018a905260c0820189905260e0820188905295855260038452919093208151815473ffffffffffffffffffffffffffffffffffffffff1916600160a060020a03909116178155935180519194936112729390850192910190613527565b506040820151600282015560608201518051611298916003840191602090910190613527565b50608082015180516112b4916004840191602090910190613527565b5060a082015180516112d0916005840191602090910190613527565b5060c082015180516112ec916006840191602090910190613527565b5060e08201518051611308916007840191602090910190613527565b5050601380546001810182556000919091527f66de8ffda797e3de9c05e8fc57b3bf0ec28a930d40b0d285d93c06501cf6a09001805473ffffffffffffffffffffffffffffffffffffffff1916339081179091556040517f478f5152d8fc568db3f8de9fb402fd9d98a1a7541ecfe434e59cf574fbfc5524925061138c9190613cbc565b60405180910390a150505050505050565b60066020526000908152604090205460ff1681565b6060601380548060200260200160405190810160405280929190818152602001828054801561140a57602002820191906000526020600020905b8154600160a060020a031681526001909101906020018083116113ec575b5050505050905090565b60096020526000908152604090205460ff1681565b60009081526020819052604090206001015490565b600081815260106020526040808220805460ff1916600117905551600160a060020a038416913480156108fc02929091818181858888f1935050505015801561148657600080fd5b505050565b61149433612e8b565b61149d57600080fd5b600160a060020a0381166000908152600a602052604090819020805460ff19166001179055517f6a6455914f452787eb3985452aceedc1000fb545e394eb3b370e3d08958e0a5b906114f0908390613cae565b60405180910390a150565b600160a060020a03811660009081526003602081815260408084206002808201546001808401805486519281161561010002600019011693909304601f810187900487028201870190955284815260609788978897889788979396889690959385019460058101946006820194600783019460049093019289918301828280156115c65780601f1061159b576101008083540402835291602001916115c6565b820191906000526020600020905b8154815290600101906020018083116115a957829003601f168201915b5050895460408051602060026001851615610100026000190190941693909304601f8101849004840282018401909252818152959c508b9450925084019050828280156116545780601f1061162957610100808354040283529160200191611654565b820191906000526020600020905b81548152906001019060200180831161163757829003601f168201915b5050885460408051602060026001851615610100026000190190941693909304601f8101849004840282018401909252818152959b508a9450925084019050828280156116e25780601f106116b7576101008083540402835291602001916116e2565b820191906000526020600020905b8154815290600101906020018083116116c557829003601f168201915b5050875460408051602060026001851615610100026000190190941693909304601f8101849004840282018401909252818152959a50899450925084019050828280156117705780601f1061174557610100808354040283529160200191611770565b820191906000526020600020905b81548152906001019060200180831161175357829003601f168201915b5050865460408051602060026001851615610100026000190190941693909304601f8101849004840282018401909252818152959950889450925084019050828280156117fe5780601f106117d3576101008083540402835291602001916117fe565b820191906000526020600020905b8154815290600101906020018083116117e157829003601f168201915b5050845460408051602060026001851615610100026000190190941693909304601f81018490048402820184019092528181529598508694509250840190508282801561188c5780601f106118615761010080835404028352916020019161188c565b820191906000526020600020905b81548152906001019060200180831161186f57829003601f168201915b505050505090509650965096509650965096509650919395979092949650565b6000818152600c602052604081205460ff1615610da757506001610da7565b6000818152600e602052604081205460ff1615610da757506001610da7565b3360009081526005602052604090205460ff161561190757600080fd5b3360008181526005602090815260408083208054600160ff1991821681179092556007845282852080549091168217905560178054820190558151610100810183528581528084018e81528184018e9052606082018d9052608082018c905260a082018b905260c0820189905260e0820188905295855260038452919093208151815473ffffffffffffffffffffffffffffffffffffffff1916600160a060020a03909116178155935180519194936119c69390850192910190613527565b5060408201516002820155606082015180516119ec916003840191602090910190613527565b5060808201518051611a08916004840191602090910190613527565b5060a08201518051611a24916005840191602090910190613527565b5060c08201518051611a40916006840191602090910190613527565b5060e08201518051611a5c916007840191602090910190613527565b5090505060133390806001815401808255809150509060018203906000526020600020016000909192909190916101000a815481600160a060020a030219169083600160a060020a031602179055505060016006600033600160a060020a0316600160a060020a0316815260200190815260200160002060006101000a81548160ff0219169083151502179055506016600081548092919060010191905055506040518060e0016040528033600160a060020a03168152602001898152602001888152602001868152602001858152602001848152602001838152506002600033600160a060020a0316600160a060020a0316815260200190815260200160002060008201518160000160006101000a815481600160a060020a030219169083600160a060020a031602179055506020820151816001019080519060200190611ba6929190613527565b506040820151600282015560608201518051611bcc916003840191602090910190613527565b5060808201518051611be8916004840191602090910190613527565b5060a08201518051611c04916005840191602090910190613527565b5060c08201518051611c20916006840191602090910190613527565b5050601280546001810182556000919091527fbb8a6a4669ba250d26cd7a459eca9d215f8307e33aebe50379bc5a3617ec344401805473ffffffffffffffffffffffffffffffffffffffff1916339081179091556040517f478f5152d8fc568db3f8de9fb402fd9d98a1a7541ecfe434e59cf574fbfc55249250611ca49190613cbc565b60405180910390a15050505050505050565b600c6020526000908152604090205460ff1681565b611cd433612e8b565b611cdd57600080fd5b600160a060020a0381166000908152600b602052604090819020805460ff19166001179055517faf77f8960cf590e245ec8b6d41c193a5dcacad8986ae4eb57ac9e5be7b6af031906114f0908390613cae565b600e6020526000908152604090205460ff1681565b6000818152600d602090815260408083205491839052822060090154600160a060020a0390811691161415611d7c57506001610da7565b506000610da7565b3360009081526005602052604090205460ff1615611da157600080fd5b3360008181526005602090815260408083208054600160ff199182168117909255600684528285208054909116821790556016805482019055815160e0810183528581528084018c81528184018c9052606082018b9052608082018a905260a0820189905260c0820188905295855260028452919093208151815473ffffffffffffffffffffffffffffffffffffffff1916600160a060020a0390911617815593518051919493611e589390850192910190613527565b506040820151600282015560608201518051611e7e916003840191602090910190613527565b5060808201518051611e9a916004840191602090910190613527565b5060a08201518051611eb6916005840191602090910190613527565b5060c08201518051611ed2916006840191602090910190613527565b5050601280546001810182556000919091527fbb8a6a4669ba250d26cd7a459eca9d215f8307e33aebe50379bc5a3617ec344401805473ffffffffffffffffffffffffffffffffffffffff1916339081179091556040517f478f5152d8fc568db3f8de9fb402fd9d98a1a7541ecfe434e59cf574fbfc55249250611f569190613cbc565b60405180910390a1505050505050565b60155481565b600b6020526000908152604090205460ff1681565b60165481565b600d60205260009081526040902054600160a060020a031681565b60076020526000908152604090205460ff1681565b60009081526020819052604090206006015490565b600a6020526000908152604090205460ff1681565b6003602090815260009182526040918290208054600180830180548651600261010094831615949094026000190190911692909204601f8101869004860283018601909652858252600160a060020a0390921694929390929083018282801561208b5780601f106120605761010080835404028352916020019161208b565b820191906000526020600020905b81548152906001019060200180831161206e57829003601f168201915b505050506002838101546003850180546040805160206001841615610100026000190190931695909504601f8101839004830286018301909152808552959692959294509091908301828280156121235780601f106120f857610100808354040283529160200191612123565b820191906000526020600020905b81548152906001019060200180831161210657829003601f168201915b5050505060048301805460408051602060026001851615610100026000190190941693909304601f81018490048402820184019092528181529495949350908301828280156121b35780601f10612188576101008083540402835291602001916121b3565b820191906000526020600020905b81548152906001019060200180831161219657829003601f168201915b5050505060058301805460408051602060026001851615610100026000190190941693909304601f81018490048402820184019092528181529495949350908301828280156122435780601f1061221857610100808354040283529160200191612243565b820191906000526020600020905b81548152906001019060200180831161222657829003601f168201915b5050505060068301805460408051602060026001851615610100026000190190941693909304601f81018490048402820184019092528181529495949350908301828280156122d35780601f106122a8576101008083540402835291602001916122d3565b820191906000526020600020905b8154815290600101906020018083116122b657829003601f168201915b5050505060078301805460408051602060026001851615610100026000190190941693909304601f81018490048402820184019092528181529495949350908301828280156123635780601f1061233857610100808354040283529160200191612363565b820191906000526020600020905b81548152906001019060200180831161234657829003601f168201915b5050505050905088565b60046020526000908152604090208054600182015460028301546003909301549192600160a060020a039182169291169084565b600160a060020a0381166000908152600260208181526040808420808401546001808301805485519281161561010002600019011696909604601f8101869004860282018601909452838152606096958795869586958695939460038201936004830193600584019360060192918891908301828280156124635780601f1061243857610100808354040283529160200191612463565b820191906000526020600020905b81548152906001019060200180831161244657829003601f168201915b5050875460408051602060026001851615610100026000190190941693909304601f8101849004840282018401909252818152959b50899450925084019050828280156124f15780601f106124c6576101008083540402835291602001916124f1565b820191906000526020600020905b8154815290600101906020018083116124d457829003601f168201915b5050865460408051602060026001851615610100026000190190941693909304601f81018490048402820184019092528181529599508894509250840190508282801561257f5780601f106125545761010080835404028352916020019161257f565b820191906000526020600020905b81548152906001019060200180831161256257829003601f168201915b5050855460408051602060026001851615610100026000190190941693909304601f81018490048402820184019092528181529598508794509250840190508282801561260d5780601f106125e25761010080835404028352916020019161260d565b820191906000526020600020905b8154815290600101906020018083116125f057829003601f168201915b5050845460408051602060026001851615610100026000190190941693909304601f81018490048402820184019092528181529597508694509250840190508282801561269b5780601f106126705761010080835404028352916020019161269b565b820191906000526020600020905b81548152906001019060200180831161267e57829003601f168201915b5050505050905095509550955095509550955091939550919395565b600160a060020a03811660009081526008602052604081205460ff16806111915750600160a060020a0382166000908152600a602052604090205460ff1615610da757506001610da7565b60175481565b61271133612e8b565b61271a57600080fd5b6000918252600d60208181526040808520805486845291909520600901805473ffffffffffffffffffffffffffffffffffffffff19908116600160a060020a039384161790915592909152835492169116179055565b600160a060020a03811660009081526005602052604081205460ff1615610da757506001610da7565b3360009081526005602052604090205460ff1680156127ce575033600081815260026020526040902054600160a060020a0316145b6127d757600080fd5b33600090815260026020908152604090912086516127fd92600190920191880190613527565b50336000908152600260208181526040909220908101869055845161282a92600390920191860190613527565b50336000908152600260209081526040909120835161285192600490920191850190613527565b50336000908152600260209081526040909120825161287892600590920191840190613527565b505050505050565b60008181526010602052604081205460ff1615610da757506001610da7565b601281815481106128ac57fe5b600091825260209091200154600160a060020a0316905081565b6128cf33612e8b565b6128d857600080fd5b600160a060020a03811660009081526008602090815260408083208054600160ff199182168117909255600a9093529281902080549092169092179055517f6a6455914f452787eb3985452aceedc1000fb545e394eb3b370e3d08958e0a5b906114f0908390613cae565b600081815260208181526040918290206002908101805484516001821615610100026000190190911692909204601f81018490048402830184019094528382526060939192909190830182828015610fbd5780601f10610f9257610100808354040283529160200191610fbd565b6129ba3361334c565b80156129ca57506129ca336126b7565b6129d357600080fd5b6000908152600e60205260409020805460ff19166001179055565b6060601280548060200260200160405190810160405280929190818152602001828054801561140a57602002820191906000526020600020908154600160a060020a031681526001909101906020018083116113ec575050505050905090565b60165490565b6002602081815260009283526040928390208054600180830180548751601f60001994831615610100029490940190911696909604918201859004850286018501909652808552600160a060020a0390911694919392830182828015612afb5780601f10612ad057610100808354040283529160200191612afb565b820191906000526020600020905b815481529060010190602001808311612ade57829003601f168201915b505050506002838101546003850180546040805160206001841615610100026000190190931695909504601f810183900483028601830190915280855295969295929450909190830182828015612b935780601f10612b6857610100808354040283529160200191612b93565b820191906000526020600020905b815481529060010190602001808311612b7657829003601f168201915b5050505060048301805460408051602060026001851615610100026000190190941693909304601f8101849004840282018401909252818152949594935090830182828015612c235780601f10612bf857610100808354040283529160200191612c23565b820191906000526020600020905b815481529060010190602001808311612c0657829003601f168201915b5050505060058301805460408051602060026001851615610100026000190190941693909304601f8101849004840282018401909252818152949594935090830182828015612cb35780601f10612c8857610100808354040283529160200191612cb3565b820191906000526020600020905b815481529060010190602001808311612c9657829003601f168201915b5050505060068301805460408051602060026001851615610100026000190190941693909304601f8101849004840282018401909252818152949594935090830182828015612d435780601f10612d1857610100808354040283529160200191612d43565b820191906000526020600020905b815481529060010190602001808311612d2657829003601f168201915b5050505050905087565b600160208181526000928352604092839020805481840180548651600296821615610100026000190190911695909504601f81018590048502860185019096528585529094919392909190830182828015612de95780601f10612dbe57610100808354040283529160200191612de9565b820191906000526020600020905b815481529060010190602001808311612dcc57829003601f168201915b505050506002838101546003850180546040805160206001841615610100026000190190931695909504601f810183900483028601830190915280855295969295929450909190830182828015612e815780601f10612e5657610100808354040283529160200191612e81565b820191906000526020600020905b815481529060010190602001808311612e6457829003601f168201915b5050505050905084565b601154600090600160a060020a0383811691161415611d7c57506001610da7565b612eb533612e8b565b612ebe57600080fd5b600160a060020a03811660009081526009602090815260408083208054600160ff199182168117909255600b9093529281902080549092169092179055517faf77f8960cf590e245ec8b6d41c193a5dcacad8986ae4eb57ac9e5be7b6af031906114f0908390613cae565b6000602081815291815260409081902080546001808301546002808501805487519481161561010002600019011691909104601f81018890048802840188019096528583529295909491929190830182828015612fc75780601f10612f9c57610100808354040283529160200191612fc7565b820191906000526020600020905b815481529060010190602001808311612faa57829003601f168201915b5050505060038301805460408051602060026001851615610100026000190190941693909304601f81018490048402820184019092528181529495949350908301828280156130575780601f1061302c57610100808354040283529160200191613057565b820191906000526020600020905b81548152906001019060200180831161303a57829003601f168201915b505050600484015460058501546006860154600787018054604080516020601f600260001961010060018816150201909516949094049384018190048102820181019092528281529899959894975092955090918301828280156130fc5780601f106130d1576101008083540402835291602001916130fc565b820191906000526020600020905b8154815290600101906020018083116130df57829003601f168201915b5050505060088301805460408051602060026001851615610100026000190190941693909304601f810184900484028201840190925281815294959493509083018282801561318c5780601f106131615761010080835404028352916020019161318c565b820191906000526020600020905b81548152906001019060200180831161316f57829003601f168201915b50505060099093015491925050600160a060020a03168a565b60086020526000908152604090205460ff1681565b6131c33361334c565b80156131d357506131d3336126b7565b6131dc57600080fd5b60148054600190810191829055604080516101408101825283815260208082018d81528284018d8152606084018d9052608084018c905260a084018b905260c084018a905260e08401899052610100840188905233610120850152600096875286835293909520825181559451938501939093559051805191939261326992600285019290910190613527565b5060608201518051613285916003840191602090910190613527565b506080820151600482015560a0820151600582015560c0820151600682015560e082015180516132bf916007840191602090910190613527565b5061010082015180516132dc916008840191602090910190613527565b50610120919091015160099091018054600160a060020a0390921673ffffffffffffffffffffffffffffffffffffffff199283161790556014546000908152600d602052604090208054909116331790555050505050505050565b60009081526020819052604090206004015490565b600160a060020a03811660009081526006602052604081205460ff1615610da757506001610da7565b60175490565b601381815481106128ac57fe5b600090815260046020908152604080832060018101546002820154600390920154600e9094529190932054600160a060020a0391821694919093169260ff1690565b6133d333610fc9565b80156133e357506133e3336126b7565b6133ec57600080fd5b60188054600190810180835560408051608081018252828152600160a060020a03808816602080840191825233848601908152606085018a8152600097885260048352868820955186559251858901805491861673ffffffffffffffffffffffffffffffffffffffff199283161790559051600286018054919095169116179092555160039092019190915584548352600e8152818320805460ff1990811690915594548352600f9052908190208054909316909117909155517fc67eb70629da758128cec22f7e36ad0676066ad4df9b66e8ba58a30c1ab4075b906134d3908490613cae565b60405180910390a15050565b60056020526000908152604090205460ff1681565b6134fd33612e8b565b61350657600080fd5b6000908152600c60205260409020805460ff19166001179055565b60185481565b828054600181600116156101000203166002900490600052602060002090601f016020900481019282601f1061356857805160ff1916838001178555613595565b82800160010185558215613595579182015b8281111561359557825182559160200191906001019061357a565b506135a19291506135a5565b5090565b610edf91905b808211156135a157600081556001016135ab565b80356135ca81614179565b92915050565b600082601f8301126135e157600080fd5b81356135f46135ef826140cb565b6140a4565b9150808252602083016020830185838301111561361057600080fd5b61361b838284614133565b50505092915050565b80356135ca81614190565b60006020828403121561364157600080fd5b600061364d84846135bf565b949350505050565b6000806040838503121561366857600080fd5b600061367485856135bf565b925050602061368585828601613624565b9150509250929050565b600080600080600060a086880312156136a757600080fd5b853567ffffffffffffffff8111156136be57600080fd5b6136ca888289016135d0565b95505060206136db88828901613624565b945050604086013567ffffffffffffffff8111156136f857600080fd5b613704888289016135d0565b935050606086013567ffffffffffffffff81111561372157600080fd5b61372d888289016135d0565b925050608086013567ffffffffffffffff81111561374a57600080fd5b613756888289016135d0565b9150509295509295909350565b60008060008060008060c0878903121561377c57600080fd5b863567ffffffffffffffff81111561379357600080fd5b61379f89828a016135d0565b96505060206137b089828a01613624565b955050604087013567ffffffffffffffff8111156137cd57600080fd5b6137d989828a016135d0565b945050606087013567ffffffffffffffff8111156137f657600080fd5b61380289828a016135d0565b935050608087013567ffffffffffffffff81111561381f57600080fd5b61382b89828a016135d0565b92505060a087013567ffffffffffffffff81111561384857600080fd5b61385489828a016135d0565b9150509295509295509295565b600080600080600080600060e0888a03121561387c57600080fd5b873567ffffffffffffffff81111561389357600080fd5b61389f8a828b016135d0565b97505060206138b08a828b01613624565b965050604088013567ffffffffffffffff8111156138cd57600080fd5b6138d98a828b016135d0565b955050606088013567ffffffffffffffff8111156138f657600080fd5b6139028a828b016135d0565b945050608088013567ffffffffffffffff81111561391f57600080fd5b61392b8a828b016135d0565b93505060a088013567ffffffffffffffff81111561394857600080fd5b6139548a828b016135d0565b92505060c088013567ffffffffffffffff81111561397157600080fd5b61397d8a828b016135d0565b91505092959891949750929550565b600080600080600080600080610100898b0312156139a957600080fd5b883567ffffffffffffffff8111156139c057600080fd5b6139cc8b828c016135d0565b98505060206139dd8b828c01613624565b975050604089013567ffffffffffffffff8111156139fa57600080fd5b613a068b828c016135d0565b965050606089013567ffffffffffffffff811115613a2357600080fd5b613a2f8b828c016135d0565b955050608089013567ffffffffffffffff811115613a4c57600080fd5b613a588b828c016135d0565b94505060a089013567ffffffffffffffff811115613a7557600080fd5b613a818b828c016135d0565b93505060c089013567ffffffffffffffff811115613a9e57600080fd5b613aaa8b828c016135d0565b92505060e089013567ffffffffffffffff811115613ac757600080fd5b613ad38b828c016135d0565b9150509295985092959890939650565b600060208284031215613af557600080fd5b600061364d8484613624565b60008060408385031215613b1457600080fd5b6000613b208585613624565b9250506020613685858286016135bf565b600080600080600080600080610100898b031215613b4e57600080fd5b6000613b5a8b8b613624565b985050602089013567ffffffffffffffff811115613b7757600080fd5b613b838b828c016135d0565b975050604089013567ffffffffffffffff811115613ba057600080fd5b613bac8b828c016135d0565b9650506060613bbd8b828c01613624565b9550506080613bce8b828c01613624565b94505060a0613a818b828c01613624565b6000613beb8383613c02565b505060200190565b613bfc81614122565b82525050565b613bfc81614106565b6000613c16826140f9565b613c2081856140fd565b9350613c2b836140f3565b8060005b83811015613c59578151613c438882613bdf565b9750613c4e836140f3565b925050600101613c2f565b509495945050505050565b613bfc81614111565b6000613c78826140f9565b613c8281856140fd565b9350613c9281856020860161413f565b613c9b8161416f565b9093019392505050565b613bfc81610edf565b602081016135ca8284613c02565b602081016135ca8284613bf3565b60808101613cd88287613c02565b613ce56020830186613c02565b613cf26040830185613ca5565b613cff6060830184613c64565b95945050505050565b60e08101613d16828a613c02565b8181036020830152613d288189613c6d565b9050613d376040830188613ca5565b8181036060830152613d498187613c6d565b90508181036080830152613d5d8186613c6d565b905081810360a0830152613d718185613c6d565b905081810360c0830152613d858184613c6d565b9998505050505050505050565b6101008101613da1828b613c02565b8181036020830152613db3818a613c6d565b9050613dc26040830189613ca5565b8181036060830152613dd48188613c6d565b90508181036080830152613de88187613c6d565b905081810360a0830152613dfc8186613c6d565b905081810360c0830152613e108185613c6d565b905081810360e0830152613e248184613c6d565b9a9950505050505050505050565b60208082528101613e438184613c0b565b9392505050565b602081016135ca8284613c64565b60208082528101613e438184613c6d565b60e08082528101613e7a818a613c6d565b90508181036020830152613e8e8189613c6d565b90508181036040830152613ea28188613c6d565b90508181036060830152613eb68187613c6d565b90508181036080830152613eca8186613c6d565b9050613ed960a0830185613ca5565b81810360c0830152613d858184613c6d565b60c08082528101613efc8189613c6d565b9050613f0b6020830188613ca5565b8181036040830152613f1d8187613c6d565b90508181036060830152613f318186613c6d565b90508181036080830152613f458185613c6d565b905081810360a0830152613f598184613c6d565b98975050505050505050565b602081016135ca8284613ca5565b60808101613f818287613ca5565b613f8e6020830186613c02565b613f9b6040830185613c02565b613cff6060830184613ca5565b60808101613fb68287613ca5565b8181036020830152613fc88186613c6d565b9050613fd76040830185613ca5565b8181036060830152613fe98184613c6d565b9695505050505050565b6101408101614002828d613ca5565b61400f602083018c613ca5565b8181036040830152614021818b613c6d565b90508181036060830152614035818a613c6d565b90506140446080830189613ca5565b61405160a0830188613ca5565b61405e60c0830187613ca5565b81810360e08301526140708186613c6d565b90508181036101008301526140858185613c6d565b9050614095610120830184613c02565b9b9a5050505050505050505050565b60405181810167ffffffffffffffff811182821017156140c357600080fd5b604052919050565b600067ffffffffffffffff8211156140e257600080fd5b506020601f91909101601f19160190565b60200190565b5190565b90815260200190565b60006135ca82614116565b151590565b600160a060020a031690565b60006135ca8260006135ca82614106565b82818337506000910152565b60005b8381101561415a578181015183820152602001614142565b83811115614169576000848401525b50505050565b601f01601f191690565b61418281614106565b811461418d57600080fd5b50565b61418281610edf56fea365627a7a72315820cc452bc9a301f4e1337024bea8220561bcb88a6a9c5d08141a8ce16c034cacd26c6578706572696d656e74616cf564736f6c63430005100040",
  "source": "pragma solidity >=0.5.2;\npragma experimental ABIEncoderV2;\n\ncontract Land {\n    struct Landreg {\n        uint256 id;\n        uint256 area;\n        string city;\n        string state;\n        uint256 landPrice;\n        uint256 propertyPID;\n        uint256 physicalSurveyNumber;\n        string ipfsHash;\n        string document;\n        address old_owner;\n    }\n\n    struct Buyer {\n        address id;\n        string name;\n        uint256 age;\n        string city;\n        string aadharNumber;\n        string panNumber;\n        string document;\n        string email;\n    }\n\n    struct Seller {\n        address id;\n        string name;\n        uint256 age;\n        string aadharNumber;\n        string panNumber;\n        string landsOwned;\n        string document;\n    }\n\n    struct LandInspector {\n        uint256 id;\n        string name;\n        uint256 age;\n        string designation;\n    }\n\n    struct LandRequest {\n        uint256 reqId;\n        address sellerId;\n        address buyerId;\n        uint256 landId;\n        // bool requestStatus;\n        // bool requested;\n    }\n\n    //key value pairs\n    mapping(uint256 => Landreg) public lands;\n    mapping(uint256 => LandInspector) public InspectorMapping;\n    mapping(address => Seller) public SellerMapping;\n    mapping(address => Buyer) public BuyerMapping;\n    mapping(uint256 => LandRequest) public RequestsMapping;\n\n    mapping(address => bool) public RegisteredAddressMapping;\n    mapping(address => bool) public RegisteredSellerMapping;\n    mapping(address => bool) public RegisteredBuyerMapping;\n    mapping(address => bool) public SellerVerification;\n    mapping(address => bool) public SellerRejection;\n    mapping(address => bool) public BuyerVerification;\n    mapping(address => bool) public BuyerRejection;\n    mapping(uint256 => bool) public LandVerification;\n    mapping(uint256 => address) public LandOwner;\n    mapping(uint256 => bool) public RequestStatus;\n    mapping(uint256 => bool) public RequestedLands;\n    mapping(uint256 => bool) public PaymentReceived;\n\n    address public Land_Inspector;\n    address[] public sellers;\n    address[] public buyers;\n\n    uint256 public landsCount;\n    uint256 public inspectorsCount;\n    uint256 public sellersCount;\n    uint256 public buyersCount;\n    uint256 public requestsCount;\n\n    event Registration(address _registrationId);\n    event AddingLand(uint256 indexed _landId);\n    event Landrequested(address _sellerId);\n    event requestApproved(address _buyerId);\n    event Verified(address _id);\n    event Rejected(address _id);\n\n    constructor() public {\n        Land_Inspector = msg.sender;\n        addLandInspector(\"Inspector 1\", 45, \"Tehsil Manager\");\n    }\n\n        function getPrevious(uint i) public view returns (string memory){\n        return SellerMapping[lands[i].old_owner].name;\n    }\n\n    function isSame(uint i) public view returns (bool){\n        if(lands[i].old_owner==LandOwner[i])\n            return true;\n        else return false;\n    }\n\n    // function getDate(uint i) public view returns (uint){\n    //     return lands[i].date;\n    // }\n\n    function addLandInspector(\n        string memory _name,\n        uint256 _age,\n        string memory _designation\n    ) private {\n        inspectorsCount++;\n        InspectorMapping[inspectorsCount] = LandInspector(\n            inspectorsCount,\n            _name,\n            _age,\n            _designation\n        );\n    }\n\n    function getLandsCount() public view returns (uint256) {\n        return landsCount;\n    }\n\n    function getBuyersCount() public view returns (uint256) {\n        return buyersCount;\n    }\n\n    function getSellersCount() public view returns (uint256) {\n        return sellersCount;\n    }\n\n    function getRequestsCount() public view returns (uint256) {\n        return requestsCount;\n    }\n\n    function getArea(uint256 i) public view returns (uint256) {\n        return lands[i].area;\n    }\n\n    function getCity(uint256 i) public view returns (string memory) {\n        return lands[i].city;\n    }\n\n    function getState(uint256 i) public view returns (string memory) {\n        return lands[i].state;\n    }\n\n    // function getStatus(uint i) public view returns (bool) {\n    //     return lands[i].verificationStatus;\n    // }\n    function getPrice(uint256 i) public view returns (uint256) {\n        return lands[i].landPrice;\n    }\n\n    function getPID(uint256 i) public view returns (uint256) {\n        return lands[i].propertyPID;\n    }\n\n    function getSurveyNumber(uint256 i) public view returns (uint256) {\n        return lands[i].physicalSurveyNumber;\n    }\n\n    function getImage(uint256 i) public view returns (string memory) {\n        return lands[i].ipfsHash;\n    }\n\n    function getDocument(uint256 i) public view returns (string memory) {\n        return lands[i].document;\n    }\n\n    function getLandOwner(uint256 id) public view returns (address) {\n        return LandOwner[id];\n    }\n\n    function verifySeller(address _sellerId) public {\n        require(isLandInspector(msg.sender));\n\n        SellerVerification[_sellerId] = true;\n        BuyerVerification[_sellerId] = true;\n        emit Verified(_sellerId);\n    }\n\n    function rejectSeller(address _sellerId) public {\n        require(isLandInspector(msg.sender));\n\n        SellerRejection[_sellerId] = true;\n        BuyerRejection[_sellerId] = true;\n        emit Rejected(_sellerId);\n    }\n\n    function verifyBuyer(address _buyerId) public {\n        require(isLandInspector(msg.sender));\n\n        BuyerVerification[_buyerId] = true;\n        emit Verified(_buyerId);\n    }\n\n    function rejectBuyer(address _buyerId) public {\n        require(isLandInspector(msg.sender));\n\n        BuyerRejection[_buyerId] = true;\n        emit Rejected(_buyerId);\n    }\n\n    function verifyLand(uint256 _landId) public {\n        require(isLandInspector(msg.sender));\n\n        LandVerification[_landId] = true;\n    }\n\n    function isLandVerified(uint256 _id) public view returns (bool) {\n        if (LandVerification[_id]) {\n            return true;\n        }\n    }\n\n    function isVerified(address _id) public view returns (bool) {\n        if (SellerVerification[_id] || BuyerVerification[_id]) {\n            return true;\n        }\n    }\n\n    function isRejected(address _id) public view returns (bool) {\n        if (SellerRejection[_id] || BuyerRejection[_id]) {\n            return true;\n        }\n    }\n\n    function isSeller(address _id) public view returns (bool) {\n        if (RegisteredSellerMapping[_id]) {\n            return true;\n        }\n    }\n\n    function isLandInspector(address _id) public view returns (bool) {\n        if (Land_Inspector == _id) {\n            return true;\n        } else {\n            return false;\n        }\n    }\n\n    function isBuyer(address _id) public view returns (bool) {\n        if (RegisteredBuyerMapping[_id]) {\n            return true;\n        }\n    }\n\n    function isRegistered(address _id) public view returns (bool) {\n        if (RegisteredAddressMapping[_id]) {\n            return true;\n        }\n    }\n\n        function addLand(uint _area, string memory _city,string memory _state, uint landPrice, uint _propertyPID,uint _surveyNum,string memory _ipfsHash, string memory _document) public {\n        require((isSeller(msg.sender)) && (isVerified(msg.sender)));\n        landsCount++;\n        lands[landsCount] = Landreg(landsCount, _area, _city, _state, landPrice,_propertyPID, _surveyNum, _ipfsHash, _document,msg.sender);\n        LandOwner[landsCount] = msg.sender;\n        // emit AddingLand(landsCount);\n    }\n\n    //registration of seller\n    function registerSeller(\n        string memory _name,\n        uint256 _age,\n        string memory _aadharNumber,\n        string memory _panNumber,\n        string memory _landsOwned,\n        string memory _document\n    ) public {\n        //require that Seller is not already registered\n        require(!RegisteredAddressMapping[msg.sender]);\n\n        RegisteredAddressMapping[msg.sender] = true;\n        RegisteredSellerMapping[msg.sender] = true;\n        sellersCount++;\n        SellerMapping[msg.sender] = Seller(\n            msg.sender,\n            _name,\n            _age,\n            _aadharNumber,\n            _panNumber,\n            _landsOwned,\n            _document\n        );\n        sellers.push(msg.sender);\n        emit Registration(msg.sender);\n    }\n\n    function updateSeller(\n        string memory _name,\n        uint256 _age,\n        string memory _aadharNumber,\n        string memory _panNumber,\n        string memory _landsOwned\n    ) public {\n        //require that Seller is already registered\n        require(\n            RegisteredAddressMapping[msg.sender] &&\n                (SellerMapping[msg.sender].id == msg.sender)\n        );\n\n        SellerMapping[msg.sender].name = _name;\n        SellerMapping[msg.sender].age = _age;\n        SellerMapping[msg.sender].aadharNumber = _aadharNumber;\n        SellerMapping[msg.sender].panNumber = _panNumber;\n        SellerMapping[msg.sender].landsOwned = _landsOwned;\n    }\n\n    function getSeller() public view returns (address[] memory) {\n        return (sellers);\n    }\n\n    function getSellerDetails(address i)\n        public\n        view\n        returns (\n            string memory,\n            uint256,\n            string memory,\n            string memory,\n            string memory,\n            string memory\n        )\n    {\n        return (\n            SellerMapping[i].name,\n            SellerMapping[i].age,\n            SellerMapping[i].aadharNumber,\n            SellerMapping[i].panNumber,\n            SellerMapping[i].landsOwned,\n            SellerMapping[i].document\n        );\n    }\n\n    function registerBuyer(\n        string memory _name,\n        uint256 _age,\n        string memory _city,\n        string memory _aadharNumber,\n        string memory _panNumber,\n        string memory _document,\n        string memory _email\n    ) public {\n        //require that Buyer is not already registered\n        // require(!RegisteredAddressMapping[msg.sender]);\n\n        RegisteredAddressMapping[msg.sender] = true;\n        RegisteredBuyerMapping[msg.sender] = true;\n        buyersCount++;\n        BuyerMapping[msg.sender] = Buyer(\n            msg.sender,\n            _name,\n            _age,\n            _city,\n            _aadharNumber,\n            _panNumber,\n            _document,\n            _email\n        );\n        buyers.push(msg.sender);\n\n        emit Registration(msg.sender);\n    }\n\n    function registerUser(\n        string memory _name,\n        uint256 _age,\n        string memory _city,\n        string memory _aadharNumber,\n        string memory _panNumber,\n        string memory _landsOwned,\n        string memory _document,\n        string memory _email\n    ) public {\n        // require that Buyer is not already registered\n        require(!RegisteredAddressMapping[msg.sender]);\n\n        RegisteredAddressMapping[msg.sender] = true;\n        RegisteredBuyerMapping[msg.sender] = true;\n        buyersCount++;\n        BuyerMapping[msg.sender] = Buyer(\n            msg.sender,\n            _name,\n            _age,\n            _city,\n            _aadharNumber,\n            _panNumber,\n            _document,\n            _email\n        );\n        buyers.push(msg.sender);\n        RegisteredSellerMapping[msg.sender] = true;\n        sellersCount++;\n        SellerMapping[msg.sender] = Seller(\n            msg.sender,\n            _name,\n            _age,\n            _aadharNumber,\n            _panNumber,\n            _landsOwned,\n            _document\n        );\n        sellers.push(msg.sender);\n        emit Registration(msg.sender);\n    }\n\n    function updateBuyer(\n        string memory _name,\n        uint256 _age,\n        string memory _city,\n        string memory _aadharNumber,\n        string memory _email,\n        string memory _panNumber\n    ) public {\n        //require that Buyer is already registered\n        require(\n            RegisteredAddressMapping[msg.sender] &&\n                (BuyerMapping[msg.sender].id == msg.sender)\n        );\n\n        BuyerMapping[msg.sender].name = _name;\n        BuyerMapping[msg.sender].age = _age;\n        BuyerMapping[msg.sender].city = _city;\n        BuyerMapping[msg.sender].aadharNumber = _aadharNumber;\n        BuyerMapping[msg.sender].email = _email;\n        BuyerMapping[msg.sender].panNumber = _panNumber;\n    }\n\n    function getBuyer() public view returns (address[] memory) {\n        return (buyers);\n    }\n\n    function getBuyerDetails(address i)\n        public\n        view\n        returns (\n            string memory,\n            string memory,\n            string memory,\n            string memory,\n            string memory,\n            uint256,\n            string memory\n        )\n    {\n        return (\n            BuyerMapping[i].name,\n            BuyerMapping[i].city,\n            BuyerMapping[i].panNumber,\n            BuyerMapping[i].document,\n            BuyerMapping[i].email,\n            BuyerMapping[i].age,\n            BuyerMapping[i].aadharNumber\n        );\n    }\n\n    function requestLand(address _sellerId, uint256 _landId) public {\n        require(isBuyer(msg.sender) && isVerified(msg.sender));\n\n        requestsCount++;\n        RequestsMapping[requestsCount] = LandRequest(\n            requestsCount,\n            _sellerId,\n            msg.sender,\n            _landId\n        );\n        RequestStatus[requestsCount] = false;\n        RequestedLands[requestsCount] = true;\n\n        emit Landrequested(_sellerId);\n    }\n\n    function getRequestDetails(uint256 i)\n        public\n        view\n        returns (\n            address,\n            address,\n            uint256,\n            bool\n        )\n    {\n        return (\n            RequestsMapping[i].sellerId,\n            RequestsMapping[i].buyerId,\n            RequestsMapping[i].landId,\n            RequestStatus[i]\n        );\n    }\n\n    function isRequested(uint256 _id) public view returns (bool) {\n        if (RequestedLands[_id]) {\n            return true;\n        }\n    }\n\n    function isApproved(uint256 _id) public view returns (bool) {\n        if (RequestStatus[_id]) {\n            return true;\n        }\n    }\n\n    function approveRequest(uint256 _reqId) public {\n        require((isSeller(msg.sender)) && (isVerified(msg.sender)));\n\n        RequestStatus[_reqId] = true;\n    }\n\n        function LandOwnershipTransfer(uint _landId, address _newOwner) public{\n        require(isLandInspector(msg.sender));\n        lands[_landId].old_owner=LandOwner[_landId];\n        LandOwner[_landId] = _newOwner;\n    }\n\n    function isPaid(uint256 _landId) public view returns (bool) {\n        if (PaymentReceived[_landId]) {\n            return true;\n        }\n    }\n\n    function payment(address payable _receiver, uint256 _landId)\n        public\n        payable\n    {\n        PaymentReceived[_landId] = true;\n        _receiver.transfer(msg.value);\n    }\n}\n",
  "sourcePath": "/home/alby/Desktop/Land-Locker/contracts/Land.sol",
  "compiler": {
    "name": "solc",
    "version": "0.5.16+commit.9c3226ce.Emscripten.clang"
  },
  "schemaVersion": "3.4.10",
  "updatedAt": "2022-12-03T20:07:18.243Z",
  "networkType": "ethereum",
  "devdoc": {
    "methods": {}
  },
  "userdoc": {
    "methods": {}
  }
}