{
  "contractName": "Land",
  "abi": [
    {
      "inputs": [],
      "payable": false,
      "stateMutability": "nonpayable",
      "type": "constructor"
    },
    {
      "anonymous": false,
      "inputs": [
        {
          "indexed": true,
          "internalType": "uint256",
          "name": "_landId",
          "type": "uint256"
        }
      ],
      "name": "AddingLand",
      "type": "event"
    },
    {
      "anonymous": false,
      "inputs": [
        {
          "indexed": false,
          "internalType": "address",
          "name": "_sellerId",
          "type": "address"
        }
      ],
      "name": "Landrequested",
      "type": "event"
    },
    {
      "anonymous": false,
      "inputs": [
        {
          "indexed": false,
          "internalType": "address",
          "name": "_registrationId",
          "type": "address"
        },
        {
          "indexed": false,
          "internalType": "address",
          "name": "_succ",
          "type": "address"
        }
      ],
      "name": "Registration",
      "type": "event"
    },
    {
      "anonymous": false,
      "inputs": [
        {
          "indexed": false,
          "internalType": "address",
          "name": "_id",
          "type": "address"
        }
      ],
      "name": "Rejected",
      "type": "event"
    },
    {
      "anonymous": false,
      "inputs": [
        {
          "indexed": false,
          "internalType": "address",
          "name": "_Owner",
          "type": "address"
        }
      ],
      "name": "Succession",
      "type": "event"
    },
    {
      "anonymous": false,
      "inputs": [
        {
          "indexed": false,
          "internalType": "address",
          "name": "_id",
          "type": "address"
        }
      ],
      "name": "Verified",
      "type": "event"
    },
    {
      "anonymous": false,
      "inputs": [
        {
          "indexed": false,
          "internalType": "address",
          "name": "_buyerId",
          "type": "address"
        }
      ],
      "name": "requestApproved",
      "type": "event"
    },
    {
      "constant": true,
      "inputs": [
        {
          "internalType": "address",
          "name": "",
          "type": "address"
        }
      ],
      "name": "BuyerMapping",
      "outputs": [
        {
          "internalType": "address",
          "name": "id",
          "type": "address"
        },
        {
          "internalType": "string",
          "name": "name",
          "type": "string"
        },
        {
          "internalType": "uint256",
          "name": "age",
          "type": "uint256"
        },
        {
          "internalType": "string",
          "name": "city",
          "type": "string"
        },
        {
          "internalType": "string",
          "name": "aadharNumber",
          "type": "string"
        },
        {
          "internalType": "string",
          "name": "panNumber",
          "type": "string"
        },
        {
          "internalType": "string",
          "name": "document",
          "type": "string"
        },
        {
          "internalType": "string",
          "name": "email",
          "type": "string"
        }
      ],
      "payable": false,
      "stateMutability": "view",
      "type": "function"
    },
    {
      "constant": true,
      "inputs": [
        {
          "internalType": "address",
          "name": "",
          "type": "address"
        }
      ],
      "name": "BuyerRejection",
      "outputs": [
        {
          "internalType": "bool",
          "name": "",
          "type": "bool"
        }
      ],
      "payable": false,
      "stateMutability": "view",
      "type": "function"
    },
    {
      "constant": true,
      "inputs": [
        {
          "internalType": "address",
          "name": "",
          "type": "address"
        }
      ],
      "name": "BuyerVerification",
      "outputs": [
        {
          "internalType": "bool",
          "name": "",
          "type": "bool"
        }
      ],
      "payable": false,
      "stateMutability": "view",
      "type": "function"
    },
    {
      "constant": true,
      "inputs": [
        {
          "internalType": "uint256",
          "name": "",
          "type": "uint256"
        }
      ],
      "name": "InspectorMapping",
      "outputs": [
        {
          "internalType": "uint256",
          "name": "id",
          "type": "uint256"
        },
        {
          "internalType": "string",
          "name": "name",
          "type": "string"
        },
        {
          "internalType": "uint256",
          "name": "age",
          "type": "uint256"
        },
        {
          "internalType": "string",
          "name": "designation",
          "type": "string"
        }
      ],
      "payable": false,
      "stateMutability": "view",
      "type": "function"
    },
    {
      "constant": true,
      "inputs": [
        {
          "internalType": "uint256",
          "name": "",
          "type": "uint256"
        }
      ],
      "name": "LandOwner",
      "outputs": [
        {
          "internalType": "address",
          "name": "",
          "type": "address"
        }
      ],
      "payable": false,
      "stateMutability": "view",
      "type": "function"
    },
    {
      "constant": true,
      "inputs": [
        {
          "internalType": "uint256",
          "name": "",
          "type": "uint256"
        }
      ],
      "name": "LandVerification",
      "outputs": [
        {
          "internalType": "bool",
          "name": "",
          "type": "bool"
        }
      ],
      "payable": false,
      "stateMutability": "view",
      "type": "function"
    },
    {
      "constant": true,
      "inputs": [],
      "name": "Land_Inspector",
      "outputs": [
        {
          "internalType": "address",
          "name": "",
          "type": "address"
        }
      ],
      "payable": false,
      "stateMutability": "view",
      "type": "function"
    },
    {
      "constant": true,
      "inputs": [
        {
          "internalType": "uint256",
          "name": "",
          "type": "uint256"
        }
      ],
      "name": "PaymentReceived",
      "outputs": [
        {
          "internalType": "bool",
          "name": "",
          "type": "bool"
        }
      ],
      "payable": false,
      "stateMutability": "view",
      "type": "function"
    },
    {
      "constant": true,
      "inputs": [
        {
          "internalType": "address",
          "name": "",
          "type": "address"
        }
      ],
      "name": "RegisteredAddressMapping",
      "outputs": [
        {
          "internalType": "bool",
          "name": "",
          "type": "bool"
        }
      ],
      "payable": false,
      "stateMutability": "view",
      "type": "function"
    },
    {
      "constant": true,
      "inputs": [
        {
          "internalType": "address",
          "name": "",
          "type": "address"
        }
      ],
      "name": "RegisteredBuyerMapping",
      "outputs": [
        {
          "internalType": "bool",
          "name": "",
          "type": "bool"
        }
      ],
      "payable": false,
      "stateMutability": "view",
      "type": "function"
    },
    {
      "constant": true,
      "inputs": [
        {
          "internalType": "address",
          "name": "",
          "type": "address"
        }
      ],
      "name": "RegisteredSellerMapping",
      "outputs": [
        {
          "internalType": "bool",
          "name": "",
          "type": "bool"
        }
      ],
      "payable": false,
      "stateMutability": "view",
      "type": "function"
    },
    {
      "constant": true,
      "inputs": [
        {
          "internalType": "uint256",
          "name": "",
          "type": "uint256"
        }
      ],
      "name": "RequestStatus",
      "outputs": [
        {
          "internalType": "bool",
          "name": "",
          "type": "bool"
        }
      ],
      "payable": false,
      "stateMutability": "view",
      "type": "function"
    },
    {
      "constant": true,
      "inputs": [
        {
          "internalType": "uint256",
          "name": "",
          "type": "uint256"
        }
      ],
      "name": "RequestedLands",
      "outputs": [
        {
          "internalType": "bool",
          "name": "",
          "type": "bool"
        }
      ],
      "payable": false,
      "stateMutability": "view",
      "type": "function"
    },
    {
      "constant": true,
      "inputs": [
        {
          "internalType": "uint256",
          "name": "",
          "type": "uint256"
        }
      ],
      "name": "RequestsMapping",
      "outputs": [
        {
          "internalType": "uint256",
          "name": "reqId",
          "type": "uint256"
        },
        {
          "internalType": "address",
          "name": "sellerId",
          "type": "address"
        },
        {
          "internalType": "address",
          "name": "buyerId",
          "type": "address"
        },
        {
          "internalType": "uint256",
          "name": "landId",
          "type": "uint256"
        }
      ],
      "payable": false,
      "stateMutability": "view",
      "type": "function"
    },
    {
      "constant": true,
      "inputs": [
        {
          "internalType": "address",
          "name": "",
          "type": "address"
        }
      ],
      "name": "SellerMapping",
      "outputs": [
        {
          "internalType": "address",
          "name": "id",
          "type": "address"
        },
        {
          "internalType": "string",
          "name": "name",
          "type": "string"
        },
        {
          "internalType": "uint256",
          "name": "age",
          "type": "uint256"
        },
        {
          "internalType": "string",
          "name": "aadharNumber",
          "type": "string"
        },
        {
          "internalType": "string",
          "name": "panNumber",
          "type": "string"
        },
        {
          "internalType": "string",
          "name": "landsOwned",
          "type": "string"
        },
        {
          "internalType": "string",
          "name": "document",
          "type": "string"
        }
      ],
      "payable": false,
      "stateMutability": "view",
      "type": "function"
    },
    {
      "constant": true,
      "inputs": [
        {
          "internalType": "address",
          "name": "",
          "type": "address"
        }
      ],
      "name": "SellerRejection",
      "outputs": [
        {
          "internalType": "bool",
          "name": "",
          "type": "bool"
        }
      ],
      "payable": false,
      "stateMutability": "view",
      "type": "function"
    },
    {
      "constant": true,
      "inputs": [
        {
          "internalType": "address",
          "name": "",
          "type": "address"
        }
      ],
      "name": "SellerVerification",
      "outputs": [
        {
          "internalType": "bool",
          "name": "",
          "type": "bool"
        }
      ],
      "payable": false,
      "stateMutability": "view",
      "type": "function"
    },
    {
      "constant": true,
      "inputs": [
        {
          "internalType": "uint256",
          "name": "",
          "type": "uint256"
        }
      ],
      "name": "buyers",
      "outputs": [
        {
          "internalType": "address",
          "name": "",
          "type": "address"
        }
      ],
      "payable": false,
      "stateMutability": "view",
      "type": "function"
    },
    {
      "constant": true,
      "inputs": [],
      "name": "buyersCount",
      "outputs": [
        {
          "internalType": "uint256",
          "name": "",
          "type": "uint256"
        }
      ],
      "payable": false,
      "stateMutability": "view",
      "type": "function"
    },
    {
      "constant": true,
      "inputs": [],
      "name": "inspectorsCount",
      "outputs": [
        {
          "internalType": "uint256",
          "name": "",
          "type": "uint256"
        }
      ],
      "payable": false,
      "stateMutability": "view",
      "type": "function"
    },
    {
      "constant": true,
      "inputs": [
        {
          "internalType": "uint256",
          "name": "",
          "type": "uint256"
        }
      ],
      "name": "lands",
      "outputs": [
        {
          "internalType": "uint256",
          "name": "id",
          "type": "uint256"
        },
        {
          "internalType": "uint256",
          "name": "area",
          "type": "uint256"
        },
        {
          "internalType": "string",
          "name": "city",
          "type": "string"
        },
        {
          "internalType": "string",
          "name": "state",
          "type": "string"
        },
        {
          "internalType": "uint256",
          "name": "landPrice",
          "type": "uint256"
        },
        {
          "internalType": "uint256",
          "name": "propertyPID",
          "type": "uint256"
        },
        {
          "internalType": "uint256",
          "name": "physicalSurveyNumber",
          "type": "uint256"
        },
        {
          "internalType": "string",
          "name": "ipfsHash",
          "type": "string"
        },
        {
          "internalType": "string",
          "name": "document",
          "type": "string"
        },
        {
          "internalType": "address",
          "name": "old_owner",
          "type": "address"
        }
      ],
      "payable": false,
      "stateMutability": "view",
      "type": "function"
    },
    {
      "constant": true,
      "inputs": [],
      "name": "landsCount",
      "outputs": [
        {
          "internalType": "uint256",
          "name": "",
          "type": "uint256"
        }
      ],
      "payable": false,
      "stateMutability": "view",
      "type": "function"
    },
    {
      "constant": true,
      "inputs": [],
      "name": "requestsCount",
      "outputs": [
        {
          "internalType": "uint256",
          "name": "",
          "type": "uint256"
        }
      ],
      "payable": false,
      "stateMutability": "view",
      "type": "function"
    },
    {
      "constant": true,
      "inputs": [
        {
          "internalType": "uint256",
          "name": "",
          "type": "uint256"
        }
      ],
      "name": "sellers",
      "outputs": [
        {
          "internalType": "address",
          "name": "",
          "type": "address"
        }
      ],
      "payable": false,
      "stateMutability": "view",
      "type": "function"
    },
    {
      "constant": true,
      "inputs": [],
      "name": "sellersCount",
      "outputs": [
        {
          "internalType": "uint256",
          "name": "",
          "type": "uint256"
        }
      ],
      "payable": false,
      "stateMutability": "view",
      "type": "function"
    },
    {
      "constant": true,
      "inputs": [
        {
          "internalType": "address",
          "name": "",
          "type": "address"
        }
      ],
      "name": "successors",
      "outputs": [
        {
          "internalType": "address",
          "name": "",
          "type": "address"
        }
      ],
      "payable": false,
      "stateMutability": "view",
      "type": "function"
    },
    {
      "constant": true,
      "inputs": [
        {
          "internalType": "uint256",
          "name": "i",
          "type": "uint256"
        }
      ],
      "name": "getPrevious",
      "outputs": [
        {
          "internalType": "address",
          "name": "",
          "type": "address"
        }
      ],
      "payable": false,
      "stateMutability": "view",
      "type": "function"
    },
    {
      "constant": true,
      "inputs": [
        {
          "internalType": "uint256",
          "name": "i",
          "type": "uint256"
        }
      ],
      "name": "isSame",
      "outputs": [
        {
          "internalType": "bool",
          "name": "",
          "type": "bool"
        }
      ],
      "payable": false,
      "stateMutability": "view",
      "type": "function"
    },
    {
      "constant": true,
      "inputs": [],
      "name": "getLandsCount",
      "outputs": [
        {
          "internalType": "uint256",
          "name": "",
          "type": "uint256"
        }
      ],
      "payable": false,
      "stateMutability": "view",
      "type": "function"
    },
    {
      "constant": true,
      "inputs": [],
      "name": "getBuyersCount",
      "outputs": [
        {
          "internalType": "uint256",
          "name": "",
          "type": "uint256"
        }
      ],
      "payable": false,
      "stateMutability": "view",
      "type": "function"
    },
    {
      "constant": true,
      "inputs": [],
      "name": "getSellersCount",
      "outputs": [
        {
          "internalType": "uint256",
          "name": "",
          "type": "uint256"
        }
      ],
      "payable": false,
      "stateMutability": "view",
      "type": "function"
    },
    {
      "constant": true,
      "inputs": [],
      "name": "getRequestsCount",
      "outputs": [
        {
          "internalType": "uint256",
          "name": "",
          "type": "uint256"
        }
      ],
      "payable": false,
      "stateMutability": "view",
      "type": "function"
    },
    {
      "constant": true,
      "inputs": [
        {
          "internalType": "uint256",
          "name": "i",
          "type": "uint256"
        }
      ],
      "name": "getArea",
      "outputs": [
        {
          "internalType": "uint256",
          "name": "",
          "type": "uint256"
        }
      ],
      "payable": false,
      "stateMutability": "view",
      "type": "function"
    },
    {
      "constant": true,
      "inputs": [
        {
          "internalType": "uint256",
          "name": "i",
          "type": "uint256"
        }
      ],
      "name": "getCity",
      "outputs": [
        {
          "internalType": "string",
          "name": "",
          "type": "string"
        }
      ],
      "payable": false,
      "stateMutability": "view",
      "type": "function"
    },
    {
      "constant": true,
      "inputs": [
        {
          "internalType": "uint256",
          "name": "i",
          "type": "uint256"
        }
      ],
      "name": "getState",
      "outputs": [
        {
          "internalType": "string",
          "name": "",
          "type": "string"
        }
      ],
      "payable": false,
      "stateMutability": "view",
      "type": "function"
    },
    {
      "constant": true,
      "inputs": [
        {
          "internalType": "uint256",
          "name": "i",
          "type": "uint256"
        }
      ],
      "name": "getPrice",
      "outputs": [
        {
          "internalType": "uint256",
          "name": "",
          "type": "uint256"
        }
      ],
      "payable": false,
      "stateMutability": "view",
      "type": "function"
    },
    {
      "constant": true,
      "inputs": [
        {
          "internalType": "uint256",
          "name": "i",
          "type": "uint256"
        }
      ],
      "name": "getPID",
      "outputs": [
        {
          "internalType": "uint256",
          "name": "",
          "type": "uint256"
        }
      ],
      "payable": false,
      "stateMutability": "view",
      "type": "function"
    },
    {
      "constant": true,
      "inputs": [
        {
          "internalType": "uint256",
          "name": "i",
          "type": "uint256"
        }
      ],
      "name": "getSurveyNumber",
      "outputs": [
        {
          "internalType": "uint256",
          "name": "",
          "type": "uint256"
        }
      ],
      "payable": false,
      "stateMutability": "view",
      "type": "function"
    },
    {
      "constant": true,
      "inputs": [
        {
          "internalType": "uint256",
          "name": "i",
          "type": "uint256"
        }
      ],
      "name": "getImage",
      "outputs": [
        {
          "internalType": "string",
          "name": "",
          "type": "string"
        }
      ],
      "payable": false,
      "stateMutability": "view",
      "type": "function"
    },
    {
      "constant": true,
      "inputs": [
        {
          "internalType": "uint256",
          "name": "i",
          "type": "uint256"
        }
      ],
      "name": "getDocument",
      "outputs": [
        {
          "internalType": "string",
          "name": "",
          "type": "string"
        }
      ],
      "payable": false,
      "stateMutability": "view",
      "type": "function"
    },
    {
      "constant": true,
      "inputs": [
        {
          "internalType": "uint256",
          "name": "id",
          "type": "uint256"
        }
      ],
      "name": "getLandOwner",
      "outputs": [
        {
          "internalType": "address",
          "name": "",
          "type": "address"
        }
      ],
      "payable": false,
      "stateMutability": "view",
      "type": "function"
    },
    {
      "constant": false,
      "inputs": [
        {
          "internalType": "address",
          "name": "_sellerId",
          "type": "address"
        }
      ],
      "name": "verifySeller",
      "outputs": [],
      "payable": false,
      "stateMutability": "nonpayable",
      "type": "function"
    },
    {
      "constant": false,
      "inputs": [
        {
          "internalType": "address",
          "name": "_sellerId",
          "type": "address"
        }
      ],
      "name": "rejectSeller",
      "outputs": [],
      "payable": false,
      "stateMutability": "nonpayable",
      "type": "function"
    },
    {
      "constant": false,
      "inputs": [
        {
          "internalType": "address",
          "name": "_buyerId",
          "type": "address"
        }
      ],
      "name": "verifyBuyer",
      "outputs": [],
      "payable": false,
      "stateMutability": "nonpayable",
      "type": "function"
    },
    {
      "constant": false,
      "inputs": [
        {
          "internalType": "address",
          "name": "_buyerId",
          "type": "address"
        }
      ],
      "name": "rejectBuyer",
      "outputs": [],
      "payable": false,
      "stateMutability": "nonpayable",
      "type": "function"
    },
    {
      "constant": false,
      "inputs": [
        {
          "internalType": "uint256",
          "name": "_landId",
          "type": "uint256"
        }
      ],
      "name": "verifyLand",
      "outputs": [],
      "payable": false,
      "stateMutability": "nonpayable",
      "type": "function"
    },
    {
      "constant": true,
      "inputs": [
        {
          "internalType": "uint256",
          "name": "_id",
          "type": "uint256"
        }
      ],
      "name": "isLandVerified",
      "outputs": [
        {
          "internalType": "bool",
          "name": "",
          "type": "bool"
        }
      ],
      "payable": false,
      "stateMutability": "view",
      "type": "function"
    },
    {
      "constant": true,
      "inputs": [
        {
          "internalType": "address",
          "name": "_id",
          "type": "address"
        }
      ],
      "name": "isVerified",
      "outputs": [
        {
          "internalType": "bool",
          "name": "",
          "type": "bool"
        }
      ],
      "payable": false,
      "stateMutability": "view",
      "type": "function"
    },
    {
      "constant": true,
      "inputs": [
        {
          "internalType": "address",
          "name": "_id",
          "type": "address"
        }
      ],
      "name": "isRejected",
      "outputs": [
        {
          "internalType": "bool",
          "name": "",
          "type": "bool"
        }
      ],
      "payable": false,
      "stateMutability": "view",
      "type": "function"
    },
    {
      "constant": true,
      "inputs": [
        {
          "internalType": "address",
          "name": "_id",
          "type": "address"
        }
      ],
      "name": "isSeller",
      "outputs": [
        {
          "internalType": "bool",
          "name": "",
          "type": "bool"
        }
      ],
      "payable": false,
      "stateMutability": "view",
      "type": "function"
    },
    {
      "constant": true,
      "inputs": [
        {
          "internalType": "address",
          "name": "_id",
          "type": "address"
        }
      ],
      "name": "isLandInspector",
      "outputs": [
        {
          "internalType": "bool",
          "name": "",
          "type": "bool"
        }
      ],
      "payable": false,
      "stateMutability": "view",
      "type": "function"
    },
    {
      "constant": true,
      "inputs": [
        {
          "internalType": "address",
          "name": "_id",
          "type": "address"
        }
      ],
      "name": "isBuyer",
      "outputs": [
        {
          "internalType": "bool",
          "name": "",
          "type": "bool"
        }
      ],
      "payable": false,
      "stateMutability": "view",
      "type": "function"
    },
    {
      "constant": true,
      "inputs": [
        {
          "internalType": "address",
          "name": "_id",
          "type": "address"
        }
      ],
      "name": "isRegistered",
      "outputs": [
        {
          "internalType": "bool",
          "name": "",
          "type": "bool"
        }
      ],
      "payable": false,
      "stateMutability": "view",
      "type": "function"
    },
    {
      "constant": false,
      "inputs": [
        {
          "internalType": "uint256",
          "name": "_area",
          "type": "uint256"
        },
        {
          "internalType": "string",
          "name": "_city",
          "type": "string"
        },
        {
          "internalType": "string",
          "name": "_state",
          "type": "string"
        },
        {
          "internalType": "uint256",
          "name": "landPrice",
          "type": "uint256"
        },
        {
          "internalType": "uint256",
          "name": "_propertyPID",
          "type": "uint256"
        },
        {
          "internalType": "uint256",
          "name": "_surveyNum",
          "type": "uint256"
        },
        {
          "internalType": "string",
          "name": "_ipfsHash",
          "type": "string"
        },
        {
          "internalType": "string",
          "name": "_document",
          "type": "string"
        }
      ],
      "name": "addLand",
      "outputs": [],
      "payable": false,
      "stateMutability": "nonpayable",
      "type": "function"
    },
    {
      "constant": false,
      "inputs": [
        {
          "internalType": "string",
          "name": "_name",
          "type": "string"
        },
        {
          "internalType": "uint256",
          "name": "_age",
          "type": "uint256"
        },
        {
          "internalType": "string",
          "name": "_aadharNumber",
          "type": "string"
        },
        {
          "internalType": "string",
          "name": "_panNumber",
          "type": "string"
        },
        {
          "internalType": "string",
          "name": "_landsOwned",
          "type": "string"
        },
        {
          "internalType": "string",
          "name": "_document",
          "type": "string"
        }
      ],
      "name": "registerSeller",
      "outputs": [],
      "payable": false,
      "stateMutability": "nonpayable",
      "type": "function"
    },
    {
      "constant": false,
      "inputs": [
        {
          "internalType": "string",
          "name": "_name",
          "type": "string"
        },
        {
          "internalType": "uint256",
          "name": "_age",
          "type": "uint256"
        },
        {
          "internalType": "string",
          "name": "_aadharNumber",
          "type": "string"
        },
        {
          "internalType": "string",
          "name": "_panNumber",
          "type": "string"
        },
        {
          "internalType": "string",
          "name": "_landsOwned",
          "type": "string"
        }
      ],
      "name": "updateSeller",
      "outputs": [],
      "payable": false,
      "stateMutability": "nonpayable",
      "type": "function"
    },
    {
      "constant": true,
      "inputs": [],
      "name": "getSeller",
      "outputs": [
        {
          "internalType": "address[]",
          "name": "",
          "type": "address[]"
        }
      ],
      "payable": false,
      "stateMutability": "view",
      "type": "function"
    },
    {
      "constant": true,
      "inputs": [
        {
          "internalType": "address",
          "name": "i",
          "type": "address"
        }
      ],
      "name": "getSellerDetails",
      "outputs": [
        {
          "internalType": "string",
          "name": "",
          "type": "string"
        },
        {
          "internalType": "uint256",
          "name": "",
          "type": "uint256"
        },
        {
          "internalType": "string",
          "name": "",
          "type": "string"
        },
        {
          "internalType": "string",
          "name": "",
          "type": "string"
        },
        {
          "internalType": "string",
          "name": "",
          "type": "string"
        },
        {
          "internalType": "string",
          "name": "",
          "type": "string"
        }
      ],
      "payable": false,
      "stateMutability": "view",
      "type": "function"
    },
    {
      "constant": false,
      "inputs": [
        {
          "internalType": "string",
          "name": "_name",
          "type": "string"
        },
        {
          "internalType": "uint256",
          "name": "_age",
          "type": "uint256"
        },
        {
          "internalType": "string",
          "name": "_city",
          "type": "string"
        },
        {
          "internalType": "string",
          "name": "_aadharNumber",
          "type": "string"
        },
        {
          "internalType": "string",
          "name": "_panNumber",
          "type": "string"
        },
        {
          "internalType": "string",
          "name": "_document",
          "type": "string"
        },
        {
          "internalType": "string",
          "name": "_email",
          "type": "string"
        }
      ],
      "name": "registerBuyer",
      "outputs": [],
      "payable": false,
      "stateMutability": "nonpayable",
      "type": "function"
    },
    {
      "constant": false,
      "inputs": [
        {
          "internalType": "string",
          "name": "_name",
          "type": "string"
        },
        {
          "internalType": "uint256",
          "name": "_age",
          "type": "uint256"
        },
        {
          "internalType": "string",
          "name": "_city",
          "type": "string"
        },
        {
          "internalType": "string",
          "name": "_aadharNumber",
          "type": "string"
        },
        {
          "internalType": "string",
          "name": "_panNumber",
          "type": "string"
        },
        {
          "internalType": "string",
          "name": "_landsOwned",
          "type": "string"
        },
        {
          "internalType": "string",
          "name": "_document",
          "type": "string"
        },
        {
          "internalType": "string",
          "name": "_email",
          "type": "string"
        },
        {
          "internalType": "address",
          "name": "_succ",
          "type": "address"
        }
      ],
      "name": "registerUser",
      "outputs": [],
      "payable": false,
      "stateMutability": "nonpayable",
      "type": "function"
    },
    {
      "constant": false,
      "inputs": [
        {
          "internalType": "string",
          "name": "_name",
          "type": "string"
        },
        {
          "internalType": "uint256",
          "name": "_age",
          "type": "uint256"
        },
        {
          "internalType": "string",
          "name": "_city",
          "type": "string"
        },
        {
          "internalType": "string",
          "name": "_aadharNumber",
          "type": "string"
        },
        {
          "internalType": "string",
          "name": "_email",
          "type": "string"
        },
        {
          "internalType": "string",
          "name": "_panNumber",
          "type": "string"
        }
      ],
      "name": "updateBuyer",
      "outputs": [],
      "payable": false,
      "stateMutability": "nonpayable",
      "type": "function"
    },
    {
      "constant": true,
      "inputs": [],
      "name": "getBuyer",
      "outputs": [
        {
          "internalType": "address[]",
          "name": "",
          "type": "address[]"
        }
      ],
      "payable": false,
      "stateMutability": "view",
      "type": "function"
    },
    {
      "constant": true,
      "inputs": [
        {
          "internalType": "address",
          "name": "_Owner",
          "type": "address"
        }
      ],
      "name": "getSuccessor",
      "outputs": [
        {
          "internalType": "address",
          "name": "",
          "type": "address"
        }
      ],
      "payable": false,
      "stateMutability": "view",
      "type": "function"
    },
    {
      "constant": true,
      "inputs": [
        {
          "internalType": "address",
          "name": "i",
          "type": "address"
        }
      ],
      "name": "getBuyerDetails",
      "outputs": [
        {
          "internalType": "string",
          "name": "",
          "type": "string"
        },
        {
          "internalType": "string",
          "name": "",
          "type": "string"
        },
        {
          "internalType": "string",
          "name": "",
          "type": "string"
        },
        {
          "internalType": "string",
          "name": "",
          "type": "string"
        },
        {
          "internalType": "string",
          "name": "",
          "type": "string"
        },
        {
          "internalType": "uint256",
          "name": "",
          "type": "uint256"
        },
        {
          "internalType": "string",
          "name": "",
          "type": "string"
        }
      ],
      "payable": false,
      "stateMutability": "view",
      "type": "function"
    },
    {
      "constant": false,
      "inputs": [
        {
          "internalType": "address",
          "name": "_sellerId",
          "type": "address"
        },
        {
          "internalType": "uint256",
          "name": "_landId",
          "type": "uint256"
        }
      ],
      "name": "requestLand",
      "outputs": [],
      "payable": false,
      "stateMutability": "nonpayable",
      "type": "function"
    },
    {
      "constant": true,
      "inputs": [
        {
          "internalType": "uint256",
          "name": "i",
          "type": "uint256"
        }
      ],
      "name": "getRequestDetails",
      "outputs": [
        {
          "internalType": "address",
          "name": "",
          "type": "address"
        },
        {
          "internalType": "address",
          "name": "",
          "type": "address"
        },
        {
          "internalType": "uint256",
          "name": "",
          "type": "uint256"
        },
        {
          "internalType": "bool",
          "name": "",
          "type": "bool"
        }
      ],
      "payable": false,
      "stateMutability": "view",
      "type": "function"
    },
    {
      "constant": true,
      "inputs": [
        {
          "internalType": "uint256",
          "name": "_id",
          "type": "uint256"
        }
      ],
      "name": "isRequested",
      "outputs": [
        {
          "internalType": "bool",
          "name": "",
          "type": "bool"
        }
      ],
      "payable": false,
      "stateMutability": "view",
      "type": "function"
    },
    {
      "constant": true,
      "inputs": [
        {
          "internalType": "uint256",
          "name": "_id",
          "type": "uint256"
        }
      ],
      "name": "isApproved",
      "outputs": [
        {
          "internalType": "bool",
          "name": "",
          "type": "bool"
        }
      ],
      "payable": false,
      "stateMutability": "view",
      "type": "function"
    },
    {
      "constant": false,
      "inputs": [
        {
          "internalType": "uint256",
          "name": "_reqId",
          "type": "uint256"
        }
      ],
      "name": "approveRequest",
      "outputs": [],
      "payable": false,
      "stateMutability": "nonpayable",
      "type": "function"
    },
    {
      "constant": false,
      "inputs": [
        {
          "internalType": "uint256",
          "name": "_landId",
          "type": "uint256"
        },
        {
          "internalType": "address",
          "name": "_newOwner",
          "type": "address"
        }
      ],
      "name": "LandOwnershipTransfer",
      "outputs": [],
      "payable": false,
      "stateMutability": "nonpayable",
      "type": "function"
    },
    {
      "constant": true,
      "inputs": [
        {
          "internalType": "uint256",
          "name": "_landId",
          "type": "uint256"
        }
      ],
      "name": "isPaid",
      "outputs": [
        {
          "internalType": "bool",
          "name": "",
          "type": "bool"
        }
      ],
      "payable": false,
      "stateMutability": "view",
      "type": "function"
    },
    {
      "constant": false,
      "inputs": [
        {
          "internalType": "address payable",
          "name": "_receiver",
          "type": "address"
        },
        {
          "internalType": "uint256",
          "name": "_landId",
          "type": "uint256"
        }
      ],
      "name": "payment",
      "outputs": [],
      "payable": true,
      "stateMutability": "payable",
      "type": "function"
    },
    {
      "constant": false,
      "inputs": [
        {
          "internalType": "address",
          "name": "_Owner",
          "type": "address"
        }
      ],
      "name": "AfterDeath",
      "outputs": [],
      "payable": false,
      "stateMutability": "nonpayable",
      "type": "function"
    }
  ],
  "bytecode": "0x60806040523480156200001157600080fd5b5060128054600160a060020a03191633179055604080518082018252600b81527f496e73706563746f7220310000000000000000000000000000000000000000006020808301919091528251808401909352600e83527f54656873696c204d616e6167657200000000000000000000000000000000000090830152620000a391602d90640100000000620000a9810204565b620001d7565b601680546001908101918290556040805160808101825283815260208082018881528284018890526060830187905260009586528482529290942081518155915180519194929362000102939085019291019062000132565b5060408201516002820155606082015180516200012a91600384019160209091019062000132565b505050505050565b828054600181600116156101000203166002900490600052602060002090601f016020900481019282601f106200017557805160ff1916838001178555620001a5565b82800160010185558215620001a5579182015b82811115620001a557825182559160200191906001019062000188565b50620001b3929150620001b7565b5090565b620001d491905b80821115620001b35760008155600101620001be565b90565b61440280620001e76000396000f3fe6080604052600436106104d3576000357c0100000000000000000000000000000000000000000000000000000000900480639ae9711e11610296578063d7d1bbdb1161017b578063e530c400116100f3578063f34d4c63116100a7578063f58f85b51161008c578063f58f85b514610df0578063f9c43bdf14610e10578063fbfa4b7f14610e30576104d3565b8063f34d4c6314610da0578063f3f0c21814610dd0576104d3565b8063ee95feaf116100d8578063ee95feaf14610d4b578063f0d3a9df14610d6b578063f2aa821814610d80576104d3565b8063e530c40014610d0b578063e757223014610d2b576104d3565b8063def936c31161014a578063e1ecc7941161012f578063e1ecc79414610c95578063e261f1e514610cb5578063e4b2611514610ceb576104d3565b8063def936c314610c45578063e165af8714610c75576104d3565b8063d7d1bbdb14610bc8578063dbd0e1b614610be8578063dd9d122d14610bfd578063dec091ad14610c12576104d3565b8063b9209e331161020e578063c560b4e5116101dd578063cee26ed5116101c2578063cee26ed514610b68578063d1760e6014610b88578063d713065114610ba8576104d3565b8063c560b4e514610b28578063cd392a8314610b48576104d3565b8063b9209e3314610ab3578063ba49a08c14610ad3578063bed403c714610ae8578063c3c5a54714610b08576104d3565b8063a6dc41fb11610265578063b0a5dcd31161024a578063b0a5dcd314610a31578063b0defb2114610a61578063b3c8fe8514610a81576104d3565b8063a6dc41fb146109dd578063ab517074146109fd576104d3565b80639ae9711e146109685780639dc1bfa91461097d578063a47d4c021461099d578063a4a0f6c0146109bd576104d3565b8063601e7c34116103bc57806383546501116103345780638cd869a411610303578063941e2426116102e8578063941e242614610913578063966dfe7a14610928578063989376b414610948576104d3565b80638cd869a4146108d357806393383648146108f3576104d3565b806383546501146108535780638965cde11461087357806389d21354146108935780638c5e13e5146108b3576104d3565b806367a09c231161038b57806368cfe6ee1161037057806368cfe6ee146107e05780636cbf6cf8146108135780637910867b14610833576104d3565b806367a09c23146107ad5780636814800b146107c0576104d3565b8063601e7c341461072b578063603daf9a1461074b57806363f171431461076d5780636490c7a81461078d576104d3565b80632a55feec1161044f5780634528b3571161041e5780634daa9dae116104035780634daa9dae146106cb5780634e2cba09146106eb57806356b8481a1461070b576104d3565b80634528b3571461068b57806348a46bd3146106ab576104d3565b80632a55feec146106165780633410452a146106365780633f9b250a1461064b57806344c9af281461066b576104d3565b8063170f3909116104a65780631a07f76e1161048b5780631a07f76e146105b45780631c9afd0f146105d45780632607aafa146105e9576104d3565b8063170f3909146105725780631869a38b14610594576104d3565b806307d56ac0146104d857806311ce462c1461050e578063155fec721461053057806316d9d6661461055d575b600080fd5b3480156104e457600080fd5b506104f86104f3366004613c7f565b610e45565b604051610505919061418b565b60405180910390f35b34801561051a57600080fd5b5061052e6105293660046138eb565b610e5d565b005b34801561053c57600080fd5b5061055061054b366004613c7f565b610f6d565b6040516105059190614070565b34801561056957600080fd5b506104f8610f8c565b34801561057e57600080fd5b50610587610f93565b6040516105059190613eac565b3480156105a057600080fd5b506105876105af366004613c7f565b610fa2565b3480156105c057600080fd5b506105506105cf366004613c7f565b610fbd565b3480156105e057600080fd5b506104f8610fd2565b3480156105f557600080fd5b50610609610604366004613c7f565b610fd8565b604051610505919061407e565b34801561062257600080fd5b506105506106313660046137b7565b61107a565b34801561064257600080fd5b506104f86110a3565b34801561065757600080fd5b50610609610666366004613c7f565b6110a9565b34801561067757600080fd5b50610609610686366004613c7f565b611114565b34801561069757600080fd5b506105876106a6366004613c7f565b61117f565b3480156106b757600080fd5b506105506106c63660046137b7565b61119d565b3480156106d757600080fd5b506105506106e6366004613c7f565b6111e9565b3480156106f757600080fd5b5061052e6107063660046139e9565b6111fe565b34801561071757600080fd5b506105876107263660046137b7565b6113ea565b34801561073757600080fd5b506105506107463660046137b7565b611405565b34801561075757600080fd5b5061076061141a565b604051610505919061405f565b34801561077957600080fd5b506105506107883660046137b7565b61147c565b34801561079957600080fd5b506104f86107a8366004613c7f565b611491565b61052e6107bb3660046137dd565b6114a6565b3480156107cc57600080fd5b5061052e6107db3660046137b7565b6114f3565b3480156107ec57600080fd5b506108006107fb3660046137b7565b611563565b604051610505979695949392919061408f565b34801561081f57600080fd5b5061055061082e366004613c7f565b611914565b34801561083f57600080fd5b5061055061084e366004613c7f565b611933565b34801561085f57600080fd5b5061055061086e366004613c7f565b611952565b34801561087f57600080fd5b5061052e61088e3660046137b7565b611967565b34801561089f57600080fd5b506105506108ae366004613c7f565b6119cc565b3480156108bf57600080fd5b506105506108ce366004613c7f565b6119e1565b3480156108df57600080fd5b5061052e6108ee3660046137b7565b611a20565b3480156108ff57600080fd5b5061052e61090e3660046138eb565b611b0c565b34801561091f57600080fd5b506104f8611cf0565b34801561093457600080fd5b506105876109433660046137b7565b611cf6565b34801561095457600080fd5b506105506109633660046137b7565b611d14565b34801561097457600080fd5b506104f8611d29565b34801561098957600080fd5b50610587610998366004613c7f565b611d2f565b3480156109a957600080fd5b506105506109b83660046137b7565b611d4a565b3480156109c957600080fd5b506104f86109d8366004613c7f565b611d5f565b3480156109e957600080fd5b506105506109f83660046137b7565b611d74565b348015610a0957600080fd5b50610a1d610a183660046137b7565b611d89565b604051610505989796959493929190613fbf565b348015610a3d57600080fd5b50610a51610a4c366004613c7f565b612115565b6040516105059493929190614199565b348015610a6d57600080fd5b5061052e610a7c366004613b14565b612149565b348015610a8d57600080fd5b50610aa1610a9c3660046137b7565b612535565b60405161050596959493929190614111565b348015610abf57600080fd5b50610550610ace3660046137b7565b61284b565b348015610adf57600080fd5b506104f8612896565b348015610af457600080fd5b5061052e610b03366004613c9d565b61289c565b348015610b1457600080fd5b50610550610b233660046137b7565b612904565b348015610b3457600080fd5b5061052e610b43366004613817565b61292d565b348015610b5457600080fd5b50610550610b63366004613c7f565b612a14565b348015610b7457600080fd5b50610587610b83366004613c7f565b612a33565b348015610b9457600080fd5b5061052e610ba33660046137b7565b612a5a565b348015610bb457600080fd5b50610609610bc3366004613c7f565b612ad7565b348015610bd457600080fd5b5061052e610be3366004613c7f565b612b45565b348015610bf457600080fd5b50610760612b82565b348015610c0957600080fd5b506104f8612be2565b348015610c1e57600080fd5b50610c32610c2d3660046137b7565b612be8565b6040516105059796959493929190613f35565b348015610c5157600080fd5b50610c65610c60366004613c7f565b612ee1565b60405161050594939291906141ce565b348015610c8157600080fd5b50610550610c903660046137b7565b61301f565b348015610ca157600080fd5b5061052e610cb03660046137b7565b613040565b348015610cc157600080fd5b50610cd5610cd0366004613c7f565b6130bd565b6040516105059a99989796959493929190614219565b348015610cf757600080fd5b50610550610d063660046137b7565b613339565b348015610d1757600080fd5b5061052e610d26366004613ccd565b61334e565b348015610d3757600080fd5b506104f8610d46366004613c7f565b6134cb565b348015610d5757600080fd5b50610550610d663660046137b7565b6134e0565b348015610d7757600080fd5b506104f8613509565b348015610d8c57600080fd5b50610587610d9b366004613c7f565b61350f565b348015610dac57600080fd5b50610dc0610dbb366004613c7f565b61351c565b6040516105059493929190613ef7565b348015610ddc57600080fd5b5061052e610deb3660046137dd565b61355e565b348015610dfc57600080fd5b50610550610e0b3660046137b7565b613667565b348015610e1c57600080fd5b5061052e610e2b366004613c7f565b61367c565b348015610e3c57600080fd5b506104f86136a9565b6000818152602081905260409020600501545b919050565b3360009081526005602052604090205460ff168015610e92575033600081815260036020526040902054600160a060020a0316145b610e9b57600080fd5b3360009081526003602090815260409091208751610ec1926001909201918901906136af565b50336000908152600360208181526040909220600281018890558651610eef939190920191908701906136af565b503360009081526003602090815260409091208451610f16926004909201918601906136af565b503360009081526003602090815260409091208351610f3d926007909201918501906136af565b503360009081526003602090815260409091208251610f64926005909201918401906136af565b50505050505050565b6000818152600f602052604081205460ff1615610e5857506001610e58565b6015545b90565b601254600160a060020a031681565b6000908152600d6020526040902054600160a060020a031690565b60106020526000908152604090205460ff1681565b60155481565b6000818152602081815260409182902060070180548351601f600260001961010060018616150201909316929092049182018490048402810184019094528084526060939283018282801561106e5780601f106110435761010080835404028352916020019161106e565b820191906000526020600020905b81548152906001019060200180831161105157829003601f168201915b50505050509050919050565b600160a060020a03811660009081526007602052604081205460ff1615610e5857506001610e58565b60195490565b6000818152602081815260409182902060080180548351601f600260001961010060018616150201909316929092049182018490048402810184019094528084526060939283018282801561106e5780601f106110435761010080835404028352916020019161106e565b6000818152602081815260409182902060030180548351601f600260001961010060018616150201909316929092049182018490048402810184019094528084526060939283018282801561106e5780601f106110435761010080835404028352916020019161106e565b600090815260208190526040902060090154600160a060020a031690565b600160a060020a03811660009081526009602052604081205460ff16806111dc5750600160a060020a0382166000908152600b602052604090205460ff165b15610e5857506001610e58565b600f6020526000908152604090205460ff1681565b3360008181526005602090815260408083208054600160ff1991821681179092556007845282852080549091168217905560188054820190558151610100810183528581528084018d81528184018d9052606082018c9052608082018b905260a082018a905260c0820189905260e0820188905295855260038452919093208151815473ffffffffffffffffffffffffffffffffffffffff1916600160a060020a03909116178155935180519194936112bd93908501929101906136af565b5060408201516002820155606082015180516112e39160038401916020909101906136af565b50608082015180516112ff9160048401916020909101906136af565b5060a0820151805161131b9160058401916020909101906136af565b5060c082015180516113379160068401916020909101906136af565b5060e082015180516113539160078401916020909101906136af565b5050601480546001810182556000919091527fce6d7b5282bd9a3661ae061feed1dbda4e52ab073b1f9285be6e155d9c38d4ec01805473ffffffffffffffffffffffffffffffffffffffff1916339081179091556040517f2a4f530ae55f002aac4686b649762fc68e96bd8b80ac835b41777145c94e1f8a92506113d991908190613edc565b60405180910390a150505050505050565b601160205260009081526040902054600160a060020a031681565b60066020526000908152604090205460ff1681565b6060601480548060200260200160405190810160405280929190818152602001828054801561147257602002820191906000526020600020905b8154600160a060020a03168152600190910190602001808311611454575b5050505050905090565b60096020526000908152604090205460ff1681565b60009081526020819052604090206001015490565b600081815260106020526040808220805460ff1916600117905551600160a060020a038416913480156108fc02929091818181858888f193505050501580156114ee57600080fd5b505050565b6114fc3361301f565b61150557600080fd5b600160a060020a0381166000908152600a602052604090819020805460ff19166001179055517f6a6455914f452787eb3985452aceedc1000fb545e394eb3b370e3d08958e0a5b90611558908390613eac565b60405180910390a150565b600160a060020a03811660009081526003602081815260408084206002808201546001808401805486519281161561010002600019011693909304601f8101879004870282018701909552848152606097889788978897889793968896909593850194600581019460068201946007830194600490930192899183018282801561162e5780601f106116035761010080835404028352916020019161162e565b820191906000526020600020905b81548152906001019060200180831161161157829003601f168201915b5050895460408051602060026001851615610100026000190190941693909304601f8101849004840282018401909252818152959c508b9450925084019050828280156116bc5780601f10611691576101008083540402835291602001916116bc565b820191906000526020600020905b81548152906001019060200180831161169f57829003601f168201915b5050885460408051602060026001851615610100026000190190941693909304601f8101849004840282018401909252818152959b508a94509250840190508282801561174a5780601f1061171f5761010080835404028352916020019161174a565b820191906000526020600020905b81548152906001019060200180831161172d57829003601f168201915b5050875460408051602060026001851615610100026000190190941693909304601f8101849004840282018401909252818152959a50899450925084019050828280156117d85780601f106117ad576101008083540402835291602001916117d8565b820191906000526020600020905b8154815290600101906020018083116117bb57829003601f168201915b5050865460408051602060026001851615610100026000190190941693909304601f8101849004840282018401909252818152959950889450925084019050828280156118665780601f1061183b57610100808354040283529160200191611866565b820191906000526020600020905b81548152906001019060200180831161184957829003601f168201915b5050845460408051602060026001851615610100026000190190941693909304601f8101849004840282018401909252818152959850869450925084019050828280156118f45780601f106118c9576101008083540402835291602001916118f4565b820191906000526020600020905b8154815290600101906020018083116118d757829003601f168201915b505050505090509650965096509650965096509650919395979092949650565b6000818152600c602052604081205460ff1615610e5857506001610e58565b6000818152600e602052604081205460ff1615610e5857506001610e58565b600c6020526000908152604090205460ff1681565b6119703361301f565b61197957600080fd5b600160a060020a0381166000908152600b602052604090819020805460ff19166001179055517faf77f8960cf590e245ec8b6d41c193a5dcacad8986ae4eb57ac9e5be7b6af03190611558908390613eac565b600e6020526000908152604090205460ff1681565b6000818152600d602090815260408083205491839052822060090154600160a060020a0390811691161415611a1857506001610e58565b506000610e58565b611a293361301f565b611a3257600080fd5b60015b6015548111611ad1576000818152600d6020526040902054600160a060020a0383811691161415611ac9576000818152600d602081815260408084208054858452828620600901805473ffffffffffffffffffffffffffffffffffffffff19908116600160a060020a0393841617909155888216875260118552928620549587905293909252815416929091169190911790555b600101611a35565b7f0599dcd31fa808bf297d25bdaba963eafead5e178e4dcee695bcab4933f13a7082604051611b009190613eac565b60405180910390a15050565b3360009081526005602052604090205460ff1615611b2957600080fd5b3360008181526005602090815260408083208054600160ff199182168117909255600684528285208054909116821790556017805482019055815160e0810183528581528084018c81528184018c9052606082018b9052608082018a905260a0820189905260c0820188905295855260028452919093208151815473ffffffffffffffffffffffffffffffffffffffff1916600160a060020a0390911617815593518051919493611be093908501929101906136af565b506040820151600282015560608201518051611c069160038401916020909101906136af565b5060808201518051611c229160048401916020909101906136af565b5060a08201518051611c3e9160058401916020909101906136af565b5060c08201518051611c5a9160068401916020909101906136af565b5050601380546001810182556000919091527f66de8ffda797e3de9c05e8fc57b3bf0ec28a930d40b0d285d93c06501cf6a09001805473ffffffffffffffffffffffffffffffffffffffff1916339081179091556040517f2a4f530ae55f002aac4686b649762fc68e96bd8b80ac835b41777145c94e1f8a9250611ce091908190613edc565b60405180910390a1505050505050565b60165481565b600160a060020a039081166000908152601160205260409020541690565b600b6020526000908152604090205460ff1681565b60175481565b600d60205260009081526040902054600160a060020a031681565b60076020526000908152604090205460ff1681565b60009081526020819052604090206006015490565b600a6020526000908152604090205460ff1681565b6003602090815260009182526040918290208054600180830180548651600261010094831615949094026000190190911692909204601f8101869004860283018601909652858252600160a060020a03909216949293909290830182828015611e335780601f10611e0857610100808354040283529160200191611e33565b820191906000526020600020905b815481529060010190602001808311611e1657829003601f168201915b505050506002838101546003850180546040805160206001841615610100026000190190931695909504601f810183900483028601830190915280855295969295929450909190830182828015611ecb5780601f10611ea057610100808354040283529160200191611ecb565b820191906000526020600020905b815481529060010190602001808311611eae57829003601f168201915b5050505060048301805460408051602060026001851615610100026000190190941693909304601f8101849004840282018401909252818152949594935090830182828015611f5b5780601f10611f3057610100808354040283529160200191611f5b565b820191906000526020600020905b815481529060010190602001808311611f3e57829003601f168201915b5050505060058301805460408051602060026001851615610100026000190190941693909304601f8101849004840282018401909252818152949594935090830182828015611feb5780601f10611fc057610100808354040283529160200191611feb565b820191906000526020600020905b815481529060010190602001808311611fce57829003601f168201915b5050505060068301805460408051602060026001851615610100026000190190941693909304601f810184900484028201840190925281815294959493509083018282801561207b5780601f106120505761010080835404028352916020019161207b565b820191906000526020600020905b81548152906001019060200180831161205e57829003601f168201915b5050505060078301805460408051602060026001851615610100026000190190941693909304601f810184900484028201840190925281815294959493509083018282801561210b5780601f106120e05761010080835404028352916020019161210b565b820191906000526020600020905b8154815290600101906020018083116120ee57829003601f168201915b5050505050905088565b60046020526000908152604090208054600182015460028301546003909301549192600160a060020a039182169291169084565b3360009081526005602052604090205460ff161561216657600080fd5b3360008181526005602090815260408083208054600160ff1991821681179092556007845282852080549091168217905560188054820190558151610100810183528581528084018f81528184018f9052606082018e9052608082018d905260a082018c905260c082018a905260e0820189905295855260038452919093208151815473ffffffffffffffffffffffffffffffffffffffff1916600160a060020a039091161781559351805191949361222593908501929101906136af565b50604082015160028201556060820151805161224b9160038401916020909101906136af565b50608082015180516122679160048401916020909101906136af565b5060a082015180516122839160058401916020909101906136af565b5060c0820151805161229f9160068401916020909101906136af565b5060e082015180516122bb9160078401916020909101906136af565b5090505060143390806001815401808255809150509060018203906000526020600020016000909192909190916101000a815481600160a060020a030219169083600160a060020a031602179055505060016006600033600160a060020a0316600160a060020a0316815260200190815260200160002060006101000a81548160ff0219169083151502179055506017600081548092919060010191905055506040518060e0016040528033600160a060020a031681526020018a8152602001898152602001878152602001868152602001858152602001848152506002600033600160a060020a0316600160a060020a0316815260200190815260200160002060008201518160000160006101000a815481600160a060020a030219169083600160a060020a0316021790555060208201518160010190805190602001906124059291906136af565b50604082015160028201556060820151805161242b9160038401916020909101906136af565b50608082015180516124479160048401916020909101906136af565b5060a082015180516124639160058401916020909101906136af565b5060c0820151805161247f9160068401916020909101906136af565b505060138054600181019091557f66de8ffda797e3de9c05e8fc57b3bf0ec28a930d40b0d285d93c06501cf6a0900180543373ffffffffffffffffffffffffffffffffffffffff199182168117909255600082815260116020526040908190208054909216600160a060020a03861617909155517f2a4f530ae55f002aac4686b649762fc68e96bd8b80ac835b41777145c94e1f8a925061252291908490613eba565b60405180910390a1505050505050505050565b600160a060020a0381166000908152600260208181526040808420808401546001808301805485519281161561010002600019011696909604601f8101869004860282018601909452838152606096958795869586958695939460038201936004830193600584019360060192918891908301828280156125f75780601f106125cc576101008083540402835291602001916125f7565b820191906000526020600020905b8154815290600101906020018083116125da57829003601f168201915b5050875460408051602060026001851615610100026000190190941693909304601f8101849004840282018401909252818152959b50899450925084019050828280156126855780601f1061265a57610100808354040283529160200191612685565b820191906000526020600020905b81548152906001019060200180831161266857829003601f168201915b5050865460408051602060026001851615610100026000190190941693909304601f8101849004840282018401909252818152959950889450925084019050828280156127135780601f106126e857610100808354040283529160200191612713565b820191906000526020600020905b8154815290600101906020018083116126f657829003601f168201915b5050855460408051602060026001851615610100026000190190941693909304601f8101849004840282018401909252818152959850879450925084019050828280156127a15780601f10612776576101008083540402835291602001916127a1565b820191906000526020600020905b81548152906001019060200180831161278457829003601f168201915b5050845460408051602060026001851615610100026000190190941693909304601f81018490048402820184019092528181529597508694509250840190508282801561282f5780601f106128045761010080835404028352916020019161282f565b820191906000526020600020905b81548152906001019060200180831161281257829003601f168201915b5050505050905095509550955095509550955091939550919395565b600160a060020a03811660009081526008602052604081205460ff16806111dc5750600160a060020a0382166000908152600a602052604090205460ff1615610e5857506001610e58565b60185481565b6128a53361301f565b6128ae57600080fd5b6000918252600d60208181526040808520805486845291909520600901805473ffffffffffffffffffffffffffffffffffffffff19908116600160a060020a039384161790915592909152835492169116179055565b600160a060020a03811660009081526005602052604081205460ff1615610e5857506001610e58565b3360009081526005602052604090205460ff168015612962575033600081815260026020526040902054600160a060020a0316145b61296b57600080fd5b3360009081526002602090815260409091208651612991926001909201918801906136af565b5033600090815260026020818152604090922090810186905584516129be926003909201918601906136af565b5033600090815260026020908152604090912083516129e5926004909201918501906136af565b503360009081526002602090815260409091208251612a0c926005909201918401906136af565b505050505050565b60008181526010602052604081205460ff1615610e5857506001610e58565b60138181548110612a4057fe5b600091825260209091200154600160a060020a0316905081565b612a633361301f565b612a6c57600080fd5b600160a060020a03811660009081526008602090815260408083208054600160ff199182168117909255600a9093529281902080549092169092179055517f6a6455914f452787eb3985452aceedc1000fb545e394eb3b370e3d08958e0a5b90611558908390613eac565b600081815260208181526040918290206002908101805484516001821615610100026000190190911692909204601f8101849004840283018401909452838252606093919290919083018282801561106e5780601f106110435761010080835404028352916020019161106e565b612b4e336134e0565b8015612b5e5750612b5e3361284b565b612b6757600080fd5b6000908152600e60205260409020805460ff19166001179055565b6060601380548060200260200160405190810160405280929190818152602001828054801561147257602002820191906000526020600020908154600160a060020a03168152600190910190602001808311611454575050505050905090565b60175490565b6002602081815260009283526040928390208054600180830180548751601f60001994831615610100029490940190911696909604918201859004850286018501909652808552600160a060020a0390911694919392830182828015612c8f5780601f10612c6457610100808354040283529160200191612c8f565b820191906000526020600020905b815481529060010190602001808311612c7257829003601f168201915b505050506002838101546003850180546040805160206001841615610100026000190190931695909504601f810183900483028601830190915280855295969295929450909190830182828015612d275780601f10612cfc57610100808354040283529160200191612d27565b820191906000526020600020905b815481529060010190602001808311612d0a57829003601f168201915b5050505060048301805460408051602060026001851615610100026000190190941693909304601f8101849004840282018401909252818152949594935090830182828015612db75780601f10612d8c57610100808354040283529160200191612db7565b820191906000526020600020905b815481529060010190602001808311612d9a57829003601f168201915b5050505060058301805460408051602060026001851615610100026000190190941693909304601f8101849004840282018401909252818152949594935090830182828015612e475780601f10612e1c57610100808354040283529160200191612e47565b820191906000526020600020905b815481529060010190602001808311612e2a57829003601f168201915b5050505060068301805460408051602060026001851615610100026000190190941693909304601f8101849004840282018401909252818152949594935090830182828015612ed75780601f10612eac57610100808354040283529160200191612ed7565b820191906000526020600020905b815481529060010190602001808311612eba57829003601f168201915b5050505050905087565b600160208181526000928352604092839020805481840180548651600296821615610100026000190190911695909504601f81018590048502860185019096528585529094919392909190830182828015612f7d5780601f10612f5257610100808354040283529160200191612f7d565b820191906000526020600020905b815481529060010190602001808311612f6057829003601f168201915b505050506002838101546003850180546040805160206001841615610100026000190190931695909504601f8101839004830286018301909152808552959692959294509091908301828280156130155780601f10612fea57610100808354040283529160200191613015565b820191906000526020600020905b815481529060010190602001808311612ff857829003601f168201915b5050505050905084565b601254600090600160a060020a0383811691161415611a1857506001610e58565b6130493361301f565b61305257600080fd5b600160a060020a03811660009081526009602090815260408083208054600160ff199182168117909255600b9093529281902080549092169092179055517faf77f8960cf590e245ec8b6d41c193a5dcacad8986ae4eb57ac9e5be7b6af03190611558908390613eac565b6000602081815291815260409081902080546001808301546002808501805487519481161561010002600019011691909104601f8101889004880284018801909652858352929590949192919083018282801561315b5780601f106131305761010080835404028352916020019161315b565b820191906000526020600020905b81548152906001019060200180831161313e57829003601f168201915b5050505060038301805460408051602060026001851615610100026000190190941693909304601f81018490048402820184019092528181529495949350908301828280156131eb5780601f106131c0576101008083540402835291602001916131eb565b820191906000526020600020905b8154815290600101906020018083116131ce57829003601f168201915b505050600484015460058501546006860154600787018054604080516020601f600260001961010060018816150201909516949094049384018190048102820181019092528281529899959894975092955090918301828280156132905780601f1061326557610100808354040283529160200191613290565b820191906000526020600020905b81548152906001019060200180831161327357829003601f168201915b5050505060088301805460408051602060026001851615610100026000190190941693909304601f81018490048402820184019092528181529495949350908301828280156133205780601f106132f557610100808354040283529160200191613320565b820191906000526020600020905b81548152906001019060200180831161330357829003601f168201915b50505060099093015491925050600160a060020a03168a565b60086020526000908152604090205460ff1681565b613357336134e0565b801561336757506133673361284b565b61337057600080fd5b60158054600190810191829055604080516101408101825283815260208082018d81528284018d8152606084018d9052608084018c905260a084018b905260c084018a905260e0840189905261010084018890523361012085015260009687528683529390952082518155945193850193909355905180519193926133fd926002850192909101906136af565b50606082015180516134199160038401916020909101906136af565b506080820151600482015560a0820151600582015560c0820151600682015560e082015180516134539160078401916020909101906136af565b5061010082015180516134709160088401916020909101906136af565b50610120919091015160099091018054600160a060020a0390921673ffffffffffffffffffffffffffffffffffffffff199283161790556015546000908152600d602052604090208054909116331790555050505050505050565b60009081526020819052604090206004015490565b600160a060020a03811660009081526006602052604081205460ff1615610e5857506001610e58565b60185490565b60148181548110612a4057fe5b600090815260046020908152604080832060018101546002820154600390920154600e9094529190932054600160a060020a0391821694919093169260ff1690565b6135673361107a565b801561357757506135773361284b565b61358057600080fd5b60198054600190810180835560408051608081018252828152600160a060020a03808816602080840191825233848601908152606085018a8152600097885260048352868820955186559251858901805491861673ffffffffffffffffffffffffffffffffffffffff199283161790559051600286018054919095169116179092555160039092019190915584548352600e8152818320805460ff1990811690915594548352600f9052908190208054909316909117909155517fc67eb70629da758128cec22f7e36ad0676066ad4df9b66e8ba58a30c1ab4075b90611b00908490613eac565b60056020526000908152604090205460ff1681565b6136853361301f565b61368e57600080fd5b6000908152600c60205260409020805460ff19166001179055565b60195481565b828054600181600116156101000203166002900490600052602060002090601f016020900481019282601f106136f057805160ff191683800117855561371d565b8280016001018555821561371d579182015b8281111561371d578251825591602001919060010190613702565b5061372992915061372d565b5090565b610f9091905b808211156137295760008155600101613733565b80356137528161439f565b92915050565b600082601f83011261376957600080fd5b813561377c613777826142f1565b6142ca565b9150808252602083016020830185838301111561379857600080fd5b6137a3838284614359565b50505092915050565b8035613752816143b6565b6000602082840312156137c957600080fd5b60006137d58484613747565b949350505050565b600080604083850312156137f057600080fd5b60006137fc8585613747565b925050602061380d858286016137ac565b9150509250929050565b600080600080600060a0868803121561382f57600080fd5b853567ffffffffffffffff81111561384657600080fd5b61385288828901613758565b9550506020613863888289016137ac565b945050604086013567ffffffffffffffff81111561388057600080fd5b61388c88828901613758565b935050606086013567ffffffffffffffff8111156138a957600080fd5b6138b588828901613758565b925050608086013567ffffffffffffffff8111156138d257600080fd5b6138de88828901613758565b9150509295509295909350565b60008060008060008060c0878903121561390457600080fd5b863567ffffffffffffffff81111561391b57600080fd5b61392789828a01613758565b965050602061393889828a016137ac565b955050604087013567ffffffffffffffff81111561395557600080fd5b61396189828a01613758565b945050606087013567ffffffffffffffff81111561397e57600080fd5b61398a89828a01613758565b935050608087013567ffffffffffffffff8111156139a757600080fd5b6139b389828a01613758565b92505060a087013567ffffffffffffffff8111156139d057600080fd5b6139dc89828a01613758565b9150509295509295509295565b600080600080600080600060e0888a031215613a0457600080fd5b873567ffffffffffffffff811115613a1b57600080fd5b613a278a828b01613758565b9750506020613a388a828b016137ac565b965050604088013567ffffffffffffffff811115613a5557600080fd5b613a618a828b01613758565b955050606088013567ffffffffffffffff811115613a7e57600080fd5b613a8a8a828b01613758565b945050608088013567ffffffffffffffff811115613aa757600080fd5b613ab38a828b01613758565b93505060a088013567ffffffffffffffff811115613ad057600080fd5b613adc8a828b01613758565b92505060c088013567ffffffffffffffff811115613af957600080fd5b613b058a828b01613758565b91505092959891949750929550565b60008060008060008060008060006101208a8c031215613b3357600080fd5b893567ffffffffffffffff811115613b4a57600080fd5b613b568c828d01613758565b9950506020613b678c828d016137ac565b98505060408a013567ffffffffffffffff811115613b8457600080fd5b613b908c828d01613758565b97505060608a013567ffffffffffffffff811115613bad57600080fd5b613bb98c828d01613758565b96505060808a013567ffffffffffffffff811115613bd657600080fd5b613be28c828d01613758565b95505060a08a013567ffffffffffffffff811115613bff57600080fd5b613c0b8c828d01613758565b94505060c08a013567ffffffffffffffff811115613c2857600080fd5b613c348c828d01613758565b93505060e08a013567ffffffffffffffff811115613c5157600080fd5b613c5d8c828d01613758565b925050610100613c6f8c828d01613747565b9150509295985092959850929598565b600060208284031215613c9157600080fd5b60006137d584846137ac565b60008060408385031215613cb057600080fd5b6000613cbc85856137ac565b925050602061380d85828601613747565b600080600080600080600080610100898b031215613cea57600080fd5b6000613cf68b8b6137ac565b985050602089013567ffffffffffffffff811115613d1357600080fd5b613d1f8b828c01613758565b975050604089013567ffffffffffffffff811115613d3c57600080fd5b613d488b828c01613758565b9650506060613d598b828c016137ac565b9550506080613d6a8b828c016137ac565b94505060a0613d7b8b828c016137ac565b93505060c089013567ffffffffffffffff811115613d9857600080fd5b613da48b828c01613758565b92505060e089013567ffffffffffffffff811115613dc157600080fd5b613dcd8b828c01613758565b9150509295985092959890939650565b6000613de98383613e00565b505060200190565b613dfa81614348565b82525050565b613dfa8161432c565b6000613e148261431f565b613e1e8185614323565b9350613e2983614319565b8060005b83811015613e57578151613e418882613ddd565b9750613e4c83614319565b925050600101613e2d565b509495945050505050565b613dfa81614337565b6000613e768261431f565b613e808185614323565b9350613e90818560208601614365565b613e9981614395565b9093019392505050565b613dfa81610f90565b602081016137528284613e00565b60408101613ec88285613df1565b613ed56020830184613e00565b9392505050565b60408101613eea8285613df1565b613ed56020830184613df1565b60808101613f058287613e00565b613f126020830186613e00565b613f1f6040830185613ea3565b613f2c6060830184613e62565b95945050505050565b60e08101613f43828a613e00565b8181036020830152613f558189613e6b565b9050613f646040830188613ea3565b8181036060830152613f768187613e6b565b90508181036080830152613f8a8186613e6b565b905081810360a0830152613f9e8185613e6b565b905081810360c0830152613fb28184613e6b565b9998505050505050505050565b6101008101613fce828b613e00565b8181036020830152613fe0818a613e6b565b9050613fef6040830189613ea3565b81810360608301526140018188613e6b565b905081810360808301526140158187613e6b565b905081810360a08301526140298186613e6b565b905081810360c083015261403d8185613e6b565b905081810360e08301526140518184613e6b565b9a9950505050505050505050565b60208082528101613ed58184613e09565b602081016137528284613e62565b60208082528101613ed58184613e6b565b60e080825281016140a0818a613e6b565b905081810360208301526140b48189613e6b565b905081810360408301526140c88188613e6b565b905081810360608301526140dc8187613e6b565b905081810360808301526140f08186613e6b565b90506140ff60a0830185613ea3565b81810360c0830152613fb28184613e6b565b60c080825281016141228189613e6b565b90506141316020830188613ea3565b81810360408301526141438187613e6b565b905081810360608301526141578186613e6b565b9050818103608083015261416b8185613e6b565b905081810360a083015261417f8184613e6b565b98975050505050505050565b602081016137528284613ea3565b608081016141a78287613ea3565b6141b46020830186613e00565b6141c16040830185613e00565b613f2c6060830184613ea3565b608081016141dc8287613ea3565b81810360208301526141ee8186613e6b565b90506141fd6040830185613ea3565b818103606083015261420f8184613e6b565b9695505050505050565b6101408101614228828d613ea3565b614235602083018c613ea3565b8181036040830152614247818b613e6b565b9050818103606083015261425b818a613e6b565b905061426a6080830189613ea3565b61427760a0830188613ea3565b61428460c0830187613ea3565b81810360e08301526142968186613e6b565b90508181036101008301526142ab8185613e6b565b90506142bb610120830184613e00565b9b9a5050505050505050505050565b60405181810167ffffffffffffffff811182821017156142e957600080fd5b604052919050565b600067ffffffffffffffff82111561430857600080fd5b506020601f91909101601f19160190565b60200190565b5190565b90815260200190565b60006137528261433c565b151590565b600160a060020a031690565b60006137528260006137528261432c565b82818337506000910152565b60005b83811015614380578181015183820152602001614368565b8381111561438f576000848401525b50505050565b601f01601f191690565b6143a88161432c565b81146143b357600080fd5b50565b6143a881610f9056fea365627a7a72315820f1caabbb5adf6d8404b3928b73f8185ff0cc1d5f817f014b5006e3b3353d93bf6c6578706572696d656e74616cf564736f6c63430005100040",
  "source": "pragma solidity >=0.5.2;\r\npragma experimental ABIEncoderV2;\r\n\r\ncontract Land {\r\n    struct Landreg {\r\n        uint256 id;\r\n        uint256 area;\r\n        string city;\r\n        string state;\r\n        uint256 landPrice;\r\n        uint256 propertyPID;\r\n        uint256 physicalSurveyNumber;\r\n        string ipfsHash;\r\n        string document;\r\n        address old_owner;\r\n    }\r\n\r\n    struct Buyer {\r\n        address id;\r\n        string name;\r\n        uint256 age;\r\n        string city;\r\n        string aadharNumber;\r\n        string panNumber;\r\n        string document;\r\n        string email;\r\n    }\r\n\r\n    struct Seller {\r\n        address id;\r\n        string name;\r\n        uint256 age;\r\n        string aadharNumber;\r\n        string panNumber;\r\n        string landsOwned;\r\n        string document;\r\n    }\r\n\r\n    struct LandInspector {\r\n        uint256 id;\r\n        string name;\r\n        uint256 age;\r\n        string designation;\r\n    }\r\n\r\n    struct LandRequest {\r\n        uint256 reqId;\r\n        address sellerId;\r\n        address buyerId;\r\n        uint256 landId;\r\n        // bool requestStatus;\r\n        // bool requested;\r\n    }\r\n\r\n    //key value pairs\r\n    mapping(uint256 => Landreg) public lands;\r\n    mapping(uint256 => LandInspector) public InspectorMapping;\r\n    mapping(address => Seller) public SellerMapping;\r\n    mapping(address => Buyer) public BuyerMapping;\r\n    mapping(uint256 => LandRequest) public RequestsMapping;\r\n\r\n    mapping(address => bool) public RegisteredAddressMapping;\r\n    mapping(address => bool) public RegisteredSellerMapping;\r\n    mapping(address => bool) public RegisteredBuyerMapping;\r\n    mapping(address => bool) public SellerVerification;\r\n    mapping(address => bool) public SellerRejection;\r\n    mapping(address => bool) public BuyerVerification;\r\n    mapping(address => bool) public BuyerRejection;\r\n    mapping(uint256 => bool) public LandVerification;\r\n    mapping(uint256 => address) public LandOwner;\r\n    mapping(uint256 => bool) public RequestStatus;\r\n    mapping(uint256 => bool) public RequestedLands;\r\n    mapping(uint256 => bool) public PaymentReceived;\r\n    mapping(address=>address) public successors;\r\n\r\n    address public Land_Inspector;\r\n    address[] public sellers;\r\n    address[] public buyers;\r\n\r\n    uint256 public landsCount;\r\n    uint256 public inspectorsCount;\r\n    uint256 public sellersCount;\r\n    uint256 public buyersCount;\r\n    uint256 public requestsCount;\r\n\r\n    event Registration(address _registrationId,address _succ);\r\n    event AddingLand(uint256 indexed _landId);\r\n    event Landrequested(address _sellerId);\r\n    event requestApproved(address _buyerId);\r\n    event Verified(address _id);\r\n    event Rejected(address _id);\r\n    event Succession(address _Owner);\r\n\r\n    constructor() public {\r\n        Land_Inspector = msg.sender;\r\n        addLandInspector(\"Inspector 1\", 45, \"Tehsil Manager\");\r\n    }\r\n\r\n        function getPrevious(uint i) public view returns (address){\r\n        return lands[i].old_owner;\r\n    }\r\n\r\n    function isSame(uint i) public view returns (bool){\r\n        if(lands[i].old_owner==LandOwner[i])\r\n            return true;\r\n        else return false;\r\n    }\r\n\r\n    // function getDate(uint i) public view returns (uint){\r\n    //     return lands[i].date;\r\n    // }\r\n\r\n    function addLandInspector(\r\n        string memory _name,\r\n        uint256 _age,\r\n        string memory _designation\r\n    ) private {\r\n        inspectorsCount++;\r\n        InspectorMapping[inspectorsCount] = LandInspector(\r\n            inspectorsCount,\r\n            _name,\r\n            _age,\r\n            _designation\r\n        );\r\n    }\r\n\r\n    function getLandsCount() public view returns (uint256) {\r\n        return landsCount;\r\n    }\r\n\r\n    function getBuyersCount() public view returns (uint256) {\r\n        return buyersCount;\r\n    }\r\n\r\n    function getSellersCount() public view returns (uint256) {\r\n        return sellersCount;\r\n    }\r\n\r\n    function getRequestsCount() public view returns (uint256) {\r\n        return requestsCount;\r\n    }\r\n\r\n    function getArea(uint256 i) public view returns (uint256) {\r\n        return lands[i].area;\r\n    }\r\n\r\n    function getCity(uint256 i) public view returns (string memory) {\r\n        return lands[i].city;\r\n    }\r\n\r\n    function getState(uint256 i) public view returns (string memory) {\r\n        return lands[i].state;\r\n    }\r\n\r\n    // function getStatus(uint i) public view returns (bool) {\r\n    //     return lands[i].verificationStatus;\r\n    // }\r\n    function getPrice(uint256 i) public view returns (uint256) {\r\n        return lands[i].landPrice;\r\n    }\r\n\r\n    function getPID(uint256 i) public view returns (uint256) {\r\n        return lands[i].propertyPID;\r\n    }\r\n\r\n    function getSurveyNumber(uint256 i) public view returns (uint256) {\r\n        return lands[i].physicalSurveyNumber;\r\n    }\r\n\r\n    function getImage(uint256 i) public view returns (string memory) {\r\n        return lands[i].ipfsHash;\r\n    }\r\n\r\n    function getDocument(uint256 i) public view returns (string memory) {\r\n        return lands[i].document;\r\n    }\r\n\r\n    function getLandOwner(uint256 id) public view returns (address) {\r\n        return LandOwner[id];\r\n    }\r\n\r\n    function verifySeller(address _sellerId) public {\r\n        require(isLandInspector(msg.sender));\r\n\r\n        SellerVerification[_sellerId] = true;\r\n        BuyerVerification[_sellerId] = true;\r\n        emit Verified(_sellerId);\r\n    }\r\n\r\n    function rejectSeller(address _sellerId) public {\r\n        require(isLandInspector(msg.sender));\r\n\r\n        SellerRejection[_sellerId] = true;\r\n        BuyerRejection[_sellerId] = true;\r\n        emit Rejected(_sellerId);\r\n    }\r\n\r\n    function verifyBuyer(address _buyerId) public {\r\n        require(isLandInspector(msg.sender));\r\n\r\n        BuyerVerification[_buyerId] = true;\r\n        emit Verified(_buyerId);\r\n    }\r\n\r\n    function rejectBuyer(address _buyerId) public {\r\n        require(isLandInspector(msg.sender));\r\n\r\n        BuyerRejection[_buyerId] = true;\r\n        emit Rejected(_buyerId);\r\n    }\r\n\r\n    function verifyLand(uint256 _landId) public {\r\n        require(isLandInspector(msg.sender));\r\n\r\n        LandVerification[_landId] = true;\r\n    }\r\n\r\n    function isLandVerified(uint256 _id) public view returns (bool) {\r\n        if (LandVerification[_id]) {\r\n            return true;\r\n        }\r\n    }\r\n\r\n    function isVerified(address _id) public view returns (bool) {\r\n        if (SellerVerification[_id] || BuyerVerification[_id]) {\r\n            return true;\r\n        }\r\n    }\r\n\r\n    function isRejected(address _id) public view returns (bool) {\r\n        if (SellerRejection[_id] || BuyerRejection[_id]) {\r\n            return true;\r\n        }\r\n    }\r\n\r\n    function isSeller(address _id) public view returns (bool) {\r\n        if (RegisteredSellerMapping[_id]) {\r\n            return true;\r\n        }\r\n    }\r\n\r\n    function isLandInspector(address _id) public view returns (bool) {\r\n        if (Land_Inspector == _id) {\r\n            return true;\r\n        } else {\r\n            return false;\r\n        }\r\n    }\r\n\r\n    function isBuyer(address _id) public view returns (bool) {\r\n        if (RegisteredBuyerMapping[_id]) {\r\n            return true;\r\n        }\r\n    }\r\n\r\n    function isRegistered(address _id) public view returns (bool) {\r\n        if (RegisteredAddressMapping[_id]) {\r\n            return true;\r\n        }\r\n    }\r\n\r\n        function addLand(uint _area, string memory _city,string memory _state, uint landPrice, uint _propertyPID,uint _surveyNum,string memory _ipfsHash, string memory _document) public {\r\n        require((isSeller(msg.sender)) && (isVerified(msg.sender)));\r\n        landsCount++;\r\n        lands[landsCount] = Landreg(landsCount, _area, _city, _state, landPrice,_propertyPID, _surveyNum, _ipfsHash, _document,msg.sender);\r\n        LandOwner[landsCount] = msg.sender;\r\n        // emit AddingLand(landsCount);\r\n    }\r\n\r\n    //registration of seller\r\n    function registerSeller(\r\n        string memory _name,\r\n        uint256 _age,\r\n        string memory _aadharNumber,\r\n        string memory _panNumber,\r\n        string memory _landsOwned,\r\n        string memory _document\r\n    ) public {\r\n        //require that Seller is not already registered\r\n        require(!RegisteredAddressMapping[msg.sender]);\r\n\r\n        RegisteredAddressMapping[msg.sender] = true;\r\n        RegisteredSellerMapping[msg.sender] = true;\r\n        sellersCount++;\r\n        SellerMapping[msg.sender] = Seller(\r\n            msg.sender,\r\n            _name,\r\n            _age,\r\n            _aadharNumber,\r\n            _panNumber,\r\n            _landsOwned,\r\n            _document\r\n        );\r\n        sellers.push(msg.sender);\r\n        emit Registration(msg.sender,msg.sender);\r\n    }\r\n\r\n    function updateSeller(\r\n        string memory _name,\r\n        uint256 _age,\r\n        string memory _aadharNumber,\r\n        string memory _panNumber,\r\n        string memory _landsOwned\r\n    ) public {\r\n        //require that Seller is already registered\r\n        require(\r\n            RegisteredAddressMapping[msg.sender] &&\r\n                (SellerMapping[msg.sender].id == msg.sender)\r\n        );\r\n\r\n        SellerMapping[msg.sender].name = _name;\r\n        SellerMapping[msg.sender].age = _age;\r\n        SellerMapping[msg.sender].aadharNumber = _aadharNumber;\r\n        SellerMapping[msg.sender].panNumber = _panNumber;\r\n        SellerMapping[msg.sender].landsOwned = _landsOwned;\r\n    }\r\n\r\n    function getSeller() public view returns (address[] memory) {\r\n        return (sellers);\r\n    }\r\n\r\n    function getSellerDetails(address i)\r\n        public\r\n        view\r\n        returns (\r\n            string memory,\r\n            uint256,\r\n            string memory,\r\n            string memory,\r\n            string memory,\r\n            string memory\r\n        )\r\n    {\r\n        return (\r\n            SellerMapping[i].name,\r\n            SellerMapping[i].age,\r\n            SellerMapping[i].aadharNumber,\r\n            SellerMapping[i].panNumber,\r\n            SellerMapping[i].landsOwned,\r\n            SellerMapping[i].document\r\n        );\r\n    }\r\n\r\n    function registerBuyer(\r\n        string memory _name,\r\n        uint256 _age,\r\n        string memory _city,\r\n        string memory _aadharNumber,\r\n        string memory _panNumber,\r\n        string memory _document,\r\n        string memory _email\r\n    ) public {\r\n        //require that Buyer is not already registered\r\n        // require(!RegisteredAddressMapping[msg.sender]);\r\n\r\n        RegisteredAddressMapping[msg.sender] = true;\r\n        RegisteredBuyerMapping[msg.sender] = true;\r\n        buyersCount++;\r\n        BuyerMapping[msg.sender] = Buyer(\r\n            msg.sender,\r\n            _name,\r\n            _age,\r\n            _city,\r\n            _aadharNumber,\r\n            _panNumber,\r\n            _document,\r\n            _email\r\n        );\r\n        buyers.push(msg.sender);\r\n\r\n        emit Registration(msg.sender,msg.sender);\r\n    }\r\n\r\n    function registerUser(\r\n        string memory _name,\r\n        uint256 _age,\r\n        string memory _city,\r\n        string memory _aadharNumber,\r\n        string memory _panNumber,\r\n        string memory _landsOwned,\r\n        string memory _document,\r\n        string memory _email,\r\n        address _succ\r\n    ) public {\r\n        // require that Buyer is not already registered\r\n        require(!RegisteredAddressMapping[msg.sender]);\r\n\r\n        RegisteredAddressMapping[msg.sender] = true;\r\n        RegisteredBuyerMapping[msg.sender] = true;\r\n        buyersCount++;\r\n        BuyerMapping[msg.sender] = Buyer(\r\n            msg.sender,\r\n            _name,\r\n            _age,\r\n            _city,\r\n            _aadharNumber,\r\n            _panNumber,\r\n            _document,\r\n            _email\r\n        );\r\n        buyers.push(msg.sender);\r\n        RegisteredSellerMapping[msg.sender] = true;\r\n        sellersCount++;\r\n        SellerMapping[msg.sender] = Seller(\r\n            msg.sender,\r\n            _name,\r\n            _age,\r\n            _aadharNumber,\r\n            _panNumber,\r\n            _landsOwned,\r\n            _document\r\n        );\r\n        sellers.push(msg.sender);\r\n        successors[msg.sender]=_succ;\r\n        emit Registration(msg.sender,_succ);\r\n    }\r\n\r\n    function updateBuyer(\r\n        string memory _name,\r\n        uint256 _age,\r\n        string memory _city,\r\n        string memory _aadharNumber,\r\n        string memory _email,\r\n        string memory _panNumber\r\n    ) public {\r\n        //require that Buyer is already registered\r\n        require(\r\n            RegisteredAddressMapping[msg.sender] &&\r\n                (BuyerMapping[msg.sender].id == msg.sender)\r\n        );\r\n\r\n        BuyerMapping[msg.sender].name = _name;\r\n        BuyerMapping[msg.sender].age = _age;\r\n        BuyerMapping[msg.sender].city = _city;\r\n        BuyerMapping[msg.sender].aadharNumber = _aadharNumber;\r\n        BuyerMapping[msg.sender].email = _email;\r\n        BuyerMapping[msg.sender].panNumber = _panNumber;\r\n    }\r\n\r\n    function getBuyer() public view returns (address[] memory) {\r\n        return (buyers);\r\n    }\r\n\r\n    function getSuccessor(address _Owner) public view returns (address)\r\n    {\r\n\r\n        return successors[_Owner];\r\n    } \r\n\r\n    function getBuyerDetails(address i)\r\n        public\r\n        view\r\n        returns (\r\n            string memory,\r\n            string memory,\r\n            string memory,\r\n            string memory,\r\n            string memory,\r\n            uint256,\r\n            string memory\r\n        )\r\n    {\r\n        return (\r\n            BuyerMapping[i].name,\r\n            BuyerMapping[i].city,\r\n            BuyerMapping[i].panNumber,\r\n            BuyerMapping[i].document,\r\n            BuyerMapping[i].email,\r\n            BuyerMapping[i].age,\r\n            BuyerMapping[i].aadharNumber\r\n        );\r\n    }\r\n\r\n    function requestLand(address _sellerId, uint256 _landId) public {\r\n        require(isBuyer(msg.sender) && isVerified(msg.sender));\r\n\r\n        requestsCount++;\r\n        RequestsMapping[requestsCount] = LandRequest(\r\n            requestsCount,\r\n            _sellerId,\r\n            msg.sender,\r\n            _landId\r\n        );\r\n        RequestStatus[requestsCount] = false;\r\n        RequestedLands[requestsCount] = true;\r\n\r\n        emit Landrequested(_sellerId);\r\n    }\r\n\r\n    function getRequestDetails(uint256 i)\r\n        public\r\n        view\r\n        returns (\r\n            address,\r\n            address,\r\n            uint256,\r\n            bool\r\n        )\r\n    {\r\n        return (\r\n            RequestsMapping[i].sellerId,\r\n            RequestsMapping[i].buyerId,\r\n            RequestsMapping[i].landId,\r\n            RequestStatus[i]\r\n        );\r\n    }\r\n\r\n    function isRequested(uint256 _id) public view returns (bool) {\r\n        if (RequestedLands[_id]) {\r\n            return true;\r\n        }\r\n    }\r\n\r\n    function isApproved(uint256 _id) public view returns (bool) {\r\n        if (RequestStatus[_id]) {\r\n            return true;\r\n        }\r\n    }\r\n\r\n    function approveRequest(uint256 _reqId) public {\r\n        require((isSeller(msg.sender)) && (isVerified(msg.sender)));\r\n\r\n        RequestStatus[_reqId] = true;\r\n    }\r\n\r\n        function LandOwnershipTransfer(uint _landId, address _newOwner) public{\r\n        require(isLandInspector(msg.sender));\r\n        lands[_landId].old_owner=LandOwner[_landId];\r\n        LandOwner[_landId] = _newOwner;\r\n    }\r\n\r\n    function isPaid(uint256 _landId) public view returns (bool) {\r\n        if (PaymentReceived[_landId]) {\r\n            return true;\r\n        }\r\n    }\r\n\r\n    function payment(address payable _receiver, uint256 _landId)\r\n        public\r\n        payable\r\n    {\r\n        PaymentReceived[_landId] = true;\r\n        _receiver.transfer(msg.value);\r\n    }\r\n\r\n\r\n    function AfterDeath(address _Owner) public\r\n    {\r\n        require(isLandInspector(msg.sender));\r\n\r\n        uint i;\r\n        for(i=1;i<=landsCount;i++)\r\n        {\r\n            if(LandOwner[i]==_Owner)\r\n            {\r\n\r\n                lands[i].old_owner=LandOwner[i];\r\n                LandOwner[i]=successors[_Owner];\r\n            }\r\n        }\r\n\r\n        emit Succession(_Owner);\r\n\r\n    }\r\n}\r\n",
  "sourcePath": "D:\\CAT\\Land-Locker\\contracts\\Land.sol",
  "compiler": {
    "name": "solc",
    "version": "0.5.16+commit.9c3226ce.Emscripten.clang"
  },
  "schemaVersion": "3.4.7",
  "updatedAt": "2022-12-03T19:13:38.795Z",
  "networkType": "ethereum",
  "devdoc": {
    "methods": {}
  },
  "userdoc": {
    "methods": {}
  }
}