{
  "contractName": "Land",
  "abi": [
    {
      "inputs": [],
      "payable": false,
      "stateMutability": "nonpayable",
      "type": "constructor"
    },
    {
      "anonymous": false,
      "inputs": [
        {
          "indexed": true,
          "internalType": "uint256",
          "name": "_landId",
          "type": "uint256"
        }
      ],
      "name": "AddingLand",
      "type": "event"
    },
    {
      "anonymous": false,
      "inputs": [
        {
          "indexed": false,
          "internalType": "address",
          "name": "_sellerId",
          "type": "address"
        }
      ],
      "name": "Landrequested",
      "type": "event"
    },
    {
      "anonymous": false,
      "inputs": [
        {
          "indexed": false,
          "internalType": "address",
          "name": "_registrationId",
          "type": "address"
        },
        {
          "indexed": false,
          "internalType": "address",
          "name": "_succ",
          "type": "address"
        }
      ],
      "name": "Registration",
      "type": "event"
    },
    {
      "anonymous": false,
      "inputs": [
        {
          "indexed": false,
          "internalType": "address",
          "name": "_id",
          "type": "address"
        }
      ],
      "name": "Rejected",
      "type": "event"
    },
    {
      "anonymous": false,
      "inputs": [
        {
          "indexed": false,
          "internalType": "address",
          "name": "_Owner",
          "type": "address"
        }
      ],
      "name": "Succession",
      "type": "event"
    },
    {
      "anonymous": false,
      "inputs": [
        {
          "indexed": false,
          "internalType": "address",
          "name": "_id",
          "type": "address"
        }
      ],
      "name": "Verified",
      "type": "event"
    },
    {
      "anonymous": false,
      "inputs": [
        {
          "indexed": false,
          "internalType": "address",
          "name": "_buyerId",
          "type": "address"
        }
      ],
      "name": "requestApproved",
      "type": "event"
    },
    {
      "constant": true,
      "inputs": [
        {
          "internalType": "address",
          "name": "",
          "type": "address"
        }
      ],
      "name": "BuyerMapping",
      "outputs": [
        {
          "internalType": "address",
          "name": "id",
          "type": "address"
        },
        {
          "internalType": "string",
          "name": "name",
          "type": "string"
        },
        {
          "internalType": "uint256",
          "name": "age",
          "type": "uint256"
        },
        {
          "internalType": "string",
          "name": "city",
          "type": "string"
        },
        {
          "internalType": "string",
          "name": "aadharNumber",
          "type": "string"
        },
        {
          "internalType": "string",
          "name": "panNumber",
          "type": "string"
        },
        {
          "internalType": "string",
          "name": "document",
          "type": "string"
        },
        {
          "internalType": "string",
          "name": "email",
          "type": "string"
        }
      ],
      "payable": false,
      "stateMutability": "view",
      "type": "function"
    },
    {
      "constant": true,
      "inputs": [
        {
          "internalType": "address",
          "name": "",
          "type": "address"
        }
      ],
      "name": "BuyerRejection",
      "outputs": [
        {
          "internalType": "bool",
          "name": "",
          "type": "bool"
        }
      ],
      "payable": false,
      "stateMutability": "view",
      "type": "function"
    },
    {
      "constant": true,
      "inputs": [
        {
          "internalType": "address",
          "name": "",
          "type": "address"
        }
      ],
      "name": "BuyerVerification",
      "outputs": [
        {
          "internalType": "bool",
          "name": "",
          "type": "bool"
        }
      ],
      "payable": false,
      "stateMutability": "view",
      "type": "function"
    },
    {
      "constant": true,
      "inputs": [
        {
          "internalType": "uint256",
          "name": "",
          "type": "uint256"
        }
      ],
      "name": "InspectorMapping",
      "outputs": [
        {
          "internalType": "uint256",
          "name": "id",
          "type": "uint256"
        },
        {
          "internalType": "string",
          "name": "name",
          "type": "string"
        },
        {
          "internalType": "uint256",
          "name": "age",
          "type": "uint256"
        },
        {
          "internalType": "string",
          "name": "designation",
          "type": "string"
        }
      ],
      "payable": false,
      "stateMutability": "view",
      "type": "function"
    },
    {
      "constant": true,
      "inputs": [
        {
          "internalType": "uint256",
          "name": "",
          "type": "uint256"
        }
      ],
      "name": "LandOwner",
      "outputs": [
        {
          "internalType": "address",
          "name": "",
          "type": "address"
        }
      ],
      "payable": false,
      "stateMutability": "view",
      "type": "function"
    },
    {
      "constant": true,
      "inputs": [
        {
          "internalType": "uint256",
          "name": "",
          "type": "uint256"
        }
      ],
      "name": "LandVerification",
      "outputs": [
        {
          "internalType": "bool",
          "name": "",
          "type": "bool"
        }
      ],
      "payable": false,
      "stateMutability": "view",
      "type": "function"
    },
    {
      "constant": true,
      "inputs": [],
      "name": "Land_Inspector",
      "outputs": [
        {
          "internalType": "address",
          "name": "",
          "type": "address"
        }
      ],
      "payable": false,
      "stateMutability": "view",
      "type": "function"
    },
    {
      "constant": true,
      "inputs": [
        {
          "internalType": "uint256",
          "name": "",
          "type": "uint256"
        }
      ],
      "name": "PaymentReceived",
      "outputs": [
        {
          "internalType": "bool",
          "name": "",
          "type": "bool"
        }
      ],
      "payable": false,
      "stateMutability": "view",
      "type": "function"
    },
    {
      "constant": true,
      "inputs": [
        {
          "internalType": "address",
          "name": "",
          "type": "address"
        }
      ],
      "name": "RegisteredAddressMapping",
      "outputs": [
        {
          "internalType": "bool",
          "name": "",
          "type": "bool"
        }
      ],
      "payable": false,
      "stateMutability": "view",
      "type": "function"
    },
    {
      "constant": true,
      "inputs": [
        {
          "internalType": "address",
          "name": "",
          "type": "address"
        }
      ],
      "name": "RegisteredBuyerMapping",
      "outputs": [
        {
          "internalType": "bool",
          "name": "",
          "type": "bool"
        }
      ],
      "payable": false,
      "stateMutability": "view",
      "type": "function"
    },
    {
      "constant": true,
      "inputs": [
        {
          "internalType": "address",
          "name": "",
          "type": "address"
        }
      ],
      "name": "RegisteredSellerMapping",
      "outputs": [
        {
          "internalType": "bool",
          "name": "",
          "type": "bool"
        }
      ],
      "payable": false,
      "stateMutability": "view",
      "type": "function"
    },
    {
      "constant": true,
      "inputs": [
        {
          "internalType": "uint256",
          "name": "",
          "type": "uint256"
        }
      ],
      "name": "RequestStatus",
      "outputs": [
        {
          "internalType": "bool",
          "name": "",
          "type": "bool"
        }
      ],
      "payable": false,
      "stateMutability": "view",
      "type": "function"
    },
    {
      "constant": true,
      "inputs": [
        {
          "internalType": "uint256",
          "name": "",
          "type": "uint256"
        }
      ],
      "name": "RequestedLands",
      "outputs": [
        {
          "internalType": "bool",
          "name": "",
          "type": "bool"
        }
      ],
      "payable": false,
      "stateMutability": "view",
      "type": "function"
    },
    {
      "constant": true,
      "inputs": [
        {
          "internalType": "uint256",
          "name": "",
          "type": "uint256"
        }
      ],
      "name": "RequestsMapping",
      "outputs": [
        {
          "internalType": "uint256",
          "name": "reqId",
          "type": "uint256"
        },
        {
          "internalType": "address",
          "name": "sellerId",
          "type": "address"
        },
        {
          "internalType": "address",
          "name": "buyerId",
          "type": "address"
        },
        {
          "internalType": "uint256",
          "name": "landId",
          "type": "uint256"
        }
      ],
      "payable": false,
      "stateMutability": "view",
      "type": "function"
    },
    {
      "constant": true,
      "inputs": [
        {
          "internalType": "address",
          "name": "",
          "type": "address"
        }
      ],
      "name": "SellerMapping",
      "outputs": [
        {
          "internalType": "address",
          "name": "id",
          "type": "address"
        },
        {
          "internalType": "string",
          "name": "name",
          "type": "string"
        },
        {
          "internalType": "uint256",
          "name": "age",
          "type": "uint256"
        },
        {
          "internalType": "string",
          "name": "aadharNumber",
          "type": "string"
        },
        {
          "internalType": "string",
          "name": "panNumber",
          "type": "string"
        },
        {
          "internalType": "string",
          "name": "landsOwned",
          "type": "string"
        },
        {
          "internalType": "string",
          "name": "document",
          "type": "string"
        }
      ],
      "payable": false,
      "stateMutability": "view",
      "type": "function"
    },
    {
      "constant": true,
      "inputs": [
        {
          "internalType": "address",
          "name": "",
          "type": "address"
        }
      ],
      "name": "SellerRejection",
      "outputs": [
        {
          "internalType": "bool",
          "name": "",
          "type": "bool"
        }
      ],
      "payable": false,
      "stateMutability": "view",
      "type": "function"
    },
    {
      "constant": true,
      "inputs": [
        {
          "internalType": "address",
          "name": "",
          "type": "address"
        }
      ],
      "name": "SellerVerification",
      "outputs": [
        {
          "internalType": "bool",
          "name": "",
          "type": "bool"
        }
      ],
      "payable": false,
      "stateMutability": "view",
      "type": "function"
    },
    {
      "constant": true,
      "inputs": [
        {
          "internalType": "uint256",
          "name": "",
          "type": "uint256"
        }
      ],
      "name": "buyers",
      "outputs": [
        {
          "internalType": "address",
          "name": "",
          "type": "address"
        }
      ],
      "payable": false,
      "stateMutability": "view",
      "type": "function"
    },
    {
      "constant": true,
      "inputs": [],
      "name": "buyersCount",
      "outputs": [
        {
          "internalType": "uint256",
          "name": "",
          "type": "uint256"
        }
      ],
      "payable": false,
      "stateMutability": "view",
      "type": "function"
    },
    {
      "constant": true,
      "inputs": [],
      "name": "inspectorsCount",
      "outputs": [
        {
          "internalType": "uint256",
          "name": "",
          "type": "uint256"
        }
      ],
      "payable": false,
      "stateMutability": "view",
      "type": "function"
    },
    {
      "constant": true,
      "inputs": [
        {
          "internalType": "address",
          "name": "",
          "type": "address"
        }
      ],
      "name": "isAlive",
      "outputs": [
        {
          "internalType": "bool",
          "name": "",
          "type": "bool"
        }
      ],
      "payable": false,
      "stateMutability": "view",
      "type": "function"
    },
    {
      "constant": true,
      "inputs": [
        {
          "internalType": "uint256",
          "name": "",
          "type": "uint256"
        }
      ],
      "name": "lands",
      "outputs": [
        {
          "internalType": "uint256",
          "name": "id",
          "type": "uint256"
        },
        {
          "internalType": "uint256",
          "name": "area",
          "type": "uint256"
        },
        {
          "internalType": "string",
          "name": "city",
          "type": "string"
        },
        {
          "internalType": "string",
          "name": "state",
          "type": "string"
        },
        {
          "internalType": "uint256",
          "name": "landPrice",
          "type": "uint256"
        },
        {
          "internalType": "uint256",
          "name": "propertyPID",
          "type": "uint256"
        },
        {
          "internalType": "uint256",
          "name": "physicalSurveyNumber",
          "type": "uint256"
        },
        {
          "internalType": "string",
          "name": "ipfsHash",
          "type": "string"
        },
        {
          "internalType": "string",
          "name": "document",
          "type": "string"
        },
        {
          "internalType": "address",
          "name": "old_owner",
          "type": "address"
        },
        {
          "internalType": "string",
          "name": "lat",
          "type": "string"
        },
        {
          "internalType": "string",
          "name": "lng",
          "type": "string"
        }
      ],
      "payable": false,
      "stateMutability": "view",
      "type": "function"
    },
    {
      "constant": true,
      "inputs": [],
      "name": "landsCount",
      "outputs": [
        {
          "internalType": "uint256",
          "name": "",
          "type": "uint256"
        }
      ],
      "payable": false,
      "stateMutability": "view",
      "type": "function"
    },
    {
      "constant": true,
      "inputs": [],
      "name": "requestsCount",
      "outputs": [
        {
          "internalType": "uint256",
          "name": "",
          "type": "uint256"
        }
      ],
      "payable": false,
      "stateMutability": "view",
      "type": "function"
    },
    {
      "constant": true,
      "inputs": [
        {
          "internalType": "uint256",
          "name": "",
          "type": "uint256"
        }
      ],
      "name": "sellers",
      "outputs": [
        {
          "internalType": "address",
          "name": "",
          "type": "address"
        }
      ],
      "payable": false,
      "stateMutability": "view",
      "type": "function"
    },
    {
      "constant": true,
      "inputs": [],
      "name": "sellersCount",
      "outputs": [
        {
          "internalType": "uint256",
          "name": "",
          "type": "uint256"
        }
      ],
      "payable": false,
      "stateMutability": "view",
      "type": "function"
    },
    {
      "constant": true,
      "inputs": [
        {
          "internalType": "address",
          "name": "",
          "type": "address"
        }
      ],
      "name": "successors",
      "outputs": [
        {
          "internalType": "address",
          "name": "",
          "type": "address"
        }
      ],
      "payable": false,
      "stateMutability": "view",
      "type": "function"
    },
    {
      "constant": true,
      "inputs": [
        {
          "internalType": "uint256",
          "name": "i",
          "type": "uint256"
        }
      ],
      "name": "getPrevious",
      "outputs": [
        {
          "internalType": "address",
          "name": "",
          "type": "address"
        }
      ],
      "payable": false,
      "stateMutability": "view",
      "type": "function"
    },
    {
      "constant": true,
      "inputs": [
        {
          "internalType": "uint256",
          "name": "i",
          "type": "uint256"
        }
      ],
      "name": "isSame",
      "outputs": [
        {
          "internalType": "bool",
          "name": "",
          "type": "bool"
        }
      ],
      "payable": false,
      "stateMutability": "view",
      "type": "function"
    },
    {
      "constant": true,
      "inputs": [],
      "name": "getLandsCount",
      "outputs": [
        {
          "internalType": "uint256",
          "name": "",
          "type": "uint256"
        }
      ],
      "payable": false,
      "stateMutability": "view",
      "type": "function"
    },
    {
      "constant": true,
      "inputs": [],
      "name": "getBuyersCount",
      "outputs": [
        {
          "internalType": "uint256",
          "name": "",
          "type": "uint256"
        }
      ],
      "payable": false,
      "stateMutability": "view",
      "type": "function"
    },
    {
      "constant": true,
      "inputs": [],
      "name": "getSellersCount",
      "outputs": [
        {
          "internalType": "uint256",
          "name": "",
          "type": "uint256"
        }
      ],
      "payable": false,
      "stateMutability": "view",
      "type": "function"
    },
    {
      "constant": true,
      "inputs": [],
      "name": "getRequestsCount",
      "outputs": [
        {
          "internalType": "uint256",
          "name": "",
          "type": "uint256"
        }
      ],
      "payable": false,
      "stateMutability": "view",
      "type": "function"
    },
    {
      "constant": true,
      "inputs": [
        {
          "internalType": "uint256",
          "name": "i",
          "type": "uint256"
        }
      ],
      "name": "getArea",
      "outputs": [
        {
          "internalType": "uint256",
          "name": "",
          "type": "uint256"
        }
      ],
      "payable": false,
      "stateMutability": "view",
      "type": "function"
    },
    {
      "constant": true,
      "inputs": [
        {
          "internalType": "uint256",
          "name": "i",
          "type": "uint256"
        }
      ],
      "name": "getCity",
      "outputs": [
        {
          "internalType": "string",
          "name": "",
          "type": "string"
        }
      ],
      "payable": false,
      "stateMutability": "view",
      "type": "function"
    },
    {
      "constant": true,
      "inputs": [
        {
          "internalType": "uint256",
          "name": "i",
          "type": "uint256"
        }
      ],
      "name": "getState",
      "outputs": [
        {
          "internalType": "string",
          "name": "",
          "type": "string"
        }
      ],
      "payable": false,
      "stateMutability": "view",
      "type": "function"
    },
    {
      "constant": true,
      "inputs": [
        {
          "internalType": "uint256",
          "name": "i",
          "type": "uint256"
        }
      ],
      "name": "getPrice",
      "outputs": [
        {
          "internalType": "uint256",
          "name": "",
          "type": "uint256"
        }
      ],
      "payable": false,
      "stateMutability": "view",
      "type": "function"
    },
    {
      "constant": true,
      "inputs": [
        {
          "internalType": "uint256",
          "name": "i",
          "type": "uint256"
        }
      ],
      "name": "getPID",
      "outputs": [
        {
          "internalType": "uint256",
          "name": "",
          "type": "uint256"
        }
      ],
      "payable": false,
      "stateMutability": "view",
      "type": "function"
    },
    {
      "constant": true,
      "inputs": [
        {
          "internalType": "uint256",
          "name": "i",
          "type": "uint256"
        }
      ],
      "name": "getSurveyNumber",
      "outputs": [
        {
          "internalType": "uint256",
          "name": "",
          "type": "uint256"
        }
      ],
      "payable": false,
      "stateMutability": "view",
      "type": "function"
    },
    {
      "constant": true,
      "inputs": [
        {
          "internalType": "uint256",
          "name": "i",
          "type": "uint256"
        }
      ],
      "name": "getImage",
      "outputs": [
        {
          "internalType": "string",
          "name": "",
          "type": "string"
        }
      ],
      "payable": false,
      "stateMutability": "view",
      "type": "function"
    },
    {
      "constant": true,
      "inputs": [
        {
          "internalType": "uint256",
          "name": "i",
          "type": "uint256"
        }
      ],
      "name": "getDocument",
      "outputs": [
        {
          "internalType": "string",
          "name": "",
          "type": "string"
        }
      ],
      "payable": false,
      "stateMutability": "view",
      "type": "function"
    },
    {
      "constant": true,
      "inputs": [
        {
          "internalType": "uint256",
          "name": "id",
          "type": "uint256"
        }
      ],
      "name": "getLandOwner",
      "outputs": [
        {
          "internalType": "address",
          "name": "",
          "type": "address"
        }
      ],
      "payable": false,
      "stateMutability": "view",
      "type": "function"
    },
    {
      "constant": true,
      "inputs": [
        {
          "internalType": "address",
          "name": "_Owner",
          "type": "address"
        }
      ],
      "name": "getAlive",
      "outputs": [
        {
          "internalType": "bool",
          "name": "",
          "type": "bool"
        }
      ],
      "payable": false,
      "stateMutability": "view",
      "type": "function"
    },
    {
      "constant": false,
      "inputs": [
        {
          "internalType": "address",
          "name": "_sellerId",
          "type": "address"
        }
      ],
      "name": "verifySeller",
      "outputs": [],
      "payable": false,
      "stateMutability": "nonpayable",
      "type": "function"
    },
    {
      "constant": false,
      "inputs": [
        {
          "internalType": "address",
          "name": "_sellerId",
          "type": "address"
        }
      ],
      "name": "rejectSeller",
      "outputs": [],
      "payable": false,
      "stateMutability": "nonpayable",
      "type": "function"
    },
    {
      "constant": false,
      "inputs": [
        {
          "internalType": "address",
          "name": "_buyerId",
          "type": "address"
        }
      ],
      "name": "verifyBuyer",
      "outputs": [],
      "payable": false,
      "stateMutability": "nonpayable",
      "type": "function"
    },
    {
      "constant": false,
      "inputs": [
        {
          "internalType": "address",
          "name": "_buyerId",
          "type": "address"
        }
      ],
      "name": "rejectBuyer",
      "outputs": [],
      "payable": false,
      "stateMutability": "nonpayable",
      "type": "function"
    },
    {
      "constant": false,
      "inputs": [
        {
          "internalType": "uint256",
          "name": "_landId",
          "type": "uint256"
        }
      ],
      "name": "verifyLand",
      "outputs": [],
      "payable": false,
      "stateMutability": "nonpayable",
      "type": "function"
    },
    {
      "constant": true,
      "inputs": [
        {
          "internalType": "uint256",
          "name": "_id",
          "type": "uint256"
        }
      ],
      "name": "isLandVerified",
      "outputs": [
        {
          "internalType": "bool",
          "name": "",
          "type": "bool"
        }
      ],
      "payable": false,
      "stateMutability": "view",
      "type": "function"
    },
    {
      "constant": true,
      "inputs": [
        {
          "internalType": "address",
          "name": "_id",
          "type": "address"
        }
      ],
      "name": "isVerified",
      "outputs": [
        {
          "internalType": "bool",
          "name": "",
          "type": "bool"
        }
      ],
      "payable": false,
      "stateMutability": "view",
      "type": "function"
    },
    {
      "constant": true,
      "inputs": [
        {
          "internalType": "address",
          "name": "_id",
          "type": "address"
        }
      ],
      "name": "isRejected",
      "outputs": [
        {
          "internalType": "bool",
          "name": "",
          "type": "bool"
        }
      ],
      "payable": false,
      "stateMutability": "view",
      "type": "function"
    },
    {
      "constant": true,
      "inputs": [
        {
          "internalType": "address",
          "name": "_id",
          "type": "address"
        }
      ],
      "name": "isSeller",
      "outputs": [
        {
          "internalType": "bool",
          "name": "",
          "type": "bool"
        }
      ],
      "payable": false,
      "stateMutability": "view",
      "type": "function"
    },
    {
      "constant": true,
      "inputs": [
        {
          "internalType": "address",
          "name": "_id",
          "type": "address"
        }
      ],
      "name": "isLandInspector",
      "outputs": [
        {
          "internalType": "bool",
          "name": "",
          "type": "bool"
        }
      ],
      "payable": false,
      "stateMutability": "view",
      "type": "function"
    },
    {
      "constant": true,
      "inputs": [
        {
          "internalType": "address",
          "name": "_id",
          "type": "address"
        }
      ],
      "name": "isBuyer",
      "outputs": [
        {
          "internalType": "bool",
          "name": "",
          "type": "bool"
        }
      ],
      "payable": false,
      "stateMutability": "view",
      "type": "function"
    },
    {
      "constant": true,
      "inputs": [
        {
          "internalType": "address",
          "name": "_id",
          "type": "address"
        }
      ],
      "name": "isRegistered",
      "outputs": [
        {
          "internalType": "bool",
          "name": "",
          "type": "bool"
        }
      ],
      "payable": false,
      "stateMutability": "view",
      "type": "function"
    },
    {
      "constant": false,
      "inputs": [
        {
          "internalType": "uint256",
          "name": "_area",
          "type": "uint256"
        },
        {
          "internalType": "string",
          "name": "_city",
          "type": "string"
        },
        {
          "internalType": "string",
          "name": "_state",
          "type": "string"
        },
        {
          "internalType": "uint256",
          "name": "landPrice",
          "type": "uint256"
        },
        {
          "internalType": "uint256",
          "name": "_propertyPID",
          "type": "uint256"
        },
        {
          "internalType": "uint256",
          "name": "_surveyNum",
          "type": "uint256"
        },
        {
          "internalType": "string",
          "name": "_ipfsHash",
          "type": "string"
        },
        {
          "internalType": "string",
          "name": "_document",
          "type": "string"
        },
        {
          "internalType": "string",
          "name": "_lat",
          "type": "string"
        },
        {
          "internalType": "string",
          "name": "_lng",
          "type": "string"
        }
      ],
      "name": "addLand",
      "outputs": [],
      "payable": false,
      "stateMutability": "nonpayable",
      "type": "function"
    },
    {
      "constant": true,
      "inputs": [
        {
          "internalType": "uint256",
          "name": "i",
          "type": "uint256"
        }
      ],
      "name": "getLandDetails",
      "outputs": [
        {
          "internalType": "uint256",
          "name": "",
          "type": "uint256"
        },
        {
          "internalType": "uint256",
          "name": "",
          "type": "uint256"
        },
        {
          "internalType": "string",
          "name": "",
          "type": "string"
        },
        {
          "internalType": "string",
          "name": "",
          "type": "string"
        },
        {
          "internalType": "uint256",
          "name": "",
          "type": "uint256"
        },
        {
          "internalType": "string",
          "name": "",
          "type": "string"
        },
        {
          "internalType": "string",
          "name": "",
          "type": "string"
        }
      ],
      "payable": false,
      "stateMutability": "view",
      "type": "function"
    },
    {
      "constant": false,
      "inputs": [
        {
          "internalType": "string",
          "name": "_name",
          "type": "string"
        },
        {
          "internalType": "uint256",
          "name": "_age",
          "type": "uint256"
        },
        {
          "internalType": "string",
          "name": "_aadharNumber",
          "type": "string"
        },
        {
          "internalType": "string",
          "name": "_panNumber",
          "type": "string"
        },
        {
          "internalType": "string",
          "name": "_landsOwned",
          "type": "string"
        },
        {
          "internalType": "string",
          "name": "_document",
          "type": "string"
        }
      ],
      "name": "registerSeller",
      "outputs": [],
      "payable": false,
      "stateMutability": "nonpayable",
      "type": "function"
    },
    {
      "constant": false,
      "inputs": [
        {
          "internalType": "string",
          "name": "_name",
          "type": "string"
        },
        {
          "internalType": "uint256",
          "name": "_age",
          "type": "uint256"
        },
        {
          "internalType": "string",
          "name": "_aadharNumber",
          "type": "string"
        },
        {
          "internalType": "string",
          "name": "_panNumber",
          "type": "string"
        },
        {
          "internalType": "string",
          "name": "_landsOwned",
          "type": "string"
        }
      ],
      "name": "updateSeller",
      "outputs": [],
      "payable": false,
      "stateMutability": "nonpayable",
      "type": "function"
    },
    {
      "constant": true,
      "inputs": [],
      "name": "getSeller",
      "outputs": [
        {
          "internalType": "address[]",
          "name": "",
          "type": "address[]"
        }
      ],
      "payable": false,
      "stateMutability": "view",
      "type": "function"
    },
    {
      "constant": true,
      "inputs": [
        {
          "internalType": "address",
          "name": "i",
          "type": "address"
        }
      ],
      "name": "getSellerDetails",
      "outputs": [
        {
          "internalType": "string",
          "name": "",
          "type": "string"
        },
        {
          "internalType": "uint256",
          "name": "",
          "type": "uint256"
        },
        {
          "internalType": "string",
          "name": "",
          "type": "string"
        },
        {
          "internalType": "string",
          "name": "",
          "type": "string"
        },
        {
          "internalType": "string",
          "name": "",
          "type": "string"
        },
        {
          "internalType": "string",
          "name": "",
          "type": "string"
        }
      ],
      "payable": false,
      "stateMutability": "view",
      "type": "function"
    },
    {
      "constant": false,
      "inputs": [
        {
          "internalType": "string",
          "name": "_name",
          "type": "string"
        },
        {
          "internalType": "uint256",
          "name": "_age",
          "type": "uint256"
        },
        {
          "internalType": "string",
          "name": "_city",
          "type": "string"
        },
        {
          "internalType": "string",
          "name": "_aadharNumber",
          "type": "string"
        },
        {
          "internalType": "string",
          "name": "_panNumber",
          "type": "string"
        },
        {
          "internalType": "string",
          "name": "_document",
          "type": "string"
        },
        {
          "internalType": "string",
          "name": "_email",
          "type": "string"
        }
      ],
      "name": "registerBuyer",
      "outputs": [],
      "payable": false,
      "stateMutability": "nonpayable",
      "type": "function"
    },
    {
      "constant": false,
      "inputs": [
        {
          "internalType": "string",
          "name": "_name",
          "type": "string"
        },
        {
          "internalType": "uint256",
          "name": "_age",
          "type": "uint256"
        },
        {
          "internalType": "string",
          "name": "_city",
          "type": "string"
        },
        {
          "internalType": "string",
          "name": "_aadharNumber",
          "type": "string"
        },
        {
          "internalType": "string",
          "name": "_panNumber",
          "type": "string"
        },
        {
          "internalType": "string",
          "name": "_landsOwned",
          "type": "string"
        },
        {
          "internalType": "string",
          "name": "_document",
          "type": "string"
        },
        {
          "internalType": "string",
          "name": "_email",
          "type": "string"
        },
        {
          "internalType": "address",
          "name": "_succ",
          "type": "address"
        }
      ],
      "name": "registerUser",
      "outputs": [],
      "payable": false,
      "stateMutability": "nonpayable",
      "type": "function"
    },
    {
      "constant": false,
      "inputs": [
        {
          "internalType": "string",
          "name": "_name",
          "type": "string"
        },
        {
          "internalType": "uint256",
          "name": "_age",
          "type": "uint256"
        },
        {
          "internalType": "string",
          "name": "_city",
          "type": "string"
        },
        {
          "internalType": "string",
          "name": "_aadharNumber",
          "type": "string"
        },
        {
          "internalType": "string",
          "name": "_email",
          "type": "string"
        },
        {
          "internalType": "string",
          "name": "_panNumber",
          "type": "string"
        }
      ],
      "name": "updateBuyer",
      "outputs": [],
      "payable": false,
      "stateMutability": "nonpayable",
      "type": "function"
    },
    {
      "constant": true,
      "inputs": [],
      "name": "getBuyer",
      "outputs": [
        {
          "internalType": "address[]",
          "name": "",
          "type": "address[]"
        }
      ],
      "payable": false,
      "stateMutability": "view",
      "type": "function"
    },
    {
      "constant": true,
      "inputs": [
        {
          "internalType": "address",
          "name": "_Owner",
          "type": "address"
        }
      ],
      "name": "getSuccessor",
      "outputs": [
        {
          "internalType": "address",
          "name": "",
          "type": "address"
        }
      ],
      "payable": false,
      "stateMutability": "view",
      "type": "function"
    },
    {
      "constant": true,
      "inputs": [
        {
          "internalType": "address",
          "name": "i",
          "type": "address"
        }
      ],
      "name": "getBuyerDetails",
      "outputs": [
        {
          "internalType": "string",
          "name": "",
          "type": "string"
        },
        {
          "internalType": "string",
          "name": "",
          "type": "string"
        },
        {
          "internalType": "string",
          "name": "",
          "type": "string"
        },
        {
          "internalType": "string",
          "name": "",
          "type": "string"
        },
        {
          "internalType": "string",
          "name": "",
          "type": "string"
        },
        {
          "internalType": "uint256",
          "name": "",
          "type": "uint256"
        },
        {
          "internalType": "string",
          "name": "",
          "type": "string"
        }
      ],
      "payable": false,
      "stateMutability": "view",
      "type": "function"
    },
    {
      "constant": false,
      "inputs": [
        {
          "internalType": "address",
          "name": "_sellerId",
          "type": "address"
        },
        {
          "internalType": "uint256",
          "name": "_landId",
          "type": "uint256"
        }
      ],
      "name": "requestLand",
      "outputs": [],
      "payable": false,
      "stateMutability": "nonpayable",
      "type": "function"
    },
    {
      "constant": true,
      "inputs": [
        {
          "internalType": "uint256",
          "name": "i",
          "type": "uint256"
        }
      ],
      "name": "getRequestDetails",
      "outputs": [
        {
          "internalType": "address",
          "name": "",
          "type": "address"
        },
        {
          "internalType": "address",
          "name": "",
          "type": "address"
        },
        {
          "internalType": "uint256",
          "name": "",
          "type": "uint256"
        },
        {
          "internalType": "bool",
          "name": "",
          "type": "bool"
        }
      ],
      "payable": false,
      "stateMutability": "view",
      "type": "function"
    },
    {
      "constant": true,
      "inputs": [
        {
          "internalType": "uint256",
          "name": "_id",
          "type": "uint256"
        }
      ],
      "name": "isRequested",
      "outputs": [
        {
          "internalType": "bool",
          "name": "",
          "type": "bool"
        }
      ],
      "payable": false,
      "stateMutability": "view",
      "type": "function"
    },
    {
      "constant": true,
      "inputs": [
        {
          "internalType": "uint256",
          "name": "_id",
          "type": "uint256"
        }
      ],
      "name": "isApproved",
      "outputs": [
        {
          "internalType": "bool",
          "name": "",
          "type": "bool"
        }
      ],
      "payable": false,
      "stateMutability": "view",
      "type": "function"
    },
    {
      "constant": false,
      "inputs": [
        {
          "internalType": "uint256",
          "name": "_reqId",
          "type": "uint256"
        }
      ],
      "name": "approveRequest",
      "outputs": [],
      "payable": false,
      "stateMutability": "nonpayable",
      "type": "function"
    },
    {
      "constant": false,
      "inputs": [
        {
          "internalType": "uint256",
          "name": "_landId",
          "type": "uint256"
        },
        {
          "internalType": "address",
          "name": "_newOwner",
          "type": "address"
        }
      ],
      "name": "LandOwnershipTransfer",
      "outputs": [],
      "payable": false,
      "stateMutability": "nonpayable",
      "type": "function"
    },
    {
      "constant": true,
      "inputs": [
        {
          "internalType": "uint256",
          "name": "_landId",
          "type": "uint256"
        }
      ],
      "name": "isPaid",
      "outputs": [
        {
          "internalType": "bool",
          "name": "",
          "type": "bool"
        }
      ],
      "payable": false,
      "stateMutability": "view",
      "type": "function"
    },
    {
      "constant": false,
      "inputs": [
        {
          "internalType": "address payable",
          "name": "_receiver",
          "type": "address"
        },
        {
          "internalType": "uint256",
          "name": "_landId",
          "type": "uint256"
        }
      ],
      "name": "payment",
      "outputs": [],
      "payable": true,
      "stateMutability": "payable",
      "type": "function"
    },
    {
      "constant": false,
      "inputs": [
        {
          "internalType": "address",
          "name": "_Owner",
          "type": "address"
        }
      ],
      "name": "AfterDeath",
      "outputs": [],
      "payable": false,
      "stateMutability": "nonpayable",
      "type": "function"
    }
  ],
  "bytecode": "0x60806040523480156200001157600080fd5b5060138054600160a060020a03191633179055604080518082018252600b81527f496e73706563746f7220310000000000000000000000000000000000000000006020808301919091528251808401909352600e83527f54656873696c204d616e6167657200000000000000000000000000000000000090830152620000a391602d90640100000000620000a9810204565b620001d7565b601780546001908101918290556040805160808101825283815260208082018881528284018890526060830187905260009586528482529290942081518155915180519194929362000102939085019291019062000132565b5060408201516002820155606082015180516200012a91600384019160209091019062000132565b505050505050565b828054600181600116156101000203166002900490600052602060002090601f016020900481019282601f106200017557805160ff1916838001178555620001a5565b82800160010185558215620001a5579182015b82811115620001a557825182559160200191906001019062000188565b50620001b3929150620001b7565b5090565b620001d491905b80821115620001b35760008155600101620001be565b90565b6149da80620001e76000396000f3fe608060405260043610610524576000357c0100000000000000000000000000000000000000000000000000000000900480639ae9711e116102b1578063d7d1bbdb1161017b578063e7572230116100f3578063f3f0c218116100a7578063f9c43bdf1161008c578063f9c43bdf14610ea3578063fbfa4b7f14610ec3578063fe0cb7dc14610ed857610524565b8063f3f0c21814610e63578063f58f85b514610e8357610524565b8063f0d3a9df116100d8578063f0d3a9df14610dfe578063f2aa821814610e13578063f34d4c6314610e3357610524565b8063e757223014610dbe578063ee95feaf14610dde57610524565b8063def936c31161014a578063e1ecc7941161012f578063e1ecc79414610d46578063e261f1e514610d66578063e4b2611514610d9e57610524565b8063def936c314610cf6578063e165af8714610d2657610524565b8063d7d1bbdb14610c79578063dbd0e1b614610c99578063dd9d122d14610cae578063dec091ad14610cc357610524565b8063b3c8fe8511610229578063c560b4e5116101dd578063cee26ed5116101c2578063cee26ed514610c19578063d1760e6014610c39578063d713065114610c5957610524565b8063c560b4e514610bd9578063cd392a8314610bf957610524565b8063ba49a08c1161020e578063ba49a08c14610b84578063bed403c714610b99578063c3c5a54714610bb957610524565b8063b3c8fe8514610b32578063b9209e3314610b6457610524565b8063a6dc41fb11610280578063b0a5dcd311610265578063b0a5dcd314610ac2578063b0defb2114610af2578063b201f39614610b1257610524565b8063a6dc41fb14610a6e578063ab51707414610a8e57610524565b80639ae9711e146109f95780639dc1bfa914610a0e578063a47d4c0214610a2e578063a4a0f6c014610a4e57610524565b8063601e7c34116103f2578063835465011161036a5780638cd869a41161031e578063941e242611610303578063941e2426146109a4578063966dfe7a146109b9578063989376b4146109d957610524565b80638cd869a414610964578063933836481461098457610524565b80638965cde11161034f5780638965cde11461090457806389d21354146109245780638c5e13e51461094457610524565b806383546501146108c457806388b4680e146108e457610524565b806367a09c23116103c157806368cfe6ee116103a657806368cfe6ee146108515780636cbf6cf8146108845780637910867b146108a457610524565b806367a09c231461081e5780636814800b1461083157610524565b8063601e7c341461079c578063603daf9a146107bc57806363f17143146107de5780636490c7a8146107fe57610524565b80632607aafa116104a05780634528b357116104545780634daa9dae116104395780634daa9dae1461073c5780634e2cba091461075c57806356b8481a1461077c57610524565b80634528b357146106fc57806348a46bd31461071c57610524565b80633410452a116104855780633410452a146106a75780633f9b250a146106bc57806344c9af28146106dc57610524565b80632607aafa1461065a5780632a55feec1461068757610524565b80631703e5f9116104f75780631869a38b116104dc5780631869a38b146106055780631a07f76e146106255780631c9afd0f1461064557610524565b80631703e5f9146105c3578063170f3909146105e357610524565b806307d56ac01461052957806311ce462c1461055f578063155fec721461058157806316d9d666146105ae575b600080fd5b34801561053557600080fd5b50610549610544366004614171565b610f0b565b60405161055691906146d6565b60405180910390f35b34801561056b57600080fd5b5061057f61057a366004613ddd565b610f23565b005b34801561058d57600080fd5b506105a161059c366004614171565b611033565b60405161055691906145bb565b3480156105ba57600080fd5b50610549611052565b3480156105cf57600080fd5b506105a16105de366004613ca9565b611059565b3480156105ef57600080fd5b506105f861106e565b60405161055691906143f7565b34801561061157600080fd5b506105f8610620366004614171565b61107d565b34801561063157600080fd5b506105a1610640366004614171565b611098565b34801561065157600080fd5b506105496110ad565b34801561066657600080fd5b5061067a610675366004614171565b6110b3565b60405161055691906145c9565b34801561069357600080fd5b506105a16106a2366004613ca9565b611155565b3480156106b357600080fd5b5061054961117e565b3480156106c857600080fd5b5061067a6106d7366004614171565b611184565b3480156106e857600080fd5b5061067a6106f7366004614171565b6111ef565b34801561070857600080fd5b506105f8610717366004614171565b61125a565b34801561072857600080fd5b506105a1610737366004613ca9565b611278565b34801561074857600080fd5b506105a1610757366004614171565b6112c4565b34801561076857600080fd5b5061057f610777366004613edb565b6112d9565b34801561078857600080fd5b506105f8610797366004613ca9565b6114c5565b3480156107a857600080fd5b506105a16107b7366004613ca9565b6114e0565b3480156107c857600080fd5b506107d16114f5565b60405161055691906145aa565b3480156107ea57600080fd5b506105a16107f9366004613ca9565b611557565b34801561080a57600080fd5b50610549610819366004614171565b61156c565b61057f61082c366004613ccf565b611581565b34801561083d57600080fd5b5061057f61084c366004613ca9565b6115ce565b34801561085d57600080fd5b5061087161086c366004613ca9565b61163e565b60405161055697969594939291906145da565b34801561089057600080fd5b506105a161089f366004614171565b6119ef565b3480156108b057600080fd5b506105a16108bf366004614171565b611a0e565b3480156108d057600080fd5b506105a16108df366004614171565b611a2d565b3480156108f057600080fd5b506105a16108ff366004613ca9565b611a42565b34801561091057600080fd5b5061057f61091f366004613ca9565b611a60565b34801561093057600080fd5b506105a161093f366004614171565b611ac5565b34801561095057600080fd5b506105a161095f366004614171565b611ada565b34801561097057600080fd5b5061057f61097f366004613ca9565b611b19565b34801561099057600080fd5b5061057f61099f366004613ddd565b611c25565b3480156109b057600080fd5b50610549611e09565b3480156109c557600080fd5b506105f86109d4366004613ca9565b611e0f565b3480156109e557600080fd5b506105a16109f4366004613ca9565b611e2d565b348015610a0557600080fd5b50610549611e42565b348015610a1a57600080fd5b506105f8610a29366004614171565b611e48565b348015610a3a57600080fd5b506105a1610a49366004613ca9565b611e63565b348015610a5a57600080fd5b50610549610a69366004614171565b611e78565b348015610a7a57600080fd5b506105a1610a89366004613ca9565b611e8d565b348015610a9a57600080fd5b50610aae610aa9366004613ca9565b611ea2565b60405161055698979695949392919061450a565b348015610ace57600080fd5b50610ae2610add366004614171565b61222e565b60405161055694939291906146e4565b348015610afe57600080fd5b5061057f610b0d366004614006565b612262565b348015610b1e57600080fd5b5061057f610b2d3660046141bf565b612664565b348015610b3e57600080fd5b50610b52610b4d366004613ca9565b612841565b6040516105569695949392919061465c565b348015610b7057600080fd5b506105a1610b7f366004613ca9565b612b57565b348015610b9057600080fd5b50610549612ba2565b348015610ba557600080fd5b5061057f610bb436600461418f565b612ba8565b348015610bc557600080fd5b506105a1610bd4366004613ca9565b612c10565b348015610be557600080fd5b5061057f610bf4366004613d09565b612c39565b348015610c0557600080fd5b506105a1610c14366004614171565b612d20565b348015610c2557600080fd5b506105f8610c34366004614171565b612d3f565b348015610c4557600080fd5b5061057f610c54366004613ca9565b612d66565b348015610c6557600080fd5b5061067a610c74366004614171565b612de3565b348015610c8557600080fd5b5061057f610c94366004614171565b612e51565b348015610ca557600080fd5b506107d1612e8e565b348015610cba57600080fd5b50610549612eee565b348015610ccf57600080fd5b50610ce3610cde366004613ca9565b612ef4565b6040516105569796959493929190614480565b348015610d0257600080fd5b50610d16610d11366004614171565b6131ed565b6040516105569493929190614719565b348015610d3257600080fd5b506105a1610d41366004613ca9565b61332b565b348015610d5257600080fd5b5061057f610d61366004613ca9565b61334c565b348015610d7257600080fd5b50610d86610d81366004614171565b6133c9565b6040516105569c9b9a999897969594939291906147c6565b348015610daa57600080fd5b506105a1610db9366004613ca9565b613767565b348015610dca57600080fd5b50610549610dd9366004614171565b61377c565b348015610dea57600080fd5b506105a1610df9366004613ca9565b613791565b348015610e0a57600080fd5b506105496137ba565b348015610e1f57600080fd5b506105f8610e2e366004614171565b6137c0565b348015610e3f57600080fd5b50610e53610e4e366004614171565b6137cd565b6040516105569493929190614442565b348015610e6f57600080fd5b5061057f610e7e366004613ccf565b61380f565b348015610e8f57600080fd5b506105a1610e9e366004613ca9565b613918565b348015610eaf57600080fd5b5061057f610ebe366004614171565b61392d565b348015610ecf57600080fd5b5061054961395a565b348015610ee457600080fd5b50610ef8610ef3366004614171565b613960565b6040516105569796959493929190614764565b6000818152602081905260409020600501545b919050565b3360009081526005602052604090205460ff168015610f58575033600081815260036020526040902054600160a060020a0316145b610f6157600080fd5b3360009081526003602090815260409091208751610f8792600190920191890190613ba1565b50336000908152600360208181526040909220600281018890558651610fb593919092019190870190613ba1565b503360009081526003602090815260409091208451610fdc92600490920191860190613ba1565b50336000908152600360209081526040909120835161100392600790920191850190613ba1565b50336000908152600360209081526040909120825161102a92600590920191840190613ba1565b50505050505050565b6000818152600f602052604081205460ff1615610f1e57506001610f1e565b6016545b90565b60126020526000908152604090205460ff1681565b601354600160a060020a031681565b6000908152600d6020526040902054600160a060020a031690565b60106020526000908152604090205460ff1681565b60165481565b6000818152602081815260409182902060070180548351601f60026000196101006001861615020190931692909204918201849004840281018401909452808452606093928301828280156111495780601f1061111e57610100808354040283529160200191611149565b820191906000526020600020905b81548152906001019060200180831161112c57829003601f168201915b50505050509050919050565b600160a060020a03811660009081526007602052604081205460ff1615610f1e57506001610f1e565b601a5490565b6000818152602081815260409182902060080180548351601f60026000196101006001861615020190931692909204918201849004840281018401909452808452606093928301828280156111495780601f1061111e57610100808354040283529160200191611149565b6000818152602081815260409182902060030180548351601f60026000196101006001861615020190931692909204918201849004840281018401909452808452606093928301828280156111495780601f1061111e57610100808354040283529160200191611149565b600090815260208190526040902060090154600160a060020a031690565b600160a060020a03811660009081526009602052604081205460ff16806112b75750600160a060020a0382166000908152600b602052604090205460ff165b15610f1e57506001610f1e565b600f6020526000908152604090205460ff1681565b3360008181526005602090815260408083208054600160ff1991821681179092556007845282852080549091168217905560198054820190558151610100810183528581528084018d81528184018d9052606082018c9052608082018b905260a082018a905260c0820189905260e0820188905295855260038452919093208151815473ffffffffffffffffffffffffffffffffffffffff1916600160a060020a03909116178155935180519194936113989390850192910190613ba1565b5060408201516002820155606082015180516113be916003840191602090910190613ba1565b50608082015180516113da916004840191602090910190613ba1565b5060a082015180516113f6916005840191602090910190613ba1565b5060c08201518051611412916006840191602090910190613ba1565b5060e0820151805161142e916007840191602090910190613ba1565b5050601580546001810182556000919091527f55f448fdea98c4d29eb340757ef0a66cd03dbb9538908a6a81d96026b71ec47501805473ffffffffffffffffffffffffffffffffffffffff1916339081179091556040517f2a4f530ae55f002aac4686b649762fc68e96bd8b80ac835b41777145c94e1f8a92506114b491908190614427565b60405180910390a150505050505050565b601160205260009081526040902054600160a060020a031681565b60066020526000908152604090205460ff1681565b6060601580548060200260200160405190810160405280929190818152602001828054801561154d57602002820191906000526020600020905b8154600160a060020a0316815260019091019060200180831161152f575b5050505050905090565b60096020526000908152604090205460ff1681565b60009081526020819052604090206001015490565b600081815260106020526040808220805460ff1916600117905551600160a060020a038416913480156108fc02929091818181858888f193505050501580156115c957600080fd5b505050565b6115d73361332b565b6115e057600080fd5b600160a060020a0381166000908152600a602052604090819020805460ff19166001179055517f6a6455914f452787eb3985452aceedc1000fb545e394eb3b370e3d08958e0a5b906116339083906143f7565b60405180910390a150565b600160a060020a03811660009081526003602081815260408084206002808201546001808401805486519281161561010002600019011693909304601f810187900487028201870190955284815260609788978897889788979396889690959385019460058101946006820194600783019460049093019289918301828280156117095780601f106116de57610100808354040283529160200191611709565b820191906000526020600020905b8154815290600101906020018083116116ec57829003601f168201915b5050895460408051602060026001851615610100026000190190941693909304601f8101849004840282018401909252818152959c508b9450925084019050828280156117975780601f1061176c57610100808354040283529160200191611797565b820191906000526020600020905b81548152906001019060200180831161177a57829003601f168201915b5050885460408051602060026001851615610100026000190190941693909304601f8101849004840282018401909252818152959b508a9450925084019050828280156118255780601f106117fa57610100808354040283529160200191611825565b820191906000526020600020905b81548152906001019060200180831161180857829003601f168201915b5050875460408051602060026001851615610100026000190190941693909304601f8101849004840282018401909252818152959a50899450925084019050828280156118b35780601f10611888576101008083540402835291602001916118b3565b820191906000526020600020905b81548152906001019060200180831161189657829003601f168201915b5050865460408051602060026001851615610100026000190190941693909304601f8101849004840282018401909252818152959950889450925084019050828280156119415780601f1061191657610100808354040283529160200191611941565b820191906000526020600020905b81548152906001019060200180831161192457829003601f168201915b5050845460408051602060026001851615610100026000190190941693909304601f8101849004840282018401909252818152959850869450925084019050828280156119cf5780601f106119a4576101008083540402835291602001916119cf565b820191906000526020600020905b8154815290600101906020018083116119b257829003601f168201915b505050505090509650965096509650965096509650919395979092949650565b6000818152600c602052604081205460ff1615610f1e57506001610f1e565b6000818152600e602052604081205460ff1615610f1e57506001610f1e565b600c6020526000908152604090205460ff1681565b600160a060020a031660009081526012602052604090205460ff1690565b611a693361332b565b611a7257600080fd5b600160a060020a0381166000908152600b602052604090819020805460ff19166001179055517faf77f8960cf590e245ec8b6d41c193a5dcacad8986ae4eb57ac9e5be7b6af031906116339083906143f7565b600e6020526000908152604090205460ff1681565b6000818152600d602090815260408083205491839052822060090154600160a060020a0390811691161415611b1157506001610f1e565b506000610f1e565b611b223361332b565b611b2b57600080fd5b600160a060020a0381166000908152601260205260409020805460ff1916905560015b6016548111611bea576000818152600d6020526040902054600160a060020a0383811691161415611be2576000818152600d602081815260408084208054858452828620600901805473ffffffffffffffffffffffffffffffffffffffff19908116600160a060020a0393841617909155888216875260118552928620549587905293909252815416929091169190911790555b600101611b4e565b7f0599dcd31fa808bf297d25bdaba963eafead5e178e4dcee695bcab4933f13a7082604051611c1991906143f7565b60405180910390a15050565b3360009081526005602052604090205460ff1615611c4257600080fd5b3360008181526005602090815260408083208054600160ff199182168117909255600684528285208054909116821790556018805482019055815160e0810183528581528084018c81528184018c9052606082018b9052608082018a905260a0820189905260c0820188905295855260028452919093208151815473ffffffffffffffffffffffffffffffffffffffff1916600160a060020a0390911617815593518051919493611cf99390850192910190613ba1565b506040820151600282015560608201518051611d1f916003840191602090910190613ba1565b5060808201518051611d3b916004840191602090910190613ba1565b5060a08201518051611d57916005840191602090910190613ba1565b5060c08201518051611d73916006840191602090910190613ba1565b5050601480546001810182556000919091527fce6d7b5282bd9a3661ae061feed1dbda4e52ab073b1f9285be6e155d9c38d4ec01805473ffffffffffffffffffffffffffffffffffffffff1916339081179091556040517f2a4f530ae55f002aac4686b649762fc68e96bd8b80ac835b41777145c94e1f8a9250611df991908190614427565b60405180910390a1505050505050565b60175481565b600160a060020a039081166000908152601160205260409020541690565b600b6020526000908152604090205460ff1681565b60185481565b600d60205260009081526040902054600160a060020a031681565b60076020526000908152604090205460ff1681565b60009081526020819052604090206006015490565b600a6020526000908152604090205460ff1681565b6003602090815260009182526040918290208054600180830180548651600261010094831615949094026000190190911692909204601f8101869004860283018601909652858252600160a060020a03909216949293909290830182828015611f4c5780601f10611f2157610100808354040283529160200191611f4c565b820191906000526020600020905b815481529060010190602001808311611f2f57829003601f168201915b505050506002838101546003850180546040805160206001841615610100026000190190931695909504601f810183900483028601830190915280855295969295929450909190830182828015611fe45780601f10611fb957610100808354040283529160200191611fe4565b820191906000526020600020905b815481529060010190602001808311611fc757829003601f168201915b5050505060048301805460408051602060026001851615610100026000190190941693909304601f81018490048402820184019092528181529495949350908301828280156120745780601f1061204957610100808354040283529160200191612074565b820191906000526020600020905b81548152906001019060200180831161205757829003601f168201915b5050505060058301805460408051602060026001851615610100026000190190941693909304601f81018490048402820184019092528181529495949350908301828280156121045780601f106120d957610100808354040283529160200191612104565b820191906000526020600020905b8154815290600101906020018083116120e757829003601f168201915b5050505060068301805460408051602060026001851615610100026000190190941693909304601f81018490048402820184019092528181529495949350908301828280156121945780601f1061216957610100808354040283529160200191612194565b820191906000526020600020905b81548152906001019060200180831161217757829003601f168201915b5050505060078301805460408051602060026001851615610100026000190190941693909304601f81018490048402820184019092528181529495949350908301828280156122245780601f106121f957610100808354040283529160200191612224565b820191906000526020600020905b81548152906001019060200180831161220757829003601f168201915b5050505050905088565b60046020526000908152604090208054600182015460028301546003909301549192600160a060020a039182169291169084565b3360009081526005602052604090205460ff161561227f57600080fd5b3360008181526005602090815260408083208054600160ff1991821681179092556007845282852080549091168217905560198054820190558151610100810183528581528084018f81528184018f9052606082018e9052608082018d905260a082018c905260c082018a905260e0820189905295855260038452919093208151815473ffffffffffffffffffffffffffffffffffffffff1916600160a060020a039091161781559351805191949361233e9390850192910190613ba1565b506040820151600282015560608201518051612364916003840191602090910190613ba1565b5060808201518051612380916004840191602090910190613ba1565b5060a0820151805161239c916005840191602090910190613ba1565b5060c082015180516123b8916006840191602090910190613ba1565b5060e082015180516123d4916007840191602090910190613ba1565b5090505060153390806001815401808255809150509060018203906000526020600020016000909192909190916101000a815481600160a060020a030219169083600160a060020a031602179055505060016006600033600160a060020a0316600160a060020a0316815260200190815260200160002060006101000a81548160ff0219169083151502179055506018600081548092919060010191905055506040518060e0016040528033600160a060020a031681526020018a8152602001898152602001878152602001868152602001858152602001848152506002600033600160a060020a0316600160a060020a0316815260200190815260200160002060008201518160000160006101000a815481600160a060020a030219169083600160a060020a03160217905550602082015181600101908051906020019061251e929190613ba1565b506040820151600282015560608201518051612544916003840191602090910190613ba1565b5060808201518051612560916004840191602090910190613ba1565b5060a0820151805161257c916005840191602090910190613ba1565b5060c08201518051612598916006840191602090910190613ba1565b50506014805460018082019092557fce6d7b5282bd9a3661ae061feed1dbda4e52ab073b1f9285be6e155d9c38d4ec0180543373ffffffffffffffffffffffffffffffffffffffff19918216811790925560008281526011602090815260408083208054909416600160a060020a0389161790935560129052819020805460ff191690931790925590517f2a4f530ae55f002aac4686b649762fc68e96bd8b80ac835b41777145c94e1f8a925061265191908490614405565b60405180910390a1505050505050505050565b61266d33613791565b801561267d575061267d33612b57565b61268657600080fd5b60168054600190810191829055604080516101808101825283815260208082018f81528284018f8152606084018f9052608084018e905260a084018d905260c084018c905260e084018b905261010084018a90523361012085015261014084018990526101608401889052600096875286835293909520825181559451938501939093559051805191939261272392600285019290910190613ba1565b506060820151805161273f916003840191602090910190613ba1565b506080820151600482015560a0820151600582015560c0820151600682015560e08201518051612779916007840191602090910190613ba1565b506101008201518051612796916008840191602090910190613ba1565b5061012082015160098201805473ffffffffffffffffffffffffffffffffffffffff1916600160a060020a0390921691909117905561014082015180516127e791600a840191602090910190613ba1565b50610160820151805161280491600b840191602090910190613ba1565b50506016546000908152600d60205260409020805473ffffffffffffffffffffffffffffffffffffffff1916331790555050505050505050505050565b600160a060020a0381166000908152600260208181526040808420808401546001808301805485519281161561010002600019011696909604601f8101869004860282018601909452838152606096958795869586958695939460038201936004830193600584019360060192918891908301828280156129035780601f106128d857610100808354040283529160200191612903565b820191906000526020600020905b8154815290600101906020018083116128e657829003601f168201915b5050875460408051602060026001851615610100026000190190941693909304601f8101849004840282018401909252818152959b50899450925084019050828280156129915780601f1061296657610100808354040283529160200191612991565b820191906000526020600020905b81548152906001019060200180831161297457829003601f168201915b5050865460408051602060026001851615610100026000190190941693909304601f810184900484028201840190925281815295995088945092508401905082828015612a1f5780601f106129f457610100808354040283529160200191612a1f565b820191906000526020600020905b815481529060010190602001808311612a0257829003601f168201915b5050855460408051602060026001851615610100026000190190941693909304601f810184900484028201840190925281815295985087945092508401905082828015612aad5780601f10612a8257610100808354040283529160200191612aad565b820191906000526020600020905b815481529060010190602001808311612a9057829003601f168201915b5050845460408051602060026001851615610100026000190190941693909304601f810184900484028201840190925281815295975086945092508401905082828015612b3b5780601f10612b1057610100808354040283529160200191612b3b565b820191906000526020600020905b815481529060010190602001808311612b1e57829003601f168201915b5050505050905095509550955095509550955091939550919395565b600160a060020a03811660009081526008602052604081205460ff16806112b75750600160a060020a0382166000908152600a602052604090205460ff1615610f1e57506001610f1e565b60195481565b612bb13361332b565b612bba57600080fd5b6000918252600d60208181526040808520805486845291909520600901805473ffffffffffffffffffffffffffffffffffffffff19908116600160a060020a039384161790915592909152835492169116179055565b600160a060020a03811660009081526005602052604081205460ff1615610f1e57506001610f1e565b3360009081526005602052604090205460ff168015612c6e575033600081815260026020526040902054600160a060020a0316145b612c7757600080fd5b3360009081526002602090815260409091208651612c9d92600190920191880190613ba1565b503360009081526002602081815260409092209081018690558451612cca92600390920191860190613ba1565b503360009081526002602090815260409091208351612cf192600490920191850190613ba1565b503360009081526002602090815260409091208251612d1892600590920191840190613ba1565b505050505050565b60008181526010602052604081205460ff1615610f1e57506001610f1e565b60148181548110612d4c57fe5b600091825260209091200154600160a060020a0316905081565b612d6f3361332b565b612d7857600080fd5b600160a060020a03811660009081526008602090815260408083208054600160ff199182168117909255600a9093529281902080549092169092179055517f6a6455914f452787eb3985452aceedc1000fb545e394eb3b370e3d08958e0a5b906116339083906143f7565b600081815260208181526040918290206002908101805484516001821615610100026000190190911692909204601f810184900484028301840190945283825260609391929091908301828280156111495780601f1061111e57610100808354040283529160200191611149565b612e5a33613791565b8015612e6a5750612e6a33612b57565b612e7357600080fd5b6000908152600e60205260409020805460ff19166001179055565b6060601480548060200260200160405190810160405280929190818152602001828054801561154d57602002820191906000526020600020908154600160a060020a0316815260019091019060200180831161152f575050505050905090565b60185490565b6002602081815260009283526040928390208054600180830180548751601f60001994831615610100029490940190911696909604918201859004850286018501909652808552600160a060020a0390911694919392830182828015612f9b5780601f10612f7057610100808354040283529160200191612f9b565b820191906000526020600020905b815481529060010190602001808311612f7e57829003601f168201915b505050506002838101546003850180546040805160206001841615610100026000190190931695909504601f8101839004830286018301909152808552959692959294509091908301828280156130335780601f1061300857610100808354040283529160200191613033565b820191906000526020600020905b81548152906001019060200180831161301657829003601f168201915b5050505060048301805460408051602060026001851615610100026000190190941693909304601f81018490048402820184019092528181529495949350908301828280156130c35780601f10613098576101008083540402835291602001916130c3565b820191906000526020600020905b8154815290600101906020018083116130a657829003601f168201915b5050505060058301805460408051602060026001851615610100026000190190941693909304601f81018490048402820184019092528181529495949350908301828280156131535780601f1061312857610100808354040283529160200191613153565b820191906000526020600020905b81548152906001019060200180831161313657829003601f168201915b5050505060068301805460408051602060026001851615610100026000190190941693909304601f81018490048402820184019092528181529495949350908301828280156131e35780601f106131b8576101008083540402835291602001916131e3565b820191906000526020600020905b8154815290600101906020018083116131c657829003601f168201915b5050505050905087565b600160208181526000928352604092839020805481840180548651600296821615610100026000190190911695909504601f810185900485028601850190965285855290949193929091908301828280156132895780601f1061325e57610100808354040283529160200191613289565b820191906000526020600020905b81548152906001019060200180831161326c57829003601f168201915b505050506002838101546003850180546040805160206001841615610100026000190190931695909504601f8101839004830286018301909152808552959692959294509091908301828280156133215780601f106132f657610100808354040283529160200191613321565b820191906000526020600020905b81548152906001019060200180831161330457829003601f168201915b5050505050905084565b601354600090600160a060020a0383811691161415611b1157506001610f1e565b6133553361332b565b61335e57600080fd5b600160a060020a03811660009081526009602090815260408083208054600160ff199182168117909255600b9093529281902080549092169092179055517faf77f8960cf590e245ec8b6d41c193a5dcacad8986ae4eb57ac9e5be7b6af031906116339083906143f7565b6000602081815291815260409081902080546001808301546002808501805487519481161561010002600019011691909104601f810188900488028401880190965285835292959094919291908301828280156134675780601f1061343c57610100808354040283529160200191613467565b820191906000526020600020905b81548152906001019060200180831161344a57829003601f168201915b5050505060038301805460408051602060026001851615610100026000190190941693909304601f81018490048402820184019092528181529495949350908301828280156134f75780601f106134cc576101008083540402835291602001916134f7565b820191906000526020600020905b8154815290600101906020018083116134da57829003601f168201915b505050600484015460058501546006860154600787018054604080516020601f6002600019610100600188161502019095169490940493840181900481028201810190925282815298999598949750929550909183018282801561359c5780601f106135715761010080835404028352916020019161359c565b820191906000526020600020905b81548152906001019060200180831161357f57829003601f168201915b5050505060088301805460408051602060026001851615610100026000190190941693909304601f810184900484028201840190925281815294959493509083018282801561362c5780601f106136015761010080835404028352916020019161362c565b820191906000526020600020905b81548152906001019060200180831161360f57829003601f168201915b505050506009830154600a8401805460408051602060026101006001861615026000190190941693909304601f81018490048402820184019092528181529596600160a060020a0390941695939450908301828280156136cd5780601f106136a2576101008083540402835291602001916136cd565b820191906000526020600020905b8154815290600101906020018083116136b057829003601f168201915b50505050600b8301805460408051602060026001851615610100026000190190941693909304601f810184900484028201840190925281815294959493509083018282801561375d5780601f106137325761010080835404028352916020019161375d565b820191906000526020600020905b81548152906001019060200180831161374057829003601f168201915b505050505090508c565b60086020526000908152604090205460ff1681565b60009081526020819052604090206004015490565b600160a060020a03811660009081526006602052604081205460ff1615610f1e57506001610f1e565b60195490565b60158181548110612d4c57fe5b600090815260046020908152604080832060018101546002820154600390920154600e9094529190932054600160a060020a0391821694919093169260ff1690565b61381833611155565b8015613828575061382833612b57565b61383157600080fd5b601a8054600190810180835560408051608081018252828152600160a060020a03808816602080840191825233848601908152606085018a8152600097885260048352868820955186559251858901805491861673ffffffffffffffffffffffffffffffffffffffff199283161790559051600286018054919095169116179092555160039092019190915584548352600e8152818320805460ff1990811690915594548352600f9052908190208054909316909117909155517fc67eb70629da758128cec22f7e36ad0676066ad4df9b66e8ba58a30c1ab4075b90611c199084906143f7565b60056020526000908152604090205460ff1681565b6139363361332b565b61393f57600080fd5b6000908152600c60205260409020805460ff19166001179055565b601a5481565b600081815260208181526040808320805460018083015460048401546002808601805488519581161561010002600019011691909104601f8101899004890285018901909752868452889760609788978a9789978897919691959460038401949293600a810193600b9091019291879190830182828015613a225780601f106139f757610100808354040283529160200191613a22565b820191906000526020600020905b815481529060010190602001808311613a0557829003601f168201915b5050875460408051602060026001851615610100026000190190941693909304601f8101849004840282018401909252818152959a5089945092508401905082828015613ab05780601f10613a8557610100808354040283529160200191613ab0565b820191906000526020600020905b815481529060010190602001808311613a9357829003601f168201915b5050855460408051602060026001851615610100026000190190941693909304601f810184900484028201840190925281815295995087945092508401905082828015613b3e5780601f10613b1357610100808354040283529160200191613b3e565b820191906000526020600020905b815481529060010190602001808311613b2157829003601f168201915b5050845460408051602060026001851615610100026000190190941693909304601f8101849004840282018401909252818152959750869450925084019050828280156119cf5780601f106119a4576101008083540402835291602001916119cf565b828054600181600116156101000203166002900490600052602060002090601f016020900481019282601f10613be257805160ff1916838001178555613c0f565b82800160010185558215613c0f579182015b82811115613c0f578251825591602001919060010190613bf4565b50613c1b929150613c1f565b5090565b61105691905b80821115613c1b5760008155600101613c25565b8035613c4481614977565b92915050565b600082601f830112613c5b57600080fd5b8135613c6e613c69826148c9565b6148a2565b91508082526020830160208301858383011115613c8a57600080fd5b613c95838284614931565b50505092915050565b8035613c448161498e565b600060208284031215613cbb57600080fd5b6000613cc78484613c39565b949350505050565b60008060408385031215613ce257600080fd5b6000613cee8585613c39565b9250506020613cff85828601613c9e565b9150509250929050565b600080600080600060a08688031215613d2157600080fd5b853567ffffffffffffffff811115613d3857600080fd5b613d4488828901613c4a565b9550506020613d5588828901613c9e565b945050604086013567ffffffffffffffff811115613d7257600080fd5b613d7e88828901613c4a565b935050606086013567ffffffffffffffff811115613d9b57600080fd5b613da788828901613c4a565b925050608086013567ffffffffffffffff811115613dc457600080fd5b613dd088828901613c4a565b9150509295509295909350565b60008060008060008060c08789031215613df657600080fd5b863567ffffffffffffffff811115613e0d57600080fd5b613e1989828a01613c4a565b9650506020613e2a89828a01613c9e565b955050604087013567ffffffffffffffff811115613e4757600080fd5b613e5389828a01613c4a565b945050606087013567ffffffffffffffff811115613e7057600080fd5b613e7c89828a01613c4a565b935050608087013567ffffffffffffffff811115613e9957600080fd5b613ea589828a01613c4a565b92505060a087013567ffffffffffffffff811115613ec257600080fd5b613ece89828a01613c4a565b9150509295509295509295565b600080600080600080600060e0888a031215613ef657600080fd5b873567ffffffffffffffff811115613f0d57600080fd5b613f198a828b01613c4a565b9750506020613f2a8a828b01613c9e565b965050604088013567ffffffffffffffff811115613f4757600080fd5b613f538a828b01613c4a565b955050606088013567ffffffffffffffff811115613f7057600080fd5b613f7c8a828b01613c4a565b945050608088013567ffffffffffffffff811115613f9957600080fd5b613fa58a828b01613c4a565b93505060a088013567ffffffffffffffff811115613fc257600080fd5b613fce8a828b01613c4a565b92505060c088013567ffffffffffffffff811115613feb57600080fd5b613ff78a828b01613c4a565b91505092959891949750929550565b60008060008060008060008060006101208a8c03121561402557600080fd5b893567ffffffffffffffff81111561403c57600080fd5b6140488c828d01613c4a565b99505060206140598c828d01613c9e565b98505060408a013567ffffffffffffffff81111561407657600080fd5b6140828c828d01613c4a565b97505060608a013567ffffffffffffffff81111561409f57600080fd5b6140ab8c828d01613c4a565b96505060808a013567ffffffffffffffff8111156140c857600080fd5b6140d48c828d01613c4a565b95505060a08a013567ffffffffffffffff8111156140f157600080fd5b6140fd8c828d01613c4a565b94505060c08a013567ffffffffffffffff81111561411a57600080fd5b6141268c828d01613c4a565b93505060e08a013567ffffffffffffffff81111561414357600080fd5b61414f8c828d01613c4a565b9250506101006141618c828d01613c39565b9150509295985092959850929598565b60006020828403121561418357600080fd5b6000613cc78484613c9e565b600080604083850312156141a257600080fd5b60006141ae8585613c9e565b9250506020613cff85828601613c39565b6000806000806000806000806000806101408b8d0312156141df57600080fd5b60006141eb8d8d613c9e565b9a505060208b013567ffffffffffffffff81111561420857600080fd5b6142148d828e01613c4a565b99505060408b013567ffffffffffffffff81111561423157600080fd5b61423d8d828e01613c4a565b985050606061424e8d828e01613c9e565b975050608061425f8d828e01613c9e565b96505060a06142708d828e01613c9e565b95505060c08b013567ffffffffffffffff81111561428d57600080fd5b6142998d828e01613c4a565b94505060e08b013567ffffffffffffffff8111156142b657600080fd5b6142c28d828e01613c4a565b9350506101008b013567ffffffffffffffff8111156142e057600080fd5b6142ec8d828e01613c4a565b9250506101208b013567ffffffffffffffff81111561430a57600080fd5b6143168d828e01613c4a565b9150509295989b9194979a5092959850565b6000614334838361434b565b505060200190565b61434581614920565b82525050565b61434581614904565b600061435f826148f7565b61436981856148fb565b9350614374836148f1565b8060005b838110156143a257815161438c8882614328565b9750614397836148f1565b925050600101614378565b509495945050505050565b6143458161490f565b60006143c1826148f7565b6143cb81856148fb565b93506143db81856020860161493d565b6143e48161496d565b9093019392505050565b61434581611056565b60208101613c44828461434b565b60408101614413828561433c565b614420602083018461434b565b9392505050565b60408101614435828561433c565b614420602083018461433c565b60808101614450828761434b565b61445d602083018661434b565b61446a60408301856143ee565b61447760608301846143ad565b95945050505050565b60e0810161448e828a61434b565b81810360208301526144a081896143b6565b90506144af60408301886143ee565b81810360608301526144c181876143b6565b905081810360808301526144d581866143b6565b905081810360a08301526144e981856143b6565b905081810360c08301526144fd81846143b6565b9998505050505050505050565b6101008101614519828b61434b565b818103602083015261452b818a6143b6565b905061453a60408301896143ee565b818103606083015261454c81886143b6565b9050818103608083015261456081876143b6565b905081810360a083015261457481866143b6565b905081810360c083015261458881856143b6565b905081810360e083015261459c81846143b6565b9a9950505050505050505050565b602080825281016144208184614354565b60208101613c4482846143ad565b6020808252810161442081846143b6565b60e080825281016145eb818a6143b6565b905081810360208301526145ff81896143b6565b9050818103604083015261461381886143b6565b9050818103606083015261462781876143b6565b9050818103608083015261463b81866143b6565b905061464a60a08301856143ee565b81810360c08301526144fd81846143b6565b60c0808252810161466d81896143b6565b905061467c60208301886143ee565b818103604083015261468e81876143b6565b905081810360608301526146a281866143b6565b905081810360808301526146b681856143b6565b905081810360a08301526146ca81846143b6565b98975050505050505050565b60208101613c4482846143ee565b608081016146f282876143ee565b6146ff602083018661434b565b61470c604083018561434b565b61447760608301846143ee565b6080810161472782876143ee565b818103602083015261473981866143b6565b905061474860408301856143ee565b818103606083015261475a81846143b6565b9695505050505050565b60e08101614772828a6143ee565b61477f60208301896143ee565b818103604083015261479181886143b6565b905081810360608301526147a581876143b6565b90506147b460808301866143ee565b81810360a08301526144e981856143b6565b61018081016147d5828f6143ee565b6147e2602083018e6143ee565b81810360408301526147f4818d6143b6565b90508181036060830152614808818c6143b6565b9050614817608083018b6143ee565b61482460a083018a6143ee565b61483160c08301896143ee565b81810360e083015261484381886143b6565b905081810361010083015261485881876143b6565b905061486861012083018661434b565b81810361014083015261487b81856143b6565b905081810361016083015261489081846143b6565b9e9d5050505050505050505050505050565b60405181810167ffffffffffffffff811182821017156148c157600080fd5b604052919050565b600067ffffffffffffffff8211156148e057600080fd5b506020601f91909101601f19160190565b60200190565b5190565b90815260200190565b6000613c4482614914565b151590565b600160a060020a031690565b6000613c44826000613c4482614904565b82818337506000910152565b60005b83811015614958578181015183820152602001614940565b83811115614967576000848401525b50505050565b601f01601f191690565b61498081614904565b811461498b57600080fd5b50565b6149808161105656fea365627a7a72315820e09805182b0140540501679f1d6bec68c34ef799b370d94a15f9b5a022915e1f6c6578706572696d656e74616cf564736f6c63430005100040",
  "source": "pragma solidity >=0.5.2;\npragma experimental ABIEncoderV2;\n\ncontract Land {\n    struct Landreg {\n        uint256 id;\n        uint256 area;\n        string city;\n        string state;\n        uint256 landPrice;\n        uint256 propertyPID;\n        uint256 physicalSurveyNumber;\n        string ipfsHash;\n        string document;\n        address old_owner;\n        string lat;\n        string lng;\n    }\n\n    struct Buyer {\n        address id;\n        string name;\n        uint256 age;\n        string city;\n        string aadharNumber;\n        string panNumber;\n        string document;\n        string email;\n    }\n\n    struct Seller {\n        address id;\n        string name;\n        uint256 age;\n        string aadharNumber;\n        string panNumber;\n        string landsOwned;\n        string document;\n    }\n\n    struct LandInspector {\n        uint256 id;\n        string name;\n        uint256 age;\n        string designation;\n    }\n\n    struct LandRequest {\n        uint256 reqId;\n        address sellerId;\n        address buyerId;\n        uint256 landId;\n        // bool requestStatus;\n        // bool requested;\n    }\n\n    //key value pairs\n    mapping(uint256 => Landreg) public lands;\n    mapping(uint256 => LandInspector) public InspectorMapping;\n    mapping(address => Seller) public SellerMapping;\n    mapping(address => Buyer) public BuyerMapping;\n    mapping(uint256 => LandRequest) public RequestsMapping;\n\n    mapping(address => bool) public RegisteredAddressMapping;\n    mapping(address => bool) public RegisteredSellerMapping;\n    mapping(address => bool) public RegisteredBuyerMapping;\n    mapping(address => bool) public SellerVerification;\n    mapping(address => bool) public SellerRejection;\n    mapping(address => bool) public BuyerVerification;\n    mapping(address => bool) public BuyerRejection;\n    mapping(uint256 => bool) public LandVerification;\n    mapping(uint256 => address) public LandOwner;\n    mapping(uint256 => bool) public RequestStatus;\n    mapping(uint256 => bool) public RequestedLands;\n    mapping(uint256 => bool) public PaymentReceived;\n    mapping(address => address) public successors;\n    mapping(address => bool) public isAlive;\n\n    address public Land_Inspector;\n    address[] public sellers;\n    address[] public buyers;\n\n    uint256 public landsCount;\n    uint256 public inspectorsCount;\n    uint256 public sellersCount;\n    uint256 public buyersCount;\n    uint256 public requestsCount;\n\n    event Registration(address _registrationId, address _succ);\n    event AddingLand(uint256 indexed _landId);\n    event Landrequested(address _sellerId);\n    event requestApproved(address _buyerId);\n    event Verified(address _id);\n    event Rejected(address _id);\n    event Succession(address _Owner);\n\n    constructor() public {\n        Land_Inspector = msg.sender;\n        addLandInspector(\"Inspector 1\", 45, \"Tehsil Manager\");\n    }\n\n    function getPrevious(uint i) public view returns (address) {\n        return lands[i].old_owner;\n    }\n\n    // function getLandDetails(\n    //     uint256 i\n    // )\n    //     public\n    //     view\n    //     returns (\n    //         uint256,\n    //         uint256,\n    //         string memory,\n    //         string memory,\n    //         uint256,\n    //         uint256,\n    //         uint256\n    //     )\n    // {\n    //     return (\n    //         lands[i].id,\n    //         lands[i].area,\n    //         lands[i].city,\n    //         lands[i].state,\n    //         lands[i].landPrice,\n    //         lands[i].propertyPID,\n    //         lands[i].physicalSurveyNumber\n    //     );\n    // }\n\n    function isSame(uint i) public view returns (bool) {\n        if (lands[i].old_owner == LandOwner[i]) return true;\n        else return false;\n    }\n\n    // function getDate(uint i) public view returns (uint){\n    //     return lands[i].date;\n    // }\n\n    function addLandInspector(\n        string memory _name,\n        uint256 _age,\n        string memory _designation\n    ) private {\n        inspectorsCount++;\n        InspectorMapping[inspectorsCount] = LandInspector(\n            inspectorsCount,\n            _name,\n            _age,\n            _designation\n        );\n    }\n\n    function getLandsCount() public view returns (uint256) {\n        return landsCount;\n    }\n\n    function getBuyersCount() public view returns (uint256) {\n        return buyersCount;\n    }\n\n    function getSellersCount() public view returns (uint256) {\n        return sellersCount;\n    }\n\n    function getRequestsCount() public view returns (uint256) {\n        return requestsCount;\n    }\n\n    function getArea(uint256 i) public view returns (uint256) {\n        return lands[i].area;\n    }\n\n    function getCity(uint256 i) public view returns (string memory) {\n        return lands[i].city;\n    }\n\n    function getState(uint256 i) public view returns (string memory) {\n        return lands[i].state;\n    }\n\n    // function getStatus(uint i) public view returns (bool) {\n    //     return lands[i].verificationStatus;\n    // }\n    function getPrice(uint256 i) public view returns (uint256) {\n        return lands[i].landPrice;\n    }\n\n    function getPID(uint256 i) public view returns (uint256) {\n        return lands[i].propertyPID;\n    }\n\n    function getSurveyNumber(uint256 i) public view returns (uint256) {\n        return lands[i].physicalSurveyNumber;\n    }\n\n    function getImage(uint256 i) public view returns (string memory) {\n        return lands[i].ipfsHash;\n    }\n\n    function getDocument(uint256 i) public view returns (string memory) {\n        return lands[i].document;\n    }\n\n    function getLandOwner(uint256 id) public view returns (address) {\n        return LandOwner[id];\n    }\n\n    function getAlive(address _Owner) public view returns (bool) {\n        return isAlive[_Owner];\n    }\n\n    function verifySeller(address _sellerId) public {\n        require(isLandInspector(msg.sender));\n\n        SellerVerification[_sellerId] = true;\n        BuyerVerification[_sellerId] = true;\n        emit Verified(_sellerId);\n    }\n\n    function rejectSeller(address _sellerId) public {\n        require(isLandInspector(msg.sender));\n\n        SellerRejection[_sellerId] = true;\n        BuyerRejection[_sellerId] = true;\n        emit Rejected(_sellerId);\n    }\n\n    function verifyBuyer(address _buyerId) public {\n        require(isLandInspector(msg.sender));\n\n        BuyerVerification[_buyerId] = true;\n        emit Verified(_buyerId);\n    }\n\n    function rejectBuyer(address _buyerId) public {\n        require(isLandInspector(msg.sender));\n\n        BuyerRejection[_buyerId] = true;\n        emit Rejected(_buyerId);\n    }\n\n    function verifyLand(uint256 _landId) public {\n        require(isLandInspector(msg.sender));\n\n        LandVerification[_landId] = true;\n    }\n\n    function isLandVerified(uint256 _id) public view returns (bool) {\n        if (LandVerification[_id]) {\n            return true;\n        }\n    }\n\n    function isVerified(address _id) public view returns (bool) {\n        if (SellerVerification[_id] || BuyerVerification[_id]) {\n            return true;\n        }\n    }\n\n    function isRejected(address _id) public view returns (bool) {\n        if (SellerRejection[_id] || BuyerRejection[_id]) {\n            return true;\n        }\n    }\n\n    function isSeller(address _id) public view returns (bool) {\n        if (RegisteredSellerMapping[_id]) {\n            return true;\n        }\n    }\n\n    function isLandInspector(address _id) public view returns (bool) {\n        if (Land_Inspector == _id) {\n            return true;\n        } else {\n            return false;\n        }\n    }\n\n    function isBuyer(address _id) public view returns (bool) {\n        if (RegisteredBuyerMapping[_id]) {\n            return true;\n        }\n    }\n\n    function isRegistered(address _id) public view returns (bool) {\n        if (RegisteredAddressMapping[_id]) {\n            return true;\n        }\n    }\n\n    function addLand(\n        uint _area,\n        string memory _city,\n        string memory _state,\n        uint landPrice,\n        uint _propertyPID,\n        uint _surveyNum,\n        string memory _ipfsHash,\n        string memory _document\n        ,string memory _lat,\n        string memory _lng\n    ) public {\n        require((isSeller(msg.sender)) && (isVerified(msg.sender)));\n        landsCount++;\n        lands[landsCount] = Landreg(\n            landsCount,\n            _area,\n            _city,\n            _state,\n            landPrice,\n            _propertyPID,\n            _surveyNum,\n            _ipfsHash,\n            _document,\n            msg.sender,\n            _lat,\n            _lng\n        );\n        LandOwner[landsCount] = msg.sender;\n        // emit AddingLand(landsCount);\n    }\n\n    //registration of seller\n\n    function getLandDetails(uint256 i)\n        public\n        view\n        returns (\n            uint256,\n            uint256,\n            string memory,\n            string memory,\n            uint256,\n            string memory,\n            string memory\n        )\n    {\n        return (\n            lands[i].id,\n            lands[i].area,\n            lands[i].city,\n            lands[i].state,\n            lands[i].landPrice,\n            lands[i].lat,\n            lands[i].lng\n        );\n    }\n\n\n    function registerSeller(\n        string memory _name,\n        uint256 _age,\n        string memory _aadharNumber,\n        string memory _panNumber,\n        string memory _landsOwned,\n        string memory _document\n    ) public {\n        //require that Seller is not already registered\n        require(!RegisteredAddressMapping[msg.sender]);\n\n        RegisteredAddressMapping[msg.sender] = true;\n        RegisteredSellerMapping[msg.sender] = true;\n        sellersCount++;\n        SellerMapping[msg.sender] = Seller(\n            msg.sender,\n            _name,\n            _age,\n            _aadharNumber,\n            _panNumber,\n            _landsOwned,\n            _document\n        );\n        sellers.push(msg.sender);\n        emit Registration(msg.sender, msg.sender);\n    }\n\n    function updateSeller(\n        string memory _name,\n        uint256 _age,\n        string memory _aadharNumber,\n        string memory _panNumber,\n        string memory _landsOwned\n    ) public {\n        //require that Seller is already registered\n        require(\n            RegisteredAddressMapping[msg.sender] &&\n                (SellerMapping[msg.sender].id == msg.sender)\n        );\n\n        SellerMapping[msg.sender].name = _name;\n        SellerMapping[msg.sender].age = _age;\n        SellerMapping[msg.sender].aadharNumber = _aadharNumber;\n        SellerMapping[msg.sender].panNumber = _panNumber;\n        SellerMapping[msg.sender].landsOwned = _landsOwned;\n    }\n\n    function getSeller() public view returns (address[] memory) {\n        return (sellers);\n    }\n\n    function getSellerDetails(\n        address i\n    )\n        public\n        view\n        returns (\n            string memory,\n            uint256,\n            string memory,\n            string memory,\n            string memory,\n            string memory\n        )\n    {\n        return (\n            SellerMapping[i].name,\n            SellerMapping[i].age,\n            SellerMapping[i].aadharNumber,\n            SellerMapping[i].panNumber,\n            SellerMapping[i].landsOwned,\n            SellerMapping[i].document\n        );\n    }\n\n    function registerBuyer(\n        string memory _name,\n        uint256 _age,\n        string memory _city,\n        string memory _aadharNumber,\n        string memory _panNumber,\n        string memory _document,\n        string memory _email\n    ) public {\n        //require that Buyer is not already registered\n        // require(!RegisteredAddressMapping[msg.sender]);\n\n        RegisteredAddressMapping[msg.sender] = true;\n        RegisteredBuyerMapping[msg.sender] = true;\n        buyersCount++;\n        BuyerMapping[msg.sender] = Buyer(\n            msg.sender,\n            _name,\n            _age,\n            _city,\n            _aadharNumber,\n            _panNumber,\n            _document,\n            _email\n        );\n        buyers.push(msg.sender);\n\n        emit Registration(msg.sender, msg.sender);\n    }\n\n    function registerUser(\n        string memory _name,\n        uint256 _age,\n        string memory _city,\n        string memory _aadharNumber,\n        string memory _panNumber,\n        string memory _landsOwned,\n        string memory _document,\n        string memory _email,\n        address _succ\n    ) public {\n        // require that Buyer is not already registered\n        require(!RegisteredAddressMapping[msg.sender]);\n\n        RegisteredAddressMapping[msg.sender] = true;\n        RegisteredBuyerMapping[msg.sender] = true;\n        buyersCount++;\n        BuyerMapping[msg.sender] = Buyer(\n            msg.sender,\n            _name,\n            _age,\n            _city,\n            _aadharNumber,\n            _panNumber,\n            _document,\n            _email\n        );\n        buyers.push(msg.sender);\n        RegisteredSellerMapping[msg.sender] = true;\n        sellersCount++;\n        SellerMapping[msg.sender] = Seller(\n            msg.sender,\n            _name,\n            _age,\n            _aadharNumber,\n            _panNumber,\n            _landsOwned,\n            _document\n        );\n        sellers.push(msg.sender);\n        successors[msg.sender] = _succ;\n        isAlive[msg.sender] = true;\n        emit Registration(msg.sender, _succ);\n    }\n\n    function updateBuyer(\n        string memory _name,\n        uint256 _age,\n        string memory _city,\n        string memory _aadharNumber,\n        string memory _email,\n        string memory _panNumber\n    ) public {\n        //require that Buyer is already registered\n        require(\n            RegisteredAddressMapping[msg.sender] &&\n                (BuyerMapping[msg.sender].id == msg.sender)\n        );\n\n        BuyerMapping[msg.sender].name = _name;\n        BuyerMapping[msg.sender].age = _age;\n        BuyerMapping[msg.sender].city = _city;\n        BuyerMapping[msg.sender].aadharNumber = _aadharNumber;\n        BuyerMapping[msg.sender].email = _email;\n        BuyerMapping[msg.sender].panNumber = _panNumber;\n    }\n\n    function getBuyer() public view returns (address[] memory) {\n        return (buyers);\n    }\n\n    function getSuccessor(address _Owner) public view returns (address) {\n        return successors[_Owner];\n    }\n\n    function getBuyerDetails(\n        address i\n    )\n        public\n        view\n        returns (\n            string memory,\n            string memory,\n            string memory,\n            string memory,\n            string memory,\n            uint256,\n            string memory\n        )\n    {\n        return (\n            BuyerMapping[i].name,\n            BuyerMapping[i].city,\n            BuyerMapping[i].panNumber,\n            BuyerMapping[i].document,\n            BuyerMapping[i].email,\n            BuyerMapping[i].age,\n            BuyerMapping[i].aadharNumber\n        );\n    }\n\n    function requestLand(address _sellerId, uint256 _landId) public {\n        require(isBuyer(msg.sender) && isVerified(msg.sender));\n\n        requestsCount++;\n        RequestsMapping[requestsCount] = LandRequest(\n            requestsCount,\n            _sellerId,\n            msg.sender,\n            _landId\n        );\n        RequestStatus[requestsCount] = false;\n        RequestedLands[requestsCount] = true;\n\n        emit Landrequested(_sellerId);\n    }\n\n    function getRequestDetails(\n        uint256 i\n    ) public view returns (address, address, uint256, bool) {\n        return (\n            RequestsMapping[i].sellerId,\n            RequestsMapping[i].buyerId,\n            RequestsMapping[i].landId,\n            RequestStatus[i]\n        );\n    }\n\n    function isRequested(uint256 _id) public view returns (bool) {\n        if (RequestedLands[_id]) {\n            return true;\n        }\n    }\n\n    function isApproved(uint256 _id) public view returns (bool) {\n        if (RequestStatus[_id]) {\n            return true;\n        }\n    }\n\n    function approveRequest(uint256 _reqId) public {\n        require((isSeller(msg.sender)) && (isVerified(msg.sender)));\n\n        RequestStatus[_reqId] = true;\n    }\n\n    function LandOwnershipTransfer(uint _landId, address _newOwner) public {\n        require(isLandInspector(msg.sender));\n        lands[_landId].old_owner = LandOwner[_landId];\n        LandOwner[_landId] = _newOwner;\n    }\n\n    function isPaid(uint256 _landId) public view returns (bool) {\n        if (PaymentReceived[_landId]) {\n            return true;\n        }\n    }\n\n    function payment(\n        address payable _receiver,\n        uint256 _landId\n    ) public payable {\n        PaymentReceived[_landId] = true;\n        _receiver.transfer(msg.value);\n    }\n\n    function AfterDeath(address _Owner) public {\n        require(isLandInspector(msg.sender));\n\n        isAlive[_Owner] = false;\n        uint i;\n        for (i = 1; i <= landsCount; i++) {\n            if (LandOwner[i] == _Owner) {\n                lands[i].old_owner = LandOwner[i];\n                LandOwner[i] = successors[_Owner];\n            }\n        }\n\n        emit Succession(_Owner);\n    }\n}\n",
  "sourcePath": "/home/alby/Desktop/Land-Locker/contracts/Land.sol",
  "compiler": {
    "name": "solc",
    "version": "0.5.16+commit.9c3226ce.Emscripten.clang"
  },
  "schemaVersion": "3.4.10",
  "updatedAt": "2023-03-24T14:09:13.302Z",
  "networkType": "ethereum",
  "devdoc": {
    "methods": {}
  },
  "userdoc": {
    "methods": {}
  }
}