{
  "contractName": "Land",
  "abi": [
    {
      "inputs": [],
      "payable": false,
      "stateMutability": "nonpayable",
      "type": "constructor"
    },
    {
      "anonymous": false,
      "inputs": [
        {
          "indexed": true,
          "internalType": "uint256",
          "name": "_landId",
          "type": "uint256"
        }
      ],
      "name": "AddingLand",
      "type": "event"
    },
    {
      "anonymous": false,
      "inputs": [
        {
          "indexed": false,
          "internalType": "address",
          "name": "_sellerId",
          "type": "address"
        }
      ],
      "name": "Landrequested",
      "type": "event"
    },
    {
      "anonymous": false,
      "inputs": [
        {
          "indexed": false,
          "internalType": "address",
          "name": "_registrationId",
          "type": "address"
        }
      ],
      "name": "Registration",
      "type": "event"
    },
    {
      "anonymous": false,
      "inputs": [
        {
          "indexed": false,
          "internalType": "address",
          "name": "_id",
          "type": "address"
        }
      ],
      "name": "Rejected",
      "type": "event"
    },
    {
      "anonymous": false,
      "inputs": [
        {
          "indexed": false,
          "internalType": "address",
          "name": "_Owner",
          "type": "address"
        }
      ],
      "name": "Succession",
      "type": "event"
    },
    {
      "anonymous": false,
      "inputs": [
        {
          "indexed": false,
          "internalType": "address",
          "name": "_id",
          "type": "address"
        }
      ],
      "name": "Verified",
      "type": "event"
    },
    {
      "anonymous": false,
      "inputs": [
        {
          "indexed": false,
          "internalType": "address",
          "name": "_buyerId",
          "type": "address"
        }
      ],
      "name": "requestApproved",
      "type": "event"
    },
    {
      "constant": true,
      "inputs": [
        {
          "internalType": "address",
          "name": "",
          "type": "address"
        }
      ],
      "name": "BuyerMapping",
      "outputs": [
        {
          "internalType": "address",
          "name": "id",
          "type": "address"
        },
        {
          "internalType": "string",
          "name": "name",
          "type": "string"
        },
        {
          "internalType": "uint256",
          "name": "age",
          "type": "uint256"
        },
        {
          "internalType": "string",
          "name": "city",
          "type": "string"
        },
        {
          "internalType": "string",
          "name": "aadharNumber",
          "type": "string"
        },
        {
          "internalType": "string",
          "name": "panNumber",
          "type": "string"
        },
        {
          "internalType": "string",
          "name": "document",
          "type": "string"
        },
        {
          "internalType": "string",
          "name": "email",
          "type": "string"
        }
      ],
      "payable": false,
      "stateMutability": "view",
      "type": "function"
    },
    {
      "constant": true,
      "inputs": [
        {
          "internalType": "address",
          "name": "",
          "type": "address"
        }
      ],
      "name": "BuyerRejection",
      "outputs": [
        {
          "internalType": "bool",
          "name": "",
          "type": "bool"
        }
      ],
      "payable": false,
      "stateMutability": "view",
      "type": "function"
    },
    {
      "constant": true,
      "inputs": [
        {
          "internalType": "address",
          "name": "",
          "type": "address"
        }
      ],
      "name": "BuyerVerification",
      "outputs": [
        {
          "internalType": "bool",
          "name": "",
          "type": "bool"
        }
      ],
      "payable": false,
      "stateMutability": "view",
      "type": "function"
    },
    {
      "constant": true,
      "inputs": [
        {
          "internalType": "uint256",
          "name": "",
          "type": "uint256"
        }
      ],
      "name": "InspectorMapping",
      "outputs": [
        {
          "internalType": "uint256",
          "name": "id",
          "type": "uint256"
        },
        {
          "internalType": "string",
          "name": "name",
          "type": "string"
        },
        {
          "internalType": "uint256",
          "name": "age",
          "type": "uint256"
        },
        {
          "internalType": "string",
          "name": "designation",
          "type": "string"
        }
      ],
      "payable": false,
      "stateMutability": "view",
      "type": "function"
    },
    {
      "constant": true,
      "inputs": [
        {
          "internalType": "uint256",
          "name": "",
          "type": "uint256"
        }
      ],
      "name": "LandOwner",
      "outputs": [
        {
          "internalType": "address",
          "name": "",
          "type": "address"
        }
      ],
      "payable": false,
      "stateMutability": "view",
      "type": "function"
    },
    {
      "constant": true,
      "inputs": [
        {
          "internalType": "uint256",
          "name": "",
          "type": "uint256"
        }
      ],
      "name": "LandVerification",
      "outputs": [
        {
          "internalType": "bool",
          "name": "",
          "type": "bool"
        }
      ],
      "payable": false,
      "stateMutability": "view",
      "type": "function"
    },
    {
      "constant": true,
      "inputs": [],
      "name": "Land_Inspector",
      "outputs": [
        {
          "internalType": "address",
          "name": "",
          "type": "address"
        }
      ],
      "payable": false,
      "stateMutability": "view",
      "type": "function"
    },
    {
      "constant": true,
      "inputs": [
        {
          "internalType": "uint256",
          "name": "",
          "type": "uint256"
        }
      ],
      "name": "PaymentReceived",
      "outputs": [
        {
          "internalType": "bool",
          "name": "",
          "type": "bool"
        }
      ],
      "payable": false,
      "stateMutability": "view",
      "type": "function"
    },
    {
      "constant": true,
      "inputs": [
        {
          "internalType": "address",
          "name": "",
          "type": "address"
        }
      ],
      "name": "RegisteredAddressMapping",
      "outputs": [
        {
          "internalType": "bool",
          "name": "",
          "type": "bool"
        }
      ],
      "payable": false,
      "stateMutability": "view",
      "type": "function"
    },
    {
      "constant": true,
      "inputs": [
        {
          "internalType": "address",
          "name": "",
          "type": "address"
        }
      ],
      "name": "RegisteredBuyerMapping",
      "outputs": [
        {
          "internalType": "bool",
          "name": "",
          "type": "bool"
        }
      ],
      "payable": false,
      "stateMutability": "view",
      "type": "function"
    },
    {
      "constant": true,
      "inputs": [
        {
          "internalType": "address",
          "name": "",
          "type": "address"
        }
      ],
      "name": "RegisteredSellerMapping",
      "outputs": [
        {
          "internalType": "bool",
          "name": "",
          "type": "bool"
        }
      ],
      "payable": false,
      "stateMutability": "view",
      "type": "function"
    },
    {
      "constant": true,
      "inputs": [
        {
          "internalType": "uint256",
          "name": "",
          "type": "uint256"
        }
      ],
      "name": "RequestStatus",
      "outputs": [
        {
          "internalType": "bool",
          "name": "",
          "type": "bool"
        }
      ],
      "payable": false,
      "stateMutability": "view",
      "type": "function"
    },
    {
      "constant": true,
      "inputs": [
        {
          "internalType": "uint256",
          "name": "",
          "type": "uint256"
        }
      ],
      "name": "RequestedLands",
      "outputs": [
        {
          "internalType": "bool",
          "name": "",
          "type": "bool"
        }
      ],
      "payable": false,
      "stateMutability": "view",
      "type": "function"
    },
    {
      "constant": true,
      "inputs": [
        {
          "internalType": "uint256",
          "name": "",
          "type": "uint256"
        }
      ],
      "name": "RequestsMapping",
      "outputs": [
        {
          "internalType": "uint256",
          "name": "reqId",
          "type": "uint256"
        },
        {
          "internalType": "address",
          "name": "sellerId",
          "type": "address"
        },
        {
          "internalType": "address",
          "name": "buyerId",
          "type": "address"
        },
        {
          "internalType": "uint256",
          "name": "landId",
          "type": "uint256"
        }
      ],
      "payable": false,
      "stateMutability": "view",
      "type": "function"
    },
    {
      "constant": true,
      "inputs": [
        {
          "internalType": "address",
          "name": "",
          "type": "address"
        }
      ],
      "name": "SellerMapping",
      "outputs": [
        {
          "internalType": "address",
          "name": "id",
          "type": "address"
        },
        {
          "internalType": "string",
          "name": "name",
          "type": "string"
        },
        {
          "internalType": "uint256",
          "name": "age",
          "type": "uint256"
        },
        {
          "internalType": "string",
          "name": "aadharNumber",
          "type": "string"
        },
        {
          "internalType": "string",
          "name": "panNumber",
          "type": "string"
        },
        {
          "internalType": "string",
          "name": "landsOwned",
          "type": "string"
        },
        {
          "internalType": "string",
          "name": "document",
          "type": "string"
        }
      ],
      "payable": false,
      "stateMutability": "view",
      "type": "function"
    },
    {
      "constant": true,
      "inputs": [
        {
          "internalType": "address",
          "name": "",
          "type": "address"
        }
      ],
      "name": "SellerRejection",
      "outputs": [
        {
          "internalType": "bool",
          "name": "",
          "type": "bool"
        }
      ],
      "payable": false,
      "stateMutability": "view",
      "type": "function"
    },
    {
      "constant": true,
      "inputs": [
        {
          "internalType": "address",
          "name": "",
          "type": "address"
        }
      ],
      "name": "SellerVerification",
      "outputs": [
        {
          "internalType": "bool",
          "name": "",
          "type": "bool"
        }
      ],
      "payable": false,
      "stateMutability": "view",
      "type": "function"
    },
    {
      "constant": true,
      "inputs": [
        {
          "internalType": "uint256",
          "name": "",
          "type": "uint256"
        }
      ],
      "name": "buyers",
      "outputs": [
        {
          "internalType": "address",
          "name": "",
          "type": "address"
        }
      ],
      "payable": false,
      "stateMutability": "view",
      "type": "function"
    },
    {
      "constant": true,
      "inputs": [],
      "name": "buyersCount",
      "outputs": [
        {
          "internalType": "uint256",
          "name": "",
          "type": "uint256"
        }
      ],
      "payable": false,
      "stateMutability": "view",
      "type": "function"
    },
    {
      "constant": true,
      "inputs": [],
      "name": "inspectorsCount",
      "outputs": [
        {
          "internalType": "uint256",
          "name": "",
          "type": "uint256"
        }
      ],
      "payable": false,
      "stateMutability": "view",
      "type": "function"
    },
    {
      "constant": true,
      "inputs": [
        {
          "internalType": "address",
          "name": "",
          "type": "address"
        }
      ],
      "name": "isAlive",
      "outputs": [
        {
          "internalType": "bool",
          "name": "",
          "type": "bool"
        }
      ],
      "payable": false,
      "stateMutability": "view",
      "type": "function"
    },
    {
      "constant": true,
      "inputs": [
        {
          "internalType": "uint256",
          "name": "",
          "type": "uint256"
        }
      ],
      "name": "lands",
      "outputs": [
        {
          "internalType": "uint256",
          "name": "id",
          "type": "uint256"
        },
        {
          "internalType": "uint256",
          "name": "area",
          "type": "uint256"
        },
        {
          "internalType": "string",
          "name": "state",
          "type": "string"
        },
        {
          "internalType": "uint256",
          "name": "landPrice",
          "type": "uint256"
        },
        {
          "internalType": "uint256",
          "name": "propertyPID",
          "type": "uint256"
        },
        {
          "internalType": "uint256",
          "name": "physicalSurveyNumber",
          "type": "uint256"
        },
        {
          "internalType": "string",
          "name": "ipfsHash",
          "type": "string"
        },
        {
          "internalType": "string",
          "name": "document",
          "type": "string"
        },
        {
          "internalType": "address",
          "name": "old_owner",
          "type": "address"
        },
        {
          "internalType": "address",
          "name": "nominee",
          "type": "address"
        },
        {
          "internalType": "string",
          "name": "lat",
          "type": "string"
        },
        {
          "internalType": "string",
          "name": "lng",
          "type": "string"
        }
      ],
      "payable": false,
      "stateMutability": "view",
      "type": "function"
    },
    {
      "constant": true,
      "inputs": [],
      "name": "landsCount",
      "outputs": [
        {
          "internalType": "uint256",
          "name": "",
          "type": "uint256"
        }
      ],
      "payable": false,
      "stateMutability": "view",
      "type": "function"
    },
    {
      "constant": true,
      "inputs": [],
      "name": "requestsCount",
      "outputs": [
        {
          "internalType": "uint256",
          "name": "",
          "type": "uint256"
        }
      ],
      "payable": false,
      "stateMutability": "view",
      "type": "function"
    },
    {
      "constant": true,
      "inputs": [
        {
          "internalType": "uint256",
          "name": "",
          "type": "uint256"
        }
      ],
      "name": "sellers",
      "outputs": [
        {
          "internalType": "address",
          "name": "",
          "type": "address"
        }
      ],
      "payable": false,
      "stateMutability": "view",
      "type": "function"
    },
    {
      "constant": true,
      "inputs": [],
      "name": "sellersCount",
      "outputs": [
        {
          "internalType": "uint256",
          "name": "",
          "type": "uint256"
        }
      ],
      "payable": false,
      "stateMutability": "view",
      "type": "function"
    },
    {
      "constant": true,
      "inputs": [
        {
          "internalType": "uint256",
          "name": "i",
          "type": "uint256"
        }
      ],
      "name": "getPrevious",
      "outputs": [
        {
          "internalType": "address",
          "name": "",
          "type": "address"
        }
      ],
      "payable": false,
      "stateMutability": "view",
      "type": "function"
    },
    {
      "constant": true,
      "inputs": [
        {
          "internalType": "uint256",
          "name": "i",
          "type": "uint256"
        }
      ],
      "name": "isSame",
      "outputs": [
        {
          "internalType": "bool",
          "name": "",
          "type": "bool"
        }
      ],
      "payable": false,
      "stateMutability": "view",
      "type": "function"
    },
    {
      "constant": true,
      "inputs": [],
      "name": "getLandsCount",
      "outputs": [
        {
          "internalType": "uint256",
          "name": "",
          "type": "uint256"
        }
      ],
      "payable": false,
      "stateMutability": "view",
      "type": "function"
    },
    {
      "constant": true,
      "inputs": [],
      "name": "getBuyersCount",
      "outputs": [
        {
          "internalType": "uint256",
          "name": "",
          "type": "uint256"
        }
      ],
      "payable": false,
      "stateMutability": "view",
      "type": "function"
    },
    {
      "constant": true,
      "inputs": [],
      "name": "getSellersCount",
      "outputs": [
        {
          "internalType": "uint256",
          "name": "",
          "type": "uint256"
        }
      ],
      "payable": false,
      "stateMutability": "view",
      "type": "function"
    },
    {
      "constant": true,
      "inputs": [],
      "name": "getRequestsCount",
      "outputs": [
        {
          "internalType": "uint256",
          "name": "",
          "type": "uint256"
        }
      ],
      "payable": false,
      "stateMutability": "view",
      "type": "function"
    },
    {
      "constant": true,
      "inputs": [
        {
          "internalType": "uint256",
          "name": "i",
          "type": "uint256"
        }
      ],
      "name": "getNominee",
      "outputs": [
        {
          "internalType": "address",
          "name": "",
          "type": "address"
        }
      ],
      "payable": false,
      "stateMutability": "view",
      "type": "function"
    },
    {
      "constant": true,
      "inputs": [
        {
          "internalType": "uint256",
          "name": "i",
          "type": "uint256"
        }
      ],
      "name": "getArea",
      "outputs": [
        {
          "internalType": "uint256",
          "name": "",
          "type": "uint256"
        }
      ],
      "payable": false,
      "stateMutability": "view",
      "type": "function"
    },
    {
      "constant": true,
      "inputs": [
        {
          "internalType": "uint256",
          "name": "i",
          "type": "uint256"
        }
      ],
      "name": "getState",
      "outputs": [
        {
          "internalType": "string",
          "name": "",
          "type": "string"
        }
      ],
      "payable": false,
      "stateMutability": "view",
      "type": "function"
    },
    {
      "constant": true,
      "inputs": [
        {
          "internalType": "uint256",
          "name": "i",
          "type": "uint256"
        }
      ],
      "name": "getPrice",
      "outputs": [
        {
          "internalType": "uint256",
          "name": "",
          "type": "uint256"
        }
      ],
      "payable": false,
      "stateMutability": "view",
      "type": "function"
    },
    {
      "constant": true,
      "inputs": [
        {
          "internalType": "uint256",
          "name": "i",
          "type": "uint256"
        }
      ],
      "name": "getPID",
      "outputs": [
        {
          "internalType": "uint256",
          "name": "",
          "type": "uint256"
        }
      ],
      "payable": false,
      "stateMutability": "view",
      "type": "function"
    },
    {
      "constant": true,
      "inputs": [
        {
          "internalType": "uint256",
          "name": "i",
          "type": "uint256"
        }
      ],
      "name": "getSurveyNumber",
      "outputs": [
        {
          "internalType": "uint256",
          "name": "",
          "type": "uint256"
        }
      ],
      "payable": false,
      "stateMutability": "view",
      "type": "function"
    },
    {
      "constant": true,
      "inputs": [
        {
          "internalType": "uint256",
          "name": "i",
          "type": "uint256"
        }
      ],
      "name": "getImage",
      "outputs": [
        {
          "internalType": "string",
          "name": "",
          "type": "string"
        }
      ],
      "payable": false,
      "stateMutability": "view",
      "type": "function"
    },
    {
      "constant": true,
      "inputs": [
        {
          "internalType": "uint256",
          "name": "i",
          "type": "uint256"
        }
      ],
      "name": "getDocument",
      "outputs": [
        {
          "internalType": "string",
          "name": "",
          "type": "string"
        }
      ],
      "payable": false,
      "stateMutability": "view",
      "type": "function"
    },
    {
      "constant": true,
      "inputs": [
        {
          "internalType": "uint256",
          "name": "id",
          "type": "uint256"
        }
      ],
      "name": "getLandOwner",
      "outputs": [
        {
          "internalType": "address",
          "name": "",
          "type": "address"
        }
      ],
      "payable": false,
      "stateMutability": "view",
      "type": "function"
    },
    {
      "constant": true,
      "inputs": [
        {
          "internalType": "address",
          "name": "_Owner",
          "type": "address"
        }
      ],
      "name": "getAlive",
      "outputs": [
        {
          "internalType": "bool",
          "name": "",
          "type": "bool"
        }
      ],
      "payable": false,
      "stateMutability": "view",
      "type": "function"
    },
    {
      "constant": false,
      "inputs": [
        {
          "internalType": "address",
          "name": "_sellerId",
          "type": "address"
        }
      ],
      "name": "verifySeller",
      "outputs": [],
      "payable": false,
      "stateMutability": "nonpayable",
      "type": "function"
    },
    {
      "constant": false,
      "inputs": [
        {
          "internalType": "address",
          "name": "_sellerId",
          "type": "address"
        }
      ],
      "name": "rejectSeller",
      "outputs": [],
      "payable": false,
      "stateMutability": "nonpayable",
      "type": "function"
    },
    {
      "constant": false,
      "inputs": [
        {
          "internalType": "address",
          "name": "_buyerId",
          "type": "address"
        }
      ],
      "name": "verifyBuyer",
      "outputs": [],
      "payable": false,
      "stateMutability": "nonpayable",
      "type": "function"
    },
    {
      "constant": false,
      "inputs": [
        {
          "internalType": "address",
          "name": "_buyerId",
          "type": "address"
        }
      ],
      "name": "rejectBuyer",
      "outputs": [],
      "payable": false,
      "stateMutability": "nonpayable",
      "type": "function"
    },
    {
      "constant": false,
      "inputs": [
        {
          "internalType": "uint256",
          "name": "_landId",
          "type": "uint256"
        }
      ],
      "name": "verifyLand",
      "outputs": [],
      "payable": false,
      "stateMutability": "nonpayable",
      "type": "function"
    },
    {
      "constant": true,
      "inputs": [
        {
          "internalType": "uint256",
          "name": "_id",
          "type": "uint256"
        }
      ],
      "name": "isLandVerified",
      "outputs": [
        {
          "internalType": "bool",
          "name": "",
          "type": "bool"
        }
      ],
      "payable": false,
      "stateMutability": "view",
      "type": "function"
    },
    {
      "constant": true,
      "inputs": [
        {
          "internalType": "address",
          "name": "_id",
          "type": "address"
        }
      ],
      "name": "isVerified",
      "outputs": [
        {
          "internalType": "bool",
          "name": "",
          "type": "bool"
        }
      ],
      "payable": false,
      "stateMutability": "view",
      "type": "function"
    },
    {
      "constant": true,
      "inputs": [
        {
          "internalType": "address",
          "name": "_id",
          "type": "address"
        }
      ],
      "name": "isRejected",
      "outputs": [
        {
          "internalType": "bool",
          "name": "",
          "type": "bool"
        }
      ],
      "payable": false,
      "stateMutability": "view",
      "type": "function"
    },
    {
      "constant": true,
      "inputs": [
        {
          "internalType": "address",
          "name": "_id",
          "type": "address"
        }
      ],
      "name": "isSeller",
      "outputs": [
        {
          "internalType": "bool",
          "name": "",
          "type": "bool"
        }
      ],
      "payable": false,
      "stateMutability": "view",
      "type": "function"
    },
    {
      "constant": true,
      "inputs": [
        {
          "internalType": "address",
          "name": "_id",
          "type": "address"
        }
      ],
      "name": "isLandInspector",
      "outputs": [
        {
          "internalType": "bool",
          "name": "",
          "type": "bool"
        }
      ],
      "payable": false,
      "stateMutability": "view",
      "type": "function"
    },
    {
      "constant": true,
      "inputs": [
        {
          "internalType": "address",
          "name": "_id",
          "type": "address"
        }
      ],
      "name": "isBuyer",
      "outputs": [
        {
          "internalType": "bool",
          "name": "",
          "type": "bool"
        }
      ],
      "payable": false,
      "stateMutability": "view",
      "type": "function"
    },
    {
      "constant": true,
      "inputs": [
        {
          "internalType": "address",
          "name": "_id",
          "type": "address"
        }
      ],
      "name": "isRegistered",
      "outputs": [
        {
          "internalType": "bool",
          "name": "",
          "type": "bool"
        }
      ],
      "payable": false,
      "stateMutability": "view",
      "type": "function"
    },
    {
      "constant": false,
      "inputs": [
        {
          "internalType": "uint256",
          "name": "_area",
          "type": "uint256"
        },
        {
          "internalType": "string",
          "name": "_state",
          "type": "string"
        },
        {
          "internalType": "uint256",
          "name": "landPrice",
          "type": "uint256"
        },
        {
          "internalType": "uint256",
          "name": "_propertyPID",
          "type": "uint256"
        },
        {
          "internalType": "uint256",
          "name": "_surveyNum",
          "type": "uint256"
        },
        {
          "internalType": "string",
          "name": "_ipfsHash",
          "type": "string"
        },
        {
          "internalType": "string",
          "name": "_document",
          "type": "string"
        },
        {
          "internalType": "address",
          "name": "_nominee",
          "type": "address"
        },
        {
          "internalType": "string",
          "name": "_lat",
          "type": "string"
        },
        {
          "internalType": "string",
          "name": "_lng",
          "type": "string"
        }
      ],
      "name": "addLand",
      "outputs": [],
      "payable": false,
      "stateMutability": "nonpayable",
      "type": "function"
    },
    {
      "constant": true,
      "inputs": [
        {
          "internalType": "uint256",
          "name": "i",
          "type": "uint256"
        }
      ],
      "name": "getLandDetails",
      "outputs": [
        {
          "internalType": "uint256",
          "name": "",
          "type": "uint256"
        },
        {
          "internalType": "uint256",
          "name": "",
          "type": "uint256"
        },
        {
          "internalType": "string",
          "name": "",
          "type": "string"
        },
        {
          "internalType": "string",
          "name": "",
          "type": "string"
        },
        {
          "internalType": "uint256",
          "name": "",
          "type": "uint256"
        },
        {
          "internalType": "string",
          "name": "",
          "type": "string"
        },
        {
          "internalType": "string",
          "name": "",
          "type": "string"
        }
      ],
      "payable": false,
      "stateMutability": "view",
      "type": "function"
    },
    {
      "constant": false,
      "inputs": [
        {
          "internalType": "string",
          "name": "_name",
          "type": "string"
        },
        {
          "internalType": "uint256",
          "name": "_age",
          "type": "uint256"
        },
        {
          "internalType": "string",
          "name": "_aadharNumber",
          "type": "string"
        },
        {
          "internalType": "string",
          "name": "_panNumber",
          "type": "string"
        },
        {
          "internalType": "string",
          "name": "_landsOwned",
          "type": "string"
        },
        {
          "internalType": "string",
          "name": "_document",
          "type": "string"
        }
      ],
      "name": "registerSeller",
      "outputs": [],
      "payable": false,
      "stateMutability": "nonpayable",
      "type": "function"
    },
    {
      "constant": false,
      "inputs": [
        {
          "internalType": "string",
          "name": "_name",
          "type": "string"
        },
        {
          "internalType": "uint256",
          "name": "_age",
          "type": "uint256"
        },
        {
          "internalType": "string",
          "name": "_aadharNumber",
          "type": "string"
        },
        {
          "internalType": "string",
          "name": "_panNumber",
          "type": "string"
        },
        {
          "internalType": "string",
          "name": "_landsOwned",
          "type": "string"
        }
      ],
      "name": "updateSeller",
      "outputs": [],
      "payable": false,
      "stateMutability": "nonpayable",
      "type": "function"
    },
    {
      "constant": true,
      "inputs": [],
      "name": "getSeller",
      "outputs": [
        {
          "internalType": "address[]",
          "name": "",
          "type": "address[]"
        }
      ],
      "payable": false,
      "stateMutability": "view",
      "type": "function"
    },
    {
      "constant": true,
      "inputs": [
        {
          "internalType": "address",
          "name": "i",
          "type": "address"
        }
      ],
      "name": "getSellerDetails",
      "outputs": [
        {
          "internalType": "string",
          "name": "",
          "type": "string"
        },
        {
          "internalType": "uint256",
          "name": "",
          "type": "uint256"
        },
        {
          "internalType": "string",
          "name": "",
          "type": "string"
        },
        {
          "internalType": "string",
          "name": "",
          "type": "string"
        },
        {
          "internalType": "string",
          "name": "",
          "type": "string"
        },
        {
          "internalType": "string",
          "name": "",
          "type": "string"
        }
      ],
      "payable": false,
      "stateMutability": "view",
      "type": "function"
    },
    {
      "constant": false,
      "inputs": [
        {
          "internalType": "string",
          "name": "_name",
          "type": "string"
        },
        {
          "internalType": "uint256",
          "name": "_age",
          "type": "uint256"
        },
        {
          "internalType": "string",
          "name": "_city",
          "type": "string"
        },
        {
          "internalType": "string",
          "name": "_aadharNumber",
          "type": "string"
        },
        {
          "internalType": "string",
          "name": "_panNumber",
          "type": "string"
        },
        {
          "internalType": "string",
          "name": "_document",
          "type": "string"
        },
        {
          "internalType": "string",
          "name": "_email",
          "type": "string"
        }
      ],
      "name": "registerBuyer",
      "outputs": [],
      "payable": false,
      "stateMutability": "nonpayable",
      "type": "function"
    },
    {
      "constant": false,
      "inputs": [
        {
          "internalType": "string",
          "name": "_name",
          "type": "string"
        },
        {
          "internalType": "uint256",
          "name": "_age",
          "type": "uint256"
        },
        {
          "internalType": "string",
          "name": "_city",
          "type": "string"
        },
        {
          "internalType": "string",
          "name": "_aadharNumber",
          "type": "string"
        },
        {
          "internalType": "string",
          "name": "_panNumber",
          "type": "string"
        },
        {
          "internalType": "string",
          "name": "_landsOwned",
          "type": "string"
        },
        {
          "internalType": "string",
          "name": "_document",
          "type": "string"
        },
        {
          "internalType": "string",
          "name": "_email",
          "type": "string"
        }
      ],
      "name": "registerUser",
      "outputs": [],
      "payable": false,
      "stateMutability": "nonpayable",
      "type": "function"
    },
    {
      "constant": false,
      "inputs": [
        {
          "internalType": "string",
          "name": "_name",
          "type": "string"
        },
        {
          "internalType": "uint256",
          "name": "_age",
          "type": "uint256"
        },
        {
          "internalType": "string",
          "name": "_city",
          "type": "string"
        },
        {
          "internalType": "string",
          "name": "_aadharNumber",
          "type": "string"
        },
        {
          "internalType": "string",
          "name": "_email",
          "type": "string"
        },
        {
          "internalType": "string",
          "name": "_panNumber",
          "type": "string"
        }
      ],
      "name": "updateBuyer",
      "outputs": [],
      "payable": false,
      "stateMutability": "nonpayable",
      "type": "function"
    },
    {
      "constant": true,
      "inputs": [],
      "name": "getBuyer",
      "outputs": [
        {
          "internalType": "address[]",
          "name": "",
          "type": "address[]"
        }
      ],
      "payable": false,
      "stateMutability": "view",
      "type": "function"
    },
    {
      "constant": true,
      "inputs": [
        {
          "internalType": "address",
          "name": "i",
          "type": "address"
        }
      ],
      "name": "getBuyerDetails",
      "outputs": [
        {
          "internalType": "string",
          "name": "",
          "type": "string"
        },
        {
          "internalType": "string",
          "name": "",
          "type": "string"
        },
        {
          "internalType": "string",
          "name": "",
          "type": "string"
        },
        {
          "internalType": "string",
          "name": "",
          "type": "string"
        },
        {
          "internalType": "string",
          "name": "",
          "type": "string"
        },
        {
          "internalType": "uint256",
          "name": "",
          "type": "uint256"
        },
        {
          "internalType": "string",
          "name": "",
          "type": "string"
        }
      ],
      "payable": false,
      "stateMutability": "view",
      "type": "function"
    },
    {
      "constant": false,
      "inputs": [
        {
          "internalType": "address",
          "name": "_sellerId",
          "type": "address"
        },
        {
          "internalType": "uint256",
          "name": "_landId",
          "type": "uint256"
        }
      ],
      "name": "requestLand",
      "outputs": [],
      "payable": false,
      "stateMutability": "nonpayable",
      "type": "function"
    },
    {
      "constant": true,
      "inputs": [
        {
          "internalType": "uint256",
          "name": "i",
          "type": "uint256"
        }
      ],
      "name": "getRequestDetails",
      "outputs": [
        {
          "internalType": "address",
          "name": "",
          "type": "address"
        },
        {
          "internalType": "address",
          "name": "",
          "type": "address"
        },
        {
          "internalType": "uint256",
          "name": "",
          "type": "uint256"
        },
        {
          "internalType": "bool",
          "name": "",
          "type": "bool"
        }
      ],
      "payable": false,
      "stateMutability": "view",
      "type": "function"
    },
    {
      "constant": true,
      "inputs": [
        {
          "internalType": "uint256",
          "name": "_id",
          "type": "uint256"
        }
      ],
      "name": "isRequested",
      "outputs": [
        {
          "internalType": "bool",
          "name": "",
          "type": "bool"
        }
      ],
      "payable": false,
      "stateMutability": "view",
      "type": "function"
    },
    {
      "constant": true,
      "inputs": [
        {
          "internalType": "uint256",
          "name": "_id",
          "type": "uint256"
        }
      ],
      "name": "isApproved",
      "outputs": [
        {
          "internalType": "bool",
          "name": "",
          "type": "bool"
        }
      ],
      "payable": false,
      "stateMutability": "view",
      "type": "function"
    },
    {
      "constant": false,
      "inputs": [
        {
          "internalType": "uint256",
          "name": "_reqId",
          "type": "uint256"
        }
      ],
      "name": "approveRequest",
      "outputs": [],
      "payable": false,
      "stateMutability": "nonpayable",
      "type": "function"
    },
    {
      "constant": false,
      "inputs": [
        {
          "internalType": "uint256",
          "name": "_landId",
          "type": "uint256"
        },
        {
          "internalType": "address",
          "name": "_newOwner",
          "type": "address"
        }
      ],
      "name": "LandOwnershipTransfer",
      "outputs": [],
      "payable": false,
      "stateMutability": "nonpayable",
      "type": "function"
    },
    {
      "constant": true,
      "inputs": [
        {
          "internalType": "uint256",
          "name": "_landId",
          "type": "uint256"
        }
      ],
      "name": "isPaid",
      "outputs": [
        {
          "internalType": "bool",
          "name": "",
          "type": "bool"
        }
      ],
      "payable": false,
      "stateMutability": "view",
      "type": "function"
    },
    {
      "constant": false,
      "inputs": [
        {
          "internalType": "address payable",
          "name": "_receiver",
          "type": "address"
        },
        {
          "internalType": "uint256",
          "name": "_landId",
          "type": "uint256"
        }
      ],
      "name": "payment",
      "outputs": [],
      "payable": true,
      "stateMutability": "payable",
      "type": "function"
    },
    {
      "constant": false,
      "inputs": [
        {
          "internalType": "address",
          "name": "_Owner",
          "type": "address"
        }
      ],
      "name": "AfterDeath",
      "outputs": [],
      "payable": false,
      "stateMutability": "nonpayable",
      "type": "function"
    }
  ],
  "bytecode": "0x60806040523480156200001157600080fd5b5060128054600160a060020a03191633179055604080518082018252600b81527f496e73706563746f7220310000000000000000000000000000000000000000006020808301919091528251808401909352600e83527f54656873696c204d616e6167657200000000000000000000000000000000000090830152620000a391602d90640100000000620000a9810204565b620001d7565b601680546001908101918290556040805160808101825283815260208082018881528284018890526060830187905260009586528482529290942081518155915180519194929362000102939085019291019062000132565b5060408201516002820155606082015180516200012a91600384019160209091019062000132565b505050505050565b828054600181600116156101000203166002900490600052602060002090601f016020900481019282601f106200017557805160ff1916838001178555620001a5565b82800160010185558215620001a5579182015b82811115620001a557825182559160200191906001019062000188565b50620001b3929150620001b7565b5090565b620001d491905b80821115620001b35760008155600101620001be565b90565b61480580620001e76000396000f3fe6080604052600436106104ee576000357c010000000000000000000000000000000000000000000000000000000090048063989376b411610296578063d7d1bbdb1161017b578063e7572230116100f3578063f3f0c218116100a7578063f9c43bdf1161008c578063f9c43bdf14610e2d578063fbfa4b7f14610e4d578063fe0cb7dc14610e62576104ee565b8063f3f0c21814610ded578063f58f85b514610e0d576104ee565b8063f0d3a9df116100d8578063f0d3a9df14610d88578063f2aa821814610d9d578063f34d4c6314610dbd576104ee565b8063e757223014610d48578063ee95feaf14610d68576104ee565b8063def936c31161014a578063e1ecc7941161012f578063e1ecc79414610cd0578063e261f1e514610cf0578063e4b2611514610d28576104ee565b8063def936c314610c80578063e165af8714610cb0576104ee565b8063d7d1bbdb14610c03578063dbd0e1b614610c23578063dd9d122d14610c38578063dec091ad14610c4d576104ee565b8063b3c8fe851161020e578063c3c5a547116101dd578063cd392a83116101c2578063cd392a8314610ba3578063cee26ed514610bc3578063d1760e6014610be3576104ee565b8063c3c5a54714610b63578063c560b4e514610b83576104ee565b8063b3c8fe8514610adc578063b9209e3314610b0e578063ba49a08c14610b2e578063bed403c714610b43576104ee565b8063a4a0f6c011610265578063a6dc41fb1161024a578063a6dc41fb14610a58578063ab51707414610a78578063b0a5dcd314610aac576104ee565b8063a4a0f6c014610a18578063a51be0db14610a38576104ee565b8063989376b4146109a35780639ae9711e146109c35780639dc1bfa9146109d8578063a47d4c02146109f8576104ee565b80634e2cba09116103d75780637910867b1161034f57806389d21354116103035780638cd869a4116102e85780638cd869a41461094e578063933836481461096e578063941e24261461098e576104ee565b806389d213541461090e5780638c5e13e51461092e576104ee565b8063835465011161033457806383546501146108ae57806388b4680e146108ce5780638965cde1146108ee576104ee565b80637910867b1461086e5780637a4a8b661461088e576104ee565b80636490c7a8116103a65780636814800b1161038b5780636814800b146107fb57806368cfe6ee1461081b5780636cbf6cf81461084e576104ee565b80636490c7a8146107c857806367a09c23146107e8576104ee565b80634e2cba0914610746578063601e7c3414610766578063603daf9a1461078657806363f17143146107a8576104ee565b80632607aafa1161046a5780633f9b250a116104395780634528b3571161041e5780634528b357146106e657806348a46bd3146107065780634daa9dae14610726576104ee565b80633f9b250a146106a657806344c9af28146106c6576104ee565b80632607aafa1461062457806327ebf531146106515780632a55feec146106715780633410452a14610691576104ee565b80631703e5f9116104c15780631869a38b116104a65780631869a38b146105cf5780631a07f76e146105ef5780631c9afd0f1461060f576104ee565b80631703e5f91461058d578063170f3909146105ad576104ee565b806307d56ac0146104f357806311ce462c14610529578063155fec721461054b57806316d9d66614610578575b600080fd5b3480156104ff57600080fd5b5061051361050e366004613fe3565b610e95565b6040516105209190614508565b60405180910390f35b34801561053557600080fd5b50610549610544366004613c63565b610ead565b005b34801561055757600080fd5b5061056b610566366004613fe3565b610fbd565b60405161052091906143ed565b34801561058457600080fd5b50610513610fdc565b34801561059957600080fd5b5061056b6105a8366004613b2f565b610fe3565b3480156105b957600080fd5b506105c2610ff8565b6040516105209190614251565b3480156105db57600080fd5b506105c26105ea366004613fe3565b611007565b3480156105fb57600080fd5b5061056b61060a366004613fe3565b611022565b34801561061b57600080fd5b50610513611037565b34801561063057600080fd5b5061064461063f366004613fe3565b61103d565b60405161052091906143fb565b34801561065d57600080fd5b506105c261066c366004613fe3565b6110df565b34801561067d57600080fd5b5061056b61068c366004613b2f565b6110fd565b34801561069d57600080fd5b50610513611126565b3480156106b257600080fd5b506106446106c1366004613fe3565b61112c565b3480156106d257600080fd5b506106446106e1366004613fe3565b611197565b3480156106f257600080fd5b506105c2610701366004613fe3565b611205565b34801561071257600080fd5b5061056b610721366004613b2f565b611223565b34801561073257600080fd5b5061056b610741366004613fe3565b61126f565b34801561075257600080fd5b50610549610761366004613d61565b611284565b34801561077257600080fd5b5061056b610781366004613b2f565b61146e565b34801561079257600080fd5b5061079b611483565b60405161052091906143d5565b3480156107b457600080fd5b5061056b6107c3366004613b2f565b6114e5565b3480156107d457600080fd5b506105136107e3366004613fe3565b6114fa565b6105496107f6366004613b55565b61150f565b34801561080757600080fd5b50610549610816366004613b2f565b61155c565b34801561082757600080fd5b5061083b610836366004613b2f565b6115cc565b604051610520979695949392919061440c565b34801561085a57600080fd5b5061056b610869366004613fe3565b61197d565b34801561087a57600080fd5b5061056b610889366004613fe3565b61199c565b34801561089a57600080fd5b506105496108a9366004613e8c565b6119bb565b3480156108ba57600080fd5b5061056b6108c9366004613fe3565b611d9e565b3480156108da57600080fd5b5061056b6108e9366004613b2f565b611db3565b3480156108fa57600080fd5b50610549610909366004613b2f565b611dd1565b34801561091a57600080fd5b5061056b610929366004613fe3565b611e36565b34801561093a57600080fd5b5061056b610949366004613fe3565b611e4b565b34801561095a57600080fd5b50610549610969366004613b2f565b611e8a565b34801561097a57600080fd5b50610549610989366004613c63565b611fb7565b34801561099a57600080fd5b50610513612199565b3480156109af57600080fd5b5061056b6109be366004613b2f565b61219f565b3480156109cf57600080fd5b506105136121b4565b3480156109e457600080fd5b506105c26109f3366004613fe3565b6121ba565b348015610a0457600080fd5b5061056b610a13366004613b2f565b6121d5565b348015610a2457600080fd5b50610513610a33366004613fe3565b6121ea565b348015610a4457600080fd5b50610549610a53366004614031565b6121ff565b348015610a6457600080fd5b5061056b610a73366004613b2f565b6123dc565b348015610a8457600080fd5b50610a98610a93366004613b2f565b6123f1565b604051610520989796959493929190614335565b348015610ab857600080fd5b50610acc610ac7366004613fe3565b61277d565b6040516105209493929190614516565b348015610ae857600080fd5b50610afc610af7366004613b2f565b6127b1565b6040516105209695949392919061448e565b348015610b1a57600080fd5b5061056b610b29366004613b2f565b612ac7565b348015610b3a57600080fd5b50610513612b12565b348015610b4f57600080fd5b50610549610b5e366004614001565b612b18565b348015610b6f57600080fd5b5061056b610b7e366004613b2f565b612b80565b348015610b8f57600080fd5b50610549610b9e366004613b8f565b612ba9565b348015610baf57600080fd5b5061056b610bbe366004613fe3565b612c90565b348015610bcf57600080fd5b506105c2610bde366004613fe3565b612caf565b348015610bef57600080fd5b50610549610bfe366004613b2f565b612cd6565b348015610c0f57600080fd5b50610549610c1e366004613fe3565b612d53565b348015610c2f57600080fd5b5061079b612d90565b348015610c4457600080fd5b50610513612df0565b348015610c5957600080fd5b50610c6d610c68366004613b2f565b612df6565b60405161052097969594939291906142ab565b348015610c8c57600080fd5b50610ca0610c9b366004613fe3565b6130ef565b604051610520949392919061454b565b348015610cbc57600080fd5b5061056b610ccb366004613b2f565b61322d565b348015610cdc57600080fd5b50610549610ceb366004613b2f565b61324e565b348015610cfc57600080fd5b50610d10610d0b366004613fe3565b6132cb565b6040516105209c9b9a999897969594939291906145f8565b348015610d3457600080fd5b5061056b610d43366004613b2f565b6135e4565b348015610d5457600080fd5b50610513610d63366004613fe3565b6135f9565b348015610d7457600080fd5b5061056b610d83366004613b2f565b61360e565b348015610d9457600080fd5b50610513613637565b348015610da957600080fd5b506105c2610db8366004613fe3565b61363d565b348015610dc957600080fd5b50610ddd610dd8366004613fe3565b61364a565b604051610520949392919061426d565b348015610df957600080fd5b50610549610e08366004613b55565b61368c565b348015610e1957600080fd5b5061056b610e28366004613b2f565b6137a1565b348015610e3957600080fd5b50610549610e48366004613fe3565b6137b6565b348015610e5957600080fd5b506105136137e3565b348015610e6e57600080fd5b50610e82610e7d366004613fe3565b6137e9565b6040516105209796959493929190614596565b6000818152602081905260409020600401545b919050565b3360009081526005602052604090205460ff168015610ee2575033600081815260036020526040902054600160a060020a0316145b610eeb57600080fd5b3360009081526003602090815260409091208751610f1192600190920191890190613a27565b50336000908152600360208181526040909220600281018890558651610f3f93919092019190870190613a27565b503360009081526003602090815260409091208451610f6692600490920191860190613a27565b503360009081526003602090815260409091208351610f8d92600790920191850190613a27565b503360009081526003602090815260409091208251610fb492600590920191840190613a27565b50505050505050565b6000818152600f602052604081205460ff1615610ea857506001610ea8565b6015545b90565b60116020526000908152604090205460ff1681565b601254600160a060020a031681565b6000908152600d6020526040902054600160a060020a031690565b60106020526000908152604090205460ff1681565b60155481565b6000818152602081815260409182902060060180548351601f60026000196101006001861615020190931692909204918201849004840281018401909452808452606093928301828280156110d35780601f106110a8576101008083540402835291602001916110d3565b820191906000526020600020905b8154815290600101906020018083116110b657829003601f168201915b50505050509050919050565b600090815260208190526040902060090154600160a060020a031690565b600160a060020a03811660009081526007602052604081205460ff1615610ea857506001610ea8565b60195490565b6000818152602081815260409182902060070180548351601f60026000196101006001861615020190931692909204918201849004840281018401909452808452606093928301828280156110d35780601f106110a8576101008083540402835291602001916110d3565b600081815260208181526040918290206002908101805484516001821615610100026000190190911692909204601f810184900484028301840190945283825260609391929091908301828280156110d35780601f106110a8576101008083540402835291602001916110d3565b600090815260208190526040902060080154600160a060020a031690565b600160a060020a03811660009081526009602052604081205460ff16806112625750600160a060020a0382166000908152600b602052604090205460ff165b15610ea857506001610ea8565b600f6020526000908152604090205460ff1681565b3360008181526005602090815260408083208054600160ff1991821681179092556007845282852080549091168217905560188054820190558151610100810183528581528084018d81528184018d9052606082018c9052608082018b905260a082018a905260c0820189905260e0820188905295855260038452919093208151815473ffffffffffffffffffffffffffffffffffffffff1916600160a060020a03909116178155935180519194936113439390850192910190613a27565b506040820151600282015560608201518051611369916003840191602090910190613a27565b5060808201518051611385916004840191602090910190613a27565b5060a082015180516113a1916005840191602090910190613a27565b5060c082015180516113bd916006840191602090910190613a27565b5060e082015180516113d9916007840191602090910190613a27565b5050601480546001810182556000919091527fce6d7b5282bd9a3661ae061feed1dbda4e52ab073b1f9285be6e155d9c38d4ec01805473ffffffffffffffffffffffffffffffffffffffff1916339081179091556040517f478f5152d8fc568db3f8de9fb402fd9d98a1a7541ecfe434e59cf574fbfc5524925061145d919061425f565b60405180910390a150505050505050565b60066020526000908152604090205460ff1681565b606060148054806020026020016040519081016040528092919081815260200182805480156114db57602002820191906000526020600020905b8154600160a060020a031681526001909101906020018083116114bd575b5050505050905090565b60096020526000908152604090205460ff1681565b60009081526020819052604090206001015490565b600081815260106020526040808220805460ff1916600117905551600160a060020a038416913480156108fc02929091818181858888f1935050505015801561155757600080fd5b505050565b6115653361322d565b61156e57600080fd5b600160a060020a0381166000908152600a602052604090819020805460ff19166001179055517f6a6455914f452787eb3985452aceedc1000fb545e394eb3b370e3d08958e0a5b906115c1908390614251565b60405180910390a150565b600160a060020a03811660009081526003602081815260408084206002808201546001808401805486519281161561010002600019011693909304601f810187900487028201870190955284815260609788978897889788979396889690959385019460058101946006820194600783019460049093019289918301828280156116975780601f1061166c57610100808354040283529160200191611697565b820191906000526020600020905b81548152906001019060200180831161167a57829003601f168201915b5050895460408051602060026001851615610100026000190190941693909304601f8101849004840282018401909252818152959c508b9450925084019050828280156117255780601f106116fa57610100808354040283529160200191611725565b820191906000526020600020905b81548152906001019060200180831161170857829003601f168201915b5050885460408051602060026001851615610100026000190190941693909304601f8101849004840282018401909252818152959b508a9450925084019050828280156117b35780601f10611788576101008083540402835291602001916117b3565b820191906000526020600020905b81548152906001019060200180831161179657829003601f168201915b5050875460408051602060026001851615610100026000190190941693909304601f8101849004840282018401909252818152959a50899450925084019050828280156118415780601f1061181657610100808354040283529160200191611841565b820191906000526020600020905b81548152906001019060200180831161182457829003601f168201915b5050865460408051602060026001851615610100026000190190941693909304601f8101849004840282018401909252818152959950889450925084019050828280156118cf5780601f106118a4576101008083540402835291602001916118cf565b820191906000526020600020905b8154815290600101906020018083116118b257829003601f168201915b5050845460408051602060026001851615610100026000190190941693909304601f81018490048402820184019092528181529598508694509250840190508282801561195d5780601f106119325761010080835404028352916020019161195d565b820191906000526020600020905b81548152906001019060200180831161194057829003601f168201915b505050505090509650965096509650965096509650919395979092949650565b6000818152600c602052604081205460ff1615610ea857506001610ea8565b6000818152600e602052604081205460ff1615610ea857506001610ea8565b3360009081526005602052604090205460ff16156119d857600080fd5b3360008181526005602090815260408083208054600160ff1991821681179092556007845282852080549091168217905560188054820190558151610100810183528581528084018e81528184018e9052606082018d9052608082018c905260a082018b905260c0820189905260e0820188905295855260038452919093208151815473ffffffffffffffffffffffffffffffffffffffff1916600160a060020a0390911617815593518051919493611a979390850192910190613a27565b506040820151600282015560608201518051611abd916003840191602090910190613a27565b5060808201518051611ad9916004840191602090910190613a27565b5060a08201518051611af5916005840191602090910190613a27565b5060c08201518051611b11916006840191602090910190613a27565b5060e08201518051611b2d916007840191602090910190613a27565b5090505060143390806001815401808255809150509060018203906000526020600020016000909192909190916101000a815481600160a060020a030219169083600160a060020a031602179055505060016006600033600160a060020a0316600160a060020a0316815260200190815260200160002060006101000a81548160ff0219169083151502179055506017600081548092919060010191905055506040518060e0016040528033600160a060020a03168152602001898152602001888152602001868152602001858152602001848152602001838152506002600033600160a060020a0316600160a060020a0316815260200190815260200160002060008201518160000160006101000a815481600160a060020a030219169083600160a060020a031602179055506020820151816001019080519060200190611c77929190613a27565b506040820151600282015560608201518051611c9d916003840191602090910190613a27565b5060808201518051611cb9916004840191602090910190613a27565b5060a08201518051611cd5916005840191602090910190613a27565b5060c08201518051611cf1916006840191602090910190613a27565b50506013805460018181019092557f66de8ffda797e3de9c05e8fc57b3bf0ec28a930d40b0d285d93c06501cf6a09001805473ffffffffffffffffffffffffffffffffffffffff19163390811790915560008181526011602052604090819020805460ff191690931790925590517f478f5152d8fc568db3f8de9fb402fd9d98a1a7541ecfe434e59cf574fbfc55249250611d8c919061425f565b60405180910390a15050505050505050565b600c6020526000908152604090205460ff1681565b600160a060020a031660009081526011602052604090205460ff1690565b611dda3361322d565b611de357600080fd5b600160a060020a0381166000908152600b602052604090819020805460ff19166001179055517faf77f8960cf590e245ec8b6d41c193a5dcacad8986ae4eb57ac9e5be7b6af031906115c1908390614251565b600e6020526000908152604090205460ff1681565b6000818152600d602090815260408083205491839052822060080154600160a060020a0390811691161415611e8257506001610ea8565b506000610ea8565b611e933361322d565b611e9c57600080fd5b600160a060020a0381166000908152601160205260409020805460ff1916905560015b6015548111611fb3576000818152600d6020526040902054600160a060020a0383811691161415611fab576000818152600d60209081526040808320549183905290912060088101805473ffffffffffffffffffffffffffffffffffffffff1916600160a060020a03938416179055600901541615611f7e5760008181526020818152604080832060090154600d909252909120805473ffffffffffffffffffffffffffffffffffffffff1916600160a060020a039092169190911790555b6000818152602081905260409020600901805473ffffffffffffffffffffffffffffffffffffffff191690555b600101611ebf565b5050565b3360009081526005602052604090205460ff1615611fd457600080fd5b3360008181526005602090815260408083208054600160ff199182168117909255600684528285208054909116821790556017805482019055815160e0810183528581528084018c81528184018c9052606082018b9052608082018a905260a0820189905260c0820188905295855260028452919093208151815473ffffffffffffffffffffffffffffffffffffffff1916600160a060020a039091161781559351805191949361208b9390850192910190613a27565b5060408201516002820155606082015180516120b1916003840191602090910190613a27565b50608082015180516120cd916004840191602090910190613a27565b5060a082015180516120e9916005840191602090910190613a27565b5060c08201518051612105916006840191602090910190613a27565b5050601380546001810182556000919091527f66de8ffda797e3de9c05e8fc57b3bf0ec28a930d40b0d285d93c06501cf6a09001805473ffffffffffffffffffffffffffffffffffffffff1916339081179091556040517f478f5152d8fc568db3f8de9fb402fd9d98a1a7541ecfe434e59cf574fbfc55249250612189919061425f565b60405180910390a1505050505050565b60165481565b600b6020526000908152604090205460ff1681565b60175481565b600d60205260009081526040902054600160a060020a031681565b60076020526000908152604090205460ff1681565b60009081526020819052604090206005015490565b6122083361360e565b8015612218575061221833612ac7565b61222157600080fd5b60158054600190810191829055604080516101808101825283815260208082018f81528284018f8152606084018f9052608084018e905260a084018d905260c084018c905260e084018b905233610100850152600160a060020a038a166101208501526101408401899052610160840188905260009687528683529390952082518155945193850193909355905180519193926122c692600285019290910190613a27565b50606082015160038201556080820151600482015560a0820151600582015560c08201518051612300916006840191602090910190613a27565b5060e0820151805161231c916007840191602090910190613a27565b50610100820151600882018054600160a060020a0392831673ffffffffffffffffffffffffffffffffffffffff1991821617909155610120840151600984018054919093169116179055610140820151805161238291600a840191602090910190613a27565b50610160820151805161239f91600b840191602090910190613a27565b50506015546000908152600d60205260409020805473ffffffffffffffffffffffffffffffffffffffff1916331790555050505050505050505050565b600a6020526000908152604090205460ff1681565b6003602090815260009182526040918290208054600180830180548651600261010094831615949094026000190190911692909204601f8101869004860283018601909652858252600160a060020a0390921694929390929083018282801561249b5780601f106124705761010080835404028352916020019161249b565b820191906000526020600020905b81548152906001019060200180831161247e57829003601f168201915b505050506002838101546003850180546040805160206001841615610100026000190190931695909504601f8101839004830286018301909152808552959692959294509091908301828280156125335780601f1061250857610100808354040283529160200191612533565b820191906000526020600020905b81548152906001019060200180831161251657829003601f168201915b5050505060048301805460408051602060026001851615610100026000190190941693909304601f81018490048402820184019092528181529495949350908301828280156125c35780601f10612598576101008083540402835291602001916125c3565b820191906000526020600020905b8154815290600101906020018083116125a657829003601f168201915b5050505060058301805460408051602060026001851615610100026000190190941693909304601f81018490048402820184019092528181529495949350908301828280156126535780601f1061262857610100808354040283529160200191612653565b820191906000526020600020905b81548152906001019060200180831161263657829003601f168201915b5050505060068301805460408051602060026001851615610100026000190190941693909304601f81018490048402820184019092528181529495949350908301828280156126e35780601f106126b8576101008083540402835291602001916126e3565b820191906000526020600020905b8154815290600101906020018083116126c657829003601f168201915b5050505060078301805460408051602060026001851615610100026000190190941693909304601f81018490048402820184019092528181529495949350908301828280156127735780601f1061274857610100808354040283529160200191612773565b820191906000526020600020905b81548152906001019060200180831161275657829003601f168201915b5050505050905088565b60046020526000908152604090208054600182015460028301546003909301549192600160a060020a039182169291169084565b600160a060020a0381166000908152600260208181526040808420808401546001808301805485519281161561010002600019011696909604601f8101869004860282018601909452838152606096958795869586958695939460038201936004830193600584019360060192918891908301828280156128735780601f1061284857610100808354040283529160200191612873565b820191906000526020600020905b81548152906001019060200180831161285657829003601f168201915b5050875460408051602060026001851615610100026000190190941693909304601f8101849004840282018401909252818152959b50899450925084019050828280156129015780601f106128d657610100808354040283529160200191612901565b820191906000526020600020905b8154815290600101906020018083116128e457829003601f168201915b5050865460408051602060026001851615610100026000190190941693909304601f81018490048402820184019092528181529599508894509250840190508282801561298f5780601f106129645761010080835404028352916020019161298f565b820191906000526020600020905b81548152906001019060200180831161297257829003601f168201915b5050855460408051602060026001851615610100026000190190941693909304601f810184900484028201840190925281815295985087945092508401905082828015612a1d5780601f106129f257610100808354040283529160200191612a1d565b820191906000526020600020905b815481529060010190602001808311612a0057829003601f168201915b5050845460408051602060026001851615610100026000190190941693909304601f810184900484028201840190925281815295975086945092508401905082828015612aab5780601f10612a8057610100808354040283529160200191612aab565b820191906000526020600020905b815481529060010190602001808311612a8e57829003601f168201915b5050505050905095509550955095509550955091939550919395565b600160a060020a03811660009081526008602052604081205460ff16806112625750600160a060020a0382166000908152600a602052604090205460ff1615610ea857506001610ea8565b60185481565b612b213361322d565b612b2a57600080fd5b6000918252600d60208181526040808520805486845291909520600801805473ffffffffffffffffffffffffffffffffffffffff19908116600160a060020a039384161790915592909152835492169116179055565b600160a060020a03811660009081526005602052604081205460ff1615610ea857506001610ea8565b3360009081526005602052604090205460ff168015612bde575033600081815260026020526040902054600160a060020a0316145b612be757600080fd5b3360009081526002602090815260409091208651612c0d92600190920191880190613a27565b503360009081526002602081815260409092209081018690558451612c3a92600390920191860190613a27565b503360009081526002602090815260409091208351612c6192600490920191850190613a27565b503360009081526002602090815260409091208251612c8892600590920191840190613a27565b505050505050565b60008181526010602052604081205460ff1615610ea857506001610ea8565b60138181548110612cbc57fe5b600091825260209091200154600160a060020a0316905081565b612cdf3361322d565b612ce857600080fd5b600160a060020a03811660009081526008602090815260408083208054600160ff199182168117909255600a9093529281902080549092169092179055517f6a6455914f452787eb3985452aceedc1000fb545e394eb3b370e3d08958e0a5b906115c1908390614251565b612d5c3361360e565b8015612d6c5750612d6c33612ac7565b612d7557600080fd5b6000908152600e60205260409020805460ff19166001179055565b606060138054806020026020016040519081016040528092919081815260200182805480156114db57602002820191906000526020600020908154600160a060020a031681526001909101906020018083116114bd575050505050905090565b60175490565b6002602081815260009283526040928390208054600180830180548751601f60001994831615610100029490940190911696909604918201859004850286018501909652808552600160a060020a0390911694919392830182828015612e9d5780601f10612e7257610100808354040283529160200191612e9d565b820191906000526020600020905b815481529060010190602001808311612e8057829003601f168201915b505050506002838101546003850180546040805160206001841615610100026000190190931695909504601f810183900483028601830190915280855295969295929450909190830182828015612f355780601f10612f0a57610100808354040283529160200191612f35565b820191906000526020600020905b815481529060010190602001808311612f1857829003601f168201915b5050505060048301805460408051602060026001851615610100026000190190941693909304601f8101849004840282018401909252818152949594935090830182828015612fc55780601f10612f9a57610100808354040283529160200191612fc5565b820191906000526020600020905b815481529060010190602001808311612fa857829003601f168201915b5050505060058301805460408051602060026001851615610100026000190190941693909304601f81018490048402820184019092528181529495949350908301828280156130555780601f1061302a57610100808354040283529160200191613055565b820191906000526020600020905b81548152906001019060200180831161303857829003601f168201915b5050505060068301805460408051602060026001851615610100026000190190941693909304601f81018490048402820184019092528181529495949350908301828280156130e55780601f106130ba576101008083540402835291602001916130e5565b820191906000526020600020905b8154815290600101906020018083116130c857829003601f168201915b5050505050905087565b600160208181526000928352604092839020805481840180548651600296821615610100026000190190911695909504601f8101859004850286018501909652858552909491939290919083018282801561318b5780601f106131605761010080835404028352916020019161318b565b820191906000526020600020905b81548152906001019060200180831161316e57829003601f168201915b505050506002838101546003850180546040805160206001841615610100026000190190931695909504601f8101839004830286018301909152808552959692959294509091908301828280156132235780601f106131f857610100808354040283529160200191613223565b820191906000526020600020905b81548152906001019060200180831161320657829003601f168201915b5050505050905084565b601254600090600160a060020a0383811691161415611e8257506001610ea8565b6132573361322d565b61326057600080fd5b600160a060020a03811660009081526009602090815260408083208054600160ff199182168117909255600b9093529281902080549092169092179055517faf77f8960cf590e245ec8b6d41c193a5dcacad8986ae4eb57ac9e5be7b6af031906115c1908390614251565b6000602081815291815260409081902080546001808301546002808501805487519481161561010002600019011691909104601f810188900488028401880190965285835292959094919291908301828280156133695780601f1061333e57610100808354040283529160200191613369565b820191906000526020600020905b81548152906001019060200180831161334c57829003601f168201915b505050600384015460048501546005860154600687018054604080516020601f6002600019610100600188161502019095169490940493840181900481028201810190925282815298999598949750929550909183018282801561340e5780601f106133e35761010080835404028352916020019161340e565b820191906000526020600020905b8154815290600101906020018083116133f157829003601f168201915b5050505060078301805460408051602060026001851615610100026000190190941693909304601f810184900484028201840190925281815294959493509083018282801561349e5780601f106134735761010080835404028352916020019161349e565b820191906000526020600020905b81548152906001019060200180831161348157829003601f168201915b5050505060088301546009840154600a8501805460408051602060026101006001861615026000190190941693909304601f81018490048402820184019092528181529697600160a060020a03958616979590941695509293929083018282801561354a5780601f1061351f5761010080835404028352916020019161354a565b820191906000526020600020905b81548152906001019060200180831161352d57829003601f168201915b50505050600b8301805460408051602060026001851615610100026000190190941693909304601f81018490048402820184019092528181529495949350908301828280156135da5780601f106135af576101008083540402835291602001916135da565b820191906000526020600020905b8154815290600101906020018083116135bd57829003601f168201915b505050505090508c565b60086020526000908152604090205460ff1681565b60009081526020819052604090206003015490565b600160a060020a03811660009081526006602052604081205460ff1615610ea857506001610ea8565b60185490565b60148181548110612cbc57fe5b600090815260046020908152604080832060018101546002820154600390920154600e9094529190932054600160a060020a0391821694919093169260ff1690565b613695336110fd565b80156136a557506136a533612ac7565b6136ae57600080fd5b60198054600190810180835560408051608081018252828152600160a060020a03808816602080840191825233848601908152606085018a8152600097885260048352868820955186559251858901805491861673ffffffffffffffffffffffffffffffffffffffff199283161790559051600286018054919095169116179092555160039092019190915584548352600e8152818320805460ff1990811690915594548352600f9052908190208054909316909117909155517fc67eb70629da758128cec22f7e36ad0676066ad4df9b66e8ba58a30c1ab4075b90613795908490614251565b60405180910390a15050565b60056020526000908152604090205460ff1681565b6137bf3361322d565b6137c857600080fd5b6000908152600c60205260409020805460ff19166001179055565b60195481565b600081815260208181526040808320805460018083015460038401546002808601805488519581161561010002600019011691909104601f8101899004890285018901909752868452889760609788978a9789978897919691959485949293600a810193600b90910192918691908301828280156138a85780601f1061387d576101008083540402835291602001916138a8565b820191906000526020600020905b81548152906001019060200180831161388b57829003601f168201915b5050875460408051602060026001851615610100026000190190941693909304601f8101849004840282018401909252818152959a50899450925084019050828280156139365780601f1061390b57610100808354040283529160200191613936565b820191906000526020600020905b81548152906001019060200180831161391957829003601f168201915b5050855460408051602060026001851615610100026000190190941693909304601f8101849004840282018401909252818152959950879450925084019050828280156139c45780601f10613999576101008083540402835291602001916139c4565b820191906000526020600020905b8154815290600101906020018083116139a757829003601f168201915b5050845460408051602060026001851615610100026000190190941693909304601f81018490048402820184019092528181529597508694509250840190508282801561195d5780601f106119325761010080835404028352916020019161195d565b828054600181600116156101000203166002900490600052602060002090601f016020900481019282601f10613a6857805160ff1916838001178555613a95565b82800160010185558215613a95579182015b82811115613a95578251825591602001919060010190613a7a565b50613aa1929150613aa5565b5090565b610fe091905b80821115613aa15760008155600101613aab565b8035613aca816147a2565b92915050565b600082601f830112613ae157600080fd5b8135613af4613aef826146f4565b6146cd565b91508082526020830160208301858383011115613b1057600080fd5b613b1b83828461475c565b50505092915050565b8035613aca816147b9565b600060208284031215613b4157600080fd5b6000613b4d8484613abf565b949350505050565b60008060408385031215613b6857600080fd5b6000613b748585613abf565b9250506020613b8585828601613b24565b9150509250929050565b600080600080600060a08688031215613ba757600080fd5b853567ffffffffffffffff811115613bbe57600080fd5b613bca88828901613ad0565b9550506020613bdb88828901613b24565b945050604086013567ffffffffffffffff811115613bf857600080fd5b613c0488828901613ad0565b935050606086013567ffffffffffffffff811115613c2157600080fd5b613c2d88828901613ad0565b925050608086013567ffffffffffffffff811115613c4a57600080fd5b613c5688828901613ad0565b9150509295509295909350565b60008060008060008060c08789031215613c7c57600080fd5b863567ffffffffffffffff811115613c9357600080fd5b613c9f89828a01613ad0565b9650506020613cb089828a01613b24565b955050604087013567ffffffffffffffff811115613ccd57600080fd5b613cd989828a01613ad0565b945050606087013567ffffffffffffffff811115613cf657600080fd5b613d0289828a01613ad0565b935050608087013567ffffffffffffffff811115613d1f57600080fd5b613d2b89828a01613ad0565b92505060a087013567ffffffffffffffff811115613d4857600080fd5b613d5489828a01613ad0565b9150509295509295509295565b600080600080600080600060e0888a031215613d7c57600080fd5b873567ffffffffffffffff811115613d9357600080fd5b613d9f8a828b01613ad0565b9750506020613db08a828b01613b24565b965050604088013567ffffffffffffffff811115613dcd57600080fd5b613dd98a828b01613ad0565b955050606088013567ffffffffffffffff811115613df657600080fd5b613e028a828b01613ad0565b945050608088013567ffffffffffffffff811115613e1f57600080fd5b613e2b8a828b01613ad0565b93505060a088013567ffffffffffffffff811115613e4857600080fd5b613e548a828b01613ad0565b92505060c088013567ffffffffffffffff811115613e7157600080fd5b613e7d8a828b01613ad0565b91505092959891949750929550565b600080600080600080600080610100898b031215613ea957600080fd5b883567ffffffffffffffff811115613ec057600080fd5b613ecc8b828c01613ad0565b9850506020613edd8b828c01613b24565b975050604089013567ffffffffffffffff811115613efa57600080fd5b613f068b828c01613ad0565b965050606089013567ffffffffffffffff811115613f2357600080fd5b613f2f8b828c01613ad0565b955050608089013567ffffffffffffffff811115613f4c57600080fd5b613f588b828c01613ad0565b94505060a089013567ffffffffffffffff811115613f7557600080fd5b613f818b828c01613ad0565b93505060c089013567ffffffffffffffff811115613f9e57600080fd5b613faa8b828c01613ad0565b92505060e089013567ffffffffffffffff811115613fc757600080fd5b613fd38b828c01613ad0565b9150509295985092959890939650565b600060208284031215613ff557600080fd5b6000613b4d8484613b24565b6000806040838503121561401457600080fd5b60006140208585613b24565b9250506020613b8585828601613abf565b6000806000806000806000806000806101408b8d03121561405157600080fd5b600061405d8d8d613b24565b9a505060208b013567ffffffffffffffff81111561407a57600080fd5b6140868d828e01613ad0565b99505060406140978d828e01613b24565b98505060606140a88d828e01613b24565b97505060806140b98d828e01613b24565b96505060a08b013567ffffffffffffffff8111156140d657600080fd5b6140e28d828e01613ad0565b95505060c08b013567ffffffffffffffff8111156140ff57600080fd5b61410b8d828e01613ad0565b94505060e061411c8d828e01613abf565b9350506101008b013567ffffffffffffffff81111561413a57600080fd5b6141468d828e01613ad0565b9250506101208b013567ffffffffffffffff81111561416457600080fd5b6141708d828e01613ad0565b9150509295989b9194979a5092959850565b600061418e83836141a5565b505060200190565b61419f8161474b565b82525050565b61419f8161472f565b60006141b982614722565b6141c38185614726565b93506141ce8361471c565b8060005b838110156141fc5781516141e68882614182565b97506141f18361471c565b9250506001016141d2565b509495945050505050565b61419f8161473a565b600061421b82614722565b6142258185614726565b9350614235818560208601614768565b61423e81614798565b9093019392505050565b61419f81610fe0565b60208101613aca82846141a5565b60208101613aca8284614196565b6080810161427b82876141a5565b61428860208301866141a5565b6142956040830185614248565b6142a26060830184614207565b95945050505050565b60e081016142b9828a6141a5565b81810360208301526142cb8189614210565b90506142da6040830188614248565b81810360608301526142ec8187614210565b905081810360808301526143008186614210565b905081810360a08301526143148185614210565b905081810360c08301526143288184614210565b9998505050505050505050565b6101008101614344828b6141a5565b8181036020830152614356818a614210565b90506143656040830189614248565b81810360608301526143778188614210565b9050818103608083015261438b8187614210565b905081810360a083015261439f8186614210565b905081810360c08301526143b38185614210565b905081810360e08301526143c78184614210565b9a9950505050505050505050565b602080825281016143e681846141ae565b9392505050565b60208101613aca8284614207565b602080825281016143e68184614210565b60e0808252810161441d818a614210565b905081810360208301526144318189614210565b905081810360408301526144458188614210565b905081810360608301526144598187614210565b9050818103608083015261446d8186614210565b905061447c60a0830185614248565b81810360c08301526143288184614210565b60c0808252810161449f8189614210565b90506144ae6020830188614248565b81810360408301526144c08187614210565b905081810360608301526144d48186614210565b905081810360808301526144e88185614210565b905081810360a08301526144fc8184614210565b98975050505050505050565b60208101613aca8284614248565b608081016145248287614248565b61453160208301866141a5565b61453e60408301856141a5565b6142a26060830184614248565b608081016145598287614248565b818103602083015261456b8186614210565b905061457a6040830185614248565b818103606083015261458c8184614210565b9695505050505050565b60e081016145a4828a614248565b6145b16020830189614248565b81810360408301526145c38188614210565b905081810360608301526145d78187614210565b90506145e66080830186614248565b81810360a08301526143148185614210565b6101808101614607828f614248565b614614602083018e614248565b8181036040830152614626818d614210565b9050614635606083018c614248565b614642608083018b614248565b61464f60a083018a614248565b81810360c08301526146618189614210565b905081810360e08301526146758188614210565b90506146856101008301876141a5565b6146936101208301866141a5565b8181036101408301526146a68185614210565b90508181036101608301526146bb8184614210565b9e9d5050505050505050505050505050565b60405181810167ffffffffffffffff811182821017156146ec57600080fd5b604052919050565b600067ffffffffffffffff82111561470b57600080fd5b506020601f91909101601f19160190565b60200190565b5190565b90815260200190565b6000613aca8261473f565b151590565b600160a060020a031690565b6000613aca826000613aca8261472f565b82818337506000910152565b60005b8381101561478357818101518382015260200161476b565b83811115614792576000848401525b50505050565b601f01601f191690565b6147ab8161472f565b81146147b657600080fd5b50565b6147ab81610fe056fea365627a7a7231582055d93ad3043da38e53d022d7d37a87f95936386526073d63bebcb77678b1ce4f6c6578706572696d656e74616cf564736f6c63430005100040",
  "source": "pragma solidity >=0.5.2;\npragma experimental ABIEncoderV2;\n\ncontract Land {\n    struct Landreg {\n        uint256 id;\n        uint256 area;\n        string state;\n        uint256 landPrice;\n        uint256 propertyPID;\n        uint256 physicalSurveyNumber;\n        string ipfsHash;\n        string document;\n        address old_owner;\n        address nominee;\n        string lat;\n        string lng;\n    }\n\n    struct Buyer {\n        address id;\n        string name;\n        uint256 age;\n        string city;\n        string aadharNumber;\n        string panNumber;\n        string document;\n        string email;\n    }\n\n    struct Seller {\n        address id;\n        string name;\n        uint256 age;\n        string aadharNumber;\n        string panNumber;\n        string landsOwned;\n        string document;\n    }\n\n    struct LandInspector {\n        uint256 id;\n        string name;\n        uint256 age;\n        string designation;\n    }\n\n    struct LandRequest {\n        uint256 reqId;\n        address sellerId;\n        address buyerId;\n        uint256 landId;\n        // bool requestStatus;\n        // bool requested;\n    }\n\n    //key value pairs\n    mapping(uint256 => Landreg) public lands;\n    mapping(uint256 => LandInspector) public InspectorMapping;\n    mapping(address => Seller) public SellerMapping;\n    mapping(address => Buyer) public BuyerMapping;\n    mapping(uint256 => LandRequest) public RequestsMapping;\n\n    mapping(address => bool) public RegisteredAddressMapping;\n    mapping(address => bool) public RegisteredSellerMapping;\n    mapping(address => bool) public RegisteredBuyerMapping;\n    mapping(address => bool) public SellerVerification;\n    mapping(address => bool) public SellerRejection;\n    mapping(address => bool) public BuyerVerification;\n    mapping(address => bool) public BuyerRejection;\n    mapping(uint256 => bool) public LandVerification;\n    mapping(uint256 => address) public LandOwner;\n    mapping(uint256 => bool) public RequestStatus;\n    mapping(uint256 => bool) public RequestedLands;\n    mapping(uint256 => bool) public PaymentReceived;\n    // mapping(address => address) public successors;\n    mapping(address => bool) public isAlive;\n\n    address public Land_Inspector;\n    address[] public sellers;\n    address[] public buyers;\n\n    uint256 public landsCount;\n    uint256 public inspectorsCount;\n    uint256 public sellersCount;\n    uint256 public buyersCount;\n    uint256 public requestsCount;\n\n    event Registration(address _registrationId);\n    event AddingLand(uint256 indexed _landId);\n    event Landrequested(address _sellerId);\n    event requestApproved(address _buyerId);\n    event Verified(address _id);\n    event Rejected(address _id);\n    event Succession(address _Owner);\n\n    constructor() public {\n        Land_Inspector = msg.sender;\n        addLandInspector(\"Inspector 1\", 45, \"Tehsil Manager\");\n    }\n\n    function getPrevious(uint256 i) public view returns (address) {\n        return lands[i].old_owner;\n    }\n\n    function isSame(uint256 i) public view returns (bool) {\n        if (lands[i].old_owner == LandOwner[i]) return true;\n        else return false;\n    }\n\n    // function getDate(uint i) public view returns (uint){\n    //     return lands[i].date;\n    // }\n\n    function addLandInspector(\n        string memory _name,\n        uint256 _age,\n        string memory _designation\n    ) private {\n        inspectorsCount++;\n        InspectorMapping[inspectorsCount] = LandInspector(\n            inspectorsCount,\n            _name,\n            _age,\n            _designation\n        );\n    }\n\n    function getLandsCount() public view returns (uint256) {\n        return landsCount;\n    }\n\n    function getBuyersCount() public view returns (uint256) {\n        return buyersCount;\n    }\n\n    function getSellersCount() public view returns (uint256) {\n        return sellersCount;\n    }\n\n    function getRequestsCount() public view returns (uint256) {\n        return requestsCount;\n    }\n\n    function getNominee(uint256 i) public view returns (address) {\n        return lands[i].nominee;\n    }\n\n    function getArea(uint256 i) public view returns (uint256) {\n        return lands[i].area;\n    }\n\n    // function getCity(uint256 i) public view returns (string memory) {\n    //     return lands[i].city;\n    // }\n\n    function getState(uint256 i) public view returns (string memory) {\n        return lands[i].state;\n    }\n\n    // function getStatus(uint i) public view returns (bool) {\n    //     return lands[i].verificationStatus;\n    // }\n    function getPrice(uint256 i) public view returns (uint256) {\n        return lands[i].landPrice;\n    }\n\n    function getPID(uint256 i) public view returns (uint256) {\n        return lands[i].propertyPID;\n    }\n\n    function getSurveyNumber(uint256 i) public view returns (uint256) {\n        return lands[i].physicalSurveyNumber;\n    }\n\n    function getImage(uint256 i) public view returns (string memory) {\n        return lands[i].ipfsHash;\n    }\n\n    function getDocument(uint256 i) public view returns (string memory) {\n        return lands[i].document;\n    }\n\n    function getLandOwner(uint256 id) public view returns (address) {\n        return LandOwner[id];\n    }\n\n    function getAlive(address _Owner) public view returns (bool) {\n        return isAlive[_Owner];\n    }\n\n    function verifySeller(address _sellerId) public {\n        require(isLandInspector(msg.sender));\n\n        SellerVerification[_sellerId] = true;\n        BuyerVerification[_sellerId] = true;\n        emit Verified(_sellerId);\n    }\n\n    function rejectSeller(address _sellerId) public {\n        require(isLandInspector(msg.sender));\n\n        SellerRejection[_sellerId] = true;\n        BuyerRejection[_sellerId] = true;\n        emit Rejected(_sellerId);\n    }\n\n    function verifyBuyer(address _buyerId) public {\n        require(isLandInspector(msg.sender));\n\n        BuyerVerification[_buyerId] = true;\n        emit Verified(_buyerId);\n    }\n\n    function rejectBuyer(address _buyerId) public {\n        require(isLandInspector(msg.sender));\n\n        BuyerRejection[_buyerId] = true;\n        emit Rejected(_buyerId);\n    }\n\n    function verifyLand(uint256 _landId) public {\n        require(isLandInspector(msg.sender));\n\n        LandVerification[_landId] = true;\n    }\n\n    function isLandVerified(uint256 _id) public view returns (bool) {\n        if (LandVerification[_id]) {\n            return true;\n        }\n    }\n\n    function isVerified(address _id) public view returns (bool) {\n        if (SellerVerification[_id] || BuyerVerification[_id]) {\n            return true;\n        }\n    }\n\n    function isRejected(address _id) public view returns (bool) {\n        if (SellerRejection[_id] || BuyerRejection[_id]) {\n            return true;\n        }\n    }\n\n    function isSeller(address _id) public view returns (bool) {\n        if (RegisteredSellerMapping[_id]) {\n            return true;\n        }\n    }\n\n    function isLandInspector(address _id) public view returns (bool) {\n        if (Land_Inspector == _id) {\n            return true;\n        } else {\n            return false;\n        }\n    }\n\n    function isBuyer(address _id) public view returns (bool) {\n        if (RegisteredBuyerMapping[_id]) {\n            return true;\n        }\n    }\n\n    function isRegistered(address _id) public view returns (bool) {\n        if (RegisteredAddressMapping[_id]) {\n            return true;\n        }\n    }\n\n    function addLand(\n        uint256 _area,\n        string memory _state,\n        uint256 landPrice,\n        uint256 _propertyPID,\n        uint256 _surveyNum,\n        string memory _ipfsHash,\n        string memory _document,\n        address _nominee,\n        string memory _lat,\n        string memory _lng\n    ) public {\n        require((isSeller(msg.sender)) && (isVerified(msg.sender)));\n        landsCount++;\n        lands[landsCount] = Landreg(\n            landsCount,\n            _area,\n            _state,\n            landPrice,\n            _propertyPID,\n            _surveyNum,\n            _ipfsHash,\n            _document,\n            msg.sender,\n            _nominee,\n            _lat,\n            _lng\n        );\n        LandOwner[landsCount] = msg.sender;\n        // emit AddingLand(landsCount);\n    }\n\n    //registration of seller\n\n    function getLandDetails(uint256 i)\n        public\n        view\n        returns (\n            uint256,\n            uint256,\n            string memory,\n            string memory,\n            uint256,\n            string memory,\n            string memory\n        )\n    {\n        return (\n            lands[i].id,\n            lands[i].area,\n            lands[i].state,\n            lands[i].state,\n            lands[i].landPrice,\n            lands[i].lat,\n            lands[i].lng\n        );\n    }\n\n\n    function registerSeller(\n        string memory _name,\n        uint256 _age,\n        string memory _aadharNumber,\n        string memory _panNumber,\n        string memory _landsOwned,\n        string memory _document\n    ) public {\n        //require that Seller is not already registered\n        require(!RegisteredAddressMapping[msg.sender]);\n\n        RegisteredAddressMapping[msg.sender] = true;\n        RegisteredSellerMapping[msg.sender] = true;\n        sellersCount++;\n        SellerMapping[msg.sender] = Seller(\n            msg.sender,\n            _name,\n            _age,\n            _aadharNumber,\n            _panNumber,\n            _landsOwned,\n            _document\n        );\n        sellers.push(msg.sender);\n        emit Registration(msg.sender);\n    }\n\n    function updateSeller(\n        string memory _name,\n        uint256 _age,\n        string memory _aadharNumber,\n        string memory _panNumber,\n        string memory _landsOwned\n    ) public {\n        //require that Seller is already registered\n        require(\n            RegisteredAddressMapping[msg.sender] &&\n                (SellerMapping[msg.sender].id == msg.sender)\n        );\n\n        SellerMapping[msg.sender].name = _name;\n        SellerMapping[msg.sender].age = _age;\n        SellerMapping[msg.sender].aadharNumber = _aadharNumber;\n        SellerMapping[msg.sender].panNumber = _panNumber;\n        SellerMapping[msg.sender].landsOwned = _landsOwned;\n    }\n\n    function getSeller() public view returns (address[] memory) {\n        return (sellers);\n    }\n\n    function getSellerDetails(\n        address i\n    )\n        public\n        view\n        returns (\n            string memory,\n            uint256,\n            string memory,\n            string memory,\n            string memory,\n            string memory\n        )\n    {\n        return (\n            SellerMapping[i].name,\n            SellerMapping[i].age,\n            SellerMapping[i].aadharNumber,\n            SellerMapping[i].panNumber,\n            SellerMapping[i].landsOwned,\n            SellerMapping[i].document\n        );\n    }\n\n    // function getLandDetails(uint256 i)\n    //     public\n    //     view\n    //     returns (\n    //         uint256,\n    //         uint256,\n    //         string memory,\n    //         string memory,\n    //         uint256,\n    //         uint256,\n    //         uint256\n    //     )\n    // {\n    //     return (\n    //         lands[i].id,\n    //         lands[i].area,\n    //         lands[i].city,\n    //         lands[i].state,\n    //         lands[i].landPrice,\n    //         lands[i].propertyPID,\n    //         lands[i].physicalSurveyNumber\n    //     );\n    // }\n\n    function registerBuyer(\n        string memory _name,\n        uint256 _age,\n        string memory _city,\n        string memory _aadharNumber,\n        string memory _panNumber,\n        string memory _document,\n        string memory _email\n    ) public {\n        //require that Buyer is not already registered\n        // require(!RegisteredAddressMapping[msg.sender]);\n\n        RegisteredAddressMapping[msg.sender] = true;\n        RegisteredBuyerMapping[msg.sender] = true;\n        buyersCount++;\n        BuyerMapping[msg.sender] = Buyer(\n            msg.sender,\n            _name,\n            _age,\n            _city,\n            _aadharNumber,\n            _panNumber,\n            _document,\n            _email\n        );\n        buyers.push(msg.sender);\n\n        emit Registration(msg.sender);\n    }\n\n    function registerUser(\n        string memory _name,\n        uint256 _age,\n        string memory _city,\n        string memory _aadharNumber,\n        string memory _panNumber,\n        string memory _landsOwned,\n        string memory _document,\n        string memory _email\n    ) public {\n        // require that Buyer is not already registered\n        require(!RegisteredAddressMapping[msg.sender]);\n\n        RegisteredAddressMapping[msg.sender] = true;\n        RegisteredBuyerMapping[msg.sender] = true;\n        buyersCount++;\n        BuyerMapping[msg.sender] = Buyer(\n            msg.sender,\n            _name,\n            _age,\n            _city,\n            _aadharNumber,\n            _panNumber,\n            _document,\n            _email\n        );\n        buyers.push(msg.sender);\n        RegisteredSellerMapping[msg.sender] = true;\n        sellersCount++;\n        SellerMapping[msg.sender] = Seller(\n            msg.sender,\n            _name,\n            _age,\n            _aadharNumber,\n            _panNumber,\n            _landsOwned,\n            _document\n        );\n        sellers.push(msg.sender);\n        // successors[msg.sender] = _succ;\n        isAlive[msg.sender] = true;\n        emit Registration(msg.sender);\n    }\n\n    function updateBuyer(\n        string memory _name,\n        uint256 _age,\n        string memory _city,\n        string memory _aadharNumber,\n        string memory _email,\n        string memory _panNumber\n    ) public {\n        //require that Buyer is already registered\n        require(\n            RegisteredAddressMapping[msg.sender] &&\n                (BuyerMapping[msg.sender].id == msg.sender)\n        );\n\n        BuyerMapping[msg.sender].name = _name;\n        BuyerMapping[msg.sender].age = _age;\n        BuyerMapping[msg.sender].city = _city;\n        BuyerMapping[msg.sender].aadharNumber = _aadharNumber;\n        BuyerMapping[msg.sender].email = _email;\n        BuyerMapping[msg.sender].panNumber = _panNumber;\n    }\n\n    function getBuyer() public view returns (address[] memory) {\n        return (buyers);\n    }\n\n    // function getSuccessor(address _Owner) public view returns (address) {\n    //     return successors[_Owner];\n    // }\n\n    function getBuyerDetails(\n        address i\n    )\n        public\n        view\n        returns (\n            string memory,\n            string memory,\n            string memory,\n            string memory,\n            string memory,\n            uint256,\n            string memory\n        )\n    {\n        return (\n            BuyerMapping[i].name,\n            BuyerMapping[i].city,\n            BuyerMapping[i].panNumber,\n            BuyerMapping[i].document,\n            BuyerMapping[i].email,\n            BuyerMapping[i].age,\n            BuyerMapping[i].aadharNumber\n        );\n    }\n\n    function requestLand(address _sellerId, uint256 _landId) public {\n        require(isBuyer(msg.sender) && isVerified(msg.sender));\n\n        requestsCount++;\n        RequestsMapping[requestsCount] = LandRequest(\n            requestsCount,\n            _sellerId,\n            msg.sender,\n            _landId\n        );\n        RequestStatus[requestsCount] = false;\n        RequestedLands[requestsCount] = true;\n\n        emit Landrequested(_sellerId);\n    }\n\n    function getRequestDetails(\n        uint256 i\n    ) public view returns (address, address, uint256, bool) {\n        return (\n            RequestsMapping[i].sellerId,\n            RequestsMapping[i].buyerId,\n            RequestsMapping[i].landId,\n            RequestStatus[i]\n        );\n    }\n\n    function isRequested(uint256 _id) public view returns (bool) {\n        if (RequestedLands[_id]) {\n            return true;\n        }\n    }\n\n    function isApproved(uint256 _id) public view returns (bool) {\n        if (RequestStatus[_id]) {\n            return true;\n        }\n    }\n\n    function approveRequest(uint256 _reqId) public {\n        require((isSeller(msg.sender)) && (isVerified(msg.sender)));\n\n        RequestStatus[_reqId] = true;\n    }\n\n    function LandOwnershipTransfer(uint256 _landId, address _newOwner) public {\n        require(isLandInspector(msg.sender));\n        lands[_landId].old_owner = LandOwner[_landId];\n        LandOwner[_landId] = _newOwner;\n    }\n\n    function isPaid(uint256 _landId) public view returns (bool) {\n        if (PaymentReceived[_landId]) {\n            return true;\n        }\n    }\n\n    function payment(\n        address payable _receiver,\n        uint256 _landId\n    ) public payable {\n        PaymentReceived[_landId] = true;\n        _receiver.transfer(msg.value);\n    }\n\n    // function AfterDeath(address _Owner) public {\n    //     require(isLandInspector(msg.sender));\n\n    //     isAlive[_Owner] = false;\n    //     uint256 i;\n    //     for (i = 1; i <= landsCount; i++) {\n    //         if (LandOwner[i] == _Owner) {\n    //             lands[i].old_owner = LandOwner[i];\n    //             LandOwner[i] = successors[_Owner];\n    //         }\n    //     }\n\n    //     emit Succession(_Owner);\n    // }\n\n    function AfterDeath(address _Owner) public {\n        require(isLandInspector(msg.sender));\n        isAlive[_Owner] = false;\n        uint256 i;\n        for (i = 1; i <= landsCount; i++) {\n            if (LandOwner[i] == _Owner) {\n                lands[i].old_owner = LandOwner[i];\n                if (lands[i].nominee != address(0)) {\n                    LandOwner[i] = lands[i].nominee;\n                }\n                lands[i].nominee = address(0);\n            }\n        }\n    }\n}",
  "sourcePath": "/home/alby/Desktop/Land-Locker/contracts/Land.sol",
  "compiler": {
    "name": "solc",
    "version": "0.5.16+commit.9c3226ce.Emscripten.clang"
  },
  "schemaVersion": "3.4.10",
  "updatedAt": "2023-05-04T08:36:50.821Z",
  "networkType": "ethereum",
  "devdoc": {
    "methods": {}
  },
  "userdoc": {
    "methods": {}
  }
}