{
  "contractName": "Land",
  "abi": [
    {
      "inputs": [],
      "payable": false,
      "stateMutability": "nonpayable",
      "type": "constructor"
    },
    {
      "anonymous": false,
      "inputs": [
        {
          "indexed": true,
          "internalType": "uint256",
          "name": "_landId",
          "type": "uint256"
        }
      ],
      "name": "AddingLand",
      "type": "event"
    },
    {
      "anonymous": false,
      "inputs": [
        {
          "indexed": false,
          "internalType": "address",
          "name": "_sellerId",
          "type": "address"
        }
      ],
      "name": "Landrequested",
      "type": "event"
    },
    {
      "anonymous": false,
      "inputs": [
        {
          "indexed": false,
          "internalType": "address",
          "name": "_registrationId",
          "type": "address"
        },
        {
          "indexed": false,
          "internalType": "address",
          "name": "_succ",
          "type": "address"
        }
      ],
      "name": "Registration",
      "type": "event"
    },
    {
      "anonymous": false,
      "inputs": [
        {
          "indexed": false,
          "internalType": "address",
          "name": "_id",
          "type": "address"
        }
      ],
      "name": "Rejected",
      "type": "event"
    },
    {
      "anonymous": false,
      "inputs": [
        {
          "indexed": false,
          "internalType": "address",
          "name": "_Owner",
          "type": "address"
        }
      ],
      "name": "Succession",
      "type": "event"
    },
    {
      "anonymous": false,
      "inputs": [
        {
          "indexed": false,
          "internalType": "address",
          "name": "_id",
          "type": "address"
        }
      ],
      "name": "Verified",
      "type": "event"
    },
    {
      "anonymous": false,
      "inputs": [
        {
          "indexed": false,
          "internalType": "address",
          "name": "_buyerId",
          "type": "address"
        }
      ],
      "name": "requestApproved",
      "type": "event"
    },
    {
      "constant": true,
      "inputs": [
        {
          "internalType": "address",
          "name": "",
          "type": "address"
        }
      ],
      "name": "BuyerMapping",
      "outputs": [
        {
          "internalType": "address",
          "name": "id",
          "type": "address"
        },
        {
          "internalType": "string",
          "name": "name",
          "type": "string"
        },
        {
          "internalType": "uint256",
          "name": "age",
          "type": "uint256"
        },
        {
          "internalType": "string",
          "name": "city",
          "type": "string"
        },
        {
          "internalType": "string",
          "name": "aadharNumber",
          "type": "string"
        },
        {
          "internalType": "string",
          "name": "panNumber",
          "type": "string"
        },
        {
          "internalType": "string",
          "name": "document",
          "type": "string"
        },
        {
          "internalType": "string",
          "name": "email",
          "type": "string"
        }
      ],
      "payable": false,
      "stateMutability": "view",
      "type": "function"
    },
    {
      "constant": true,
      "inputs": [
        {
          "internalType": "address",
          "name": "",
          "type": "address"
        }
      ],
      "name": "BuyerRejection",
      "outputs": [
        {
          "internalType": "bool",
          "name": "",
          "type": "bool"
        }
      ],
      "payable": false,
      "stateMutability": "view",
      "type": "function"
    },
    {
      "constant": true,
      "inputs": [
        {
          "internalType": "address",
          "name": "",
          "type": "address"
        }
      ],
      "name": "BuyerVerification",
      "outputs": [
        {
          "internalType": "bool",
          "name": "",
          "type": "bool"
        }
      ],
      "payable": false,
      "stateMutability": "view",
      "type": "function"
    },
    {
      "constant": true,
      "inputs": [
        {
          "internalType": "uint256",
          "name": "",
          "type": "uint256"
        }
      ],
      "name": "InspectorMapping",
      "outputs": [
        {
          "internalType": "uint256",
          "name": "id",
          "type": "uint256"
        },
        {
          "internalType": "string",
          "name": "name",
          "type": "string"
        },
        {
          "internalType": "uint256",
          "name": "age",
          "type": "uint256"
        },
        {
          "internalType": "string",
          "name": "designation",
          "type": "string"
        }
      ],
      "payable": false,
      "stateMutability": "view",
      "type": "function"
    },
    {
      "constant": true,
      "inputs": [
        {
          "internalType": "uint256",
          "name": "",
          "type": "uint256"
        }
      ],
      "name": "LandOwner",
      "outputs": [
        {
          "internalType": "address",
          "name": "",
          "type": "address"
        }
      ],
      "payable": false,
      "stateMutability": "view",
      "type": "function"
    },
    {
      "constant": true,
      "inputs": [
        {
          "internalType": "uint256",
          "name": "",
          "type": "uint256"
        }
      ],
      "name": "LandVerification",
      "outputs": [
        {
          "internalType": "bool",
          "name": "",
          "type": "bool"
        }
      ],
      "payable": false,
      "stateMutability": "view",
      "type": "function"
    },
    {
      "constant": true,
      "inputs": [],
      "name": "Land_Inspector",
      "outputs": [
        {
          "internalType": "address",
          "name": "",
          "type": "address"
        }
      ],
      "payable": false,
      "stateMutability": "view",
      "type": "function"
    },
    {
      "constant": true,
      "inputs": [
        {
          "internalType": "uint256",
          "name": "",
          "type": "uint256"
        }
      ],
      "name": "PaymentReceived",
      "outputs": [
        {
          "internalType": "bool",
          "name": "",
          "type": "bool"
        }
      ],
      "payable": false,
      "stateMutability": "view",
      "type": "function"
    },
    {
      "constant": true,
      "inputs": [
        {
          "internalType": "address",
          "name": "",
          "type": "address"
        }
      ],
      "name": "RegisteredAddressMapping",
      "outputs": [
        {
          "internalType": "bool",
          "name": "",
          "type": "bool"
        }
      ],
      "payable": false,
      "stateMutability": "view",
      "type": "function"
    },
    {
      "constant": true,
      "inputs": [
        {
          "internalType": "address",
          "name": "",
          "type": "address"
        }
      ],
      "name": "RegisteredBuyerMapping",
      "outputs": [
        {
          "internalType": "bool",
          "name": "",
          "type": "bool"
        }
      ],
      "payable": false,
      "stateMutability": "view",
      "type": "function"
    },
    {
      "constant": true,
      "inputs": [
        {
          "internalType": "address",
          "name": "",
          "type": "address"
        }
      ],
      "name": "RegisteredSellerMapping",
      "outputs": [
        {
          "internalType": "bool",
          "name": "",
          "type": "bool"
        }
      ],
      "payable": false,
      "stateMutability": "view",
      "type": "function"
    },
    {
      "constant": true,
      "inputs": [
        {
          "internalType": "uint256",
          "name": "",
          "type": "uint256"
        }
      ],
      "name": "RequestStatus",
      "outputs": [
        {
          "internalType": "bool",
          "name": "",
          "type": "bool"
        }
      ],
      "payable": false,
      "stateMutability": "view",
      "type": "function"
    },
    {
      "constant": true,
      "inputs": [
        {
          "internalType": "uint256",
          "name": "",
          "type": "uint256"
        }
      ],
      "name": "RequestedLands",
      "outputs": [
        {
          "internalType": "bool",
          "name": "",
          "type": "bool"
        }
      ],
      "payable": false,
      "stateMutability": "view",
      "type": "function"
    },
    {
      "constant": true,
      "inputs": [
        {
          "internalType": "uint256",
          "name": "",
          "type": "uint256"
        }
      ],
      "name": "RequestsMapping",
      "outputs": [
        {
          "internalType": "uint256",
          "name": "reqId",
          "type": "uint256"
        },
        {
          "internalType": "address",
          "name": "sellerId",
          "type": "address"
        },
        {
          "internalType": "address",
          "name": "buyerId",
          "type": "address"
        },
        {
          "internalType": "uint256",
          "name": "landId",
          "type": "uint256"
        }
      ],
      "payable": false,
      "stateMutability": "view",
      "type": "function"
    },
    {
      "constant": true,
      "inputs": [
        {
          "internalType": "address",
          "name": "",
          "type": "address"
        }
      ],
      "name": "SellerMapping",
      "outputs": [
        {
          "internalType": "address",
          "name": "id",
          "type": "address"
        },
        {
          "internalType": "string",
          "name": "name",
          "type": "string"
        },
        {
          "internalType": "uint256",
          "name": "age",
          "type": "uint256"
        },
        {
          "internalType": "string",
          "name": "aadharNumber",
          "type": "string"
        },
        {
          "internalType": "string",
          "name": "panNumber",
          "type": "string"
        },
        {
          "internalType": "string",
          "name": "landsOwned",
          "type": "string"
        },
        {
          "internalType": "string",
          "name": "document",
          "type": "string"
        }
      ],
      "payable": false,
      "stateMutability": "view",
      "type": "function"
    },
    {
      "constant": true,
      "inputs": [
        {
          "internalType": "address",
          "name": "",
          "type": "address"
        }
      ],
      "name": "SellerRejection",
      "outputs": [
        {
          "internalType": "bool",
          "name": "",
          "type": "bool"
        }
      ],
      "payable": false,
      "stateMutability": "view",
      "type": "function"
    },
    {
      "constant": true,
      "inputs": [
        {
          "internalType": "address",
          "name": "",
          "type": "address"
        }
      ],
      "name": "SellerVerification",
      "outputs": [
        {
          "internalType": "bool",
          "name": "",
          "type": "bool"
        }
      ],
      "payable": false,
      "stateMutability": "view",
      "type": "function"
    },
    {
      "constant": true,
      "inputs": [
        {
          "internalType": "uint256",
          "name": "",
          "type": "uint256"
        }
      ],
      "name": "buyers",
      "outputs": [
        {
          "internalType": "address",
          "name": "",
          "type": "address"
        }
      ],
      "payable": false,
      "stateMutability": "view",
      "type": "function"
    },
    {
      "constant": true,
      "inputs": [],
      "name": "buyersCount",
      "outputs": [
        {
          "internalType": "uint256",
          "name": "",
          "type": "uint256"
        }
      ],
      "payable": false,
      "stateMutability": "view",
      "type": "function"
    },
    {
      "constant": true,
      "inputs": [],
      "name": "inspectorsCount",
      "outputs": [
        {
          "internalType": "uint256",
          "name": "",
          "type": "uint256"
        }
      ],
      "payable": false,
      "stateMutability": "view",
      "type": "function"
    },
    {
      "constant": true,
      "inputs": [
        {
          "internalType": "address",
          "name": "",
          "type": "address"
        }
      ],
      "name": "isAlive",
      "outputs": [
        {
          "internalType": "bool",
          "name": "",
          "type": "bool"
        }
      ],
      "payable": false,
      "stateMutability": "view",
      "type": "function"
    },
    {
      "constant": true,
      "inputs": [
        {
          "internalType": "uint256",
          "name": "",
          "type": "uint256"
        }
      ],
      "name": "lands",
      "outputs": [
        {
          "internalType": "uint256",
          "name": "id",
          "type": "uint256"
        },
        {
          "internalType": "uint256",
          "name": "area",
          "type": "uint256"
        },
        {
          "internalType": "string",
          "name": "city",
          "type": "string"
        },
        {
          "internalType": "string",
          "name": "state",
          "type": "string"
        },
        {
          "internalType": "uint256",
          "name": "landPrice",
          "type": "uint256"
        },
        {
          "internalType": "uint256",
          "name": "propertyPID",
          "type": "uint256"
        },
        {
          "internalType": "uint256",
          "name": "physicalSurveyNumber",
          "type": "uint256"
        },
        {
          "internalType": "string",
          "name": "ipfsHash",
          "type": "string"
        },
        {
          "internalType": "string",
          "name": "document",
          "type": "string"
        },
        {
          "internalType": "address",
          "name": "old_owner",
          "type": "address"
        }
      ],
      "payable": false,
      "stateMutability": "view",
      "type": "function"
    },
    {
      "constant": true,
      "inputs": [],
      "name": "landsCount",
      "outputs": [
        {
          "internalType": "uint256",
          "name": "",
          "type": "uint256"
        }
      ],
      "payable": false,
      "stateMutability": "view",
      "type": "function"
    },
    {
      "constant": true,
      "inputs": [],
      "name": "requestsCount",
      "outputs": [
        {
          "internalType": "uint256",
          "name": "",
          "type": "uint256"
        }
      ],
      "payable": false,
      "stateMutability": "view",
      "type": "function"
    },
    {
      "constant": true,
      "inputs": [
        {
          "internalType": "uint256",
          "name": "",
          "type": "uint256"
        }
      ],
      "name": "sellers",
      "outputs": [
        {
          "internalType": "address",
          "name": "",
          "type": "address"
        }
      ],
      "payable": false,
      "stateMutability": "view",
      "type": "function"
    },
    {
      "constant": true,
      "inputs": [],
      "name": "sellersCount",
      "outputs": [
        {
          "internalType": "uint256",
          "name": "",
          "type": "uint256"
        }
      ],
      "payable": false,
      "stateMutability": "view",
      "type": "function"
    },
    {
      "constant": true,
      "inputs": [
        {
          "internalType": "address",
          "name": "",
          "type": "address"
        }
      ],
      "name": "successors",
      "outputs": [
        {
          "internalType": "address",
          "name": "",
          "type": "address"
        }
      ],
      "payable": false,
      "stateMutability": "view",
      "type": "function"
    },
    {
      "constant": true,
      "inputs": [
        {
          "internalType": "uint256",
          "name": "i",
          "type": "uint256"
        }
      ],
      "name": "getPrevious",
      "outputs": [
        {
          "internalType": "address",
          "name": "",
          "type": "address"
        }
      ],
      "payable": false,
      "stateMutability": "view",
      "type": "function"
    },
    {
      "constant": true,
      "inputs": [
        {
          "internalType": "uint256",
          "name": "i",
          "type": "uint256"
        }
      ],
      "name": "isSame",
      "outputs": [
        {
          "internalType": "bool",
          "name": "",
          "type": "bool"
        }
      ],
      "payable": false,
      "stateMutability": "view",
      "type": "function"
    },
    {
      "constant": true,
      "inputs": [],
      "name": "getLandsCount",
      "outputs": [
        {
          "internalType": "uint256",
          "name": "",
          "type": "uint256"
        }
      ],
      "payable": false,
      "stateMutability": "view",
      "type": "function"
    },
    {
      "constant": true,
      "inputs": [],
      "name": "getBuyersCount",
      "outputs": [
        {
          "internalType": "uint256",
          "name": "",
          "type": "uint256"
        }
      ],
      "payable": false,
      "stateMutability": "view",
      "type": "function"
    },
    {
      "constant": true,
      "inputs": [],
      "name": "getSellersCount",
      "outputs": [
        {
          "internalType": "uint256",
          "name": "",
          "type": "uint256"
        }
      ],
      "payable": false,
      "stateMutability": "view",
      "type": "function"
    },
    {
      "constant": true,
      "inputs": [],
      "name": "getRequestsCount",
      "outputs": [
        {
          "internalType": "uint256",
          "name": "",
          "type": "uint256"
        }
      ],
      "payable": false,
      "stateMutability": "view",
      "type": "function"
    },
    {
      "constant": true,
      "inputs": [
        {
          "internalType": "uint256",
          "name": "i",
          "type": "uint256"
        }
      ],
      "name": "getArea",
      "outputs": [
        {
          "internalType": "uint256",
          "name": "",
          "type": "uint256"
        }
      ],
      "payable": false,
      "stateMutability": "view",
      "type": "function"
    },
    {
      "constant": true,
      "inputs": [
        {
          "internalType": "uint256",
          "name": "i",
          "type": "uint256"
        }
      ],
      "name": "getCity",
      "outputs": [
        {
          "internalType": "string",
          "name": "",
          "type": "string"
        }
      ],
      "payable": false,
      "stateMutability": "view",
      "type": "function"
    },
    {
      "constant": true,
      "inputs": [
        {
          "internalType": "uint256",
          "name": "i",
          "type": "uint256"
        }
      ],
      "name": "getState",
      "outputs": [
        {
          "internalType": "string",
          "name": "",
          "type": "string"
        }
      ],
      "payable": false,
      "stateMutability": "view",
      "type": "function"
    },
    {
      "constant": true,
      "inputs": [
        {
          "internalType": "uint256",
          "name": "i",
          "type": "uint256"
        }
      ],
      "name": "getPrice",
      "outputs": [
        {
          "internalType": "uint256",
          "name": "",
          "type": "uint256"
        }
      ],
      "payable": false,
      "stateMutability": "view",
      "type": "function"
    },
    {
      "constant": true,
      "inputs": [
        {
          "internalType": "uint256",
          "name": "i",
          "type": "uint256"
        }
      ],
      "name": "getPID",
      "outputs": [
        {
          "internalType": "uint256",
          "name": "",
          "type": "uint256"
        }
      ],
      "payable": false,
      "stateMutability": "view",
      "type": "function"
    },
    {
      "constant": true,
      "inputs": [
        {
          "internalType": "uint256",
          "name": "i",
          "type": "uint256"
        }
      ],
      "name": "getSurveyNumber",
      "outputs": [
        {
          "internalType": "uint256",
          "name": "",
          "type": "uint256"
        }
      ],
      "payable": false,
      "stateMutability": "view",
      "type": "function"
    },
    {
      "constant": true,
      "inputs": [
        {
          "internalType": "uint256",
          "name": "i",
          "type": "uint256"
        }
      ],
      "name": "getImage",
      "outputs": [
        {
          "internalType": "string",
          "name": "",
          "type": "string"
        }
      ],
      "payable": false,
      "stateMutability": "view",
      "type": "function"
    },
    {
      "constant": true,
      "inputs": [
        {
          "internalType": "uint256",
          "name": "i",
          "type": "uint256"
        }
      ],
      "name": "getDocument",
      "outputs": [
        {
          "internalType": "string",
          "name": "",
          "type": "string"
        }
      ],
      "payable": false,
      "stateMutability": "view",
      "type": "function"
    },
    {
      "constant": true,
      "inputs": [
        {
          "internalType": "uint256",
          "name": "id",
          "type": "uint256"
        }
      ],
      "name": "getLandOwner",
      "outputs": [
        {
          "internalType": "address",
          "name": "",
          "type": "address"
        }
      ],
      "payable": false,
      "stateMutability": "view",
      "type": "function"
    },
    {
      "constant": true,
      "inputs": [
        {
          "internalType": "address",
          "name": "_Owner",
          "type": "address"
        }
      ],
      "name": "getAlive",
      "outputs": [
        {
          "internalType": "bool",
          "name": "",
          "type": "bool"
        }
      ],
      "payable": false,
      "stateMutability": "view",
      "type": "function"
    },
    {
      "constant": false,
      "inputs": [
        {
          "internalType": "address",
          "name": "_sellerId",
          "type": "address"
        }
      ],
      "name": "verifySeller",
      "outputs": [],
      "payable": false,
      "stateMutability": "nonpayable",
      "type": "function"
    },
    {
      "constant": false,
      "inputs": [
        {
          "internalType": "address",
          "name": "_sellerId",
          "type": "address"
        }
      ],
      "name": "rejectSeller",
      "outputs": [],
      "payable": false,
      "stateMutability": "nonpayable",
      "type": "function"
    },
    {
      "constant": false,
      "inputs": [
        {
          "internalType": "address",
          "name": "_buyerId",
          "type": "address"
        }
      ],
      "name": "verifyBuyer",
      "outputs": [],
      "payable": false,
      "stateMutability": "nonpayable",
      "type": "function"
    },
    {
      "constant": false,
      "inputs": [
        {
          "internalType": "address",
          "name": "_buyerId",
          "type": "address"
        }
      ],
      "name": "rejectBuyer",
      "outputs": [],
      "payable": false,
      "stateMutability": "nonpayable",
      "type": "function"
    },
    {
      "constant": false,
      "inputs": [
        {
          "internalType": "uint256",
          "name": "_landId",
          "type": "uint256"
        }
      ],
      "name": "verifyLand",
      "outputs": [],
      "payable": false,
      "stateMutability": "nonpayable",
      "type": "function"
    },
    {
      "constant": true,
      "inputs": [
        {
          "internalType": "uint256",
          "name": "_id",
          "type": "uint256"
        }
      ],
      "name": "isLandVerified",
      "outputs": [
        {
          "internalType": "bool",
          "name": "",
          "type": "bool"
        }
      ],
      "payable": false,
      "stateMutability": "view",
      "type": "function"
    },
    {
      "constant": true,
      "inputs": [
        {
          "internalType": "address",
          "name": "_id",
          "type": "address"
        }
      ],
      "name": "isVerified",
      "outputs": [
        {
          "internalType": "bool",
          "name": "",
          "type": "bool"
        }
      ],
      "payable": false,
      "stateMutability": "view",
      "type": "function"
    },
    {
      "constant": true,
      "inputs": [
        {
          "internalType": "address",
          "name": "_id",
          "type": "address"
        }
      ],
      "name": "isRejected",
      "outputs": [
        {
          "internalType": "bool",
          "name": "",
          "type": "bool"
        }
      ],
      "payable": false,
      "stateMutability": "view",
      "type": "function"
    },
    {
      "constant": true,
      "inputs": [
        {
          "internalType": "address",
          "name": "_id",
          "type": "address"
        }
      ],
      "name": "isSeller",
      "outputs": [
        {
          "internalType": "bool",
          "name": "",
          "type": "bool"
        }
      ],
      "payable": false,
      "stateMutability": "view",
      "type": "function"
    },
    {
      "constant": true,
      "inputs": [
        {
          "internalType": "address",
          "name": "_id",
          "type": "address"
        }
      ],
      "name": "isLandInspector",
      "outputs": [
        {
          "internalType": "bool",
          "name": "",
          "type": "bool"
        }
      ],
      "payable": false,
      "stateMutability": "view",
      "type": "function"
    },
    {
      "constant": true,
      "inputs": [
        {
          "internalType": "address",
          "name": "_id",
          "type": "address"
        }
      ],
      "name": "isBuyer",
      "outputs": [
        {
          "internalType": "bool",
          "name": "",
          "type": "bool"
        }
      ],
      "payable": false,
      "stateMutability": "view",
      "type": "function"
    },
    {
      "constant": true,
      "inputs": [
        {
          "internalType": "address",
          "name": "_id",
          "type": "address"
        }
      ],
      "name": "isRegistered",
      "outputs": [
        {
          "internalType": "bool",
          "name": "",
          "type": "bool"
        }
      ],
      "payable": false,
      "stateMutability": "view",
      "type": "function"
    },
    {
      "constant": false,
      "inputs": [
        {
          "internalType": "uint256",
          "name": "_area",
          "type": "uint256"
        },
        {
          "internalType": "string",
          "name": "_city",
          "type": "string"
        },
        {
          "internalType": "string",
          "name": "_state",
          "type": "string"
        },
        {
          "internalType": "uint256",
          "name": "landPrice",
          "type": "uint256"
        },
        {
          "internalType": "uint256",
          "name": "_propertyPID",
          "type": "uint256"
        },
        {
          "internalType": "uint256",
          "name": "_surveyNum",
          "type": "uint256"
        },
        {
          "internalType": "string",
          "name": "_ipfsHash",
          "type": "string"
        },
        {
          "internalType": "string",
          "name": "_document",
          "type": "string"
        }
      ],
      "name": "addLand",
      "outputs": [],
      "payable": false,
      "stateMutability": "nonpayable",
      "type": "function"
    },
    {
      "constant": false,
      "inputs": [
        {
          "internalType": "string",
          "name": "_name",
          "type": "string"
        },
        {
          "internalType": "uint256",
          "name": "_age",
          "type": "uint256"
        },
        {
          "internalType": "string",
          "name": "_aadharNumber",
          "type": "string"
        },
        {
          "internalType": "string",
          "name": "_panNumber",
          "type": "string"
        },
        {
          "internalType": "string",
          "name": "_landsOwned",
          "type": "string"
        },
        {
          "internalType": "string",
          "name": "_document",
          "type": "string"
        }
      ],
      "name": "registerSeller",
      "outputs": [],
      "payable": false,
      "stateMutability": "nonpayable",
      "type": "function"
    },
    {
      "constant": false,
      "inputs": [
        {
          "internalType": "string",
          "name": "_name",
          "type": "string"
        },
        {
          "internalType": "uint256",
          "name": "_age",
          "type": "uint256"
        },
        {
          "internalType": "string",
          "name": "_aadharNumber",
          "type": "string"
        },
        {
          "internalType": "string",
          "name": "_panNumber",
          "type": "string"
        },
        {
          "internalType": "string",
          "name": "_landsOwned",
          "type": "string"
        }
      ],
      "name": "updateSeller",
      "outputs": [],
      "payable": false,
      "stateMutability": "nonpayable",
      "type": "function"
    },
    {
      "constant": true,
      "inputs": [],
      "name": "getSeller",
      "outputs": [
        {
          "internalType": "address[]",
          "name": "",
          "type": "address[]"
        }
      ],
      "payable": false,
      "stateMutability": "view",
      "type": "function"
    },
    {
      "constant": true,
      "inputs": [
        {
          "internalType": "address",
          "name": "i",
          "type": "address"
        }
      ],
      "name": "getSellerDetails",
      "outputs": [
        {
          "internalType": "string",
          "name": "",
          "type": "string"
        },
        {
          "internalType": "uint256",
          "name": "",
          "type": "uint256"
        },
        {
          "internalType": "string",
          "name": "",
          "type": "string"
        },
        {
          "internalType": "string",
          "name": "",
          "type": "string"
        },
        {
          "internalType": "string",
          "name": "",
          "type": "string"
        },
        {
          "internalType": "string",
          "name": "",
          "type": "string"
        }
      ],
      "payable": false,
      "stateMutability": "view",
      "type": "function"
    },
    {
      "constant": false,
      "inputs": [
        {
          "internalType": "string",
          "name": "_name",
          "type": "string"
        },
        {
          "internalType": "uint256",
          "name": "_age",
          "type": "uint256"
        },
        {
          "internalType": "string",
          "name": "_city",
          "type": "string"
        },
        {
          "internalType": "string",
          "name": "_aadharNumber",
          "type": "string"
        },
        {
          "internalType": "string",
          "name": "_panNumber",
          "type": "string"
        },
        {
          "internalType": "string",
          "name": "_document",
          "type": "string"
        },
        {
          "internalType": "string",
          "name": "_email",
          "type": "string"
        }
      ],
      "name": "registerBuyer",
      "outputs": [],
      "payable": false,
      "stateMutability": "nonpayable",
      "type": "function"
    },
    {
      "constant": false,
      "inputs": [
        {
          "internalType": "string",
          "name": "_name",
          "type": "string"
        },
        {
          "internalType": "uint256",
          "name": "_age",
          "type": "uint256"
        },
        {
          "internalType": "string",
          "name": "_city",
          "type": "string"
        },
        {
          "internalType": "string",
          "name": "_aadharNumber",
          "type": "string"
        },
        {
          "internalType": "string",
          "name": "_panNumber",
          "type": "string"
        },
        {
          "internalType": "string",
          "name": "_landsOwned",
          "type": "string"
        },
        {
          "internalType": "string",
          "name": "_document",
          "type": "string"
        },
        {
          "internalType": "string",
          "name": "_email",
          "type": "string"
        },
        {
          "internalType": "address",
          "name": "_succ",
          "type": "address"
        }
      ],
      "name": "registerUser",
      "outputs": [],
      "payable": false,
      "stateMutability": "nonpayable",
      "type": "function"
    },
    {
      "constant": false,
      "inputs": [
        {
          "internalType": "string",
          "name": "_name",
          "type": "string"
        },
        {
          "internalType": "uint256",
          "name": "_age",
          "type": "uint256"
        },
        {
          "internalType": "string",
          "name": "_city",
          "type": "string"
        },
        {
          "internalType": "string",
          "name": "_aadharNumber",
          "type": "string"
        },
        {
          "internalType": "string",
          "name": "_email",
          "type": "string"
        },
        {
          "internalType": "string",
          "name": "_panNumber",
          "type": "string"
        }
      ],
      "name": "updateBuyer",
      "outputs": [],
      "payable": false,
      "stateMutability": "nonpayable",
      "type": "function"
    },
    {
      "constant": true,
      "inputs": [],
      "name": "getBuyer",
      "outputs": [
        {
          "internalType": "address[]",
          "name": "",
          "type": "address[]"
        }
      ],
      "payable": false,
      "stateMutability": "view",
      "type": "function"
    },
    {
      "constant": true,
      "inputs": [
        {
          "internalType": "address",
          "name": "_Owner",
          "type": "address"
        }
      ],
      "name": "getSuccessor",
      "outputs": [
        {
          "internalType": "address",
          "name": "",
          "type": "address"
        }
      ],
      "payable": false,
      "stateMutability": "view",
      "type": "function"
    },
    {
      "constant": true,
      "inputs": [
        {
          "internalType": "address",
          "name": "i",
          "type": "address"
        }
      ],
      "name": "getBuyerDetails",
      "outputs": [
        {
          "internalType": "string",
          "name": "",
          "type": "string"
        },
        {
          "internalType": "string",
          "name": "",
          "type": "string"
        },
        {
          "internalType": "string",
          "name": "",
          "type": "string"
        },
        {
          "internalType": "string",
          "name": "",
          "type": "string"
        },
        {
          "internalType": "string",
          "name": "",
          "type": "string"
        },
        {
          "internalType": "uint256",
          "name": "",
          "type": "uint256"
        },
        {
          "internalType": "string",
          "name": "",
          "type": "string"
        }
      ],
      "payable": false,
      "stateMutability": "view",
      "type": "function"
    },
    {
      "constant": false,
      "inputs": [
        {
          "internalType": "address",
          "name": "_sellerId",
          "type": "address"
        },
        {
          "internalType": "uint256",
          "name": "_landId",
          "type": "uint256"
        }
      ],
      "name": "requestLand",
      "outputs": [],
      "payable": false,
      "stateMutability": "nonpayable",
      "type": "function"
    },
    {
      "constant": true,
      "inputs": [
        {
          "internalType": "uint256",
          "name": "i",
          "type": "uint256"
        }
      ],
      "name": "getRequestDetails",
      "outputs": [
        {
          "internalType": "address",
          "name": "",
          "type": "address"
        },
        {
          "internalType": "address",
          "name": "",
          "type": "address"
        },
        {
          "internalType": "uint256",
          "name": "",
          "type": "uint256"
        },
        {
          "internalType": "bool",
          "name": "",
          "type": "bool"
        }
      ],
      "payable": false,
      "stateMutability": "view",
      "type": "function"
    },
    {
      "constant": true,
      "inputs": [
        {
          "internalType": "uint256",
          "name": "_id",
          "type": "uint256"
        }
      ],
      "name": "isRequested",
      "outputs": [
        {
          "internalType": "bool",
          "name": "",
          "type": "bool"
        }
      ],
      "payable": false,
      "stateMutability": "view",
      "type": "function"
    },
    {
      "constant": true,
      "inputs": [
        {
          "internalType": "uint256",
          "name": "_id",
          "type": "uint256"
        }
      ],
      "name": "isApproved",
      "outputs": [
        {
          "internalType": "bool",
          "name": "",
          "type": "bool"
        }
      ],
      "payable": false,
      "stateMutability": "view",
      "type": "function"
    },
    {
      "constant": false,
      "inputs": [
        {
          "internalType": "uint256",
          "name": "_reqId",
          "type": "uint256"
        }
      ],
      "name": "approveRequest",
      "outputs": [],
      "payable": false,
      "stateMutability": "nonpayable",
      "type": "function"
    },
    {
      "constant": false,
      "inputs": [
        {
          "internalType": "uint256",
          "name": "_landId",
          "type": "uint256"
        },
        {
          "internalType": "address",
          "name": "_newOwner",
          "type": "address"
        }
      ],
      "name": "LandOwnershipTransfer",
      "outputs": [],
      "payable": false,
      "stateMutability": "nonpayable",
      "type": "function"
    },
    {
      "constant": true,
      "inputs": [
        {
          "internalType": "uint256",
          "name": "_landId",
          "type": "uint256"
        }
      ],
      "name": "isPaid",
      "outputs": [
        {
          "internalType": "bool",
          "name": "",
          "type": "bool"
        }
      ],
      "payable": false,
      "stateMutability": "view",
      "type": "function"
    },
    {
      "constant": false,
      "inputs": [
        {
          "internalType": "address payable",
          "name": "_receiver",
          "type": "address"
        },
        {
          "internalType": "uint256",
          "name": "_landId",
          "type": "uint256"
        }
      ],
      "name": "payment",
      "outputs": [],
      "payable": true,
      "stateMutability": "payable",
      "type": "function"
    },
    {
      "constant": false,
      "inputs": [
        {
          "internalType": "address",
          "name": "_Owner",
          "type": "address"
        }
      ],
      "name": "AfterDeath",
      "outputs": [],
      "payable": false,
      "stateMutability": "nonpayable",
      "type": "function"
    }
  ],
  "bytecode": "0x60806040523480156200001157600080fd5b5060138054600160a060020a03191633179055604080518082018252600b81527f496e73706563746f7220310000000000000000000000000000000000000000006020808301919091528251808401909352600e83527f54656873696c204d616e6167657200000000000000000000000000000000000090830152620000a391602d90640100000000620000a9810204565b620001d7565b601780546001908101918290556040805160808101825283815260208082018881528284018890526060830187905260009586528482529290942081518155915180519194929362000102939085019291019062000132565b5060408201516002820155606082015180516200012a91600384019160209091019062000132565b505050505050565b828054600181600116156101000203166002900490600052602060002090601f016020900481019282601f106200017557805160ff1916838001178555620001a5565b82800160010185558215620001a5579182015b82811115620001a557825182559160200191906001019062000188565b50620001b3929150620001b7565b5090565b620001d491905b80821115620001b35760008155600101620001be565b90565b6144e180620001e76000396000f3fe608060405260043610610509576000357c010000000000000000000000000000000000000000000000000000000090048063989376b4116102b1578063d7d1bbdb1161017b578063e530c400116100f3578063f34d4c63116100a7578063f58f85b51161008c578063f58f85b514610e66578063f9c43bdf14610e86578063fbfa4b7f14610ea657610509565b8063f34d4c6314610e16578063f3f0c21814610e4657610509565b8063ee95feaf116100d8578063ee95feaf14610dc1578063f0d3a9df14610de1578063f2aa821814610df657610509565b8063e530c40014610d81578063e757223014610da157610509565b8063def936c31161014a578063e1ecc7941161012f578063e1ecc79414610d0b578063e261f1e514610d2b578063e4b2611514610d6157610509565b8063def936c314610cbb578063e165af8714610ceb57610509565b8063d7d1bbdb14610c3e578063dbd0e1b614610c5e578063dd9d122d14610c73578063dec091ad14610c8857610509565b8063b3c8fe8511610229578063c560b4e5116101dd578063cee26ed5116101c2578063cee26ed514610bde578063d1760e6014610bfe578063d713065114610c1e57610509565b8063c560b4e514610b9e578063cd392a8314610bbe57610509565b8063ba49a08c1161020e578063ba49a08c14610b49578063bed403c714610b5e578063c3c5a54714610b7e57610509565b8063b3c8fe8514610af7578063b9209e3314610b2957610509565b8063a4a0f6c011610280578063ab51707411610265578063ab51707414610a73578063b0a5dcd314610aa7578063b0defb2114610ad757610509565b8063a4a0f6c014610a33578063a6dc41fb14610a5357610509565b8063989376b4146109be5780639ae9711e146109de5780639dc1bfa9146109f3578063a47d4c0214610a1357610509565b806356b8481a116103f25780637910867b1161036a5780638c5e13e51161031e57806393383648116103035780639338364814610969578063941e242614610989578063966dfe7a1461099e57610509565b80638c5e13e5146109295780638cd869a41461094957610509565b806388b4680e1161034f57806388b4680e146108c95780638965cde1146108e957806389d213541461090957610509565b80637910867b1461088957806383546501146108a957610509565b80636490c7a8116103c15780636814800b116103a65780636814800b1461081657806368cfe6ee146108365780636cbf6cf81461086957610509565b80636490c7a8146107e357806367a09c231461080357610509565b806356b8481a14610761578063601e7c3414610781578063603daf9a146107a157806363f17143146107c357610509565b80632607aafa1161048557806344c9af281161045457806348a46bd31161043957806348a46bd3146107015780634daa9dae146107215780634e2cba091461074157610509565b806344c9af28146106c15780634528b357146106e157610509565b80632607aafa1461063f5780632a55feec1461066c5780633410452a1461068c5780633f9b250a146106a157610509565b80631703e5f9116104dc5780631869a38b116104c15780631869a38b146105ea5780631a07f76e1461060a5780631c9afd0f1461062a57610509565b80631703e5f9146105a8578063170f3909146105c857610509565b806307d56ac01461050e57806311ce462c14610544578063155fec721461056657806316d9d66614610593575b600080fd5b34801561051a57600080fd5b5061052e610529366004613d5e565b610ebb565b60405161053b919061426a565b60405180910390f35b34801561055057600080fd5b5061056461055f3660046139ca565b610ed3565b005b34801561057257600080fd5b50610586610581366004613d5e565b610fe3565b60405161053b919061414f565b34801561059f57600080fd5b5061052e611002565b3480156105b457600080fd5b506105866105c3366004613896565b611009565b3480156105d457600080fd5b506105dd61101e565b60405161053b9190613f8b565b3480156105f657600080fd5b506105dd610605366004613d5e565b61102d565b34801561061657600080fd5b50610586610625366004613d5e565b611048565b34801561063657600080fd5b5061052e61105d565b34801561064b57600080fd5b5061065f61065a366004613d5e565b611063565b60405161053b919061415d565b34801561067857600080fd5b50610586610687366004613896565b611105565b34801561069857600080fd5b5061052e61112e565b3480156106ad57600080fd5b5061065f6106bc366004613d5e565b611134565b3480156106cd57600080fd5b5061065f6106dc366004613d5e565b61119f565b3480156106ed57600080fd5b506105dd6106fc366004613d5e565b61120a565b34801561070d57600080fd5b5061058661071c366004613896565b611228565b34801561072d57600080fd5b5061058661073c366004613d5e565b611274565b34801561074d57600080fd5b5061056461075c366004613ac8565b611289565b34801561076d57600080fd5b506105dd61077c366004613896565b611475565b34801561078d57600080fd5b5061058661079c366004613896565b611490565b3480156107ad57600080fd5b506107b66114a5565b60405161053b919061413e565b3480156107cf57600080fd5b506105866107de366004613896565b611507565b3480156107ef57600080fd5b5061052e6107fe366004613d5e565b61151c565b6105646108113660046138bc565b611531565b34801561082257600080fd5b50610564610831366004613896565b61157e565b34801561084257600080fd5b50610856610851366004613896565b6115ee565b60405161053b979695949392919061416e565b34801561087557600080fd5b50610586610884366004613d5e565b61199f565b34801561089557600080fd5b506105866108a4366004613d5e565b6119be565b3480156108b557600080fd5b506105866108c4366004613d5e565b6119dd565b3480156108d557600080fd5b506105866108e4366004613896565b6119f2565b3480156108f557600080fd5b50610564610904366004613896565b611a10565b34801561091557600080fd5b50610586610924366004613d5e565b611a75565b34801561093557600080fd5b50610586610944366004613d5e565b611a8a565b34801561095557600080fd5b50610564610964366004613896565b611ac9565b34801561097557600080fd5b506105646109843660046139ca565b611bd5565b34801561099557600080fd5b5061052e611db9565b3480156109aa57600080fd5b506105dd6109b9366004613896565b611dbf565b3480156109ca57600080fd5b506105866109d9366004613896565b611ddd565b3480156109ea57600080fd5b5061052e611df2565b3480156109ff57600080fd5b506105dd610a0e366004613d5e565b611df8565b348015610a1f57600080fd5b50610586610a2e366004613896565b611e13565b348015610a3f57600080fd5b5061052e610a4e366004613d5e565b611e28565b348015610a5f57600080fd5b50610586610a6e366004613896565b611e3d565b348015610a7f57600080fd5b50610a93610a8e366004613896565b611e52565b60405161053b98979695949392919061409e565b348015610ab357600080fd5b50610ac7610ac2366004613d5e565b6121de565b60405161053b9493929190614278565b348015610ae357600080fd5b50610564610af2366004613bf3565b612212565b348015610b0357600080fd5b50610b17610b12366004613896565b612614565b60405161053b969594939291906141f0565b348015610b3557600080fd5b50610586610b44366004613896565b61292a565b348015610b5557600080fd5b5061052e612975565b348015610b6a57600080fd5b50610564610b79366004613d7c565b61297b565b348015610b8a57600080fd5b50610586610b99366004613896565b6129e3565b348015610baa57600080fd5b50610564610bb93660046138f6565b612a0c565b348015610bca57600080fd5b50610586610bd9366004613d5e565b612af3565b348015610bea57600080fd5b506105dd610bf9366004613d5e565b612b12565b348015610c0a57600080fd5b50610564610c19366004613896565b612b39565b348015610c2a57600080fd5b5061065f610c39366004613d5e565b612bb6565b348015610c4a57600080fd5b50610564610c59366004613d5e565b612c24565b348015610c6a57600080fd5b506107b6612c61565b348015610c7f57600080fd5b5061052e612cc1565b348015610c9457600080fd5b50610ca8610ca3366004613896565b612cc7565b60405161053b9796959493929190614014565b348015610cc757600080fd5b50610cdb610cd6366004613d5e565b612fc0565b60405161053b94939291906142ad565b348015610cf757600080fd5b50610586610d06366004613896565b6130fe565b348015610d1757600080fd5b50610564610d26366004613896565b61311f565b348015610d3757600080fd5b50610d4b610d46366004613d5e565b61319c565b60405161053b9a999897969594939291906142f8565b348015610d6d57600080fd5b50610586610d7c366004613896565b613418565b348015610d8d57600080fd5b50610564610d9c366004613dac565b61342d565b348015610dad57600080fd5b5061052e610dbc366004613d5e565b6135aa565b348015610dcd57600080fd5b50610586610ddc366004613896565b6135bf565b348015610ded57600080fd5b5061052e6135e8565b348015610e0257600080fd5b506105dd610e11366004613d5e565b6135ee565b348015610e2257600080fd5b50610e36610e31366004613d5e565b6135fb565b60405161053b9493929190613fd6565b348015610e5257600080fd5b50610564610e613660046138bc565b61363d565b348015610e7257600080fd5b50610586610e81366004613896565b613746565b348015610e9257600080fd5b50610564610ea1366004613d5e565b61375b565b348015610eb257600080fd5b5061052e613788565b6000818152602081905260409020600501545b919050565b3360009081526005602052604090205460ff168015610f08575033600081815260036020526040902054600160a060020a0316145b610f1157600080fd5b3360009081526003602090815260409091208751610f379260019092019189019061378e565b50336000908152600360208181526040909220600281018890558651610f659391909201919087019061378e565b503360009081526003602090815260409091208451610f8c9260049092019186019061378e565b503360009081526003602090815260409091208351610fb39260079092019185019061378e565b503360009081526003602090815260409091208251610fda9260059092019184019061378e565b50505050505050565b6000818152600f602052604081205460ff1615610ece57506001610ece565b6016545b90565b60126020526000908152604090205460ff1681565b601354600160a060020a031681565b6000908152600d6020526040902054600160a060020a031690565b60106020526000908152604090205460ff1681565b60165481565b6000818152602081815260409182902060070180548351601f60026000196101006001861615020190931692909204918201849004840281018401909452808452606093928301828280156110f95780601f106110ce576101008083540402835291602001916110f9565b820191906000526020600020905b8154815290600101906020018083116110dc57829003601f168201915b50505050509050919050565b600160a060020a03811660009081526007602052604081205460ff1615610ece57506001610ece565b601a5490565b6000818152602081815260409182902060080180548351601f60026000196101006001861615020190931692909204918201849004840281018401909452808452606093928301828280156110f95780601f106110ce576101008083540402835291602001916110f9565b6000818152602081815260409182902060030180548351601f60026000196101006001861615020190931692909204918201849004840281018401909452808452606093928301828280156110f95780601f106110ce576101008083540402835291602001916110f9565b600090815260208190526040902060090154600160a060020a031690565b600160a060020a03811660009081526009602052604081205460ff16806112675750600160a060020a0382166000908152600b602052604090205460ff165b15610ece57506001610ece565b600f6020526000908152604090205460ff1681565b3360008181526005602090815260408083208054600160ff1991821681179092556007845282852080549091168217905560198054820190558151610100810183528581528084018d81528184018d9052606082018c9052608082018b905260a082018a905260c0820189905260e0820188905295855260038452919093208151815473ffffffffffffffffffffffffffffffffffffffff1916600160a060020a0390911617815593518051919493611348939085019291019061378e565b50604082015160028201556060820151805161136e91600384019160209091019061378e565b506080820151805161138a91600484019160209091019061378e565b5060a082015180516113a691600584019160209091019061378e565b5060c082015180516113c291600684019160209091019061378e565b5060e082015180516113de91600784019160209091019061378e565b5050601580546001810182556000919091527f55f448fdea98c4d29eb340757ef0a66cd03dbb9538908a6a81d96026b71ec47501805473ffffffffffffffffffffffffffffffffffffffff1916339081179091556040517f2a4f530ae55f002aac4686b649762fc68e96bd8b80ac835b41777145c94e1f8a925061146491908190613fbb565b60405180910390a150505050505050565b601160205260009081526040902054600160a060020a031681565b60066020526000908152604090205460ff1681565b606060158054806020026020016040519081016040528092919081815260200182805480156114fd57602002820191906000526020600020905b8154600160a060020a031681526001909101906020018083116114df575b5050505050905090565b60096020526000908152604090205460ff1681565b60009081526020819052604090206001015490565b600081815260106020526040808220805460ff1916600117905551600160a060020a038416913480156108fc02929091818181858888f1935050505015801561157957600080fd5b505050565b611587336130fe565b61159057600080fd5b600160a060020a0381166000908152600a602052604090819020805460ff19166001179055517f6a6455914f452787eb3985452aceedc1000fb545e394eb3b370e3d08958e0a5b906115e3908390613f8b565b60405180910390a150565b600160a060020a03811660009081526003602081815260408084206002808201546001808401805486519281161561010002600019011693909304601f810187900487028201870190955284815260609788978897889788979396889690959385019460058101946006820194600783019460049093019289918301828280156116b95780601f1061168e576101008083540402835291602001916116b9565b820191906000526020600020905b81548152906001019060200180831161169c57829003601f168201915b5050895460408051602060026001851615610100026000190190941693909304601f8101849004840282018401909252818152959c508b9450925084019050828280156117475780601f1061171c57610100808354040283529160200191611747565b820191906000526020600020905b81548152906001019060200180831161172a57829003601f168201915b5050885460408051602060026001851615610100026000190190941693909304601f8101849004840282018401909252818152959b508a9450925084019050828280156117d55780601f106117aa576101008083540402835291602001916117d5565b820191906000526020600020905b8154815290600101906020018083116117b857829003601f168201915b5050875460408051602060026001851615610100026000190190941693909304601f8101849004840282018401909252818152959a50899450925084019050828280156118635780601f1061183857610100808354040283529160200191611863565b820191906000526020600020905b81548152906001019060200180831161184657829003601f168201915b5050865460408051602060026001851615610100026000190190941693909304601f8101849004840282018401909252818152959950889450925084019050828280156118f15780601f106118c6576101008083540402835291602001916118f1565b820191906000526020600020905b8154815290600101906020018083116118d457829003601f168201915b5050845460408051602060026001851615610100026000190190941693909304601f81018490048402820184019092528181529598508694509250840190508282801561197f5780601f106119545761010080835404028352916020019161197f565b820191906000526020600020905b81548152906001019060200180831161196257829003601f168201915b505050505090509650965096509650965096509650919395979092949650565b6000818152600c602052604081205460ff1615610ece57506001610ece565b6000818152600e602052604081205460ff1615610ece57506001610ece565b600c6020526000908152604090205460ff1681565b600160a060020a031660009081526012602052604090205460ff1690565b611a19336130fe565b611a2257600080fd5b600160a060020a0381166000908152600b602052604090819020805460ff19166001179055517faf77f8960cf590e245ec8b6d41c193a5dcacad8986ae4eb57ac9e5be7b6af031906115e3908390613f8b565b600e6020526000908152604090205460ff1681565b6000818152600d602090815260408083205491839052822060090154600160a060020a0390811691161415611ac157506001610ece565b506000610ece565b611ad2336130fe565b611adb57600080fd5b600160a060020a0381166000908152601260205260409020805460ff1916905560015b6016548111611b9a576000818152600d6020526040902054600160a060020a0383811691161415611b92576000818152600d602081815260408084208054858452828620600901805473ffffffffffffffffffffffffffffffffffffffff19908116600160a060020a0393841617909155888216875260118552928620549587905293909252815416929091169190911790555b600101611afe565b7f0599dcd31fa808bf297d25bdaba963eafead5e178e4dcee695bcab4933f13a7082604051611bc99190613f8b565b60405180910390a15050565b3360009081526005602052604090205460ff1615611bf257600080fd5b3360008181526005602090815260408083208054600160ff199182168117909255600684528285208054909116821790556018805482019055815160e0810183528581528084018c81528184018c9052606082018b9052608082018a905260a0820189905260c0820188905295855260028452919093208151815473ffffffffffffffffffffffffffffffffffffffff1916600160a060020a0390911617815593518051919493611ca9939085019291019061378e565b506040820151600282015560608201518051611ccf91600384019160209091019061378e565b5060808201518051611ceb91600484019160209091019061378e565b5060a08201518051611d0791600584019160209091019061378e565b5060c08201518051611d2391600684019160209091019061378e565b5050601480546001810182556000919091527fce6d7b5282bd9a3661ae061feed1dbda4e52ab073b1f9285be6e155d9c38d4ec01805473ffffffffffffffffffffffffffffffffffffffff1916339081179091556040517f2a4f530ae55f002aac4686b649762fc68e96bd8b80ac835b41777145c94e1f8a9250611da991908190613fbb565b60405180910390a1505050505050565b60175481565b600160a060020a039081166000908152601160205260409020541690565b600b6020526000908152604090205460ff1681565b60185481565b600d60205260009081526040902054600160a060020a031681565b60076020526000908152604090205460ff1681565b60009081526020819052604090206006015490565b600a6020526000908152604090205460ff1681565b6003602090815260009182526040918290208054600180830180548651600261010094831615949094026000190190911692909204601f8101869004860283018601909652858252600160a060020a03909216949293909290830182828015611efc5780601f10611ed157610100808354040283529160200191611efc565b820191906000526020600020905b815481529060010190602001808311611edf57829003601f168201915b505050506002838101546003850180546040805160206001841615610100026000190190931695909504601f810183900483028601830190915280855295969295929450909190830182828015611f945780601f10611f6957610100808354040283529160200191611f94565b820191906000526020600020905b815481529060010190602001808311611f7757829003601f168201915b5050505060048301805460408051602060026001851615610100026000190190941693909304601f81018490048402820184019092528181529495949350908301828280156120245780601f10611ff957610100808354040283529160200191612024565b820191906000526020600020905b81548152906001019060200180831161200757829003601f168201915b5050505060058301805460408051602060026001851615610100026000190190941693909304601f81018490048402820184019092528181529495949350908301828280156120b45780601f10612089576101008083540402835291602001916120b4565b820191906000526020600020905b81548152906001019060200180831161209757829003601f168201915b5050505060068301805460408051602060026001851615610100026000190190941693909304601f81018490048402820184019092528181529495949350908301828280156121445780601f1061211957610100808354040283529160200191612144565b820191906000526020600020905b81548152906001019060200180831161212757829003601f168201915b5050505060078301805460408051602060026001851615610100026000190190941693909304601f81018490048402820184019092528181529495949350908301828280156121d45780601f106121a9576101008083540402835291602001916121d4565b820191906000526020600020905b8154815290600101906020018083116121b757829003601f168201915b5050505050905088565b60046020526000908152604090208054600182015460028301546003909301549192600160a060020a039182169291169084565b3360009081526005602052604090205460ff161561222f57600080fd5b3360008181526005602090815260408083208054600160ff1991821681179092556007845282852080549091168217905560198054820190558151610100810183528581528084018f81528184018f9052606082018e9052608082018d905260a082018c905260c082018a905260e0820189905295855260038452919093208151815473ffffffffffffffffffffffffffffffffffffffff1916600160a060020a03909116178155935180519194936122ee939085019291019061378e565b50604082015160028201556060820151805161231491600384019160209091019061378e565b506080820151805161233091600484019160209091019061378e565b5060a0820151805161234c91600584019160209091019061378e565b5060c0820151805161236891600684019160209091019061378e565b5060e0820151805161238491600784019160209091019061378e565b5090505060153390806001815401808255809150509060018203906000526020600020016000909192909190916101000a815481600160a060020a030219169083600160a060020a031602179055505060016006600033600160a060020a0316600160a060020a0316815260200190815260200160002060006101000a81548160ff0219169083151502179055506018600081548092919060010191905055506040518060e0016040528033600160a060020a031681526020018a8152602001898152602001878152602001868152602001858152602001848152506002600033600160a060020a0316600160a060020a0316815260200190815260200160002060008201518160000160006101000a815481600160a060020a030219169083600160a060020a0316021790555060208201518160010190805190602001906124ce92919061378e565b5060408201516002820155606082015180516124f491600384019160209091019061378e565b506080820151805161251091600484019160209091019061378e565b5060a0820151805161252c91600584019160209091019061378e565b5060c0820151805161254891600684019160209091019061378e565b50506014805460018082019092557fce6d7b5282bd9a3661ae061feed1dbda4e52ab073b1f9285be6e155d9c38d4ec0180543373ffffffffffffffffffffffffffffffffffffffff19918216811790925560008281526011602090815260408083208054909416600160a060020a0389161790935560129052819020805460ff191690931790925590517f2a4f530ae55f002aac4686b649762fc68e96bd8b80ac835b41777145c94e1f8a925061260191908490613f99565b60405180910390a1505050505050505050565b600160a060020a0381166000908152600260208181526040808420808401546001808301805485519281161561010002600019011696909604601f8101869004860282018601909452838152606096958795869586958695939460038201936004830193600584019360060192918891908301828280156126d65780601f106126ab576101008083540402835291602001916126d6565b820191906000526020600020905b8154815290600101906020018083116126b957829003601f168201915b5050875460408051602060026001851615610100026000190190941693909304601f8101849004840282018401909252818152959b50899450925084019050828280156127645780601f1061273957610100808354040283529160200191612764565b820191906000526020600020905b81548152906001019060200180831161274757829003601f168201915b5050865460408051602060026001851615610100026000190190941693909304601f8101849004840282018401909252818152959950889450925084019050828280156127f25780601f106127c7576101008083540402835291602001916127f2565b820191906000526020600020905b8154815290600101906020018083116127d557829003601f168201915b5050855460408051602060026001851615610100026000190190941693909304601f8101849004840282018401909252818152959850879450925084019050828280156128805780601f1061285557610100808354040283529160200191612880565b820191906000526020600020905b81548152906001019060200180831161286357829003601f168201915b5050845460408051602060026001851615610100026000190190941693909304601f81018490048402820184019092528181529597508694509250840190508282801561290e5780601f106128e35761010080835404028352916020019161290e565b820191906000526020600020905b8154815290600101906020018083116128f157829003601f168201915b5050505050905095509550955095509550955091939550919395565b600160a060020a03811660009081526008602052604081205460ff16806112675750600160a060020a0382166000908152600a602052604090205460ff1615610ece57506001610ece565b60195481565b612984336130fe565b61298d57600080fd5b6000918252600d60208181526040808520805486845291909520600901805473ffffffffffffffffffffffffffffffffffffffff19908116600160a060020a039384161790915592909152835492169116179055565b600160a060020a03811660009081526005602052604081205460ff1615610ece57506001610ece565b3360009081526005602052604090205460ff168015612a41575033600081815260026020526040902054600160a060020a0316145b612a4a57600080fd5b3360009081526002602090815260409091208651612a709260019092019188019061378e565b503360009081526002602081815260409092209081018690558451612a9d9260039092019186019061378e565b503360009081526002602090815260409091208351612ac49260049092019185019061378e565b503360009081526002602090815260409091208251612aeb9260059092019184019061378e565b505050505050565b60008181526010602052604081205460ff1615610ece57506001610ece565b60148181548110612b1f57fe5b600091825260209091200154600160a060020a0316905081565b612b42336130fe565b612b4b57600080fd5b600160a060020a03811660009081526008602090815260408083208054600160ff199182168117909255600a9093529281902080549092169092179055517f6a6455914f452787eb3985452aceedc1000fb545e394eb3b370e3d08958e0a5b906115e3908390613f8b565b600081815260208181526040918290206002908101805484516001821615610100026000190190911692909204601f810184900484028301840190945283825260609391929091908301828280156110f95780601f106110ce576101008083540402835291602001916110f9565b612c2d336135bf565b8015612c3d5750612c3d3361292a565b612c4657600080fd5b6000908152600e60205260409020805460ff19166001179055565b606060148054806020026020016040519081016040528092919081815260200182805480156114fd57602002820191906000526020600020908154600160a060020a031681526001909101906020018083116114df575050505050905090565b60185490565b6002602081815260009283526040928390208054600180830180548751601f60001994831615610100029490940190911696909604918201859004850286018501909652808552600160a060020a0390911694919392830182828015612d6e5780601f10612d4357610100808354040283529160200191612d6e565b820191906000526020600020905b815481529060010190602001808311612d5157829003601f168201915b505050506002838101546003850180546040805160206001841615610100026000190190931695909504601f810183900483028601830190915280855295969295929450909190830182828015612e065780601f10612ddb57610100808354040283529160200191612e06565b820191906000526020600020905b815481529060010190602001808311612de957829003601f168201915b5050505060048301805460408051602060026001851615610100026000190190941693909304601f8101849004840282018401909252818152949594935090830182828015612e965780601f10612e6b57610100808354040283529160200191612e96565b820191906000526020600020905b815481529060010190602001808311612e7957829003601f168201915b5050505060058301805460408051602060026001851615610100026000190190941693909304601f8101849004840282018401909252818152949594935090830182828015612f265780601f10612efb57610100808354040283529160200191612f26565b820191906000526020600020905b815481529060010190602001808311612f0957829003601f168201915b5050505060068301805460408051602060026001851615610100026000190190941693909304601f8101849004840282018401909252818152949594935090830182828015612fb65780601f10612f8b57610100808354040283529160200191612fb6565b820191906000526020600020905b815481529060010190602001808311612f9957829003601f168201915b5050505050905087565b600160208181526000928352604092839020805481840180548651600296821615610100026000190190911695909504601f8101859004850286018501909652858552909491939290919083018282801561305c5780601f106130315761010080835404028352916020019161305c565b820191906000526020600020905b81548152906001019060200180831161303f57829003601f168201915b505050506002838101546003850180546040805160206001841615610100026000190190931695909504601f8101839004830286018301909152808552959692959294509091908301828280156130f45780601f106130c9576101008083540402835291602001916130f4565b820191906000526020600020905b8154815290600101906020018083116130d757829003601f168201915b5050505050905084565b601354600090600160a060020a0383811691161415611ac157506001610ece565b613128336130fe565b61313157600080fd5b600160a060020a03811660009081526009602090815260408083208054600160ff199182168117909255600b9093529281902080549092169092179055517faf77f8960cf590e245ec8b6d41c193a5dcacad8986ae4eb57ac9e5be7b6af031906115e3908390613f8b565b6000602081815291815260409081902080546001808301546002808501805487519481161561010002600019011691909104601f8101889004880284018801909652858352929590949192919083018282801561323a5780601f1061320f5761010080835404028352916020019161323a565b820191906000526020600020905b81548152906001019060200180831161321d57829003601f168201915b5050505060038301805460408051602060026001851615610100026000190190941693909304601f81018490048402820184019092528181529495949350908301828280156132ca5780601f1061329f576101008083540402835291602001916132ca565b820191906000526020600020905b8154815290600101906020018083116132ad57829003601f168201915b505050600484015460058501546006860154600787018054604080516020601f6002600019610100600188161502019095169490940493840181900481028201810190925282815298999598949750929550909183018282801561336f5780601f106133445761010080835404028352916020019161336f565b820191906000526020600020905b81548152906001019060200180831161335257829003601f168201915b5050505060088301805460408051602060026001851615610100026000190190941693909304601f81018490048402820184019092528181529495949350908301828280156133ff5780601f106133d4576101008083540402835291602001916133ff565b820191906000526020600020905b8154815290600101906020018083116133e257829003601f168201915b50505060099093015491925050600160a060020a03168a565b60086020526000908152604090205460ff1681565b613436336135bf565b801561344657506134463361292a565b61344f57600080fd5b60168054600190810191829055604080516101408101825283815260208082018d81528284018d8152606084018d9052608084018c905260a084018b905260c084018a905260e0840189905261010084018890523361012085015260009687528683529390952082518155945193850193909355905180519193926134dc9260028501929091019061378e565b50606082015180516134f891600384019160209091019061378e565b506080820151600482015560a0820151600582015560c0820151600682015560e0820151805161353291600784019160209091019061378e565b50610100820151805161354f91600884019160209091019061378e565b50610120919091015160099091018054600160a060020a0390921673ffffffffffffffffffffffffffffffffffffffff199283161790556016546000908152600d602052604090208054909116331790555050505050505050565b60009081526020819052604090206004015490565b600160a060020a03811660009081526006602052604081205460ff1615610ece57506001610ece565b60195490565b60158181548110612b1f57fe5b600090815260046020908152604080832060018101546002820154600390920154600e9094529190932054600160a060020a0391821694919093169260ff1690565b61364633611105565b801561365657506136563361292a565b61365f57600080fd5b601a8054600190810180835560408051608081018252828152600160a060020a03808816602080840191825233848601908152606085018a8152600097885260048352868820955186559251858901805491861673ffffffffffffffffffffffffffffffffffffffff199283161790559051600286018054919095169116179092555160039092019190915584548352600e8152818320805460ff1990811690915594548352600f9052908190208054909316909117909155517fc67eb70629da758128cec22f7e36ad0676066ad4df9b66e8ba58a30c1ab4075b90611bc9908490613f8b565b60056020526000908152604090205460ff1681565b613764336130fe565b61376d57600080fd5b6000908152600c60205260409020805460ff19166001179055565b601a5481565b828054600181600116156101000203166002900490600052602060002090601f016020900481019282601f106137cf57805160ff19168380011785556137fc565b828001600101855582156137fc579182015b828111156137fc5782518255916020019190600101906137e1565b5061380892915061380c565b5090565b61100691905b808211156138085760008155600101613812565b80356138318161447e565b92915050565b600082601f83011261384857600080fd5b813561385b613856826143d0565b6143a9565b9150808252602083016020830185838301111561387757600080fd5b613882838284614438565b50505092915050565b803561383181614495565b6000602082840312156138a857600080fd5b60006138b48484613826565b949350505050565b600080604083850312156138cf57600080fd5b60006138db8585613826565b92505060206138ec8582860161388b565b9150509250929050565b600080600080600060a0868803121561390e57600080fd5b853567ffffffffffffffff81111561392557600080fd5b61393188828901613837565b95505060206139428882890161388b565b945050604086013567ffffffffffffffff81111561395f57600080fd5b61396b88828901613837565b935050606086013567ffffffffffffffff81111561398857600080fd5b61399488828901613837565b925050608086013567ffffffffffffffff8111156139b157600080fd5b6139bd88828901613837565b9150509295509295909350565b60008060008060008060c087890312156139e357600080fd5b863567ffffffffffffffff8111156139fa57600080fd5b613a0689828a01613837565b9650506020613a1789828a0161388b565b955050604087013567ffffffffffffffff811115613a3457600080fd5b613a4089828a01613837565b945050606087013567ffffffffffffffff811115613a5d57600080fd5b613a6989828a01613837565b935050608087013567ffffffffffffffff811115613a8657600080fd5b613a9289828a01613837565b92505060a087013567ffffffffffffffff811115613aaf57600080fd5b613abb89828a01613837565b9150509295509295509295565b600080600080600080600060e0888a031215613ae357600080fd5b873567ffffffffffffffff811115613afa57600080fd5b613b068a828b01613837565b9750506020613b178a828b0161388b565b965050604088013567ffffffffffffffff811115613b3457600080fd5b613b408a828b01613837565b955050606088013567ffffffffffffffff811115613b5d57600080fd5b613b698a828b01613837565b945050608088013567ffffffffffffffff811115613b8657600080fd5b613b928a828b01613837565b93505060a088013567ffffffffffffffff811115613baf57600080fd5b613bbb8a828b01613837565b92505060c088013567ffffffffffffffff811115613bd857600080fd5b613be48a828b01613837565b91505092959891949750929550565b60008060008060008060008060006101208a8c031215613c1257600080fd5b893567ffffffffffffffff811115613c2957600080fd5b613c358c828d01613837565b9950506020613c468c828d0161388b565b98505060408a013567ffffffffffffffff811115613c6357600080fd5b613c6f8c828d01613837565b97505060608a013567ffffffffffffffff811115613c8c57600080fd5b613c988c828d01613837565b96505060808a013567ffffffffffffffff811115613cb557600080fd5b613cc18c828d01613837565b95505060a08a013567ffffffffffffffff811115613cde57600080fd5b613cea8c828d01613837565b94505060c08a013567ffffffffffffffff811115613d0757600080fd5b613d138c828d01613837565b93505060e08a013567ffffffffffffffff811115613d3057600080fd5b613d3c8c828d01613837565b925050610100613d4e8c828d01613826565b9150509295985092959850929598565b600060208284031215613d7057600080fd5b60006138b4848461388b565b60008060408385031215613d8f57600080fd5b6000613d9b858561388b565b92505060206138ec85828601613826565b600080600080600080600080610100898b031215613dc957600080fd5b6000613dd58b8b61388b565b985050602089013567ffffffffffffffff811115613df257600080fd5b613dfe8b828c01613837565b975050604089013567ffffffffffffffff811115613e1b57600080fd5b613e278b828c01613837565b9650506060613e388b828c0161388b565b9550506080613e498b828c0161388b565b94505060a0613e5a8b828c0161388b565b93505060c089013567ffffffffffffffff811115613e7757600080fd5b613e838b828c01613837565b92505060e089013567ffffffffffffffff811115613ea057600080fd5b613eac8b828c01613837565b9150509295985092959890939650565b6000613ec88383613edf565b505060200190565b613ed981614427565b82525050565b613ed98161440b565b6000613ef3826143fe565b613efd8185614402565b9350613f08836143f8565b8060005b83811015613f36578151613f208882613ebc565b9750613f2b836143f8565b925050600101613f0c565b509495945050505050565b613ed981614416565b6000613f55826143fe565b613f5f8185614402565b9350613f6f818560208601614444565b613f7881614474565b9093019392505050565b613ed981611006565b602081016138318284613edf565b60408101613fa78285613ed0565b613fb46020830184613edf565b9392505050565b60408101613fc98285613ed0565b613fb46020830184613ed0565b60808101613fe48287613edf565b613ff16020830186613edf565b613ffe6040830185613f82565b61400b6060830184613f41565b95945050505050565b60e08101614022828a613edf565b81810360208301526140348189613f4a565b90506140436040830188613f82565b81810360608301526140558187613f4a565b905081810360808301526140698186613f4a565b905081810360a083015261407d8185613f4a565b905081810360c08301526140918184613f4a565b9998505050505050505050565b61010081016140ad828b613edf565b81810360208301526140bf818a613f4a565b90506140ce6040830189613f82565b81810360608301526140e08188613f4a565b905081810360808301526140f48187613f4a565b905081810360a08301526141088186613f4a565b905081810360c083015261411c8185613f4a565b905081810360e08301526141308184613f4a565b9a9950505050505050505050565b60208082528101613fb48184613ee8565b602081016138318284613f41565b60208082528101613fb48184613f4a565b60e0808252810161417f818a613f4a565b905081810360208301526141938189613f4a565b905081810360408301526141a78188613f4a565b905081810360608301526141bb8187613f4a565b905081810360808301526141cf8186613f4a565b90506141de60a0830185613f82565b81810360c08301526140918184613f4a565b60c080825281016142018189613f4a565b90506142106020830188613f82565b81810360408301526142228187613f4a565b905081810360608301526142368186613f4a565b9050818103608083015261424a8185613f4a565b905081810360a083015261425e8184613f4a565b98975050505050505050565b602081016138318284613f82565b608081016142868287613f82565b6142936020830186613edf565b6142a06040830185613edf565b61400b6060830184613f82565b608081016142bb8287613f82565b81810360208301526142cd8186613f4a565b90506142dc6040830185613f82565b81810360608301526142ee8184613f4a565b9695505050505050565b6101408101614307828d613f82565b614314602083018c613f82565b8181036040830152614326818b613f4a565b9050818103606083015261433a818a613f4a565b90506143496080830189613f82565b61435660a0830188613f82565b61436360c0830187613f82565b81810360e08301526143758186613f4a565b905081810361010083015261438a8185613f4a565b905061439a610120830184613edf565b9b9a5050505050505050505050565b60405181810167ffffffffffffffff811182821017156143c857600080fd5b604052919050565b600067ffffffffffffffff8211156143e757600080fd5b506020601f91909101601f19160190565b60200190565b5190565b90815260200190565b60006138318261441b565b151590565b600160a060020a031690565b60006138318260006138318261440b565b82818337506000910152565b60005b8381101561445f578181015183820152602001614447565b8381111561446e576000848401525b50505050565b601f01601f191690565b6144878161440b565b811461449257600080fd5b50565b6144878161100656fea365627a7a723158208fb6dbd16559d67ad50075dd4df10826332eed05a0be30ef6e84a24cd55a6ee26c6578706572696d656e74616cf564736f6c63430005100040",
  "source": "pragma solidity >=0.5.2;\r\npragma experimental ABIEncoderV2;\r\n\r\ncontract Land {\r\n    struct Landreg {\r\n        uint256 id;\r\n        uint256 area;\r\n        string city;\r\n        string state;\r\n        uint256 landPrice;\r\n        uint256 propertyPID;\r\n        uint256 physicalSurveyNumber;\r\n        string ipfsHash;\r\n        string document;\r\n        address old_owner;\r\n    }\r\n\r\n    struct Buyer {\r\n        address id;\r\n        string name;\r\n        uint256 age;\r\n        string city;\r\n        string aadharNumber;\r\n        string panNumber;\r\n        string document;\r\n        string email;\r\n    }\r\n\r\n    struct Seller {\r\n        address id;\r\n        string name;\r\n        uint256 age;\r\n        string aadharNumber;\r\n        string panNumber;\r\n        string landsOwned;\r\n        string document;\r\n    }\r\n\r\n    struct LandInspector {\r\n        uint256 id;\r\n        string name;\r\n        uint256 age;\r\n        string designation;\r\n    }\r\n\r\n    struct LandRequest {\r\n        uint256 reqId;\r\n        address sellerId;\r\n        address buyerId;\r\n        uint256 landId;\r\n        // bool requestStatus;\r\n        // bool requested;\r\n    }\r\n\r\n    //key value pairs\r\n    mapping(uint256 => Landreg) public lands;\r\n    mapping(uint256 => LandInspector) public InspectorMapping;\r\n    mapping(address => Seller) public SellerMapping;\r\n    mapping(address => Buyer) public BuyerMapping;\r\n    mapping(uint256 => LandRequest) public RequestsMapping;\r\n\r\n    mapping(address => bool) public RegisteredAddressMapping;\r\n    mapping(address => bool) public RegisteredSellerMapping;\r\n    mapping(address => bool) public RegisteredBuyerMapping;\r\n    mapping(address => bool) public SellerVerification;\r\n    mapping(address => bool) public SellerRejection;\r\n    mapping(address => bool) public BuyerVerification;\r\n    mapping(address => bool) public BuyerRejection;\r\n    mapping(uint256 => bool) public LandVerification;\r\n    mapping(uint256 => address) public LandOwner;\r\n    mapping(uint256 => bool) public RequestStatus;\r\n    mapping(uint256 => bool) public RequestedLands;\r\n    mapping(uint256 => bool) public PaymentReceived;\r\n    mapping(address=>address) public successors;\r\n    mapping(address => bool) public isAlive;\r\n\r\n    address public Land_Inspector;\r\n    address[] public sellers;\r\n    address[] public buyers;\r\n\r\n    uint256 public landsCount;\r\n    uint256 public inspectorsCount;\r\n    uint256 public sellersCount;\r\n    uint256 public buyersCount;\r\n    uint256 public requestsCount;\r\n\r\n    event Registration(address _registrationId,address _succ);\r\n    event AddingLand(uint256 indexed _landId);\r\n    event Landrequested(address _sellerId);\r\n    event requestApproved(address _buyerId);\r\n    event Verified(address _id);\r\n    event Rejected(address _id);\r\n    event Succession(address _Owner);\r\n\r\n    constructor() public {\r\n        Land_Inspector = msg.sender;\r\n        addLandInspector(\"Inspector 1\", 45, \"Tehsil Manager\");\r\n    }\r\n\r\n        function getPrevious(uint i) public view returns (address){\r\n        return lands[i].old_owner;\r\n    }\r\n\r\n    function isSame(uint i) public view returns (bool){\r\n        if(lands[i].old_owner==LandOwner[i])\r\n            return true;\r\n        else return false;\r\n    }\r\n\r\n    // function getDate(uint i) public view returns (uint){\r\n    //     return lands[i].date;\r\n    // }\r\n\r\n    function addLandInspector(\r\n        string memory _name,\r\n        uint256 _age,\r\n        string memory _designation\r\n    ) private {\r\n        inspectorsCount++;\r\n        InspectorMapping[inspectorsCount] = LandInspector(\r\n            inspectorsCount,\r\n            _name,\r\n            _age,\r\n            _designation\r\n        );\r\n    }\r\n\r\n    function getLandsCount() public view returns (uint256) {\r\n        return landsCount;\r\n    }\r\n\r\n    function getBuyersCount() public view returns (uint256) {\r\n        return buyersCount;\r\n    }\r\n\r\n    function getSellersCount() public view returns (uint256) {\r\n        return sellersCount;\r\n    }\r\n\r\n    function getRequestsCount() public view returns (uint256) {\r\n        return requestsCount;\r\n    }\r\n\r\n    function getArea(uint256 i) public view returns (uint256) {\r\n        return lands[i].area;\r\n    }\r\n\r\n    function getCity(uint256 i) public view returns (string memory) {\r\n        return lands[i].city;\r\n    }\r\n\r\n    function getState(uint256 i) public view returns (string memory) {\r\n        return lands[i].state;\r\n    }\r\n\r\n    // function getStatus(uint i) public view returns (bool) {\r\n    //     return lands[i].verificationStatus;\r\n    // }\r\n    function getPrice(uint256 i) public view returns (uint256) {\r\n        return lands[i].landPrice;\r\n    }\r\n\r\n    function getPID(uint256 i) public view returns (uint256) {\r\n        return lands[i].propertyPID;\r\n    }\r\n\r\n    function getSurveyNumber(uint256 i) public view returns (uint256) {\r\n        return lands[i].physicalSurveyNumber;\r\n    }\r\n\r\n    function getImage(uint256 i) public view returns (string memory) {\r\n        return lands[i].ipfsHash;\r\n    }\r\n\r\n    function getDocument(uint256 i) public view returns (string memory) {\r\n        return lands[i].document;\r\n    }\r\n\r\n    function getLandOwner(uint256 id) public view returns (address) {\r\n        return LandOwner[id];\r\n    }\r\n\r\n    function getAlive(address _Owner) public view returns (bool)\r\n    {\r\n        return isAlive[_Owner];\r\n    }\r\n\r\n    function verifySeller(address _sellerId) public {\r\n        require(isLandInspector(msg.sender));\r\n\r\n        SellerVerification[_sellerId] = true;\r\n        BuyerVerification[_sellerId] = true;\r\n        emit Verified(_sellerId);\r\n    }\r\n\r\n    function rejectSeller(address _sellerId) public {\r\n        require(isLandInspector(msg.sender));\r\n\r\n        SellerRejection[_sellerId] = true;\r\n        BuyerRejection[_sellerId] = true;\r\n        emit Rejected(_sellerId);\r\n    }\r\n\r\n    function verifyBuyer(address _buyerId) public {\r\n        require(isLandInspector(msg.sender));\r\n\r\n        BuyerVerification[_buyerId] = true;\r\n        emit Verified(_buyerId);\r\n    }\r\n\r\n    function rejectBuyer(address _buyerId) public {\r\n        require(isLandInspector(msg.sender));\r\n\r\n        BuyerRejection[_buyerId] = true;\r\n        emit Rejected(_buyerId);\r\n    }\r\n\r\n    function verifyLand(uint256 _landId) public {\r\n        require(isLandInspector(msg.sender));\r\n\r\n        LandVerification[_landId] = true;\r\n    }\r\n\r\n    function isLandVerified(uint256 _id) public view returns (bool) {\r\n        if (LandVerification[_id]) {\r\n            return true;\r\n        }\r\n    }\r\n\r\n    function isVerified(address _id) public view returns (bool) {\r\n        if (SellerVerification[_id] || BuyerVerification[_id]) {\r\n            return true;\r\n        }\r\n    }\r\n\r\n    function isRejected(address _id) public view returns (bool) {\r\n        if (SellerRejection[_id] || BuyerRejection[_id]) {\r\n            return true;\r\n        }\r\n    }\r\n\r\n    function isSeller(address _id) public view returns (bool) {\r\n        if (RegisteredSellerMapping[_id]) {\r\n            return true;\r\n        }\r\n    }\r\n\r\n    function isLandInspector(address _id) public view returns (bool) {\r\n        if (Land_Inspector == _id) {\r\n            return true;\r\n        } else {\r\n            return false;\r\n        }\r\n    }\r\n\r\n    function isBuyer(address _id) public view returns (bool) {\r\n        if (RegisteredBuyerMapping[_id]) {\r\n            return true;\r\n        }\r\n    }\r\n\r\n    function isRegistered(address _id) public view returns (bool) {\r\n        if (RegisteredAddressMapping[_id]) {\r\n            return true;\r\n        }\r\n    }\r\n\r\n        function addLand(uint _area, string memory _city,string memory _state, uint landPrice, uint _propertyPID,uint _surveyNum,string memory _ipfsHash, string memory _document) public {\r\n        require((isSeller(msg.sender)) && (isVerified(msg.sender)));\r\n        landsCount++;\r\n        lands[landsCount] = Landreg(landsCount, _area, _city, _state, landPrice,_propertyPID, _surveyNum, _ipfsHash, _document,msg.sender);\r\n        LandOwner[landsCount] = msg.sender;\r\n        // emit AddingLand(landsCount);\r\n    }\r\n\r\n    //registration of seller\r\n    function registerSeller(\r\n        string memory _name,\r\n        uint256 _age,\r\n        string memory _aadharNumber,\r\n        string memory _panNumber,\r\n        string memory _landsOwned,\r\n        string memory _document\r\n    ) public {\r\n        //require that Seller is not already registered\r\n        require(!RegisteredAddressMapping[msg.sender]);\r\n\r\n        RegisteredAddressMapping[msg.sender] = true;\r\n        RegisteredSellerMapping[msg.sender] = true;\r\n        sellersCount++;\r\n        SellerMapping[msg.sender] = Seller(\r\n            msg.sender,\r\n            _name,\r\n            _age,\r\n            _aadharNumber,\r\n            _panNumber,\r\n            _landsOwned,\r\n            _document\r\n        );\r\n        sellers.push(msg.sender);\r\n        emit Registration(msg.sender,msg.sender);\r\n    }\r\n\r\n    function updateSeller(\r\n        string memory _name,\r\n        uint256 _age,\r\n        string memory _aadharNumber,\r\n        string memory _panNumber,\r\n        string memory _landsOwned\r\n    ) public {\r\n        //require that Seller is already registered\r\n        require(\r\n            RegisteredAddressMapping[msg.sender] &&\r\n                (SellerMapping[msg.sender].id == msg.sender)\r\n        );\r\n\r\n        SellerMapping[msg.sender].name = _name;\r\n        SellerMapping[msg.sender].age = _age;\r\n        SellerMapping[msg.sender].aadharNumber = _aadharNumber;\r\n        SellerMapping[msg.sender].panNumber = _panNumber;\r\n        SellerMapping[msg.sender].landsOwned = _landsOwned;\r\n    }\r\n\r\n    function getSeller() public view returns (address[] memory) {\r\n        return (sellers);\r\n    }\r\n\r\n    function getSellerDetails(address i)\r\n        public\r\n        view\r\n        returns (\r\n            string memory,\r\n            uint256,\r\n            string memory,\r\n            string memory,\r\n            string memory,\r\n            string memory\r\n        )\r\n    {\r\n        return (\r\n            SellerMapping[i].name,\r\n            SellerMapping[i].age,\r\n            SellerMapping[i].aadharNumber,\r\n            SellerMapping[i].panNumber,\r\n            SellerMapping[i].landsOwned,\r\n            SellerMapping[i].document\r\n        );\r\n    }\r\n\r\n    function registerBuyer(\r\n        string memory _name,\r\n        uint256 _age,\r\n        string memory _city,\r\n        string memory _aadharNumber,\r\n        string memory _panNumber,\r\n        string memory _document,\r\n        string memory _email\r\n    ) public {\r\n        //require that Buyer is not already registered\r\n        // require(!RegisteredAddressMapping[msg.sender]);\r\n\r\n        RegisteredAddressMapping[msg.sender] = true;\r\n        RegisteredBuyerMapping[msg.sender] = true;\r\n        buyersCount++;\r\n        BuyerMapping[msg.sender] = Buyer(\r\n            msg.sender,\r\n            _name,\r\n            _age,\r\n            _city,\r\n            _aadharNumber,\r\n            _panNumber,\r\n            _document,\r\n            _email\r\n        );\r\n        buyers.push(msg.sender);\r\n\r\n        emit Registration(msg.sender,msg.sender);\r\n    }\r\n\r\n    function registerUser(\r\n        string memory _name,\r\n        uint256 _age,\r\n        string memory _city,\r\n        string memory _aadharNumber,\r\n        string memory _panNumber,\r\n        string memory _landsOwned,\r\n        string memory _document,\r\n        string memory _email,\r\n        address _succ\r\n    ) public {\r\n        // require that Buyer is not already registered\r\n        require(!RegisteredAddressMapping[msg.sender]);\r\n\r\n        RegisteredAddressMapping[msg.sender] = true;\r\n        RegisteredBuyerMapping[msg.sender] = true;\r\n        buyersCount++;\r\n        BuyerMapping[msg.sender] = Buyer(\r\n            msg.sender,\r\n            _name,\r\n            _age,\r\n            _city,\r\n            _aadharNumber,\r\n            _panNumber,\r\n            _document,\r\n            _email\r\n        );\r\n        buyers.push(msg.sender);\r\n        RegisteredSellerMapping[msg.sender] = true;\r\n        sellersCount++;\r\n        SellerMapping[msg.sender] = Seller(\r\n            msg.sender,\r\n            _name,\r\n            _age,\r\n            _aadharNumber,\r\n            _panNumber,\r\n            _landsOwned,\r\n            _document\r\n        );\r\n        sellers.push(msg.sender);\r\n        successors[msg.sender]=_succ;\r\n        isAlive[msg.sender]=true;\r\n        emit Registration(msg.sender,_succ);\r\n    }\r\n\r\n    function updateBuyer(\r\n        string memory _name,\r\n        uint256 _age,\r\n        string memory _city,\r\n        string memory _aadharNumber,\r\n        string memory _email,\r\n        string memory _panNumber\r\n    ) public {\r\n        //require that Buyer is already registered\r\n        require(\r\n            RegisteredAddressMapping[msg.sender] &&\r\n                (BuyerMapping[msg.sender].id == msg.sender)\r\n        );\r\n\r\n        BuyerMapping[msg.sender].name = _name;\r\n        BuyerMapping[msg.sender].age = _age;\r\n        BuyerMapping[msg.sender].city = _city;\r\n        BuyerMapping[msg.sender].aadharNumber = _aadharNumber;\r\n        BuyerMapping[msg.sender].email = _email;\r\n        BuyerMapping[msg.sender].panNumber = _panNumber;\r\n    }\r\n\r\n    function getBuyer() public view returns (address[] memory) {\r\n        return (buyers);\r\n    }\r\n\r\n    function getSuccessor(address _Owner) public view returns (address)\r\n    {\r\n\r\n        return successors[_Owner];\r\n    } \r\n\r\n    function getBuyerDetails(address i)\r\n        public\r\n        view\r\n        returns (\r\n            string memory,\r\n            string memory,\r\n            string memory,\r\n            string memory,\r\n            string memory,\r\n            uint256,\r\n            string memory\r\n        )\r\n    {\r\n        return (\r\n            BuyerMapping[i].name,\r\n            BuyerMapping[i].city,\r\n            BuyerMapping[i].panNumber,\r\n            BuyerMapping[i].document,\r\n            BuyerMapping[i].email,\r\n            BuyerMapping[i].age,\r\n            BuyerMapping[i].aadharNumber\r\n        );\r\n    }\r\n\r\n    function requestLand(address _sellerId, uint256 _landId) public {\r\n        require(isBuyer(msg.sender) && isVerified(msg.sender));\r\n\r\n        requestsCount++;\r\n        RequestsMapping[requestsCount] = LandRequest(\r\n            requestsCount,\r\n            _sellerId,\r\n            msg.sender,\r\n            _landId\r\n        );\r\n        RequestStatus[requestsCount] = false;\r\n        RequestedLands[requestsCount] = true;\r\n\r\n        emit Landrequested(_sellerId);\r\n    }\r\n\r\n    function getRequestDetails(uint256 i)\r\n        public\r\n        view\r\n        returns (\r\n            address,\r\n            address,\r\n            uint256,\r\n            bool\r\n        )\r\n    {\r\n        return (\r\n            RequestsMapping[i].sellerId,\r\n            RequestsMapping[i].buyerId,\r\n            RequestsMapping[i].landId,\r\n            RequestStatus[i]\r\n        );\r\n    }\r\n\r\n    function isRequested(uint256 _id) public view returns (bool) {\r\n        if (RequestedLands[_id]) {\r\n            return true;\r\n        }\r\n    }\r\n\r\n    function isApproved(uint256 _id) public view returns (bool) {\r\n        if (RequestStatus[_id]) {\r\n            return true;\r\n        }\r\n    }\r\n\r\n    function approveRequest(uint256 _reqId) public {\r\n        require((isSeller(msg.sender)) && (isVerified(msg.sender)));\r\n\r\n        RequestStatus[_reqId] = true;\r\n    }\r\n\r\n        function LandOwnershipTransfer(uint _landId, address _newOwner) public{\r\n        require(isLandInspector(msg.sender));\r\n        lands[_landId].old_owner=LandOwner[_landId];\r\n        LandOwner[_landId] = _newOwner;\r\n    }\r\n\r\n    function isPaid(uint256 _landId) public view returns (bool) {\r\n        if (PaymentReceived[_landId]) {\r\n            return true;\r\n        }\r\n    }\r\n\r\n    function payment(address payable _receiver, uint256 _landId)\r\n        public\r\n        payable\r\n    {\r\n        PaymentReceived[_landId] = true;\r\n        _receiver.transfer(msg.value);\r\n    }\r\n\r\n\r\n    function AfterDeath(address _Owner) public\r\n    {\r\n        require(isLandInspector(msg.sender));\r\n\r\n        isAlive[_Owner]=false;\r\n        uint i;\r\n        for(i=1;i<=landsCount;i++)\r\n        {\r\n            if(LandOwner[i]==_Owner)\r\n            {\r\n\r\n                lands[i].old_owner=LandOwner[i];\r\n                LandOwner[i]=successors[_Owner];\r\n            }\r\n        }\r\n\r\n        emit Succession(_Owner);\r\n\r\n    }\r\n}\r\n",
  "sourcePath": "D:\\CAT\\Land-Locker\\contracts\\Land.sol",
  "compiler": {
    "name": "solc",
    "version": "0.5.16+commit.9c3226ce.Emscripten.clang"
  },
  "schemaVersion": "3.4.7",
  "updatedAt": "2022-12-04T08:15:22.622Z",
  "networkType": "ethereum",
  "devdoc": {
    "methods": {}
  },
  "userdoc": {
    "methods": {}
  }
}