{
  "contractName": "Land",
  "abi": [
    {
      "inputs": [],
      "payable": false,
      "stateMutability": "nonpayable",
      "type": "constructor"
    },
    {
      "anonymous": false,
      "inputs": [
        {
          "indexed": true,
          "internalType": "uint256",
          "name": "_landId",
          "type": "uint256"
        }
      ],
      "name": "AddingLand",
      "type": "event"
    },
    {
      "anonymous": false,
      "inputs": [
        {
          "indexed": false,
          "internalType": "address",
          "name": "_sellerId",
          "type": "address"
        }
      ],
      "name": "Landrequested",
      "type": "event"
    },
    {
      "anonymous": false,
      "inputs": [
        {
          "indexed": false,
          "internalType": "address",
          "name": "_registrationId",
          "type": "address"
        }
      ],
      "name": "Registration",
      "type": "event"
    },
    {
      "anonymous": false,
      "inputs": [
        {
          "indexed": false,
          "internalType": "address",
          "name": "_id",
          "type": "address"
        }
      ],
      "name": "Rejected",
      "type": "event"
    },
    {
      "anonymous": false,
      "inputs": [
        {
          "indexed": false,
          "internalType": "address",
          "name": "_Owner",
          "type": "address"
        }
      ],
      "name": "Succession",
      "type": "event"
    },
    {
      "anonymous": false,
      "inputs": [
        {
          "indexed": false,
          "internalType": "address",
          "name": "_id",
          "type": "address"
        }
      ],
      "name": "Verified",
      "type": "event"
    },
    {
      "anonymous": false,
      "inputs": [
        {
          "indexed": false,
          "internalType": "address",
          "name": "_buyerId",
          "type": "address"
        }
      ],
      "name": "requestApproved",
      "type": "event"
    },
    {
      "constant": true,
      "inputs": [
        {
          "internalType": "address",
          "name": "",
          "type": "address"
        }
      ],
      "name": "BuyerMapping",
      "outputs": [
        {
          "internalType": "address",
          "name": "id",
          "type": "address"
        },
        {
          "internalType": "string",
          "name": "name",
          "type": "string"
        },
        {
          "internalType": "uint256",
          "name": "age",
          "type": "uint256"
        },
        {
          "internalType": "string",
          "name": "city",
          "type": "string"
        },
        {
          "internalType": "string",
          "name": "aadharNumber",
          "type": "string"
        },
        {
          "internalType": "string",
          "name": "panNumber",
          "type": "string"
        },
        {
          "internalType": "string",
          "name": "document",
          "type": "string"
        },
        {
          "internalType": "string",
          "name": "email",
          "type": "string"
        }
      ],
      "payable": false,
      "stateMutability": "view",
      "type": "function"
    },
    {
      "constant": true,
      "inputs": [
        {
          "internalType": "address",
          "name": "",
          "type": "address"
        }
      ],
      "name": "BuyerRejection",
      "outputs": [
        {
          "internalType": "bool",
          "name": "",
          "type": "bool"
        }
      ],
      "payable": false,
      "stateMutability": "view",
      "type": "function"
    },
    {
      "constant": true,
      "inputs": [
        {
          "internalType": "address",
          "name": "",
          "type": "address"
        }
      ],
      "name": "BuyerVerification",
      "outputs": [
        {
          "internalType": "bool",
          "name": "",
          "type": "bool"
        }
      ],
      "payable": false,
      "stateMutability": "view",
      "type": "function"
    },
    {
      "constant": true,
      "inputs": [
        {
          "internalType": "uint256",
          "name": "",
          "type": "uint256"
        }
      ],
      "name": "InspectorMapping",
      "outputs": [
        {
          "internalType": "uint256",
          "name": "id",
          "type": "uint256"
        },
        {
          "internalType": "string",
          "name": "name",
          "type": "string"
        },
        {
          "internalType": "uint256",
          "name": "age",
          "type": "uint256"
        },
        {
          "internalType": "string",
          "name": "designation",
          "type": "string"
        }
      ],
      "payable": false,
      "stateMutability": "view",
      "type": "function"
    },
    {
      "constant": true,
      "inputs": [
        {
          "internalType": "uint256",
          "name": "",
          "type": "uint256"
        }
      ],
      "name": "LandOwner",
      "outputs": [
        {
          "internalType": "address",
          "name": "",
          "type": "address"
        }
      ],
      "payable": false,
      "stateMutability": "view",
      "type": "function"
    },
    {
      "constant": true,
      "inputs": [
        {
          "internalType": "uint256",
          "name": "",
          "type": "uint256"
        }
      ],
      "name": "LandVerification",
      "outputs": [
        {
          "internalType": "bool",
          "name": "",
          "type": "bool"
        }
      ],
      "payable": false,
      "stateMutability": "view",
      "type": "function"
    },
    {
      "constant": true,
      "inputs": [],
      "name": "Land_Inspector",
      "outputs": [
        {
          "internalType": "address",
          "name": "",
          "type": "address"
        }
      ],
      "payable": false,
      "stateMutability": "view",
      "type": "function"
    },
    {
      "constant": true,
      "inputs": [
        {
          "internalType": "uint256",
          "name": "",
          "type": "uint256"
        }
      ],
      "name": "PaymentReceived",
      "outputs": [
        {
          "internalType": "bool",
          "name": "",
          "type": "bool"
        }
      ],
      "payable": false,
      "stateMutability": "view",
      "type": "function"
    },
    {
      "constant": true,
      "inputs": [
        {
          "internalType": "address",
          "name": "",
          "type": "address"
        }
      ],
      "name": "RegisteredAddressMapping",
      "outputs": [
        {
          "internalType": "bool",
          "name": "",
          "type": "bool"
        }
      ],
      "payable": false,
      "stateMutability": "view",
      "type": "function"
    },
    {
      "constant": true,
      "inputs": [
        {
          "internalType": "address",
          "name": "",
          "type": "address"
        }
      ],
      "name": "RegisteredBuyerMapping",
      "outputs": [
        {
          "internalType": "bool",
          "name": "",
          "type": "bool"
        }
      ],
      "payable": false,
      "stateMutability": "view",
      "type": "function"
    },
    {
      "constant": true,
      "inputs": [
        {
          "internalType": "address",
          "name": "",
          "type": "address"
        }
      ],
      "name": "RegisteredSellerMapping",
      "outputs": [
        {
          "internalType": "bool",
          "name": "",
          "type": "bool"
        }
      ],
      "payable": false,
      "stateMutability": "view",
      "type": "function"
    },
    {
      "constant": true,
      "inputs": [
        {
          "internalType": "uint256",
          "name": "",
          "type": "uint256"
        }
      ],
      "name": "RequestStatus",
      "outputs": [
        {
          "internalType": "bool",
          "name": "",
          "type": "bool"
        }
      ],
      "payable": false,
      "stateMutability": "view",
      "type": "function"
    },
    {
      "constant": true,
      "inputs": [
        {
          "internalType": "uint256",
          "name": "",
          "type": "uint256"
        }
      ],
      "name": "RequestedLands",
      "outputs": [
        {
          "internalType": "bool",
          "name": "",
          "type": "bool"
        }
      ],
      "payable": false,
      "stateMutability": "view",
      "type": "function"
    },
    {
      "constant": true,
      "inputs": [
        {
          "internalType": "uint256",
          "name": "",
          "type": "uint256"
        }
      ],
      "name": "RequestsMapping",
      "outputs": [
        {
          "internalType": "uint256",
          "name": "reqId",
          "type": "uint256"
        },
        {
          "internalType": "address",
          "name": "sellerId",
          "type": "address"
        },
        {
          "internalType": "address",
          "name": "buyerId",
          "type": "address"
        },
        {
          "internalType": "uint256",
          "name": "landId",
          "type": "uint256"
        }
      ],
      "payable": false,
      "stateMutability": "view",
      "type": "function"
    },
    {
      "constant": true,
      "inputs": [
        {
          "internalType": "address",
          "name": "",
          "type": "address"
        }
      ],
      "name": "SellerMapping",
      "outputs": [
        {
          "internalType": "address",
          "name": "id",
          "type": "address"
        },
        {
          "internalType": "string",
          "name": "name",
          "type": "string"
        },
        {
          "internalType": "uint256",
          "name": "age",
          "type": "uint256"
        },
        {
          "internalType": "string",
          "name": "aadharNumber",
          "type": "string"
        },
        {
          "internalType": "string",
          "name": "panNumber",
          "type": "string"
        },
        {
          "internalType": "string",
          "name": "landsOwned",
          "type": "string"
        },
        {
          "internalType": "string",
          "name": "document",
          "type": "string"
        }
      ],
      "payable": false,
      "stateMutability": "view",
      "type": "function"
    },
    {
      "constant": true,
      "inputs": [
        {
          "internalType": "address",
          "name": "",
          "type": "address"
        }
      ],
      "name": "SellerRejection",
      "outputs": [
        {
          "internalType": "bool",
          "name": "",
          "type": "bool"
        }
      ],
      "payable": false,
      "stateMutability": "view",
      "type": "function"
    },
    {
      "constant": true,
      "inputs": [
        {
          "internalType": "address",
          "name": "",
          "type": "address"
        }
      ],
      "name": "SellerVerification",
      "outputs": [
        {
          "internalType": "bool",
          "name": "",
          "type": "bool"
        }
      ],
      "payable": false,
      "stateMutability": "view",
      "type": "function"
    },
    {
      "constant": true,
      "inputs": [
        {
          "internalType": "uint256",
          "name": "",
          "type": "uint256"
        }
      ],
      "name": "buyers",
      "outputs": [
        {
          "internalType": "address",
          "name": "",
          "type": "address"
        }
      ],
      "payable": false,
      "stateMutability": "view",
      "type": "function"
    },
    {
      "constant": true,
      "inputs": [],
      "name": "buyersCount",
      "outputs": [
        {
          "internalType": "uint256",
          "name": "",
          "type": "uint256"
        }
      ],
      "payable": false,
      "stateMutability": "view",
      "type": "function"
    },
    {
      "constant": true,
      "inputs": [],
      "name": "inspectorsCount",
      "outputs": [
        {
          "internalType": "uint256",
          "name": "",
          "type": "uint256"
        }
      ],
      "payable": false,
      "stateMutability": "view",
      "type": "function"
    },
    {
      "constant": true,
      "inputs": [
        {
          "internalType": "address",
          "name": "",
          "type": "address"
        }
      ],
      "name": "isAlive",
      "outputs": [
        {
          "internalType": "bool",
          "name": "",
          "type": "bool"
        }
      ],
      "payable": false,
      "stateMutability": "view",
      "type": "function"
    },
    {
      "constant": true,
      "inputs": [
        {
          "internalType": "uint256",
          "name": "",
          "type": "uint256"
        }
      ],
      "name": "lands",
      "outputs": [
        {
          "internalType": "uint256",
          "name": "id",
          "type": "uint256"
        },
        {
          "internalType": "uint256",
          "name": "area",
          "type": "uint256"
        },
        {
          "internalType": "string",
          "name": "city",
          "type": "string"
        },
        {
          "internalType": "string",
          "name": "state",
          "type": "string"
        },
        {
          "internalType": "uint256",
          "name": "landPrice",
          "type": "uint256"
        },
        {
          "internalType": "uint256",
          "name": "propertyPID",
          "type": "uint256"
        },
        {
          "internalType": "uint256",
          "name": "physicalSurveyNumber",
          "type": "uint256"
        },
        {
          "internalType": "string",
          "name": "ipfsHash",
          "type": "string"
        },
        {
          "internalType": "string",
          "name": "document",
          "type": "string"
        },
        {
          "internalType": "address",
          "name": "old_owner",
          "type": "address"
        },
        {
          "internalType": "address",
          "name": "nominee",
          "type": "address"
        }
      ],
      "payable": false,
      "stateMutability": "view",
      "type": "function"
    },
    {
      "constant": true,
      "inputs": [],
      "name": "landsCount",
      "outputs": [
        {
          "internalType": "uint256",
          "name": "",
          "type": "uint256"
        }
      ],
      "payable": false,
      "stateMutability": "view",
      "type": "function"
    },
    {
      "constant": true,
      "inputs": [],
      "name": "requestsCount",
      "outputs": [
        {
          "internalType": "uint256",
          "name": "",
          "type": "uint256"
        }
      ],
      "payable": false,
      "stateMutability": "view",
      "type": "function"
    },
    {
      "constant": true,
      "inputs": [
        {
          "internalType": "uint256",
          "name": "",
          "type": "uint256"
        }
      ],
      "name": "sellers",
      "outputs": [
        {
          "internalType": "address",
          "name": "",
          "type": "address"
        }
      ],
      "payable": false,
      "stateMutability": "view",
      "type": "function"
    },
    {
      "constant": true,
      "inputs": [],
      "name": "sellersCount",
      "outputs": [
        {
          "internalType": "uint256",
          "name": "",
          "type": "uint256"
        }
      ],
      "payable": false,
      "stateMutability": "view",
      "type": "function"
    },
    {
      "constant": true,
      "inputs": [
        {
          "internalType": "uint256",
          "name": "i",
          "type": "uint256"
        }
      ],
      "name": "getPrevious",
      "outputs": [
        {
          "internalType": "address",
          "name": "",
          "type": "address"
        }
      ],
      "payable": false,
      "stateMutability": "view",
      "type": "function"
    },
    {
      "constant": true,
      "inputs": [
        {
          "internalType": "uint256",
          "name": "i",
          "type": "uint256"
        }
      ],
      "name": "isSame",
      "outputs": [
        {
          "internalType": "bool",
          "name": "",
          "type": "bool"
        }
      ],
      "payable": false,
      "stateMutability": "view",
      "type": "function"
    },
    {
      "constant": true,
      "inputs": [],
      "name": "getLandsCount",
      "outputs": [
        {
          "internalType": "uint256",
          "name": "",
          "type": "uint256"
        }
      ],
      "payable": false,
      "stateMutability": "view",
      "type": "function"
    },
    {
      "constant": true,
      "inputs": [],
      "name": "getBuyersCount",
      "outputs": [
        {
          "internalType": "uint256",
          "name": "",
          "type": "uint256"
        }
      ],
      "payable": false,
      "stateMutability": "view",
      "type": "function"
    },
    {
      "constant": true,
      "inputs": [],
      "name": "getSellersCount",
      "outputs": [
        {
          "internalType": "uint256",
          "name": "",
          "type": "uint256"
        }
      ],
      "payable": false,
      "stateMutability": "view",
      "type": "function"
    },
    {
      "constant": true,
      "inputs": [],
      "name": "getRequestsCount",
      "outputs": [
        {
          "internalType": "uint256",
          "name": "",
          "type": "uint256"
        }
      ],
      "payable": false,
      "stateMutability": "view",
      "type": "function"
    },
    {
      "constant": true,
      "inputs": [
        {
          "internalType": "uint256",
          "name": "i",
          "type": "uint256"
        }
      ],
      "name": "getNominee",
      "outputs": [
        {
          "internalType": "address",
          "name": "",
          "type": "address"
        }
      ],
      "payable": false,
      "stateMutability": "view",
      "type": "function"
    },
    {
      "constant": true,
      "inputs": [
        {
          "internalType": "uint256",
          "name": "i",
          "type": "uint256"
        }
      ],
      "name": "getArea",
      "outputs": [
        {
          "internalType": "uint256",
          "name": "",
          "type": "uint256"
        }
      ],
      "payable": false,
      "stateMutability": "view",
      "type": "function"
    },
    {
      "constant": true,
      "inputs": [
        {
          "internalType": "uint256",
          "name": "i",
          "type": "uint256"
        }
      ],
      "name": "getCity",
      "outputs": [
        {
          "internalType": "string",
          "name": "",
          "type": "string"
        }
      ],
      "payable": false,
      "stateMutability": "view",
      "type": "function"
    },
    {
      "constant": true,
      "inputs": [
        {
          "internalType": "uint256",
          "name": "i",
          "type": "uint256"
        }
      ],
      "name": "getState",
      "outputs": [
        {
          "internalType": "string",
          "name": "",
          "type": "string"
        }
      ],
      "payable": false,
      "stateMutability": "view",
      "type": "function"
    },
    {
      "constant": true,
      "inputs": [
        {
          "internalType": "uint256",
          "name": "i",
          "type": "uint256"
        }
      ],
      "name": "getPrice",
      "outputs": [
        {
          "internalType": "uint256",
          "name": "",
          "type": "uint256"
        }
      ],
      "payable": false,
      "stateMutability": "view",
      "type": "function"
    },
    {
      "constant": true,
      "inputs": [
        {
          "internalType": "uint256",
          "name": "i",
          "type": "uint256"
        }
      ],
      "name": "getPID",
      "outputs": [
        {
          "internalType": "uint256",
          "name": "",
          "type": "uint256"
        }
      ],
      "payable": false,
      "stateMutability": "view",
      "type": "function"
    },
    {
      "constant": true,
      "inputs": [
        {
          "internalType": "uint256",
          "name": "i",
          "type": "uint256"
        }
      ],
      "name": "getSurveyNumber",
      "outputs": [
        {
          "internalType": "uint256",
          "name": "",
          "type": "uint256"
        }
      ],
      "payable": false,
      "stateMutability": "view",
      "type": "function"
    },
    {
      "constant": true,
      "inputs": [
        {
          "internalType": "uint256",
          "name": "i",
          "type": "uint256"
        }
      ],
      "name": "getImage",
      "outputs": [
        {
          "internalType": "string",
          "name": "",
          "type": "string"
        }
      ],
      "payable": false,
      "stateMutability": "view",
      "type": "function"
    },
    {
      "constant": true,
      "inputs": [
        {
          "internalType": "uint256",
          "name": "i",
          "type": "uint256"
        }
      ],
      "name": "getDocument",
      "outputs": [
        {
          "internalType": "string",
          "name": "",
          "type": "string"
        }
      ],
      "payable": false,
      "stateMutability": "view",
      "type": "function"
    },
    {
      "constant": true,
      "inputs": [
        {
          "internalType": "uint256",
          "name": "id",
          "type": "uint256"
        }
      ],
      "name": "getLandOwner",
      "outputs": [
        {
          "internalType": "address",
          "name": "",
          "type": "address"
        }
      ],
      "payable": false,
      "stateMutability": "view",
      "type": "function"
    },
    {
      "constant": true,
      "inputs": [
        {
          "internalType": "address",
          "name": "_Owner",
          "type": "address"
        }
      ],
      "name": "getAlive",
      "outputs": [
        {
          "internalType": "bool",
          "name": "",
          "type": "bool"
        }
      ],
      "payable": false,
      "stateMutability": "view",
      "type": "function"
    },
    {
      "constant": false,
      "inputs": [
        {
          "internalType": "address",
          "name": "_sellerId",
          "type": "address"
        }
      ],
      "name": "verifySeller",
      "outputs": [],
      "payable": false,
      "stateMutability": "nonpayable",
      "type": "function"
    },
    {
      "constant": false,
      "inputs": [
        {
          "internalType": "address",
          "name": "_sellerId",
          "type": "address"
        }
      ],
      "name": "rejectSeller",
      "outputs": [],
      "payable": false,
      "stateMutability": "nonpayable",
      "type": "function"
    },
    {
      "constant": false,
      "inputs": [
        {
          "internalType": "address",
          "name": "_buyerId",
          "type": "address"
        }
      ],
      "name": "verifyBuyer",
      "outputs": [],
      "payable": false,
      "stateMutability": "nonpayable",
      "type": "function"
    },
    {
      "constant": false,
      "inputs": [
        {
          "internalType": "address",
          "name": "_buyerId",
          "type": "address"
        }
      ],
      "name": "rejectBuyer",
      "outputs": [],
      "payable": false,
      "stateMutability": "nonpayable",
      "type": "function"
    },
    {
      "constant": false,
      "inputs": [
        {
          "internalType": "uint256",
          "name": "_landId",
          "type": "uint256"
        }
      ],
      "name": "verifyLand",
      "outputs": [],
      "payable": false,
      "stateMutability": "nonpayable",
      "type": "function"
    },
    {
      "constant": true,
      "inputs": [
        {
          "internalType": "uint256",
          "name": "_id",
          "type": "uint256"
        }
      ],
      "name": "isLandVerified",
      "outputs": [
        {
          "internalType": "bool",
          "name": "",
          "type": "bool"
        }
      ],
      "payable": false,
      "stateMutability": "view",
      "type": "function"
    },
    {
      "constant": true,
      "inputs": [
        {
          "internalType": "address",
          "name": "_id",
          "type": "address"
        }
      ],
      "name": "isVerified",
      "outputs": [
        {
          "internalType": "bool",
          "name": "",
          "type": "bool"
        }
      ],
      "payable": false,
      "stateMutability": "view",
      "type": "function"
    },
    {
      "constant": true,
      "inputs": [
        {
          "internalType": "address",
          "name": "_id",
          "type": "address"
        }
      ],
      "name": "isRejected",
      "outputs": [
        {
          "internalType": "bool",
          "name": "",
          "type": "bool"
        }
      ],
      "payable": false,
      "stateMutability": "view",
      "type": "function"
    },
    {
      "constant": true,
      "inputs": [
        {
          "internalType": "address",
          "name": "_id",
          "type": "address"
        }
      ],
      "name": "isSeller",
      "outputs": [
        {
          "internalType": "bool",
          "name": "",
          "type": "bool"
        }
      ],
      "payable": false,
      "stateMutability": "view",
      "type": "function"
    },
    {
      "constant": true,
      "inputs": [
        {
          "internalType": "address",
          "name": "_id",
          "type": "address"
        }
      ],
      "name": "isLandInspector",
      "outputs": [
        {
          "internalType": "bool",
          "name": "",
          "type": "bool"
        }
      ],
      "payable": false,
      "stateMutability": "view",
      "type": "function"
    },
    {
      "constant": true,
      "inputs": [
        {
          "internalType": "address",
          "name": "_id",
          "type": "address"
        }
      ],
      "name": "isBuyer",
      "outputs": [
        {
          "internalType": "bool",
          "name": "",
          "type": "bool"
        }
      ],
      "payable": false,
      "stateMutability": "view",
      "type": "function"
    },
    {
      "constant": true,
      "inputs": [
        {
          "internalType": "address",
          "name": "_id",
          "type": "address"
        }
      ],
      "name": "isRegistered",
      "outputs": [
        {
          "internalType": "bool",
          "name": "",
          "type": "bool"
        }
      ],
      "payable": false,
      "stateMutability": "view",
      "type": "function"
    },
    {
      "constant": false,
      "inputs": [
        {
          "internalType": "uint256",
          "name": "_area",
          "type": "uint256"
        },
        {
          "internalType": "string",
          "name": "_city",
          "type": "string"
        },
        {
          "internalType": "string",
          "name": "_state",
          "type": "string"
        },
        {
          "internalType": "uint256",
          "name": "landPrice",
          "type": "uint256"
        },
        {
          "internalType": "uint256",
          "name": "_propertyPID",
          "type": "uint256"
        },
        {
          "internalType": "uint256",
          "name": "_surveyNum",
          "type": "uint256"
        },
        {
          "internalType": "string",
          "name": "_ipfsHash",
          "type": "string"
        },
        {
          "internalType": "string",
          "name": "_document",
          "type": "string"
        },
        {
          "internalType": "address",
          "name": "_nominee",
          "type": "address"
        }
      ],
      "name": "addLand",
      "outputs": [],
      "payable": false,
      "stateMutability": "nonpayable",
      "type": "function"
    },
    {
      "constant": false,
      "inputs": [
        {
          "internalType": "string",
          "name": "_name",
          "type": "string"
        },
        {
          "internalType": "uint256",
          "name": "_age",
          "type": "uint256"
        },
        {
          "internalType": "string",
          "name": "_aadharNumber",
          "type": "string"
        },
        {
          "internalType": "string",
          "name": "_panNumber",
          "type": "string"
        },
        {
          "internalType": "string",
          "name": "_landsOwned",
          "type": "string"
        },
        {
          "internalType": "string",
          "name": "_document",
          "type": "string"
        }
      ],
      "name": "registerSeller",
      "outputs": [],
      "payable": false,
      "stateMutability": "nonpayable",
      "type": "function"
    },
    {
      "constant": false,
      "inputs": [
        {
          "internalType": "string",
          "name": "_name",
          "type": "string"
        },
        {
          "internalType": "uint256",
          "name": "_age",
          "type": "uint256"
        },
        {
          "internalType": "string",
          "name": "_aadharNumber",
          "type": "string"
        },
        {
          "internalType": "string",
          "name": "_panNumber",
          "type": "string"
        },
        {
          "internalType": "string",
          "name": "_landsOwned",
          "type": "string"
        }
      ],
      "name": "updateSeller",
      "outputs": [],
      "payable": false,
      "stateMutability": "nonpayable",
      "type": "function"
    },
    {
      "constant": true,
      "inputs": [],
      "name": "getSeller",
      "outputs": [
        {
          "internalType": "address[]",
          "name": "",
          "type": "address[]"
        }
      ],
      "payable": false,
      "stateMutability": "view",
      "type": "function"
    },
    {
      "constant": true,
      "inputs": [
        {
          "internalType": "address",
          "name": "i",
          "type": "address"
        }
      ],
      "name": "getSellerDetails",
      "outputs": [
        {
          "internalType": "string",
          "name": "",
          "type": "string"
        },
        {
          "internalType": "uint256",
          "name": "",
          "type": "uint256"
        },
        {
          "internalType": "string",
          "name": "",
          "type": "string"
        },
        {
          "internalType": "string",
          "name": "",
          "type": "string"
        },
        {
          "internalType": "string",
          "name": "",
          "type": "string"
        },
        {
          "internalType": "string",
          "name": "",
          "type": "string"
        }
      ],
      "payable": false,
      "stateMutability": "view",
      "type": "function"
    },
    {
      "constant": true,
      "inputs": [
        {
          "internalType": "uint256",
          "name": "i",
          "type": "uint256"
        }
      ],
      "name": "getLandDetails",
      "outputs": [
        {
          "internalType": "uint256",
          "name": "",
          "type": "uint256"
        },
        {
          "internalType": "uint256",
          "name": "",
          "type": "uint256"
        },
        {
          "internalType": "string",
          "name": "",
          "type": "string"
        },
        {
          "internalType": "string",
          "name": "",
          "type": "string"
        },
        {
          "internalType": "uint256",
          "name": "",
          "type": "uint256"
        },
        {
          "internalType": "uint256",
          "name": "",
          "type": "uint256"
        },
        {
          "internalType": "uint256",
          "name": "",
          "type": "uint256"
        }
      ],
      "payable": false,
      "stateMutability": "view",
      "type": "function"
    },
    {
      "constant": false,
      "inputs": [
        {
          "internalType": "string",
          "name": "_name",
          "type": "string"
        },
        {
          "internalType": "uint256",
          "name": "_age",
          "type": "uint256"
        },
        {
          "internalType": "string",
          "name": "_city",
          "type": "string"
        },
        {
          "internalType": "string",
          "name": "_aadharNumber",
          "type": "string"
        },
        {
          "internalType": "string",
          "name": "_panNumber",
          "type": "string"
        },
        {
          "internalType": "string",
          "name": "_document",
          "type": "string"
        },
        {
          "internalType": "string",
          "name": "_email",
          "type": "string"
        }
      ],
      "name": "registerBuyer",
      "outputs": [],
      "payable": false,
      "stateMutability": "nonpayable",
      "type": "function"
    },
    {
      "constant": false,
      "inputs": [
        {
          "internalType": "string",
          "name": "_name",
          "type": "string"
        },
        {
          "internalType": "uint256",
          "name": "_age",
          "type": "uint256"
        },
        {
          "internalType": "string",
          "name": "_city",
          "type": "string"
        },
        {
          "internalType": "string",
          "name": "_aadharNumber",
          "type": "string"
        },
        {
          "internalType": "string",
          "name": "_panNumber",
          "type": "string"
        },
        {
          "internalType": "string",
          "name": "_landsOwned",
          "type": "string"
        },
        {
          "internalType": "string",
          "name": "_document",
          "type": "string"
        },
        {
          "internalType": "string",
          "name": "_email",
          "type": "string"
        }
      ],
      "name": "registerUser",
      "outputs": [],
      "payable": false,
      "stateMutability": "nonpayable",
      "type": "function"
    },
    {
      "constant": false,
      "inputs": [
        {
          "internalType": "string",
          "name": "_name",
          "type": "string"
        },
        {
          "internalType": "uint256",
          "name": "_age",
          "type": "uint256"
        },
        {
          "internalType": "string",
          "name": "_city",
          "type": "string"
        },
        {
          "internalType": "string",
          "name": "_aadharNumber",
          "type": "string"
        },
        {
          "internalType": "string",
          "name": "_email",
          "type": "string"
        },
        {
          "internalType": "string",
          "name": "_panNumber",
          "type": "string"
        }
      ],
      "name": "updateBuyer",
      "outputs": [],
      "payable": false,
      "stateMutability": "nonpayable",
      "type": "function"
    },
    {
      "constant": true,
      "inputs": [],
      "name": "getBuyer",
      "outputs": [
        {
          "internalType": "address[]",
          "name": "",
          "type": "address[]"
        }
      ],
      "payable": false,
      "stateMutability": "view",
      "type": "function"
    },
    {
      "constant": true,
      "inputs": [
        {
          "internalType": "address",
          "name": "i",
          "type": "address"
        }
      ],
      "name": "getBuyerDetails",
      "outputs": [
        {
          "internalType": "string",
          "name": "",
          "type": "string"
        },
        {
          "internalType": "string",
          "name": "",
          "type": "string"
        },
        {
          "internalType": "string",
          "name": "",
          "type": "string"
        },
        {
          "internalType": "string",
          "name": "",
          "type": "string"
        },
        {
          "internalType": "string",
          "name": "",
          "type": "string"
        },
        {
          "internalType": "uint256",
          "name": "",
          "type": "uint256"
        },
        {
          "internalType": "string",
          "name": "",
          "type": "string"
        }
      ],
      "payable": false,
      "stateMutability": "view",
      "type": "function"
    },
    {
      "constant": false,
      "inputs": [
        {
          "internalType": "address",
          "name": "_sellerId",
          "type": "address"
        },
        {
          "internalType": "uint256",
          "name": "_landId",
          "type": "uint256"
        }
      ],
      "name": "requestLand",
      "outputs": [],
      "payable": false,
      "stateMutability": "nonpayable",
      "type": "function"
    },
    {
      "constant": true,
      "inputs": [
        {
          "internalType": "uint256",
          "name": "i",
          "type": "uint256"
        }
      ],
      "name": "getRequestDetails",
      "outputs": [
        {
          "internalType": "address",
          "name": "",
          "type": "address"
        },
        {
          "internalType": "address",
          "name": "",
          "type": "address"
        },
        {
          "internalType": "uint256",
          "name": "",
          "type": "uint256"
        },
        {
          "internalType": "bool",
          "name": "",
          "type": "bool"
        }
      ],
      "payable": false,
      "stateMutability": "view",
      "type": "function"
    },
    {
      "constant": true,
      "inputs": [
        {
          "internalType": "uint256",
          "name": "_id",
          "type": "uint256"
        }
      ],
      "name": "isRequested",
      "outputs": [
        {
          "internalType": "bool",
          "name": "",
          "type": "bool"
        }
      ],
      "payable": false,
      "stateMutability": "view",
      "type": "function"
    },
    {
      "constant": true,
      "inputs": [
        {
          "internalType": "uint256",
          "name": "_id",
          "type": "uint256"
        }
      ],
      "name": "isApproved",
      "outputs": [
        {
          "internalType": "bool",
          "name": "",
          "type": "bool"
        }
      ],
      "payable": false,
      "stateMutability": "view",
      "type": "function"
    },
    {
      "constant": false,
      "inputs": [
        {
          "internalType": "uint256",
          "name": "_reqId",
          "type": "uint256"
        }
      ],
      "name": "approveRequest",
      "outputs": [],
      "payable": false,
      "stateMutability": "nonpayable",
      "type": "function"
    },
    {
      "constant": false,
      "inputs": [
        {
          "internalType": "uint256",
          "name": "_landId",
          "type": "uint256"
        },
        {
          "internalType": "address",
          "name": "_newOwner",
          "type": "address"
        }
      ],
      "name": "LandOwnershipTransfer",
      "outputs": [],
      "payable": false,
      "stateMutability": "nonpayable",
      "type": "function"
    },
    {
      "constant": true,
      "inputs": [
        {
          "internalType": "uint256",
          "name": "_landId",
          "type": "uint256"
        }
      ],
      "name": "isPaid",
      "outputs": [
        {
          "internalType": "bool",
          "name": "",
          "type": "bool"
        }
      ],
      "payable": false,
      "stateMutability": "view",
      "type": "function"
    },
    {
      "constant": false,
      "inputs": [
        {
          "internalType": "address payable",
          "name": "_receiver",
          "type": "address"
        },
        {
          "internalType": "uint256",
          "name": "_landId",
          "type": "uint256"
        }
      ],
      "name": "payment",
      "outputs": [],
      "payable": true,
      "stateMutability": "payable",
      "type": "function"
    },
    {
      "constant": false,
      "inputs": [
        {
          "internalType": "address",
          "name": "_Owner",
          "type": "address"
        }
      ],
      "name": "AfterDeath",
      "outputs": [],
      "payable": false,
      "stateMutability": "nonpayable",
      "type": "function"
    }
  ],
  "bytecode": "0x60806040523480156200001157600080fd5b5060128054600160a060020a03191633179055604080518082018252600b81527f496e73706563746f7220310000000000000000000000000000000000000000006020808301919091528251808401909352600e83527f54656873696c204d616e6167657200000000000000000000000000000000000090830152620000a391602d90640100000000620000a9810204565b620001d7565b601680546001908101918290556040805160808101825283815260208082018881528284018890526060830187905260009586528482529290942081518155915180519194929362000102939085019291019062000132565b5060408201516002820155606082015180516200012a91600384019160209091019062000132565b505050505050565b828054600181600116156101000203166002900490600052602060002090601f016020900481019282601f106200017557805160ff1916838001178555620001a5565b82800160010185558215620001a5579182015b82811115620001a557825182559160200191906001019062000188565b50620001b3929150620001b7565b5090565b620001d491905b80821115620001b35760008155600101620001be565b90565b6146dd80620001e76000396000f3fe608060405260043610610509576000357c010000000000000000000000000000000000000000000000000000000090048063941e2426116102b1578063d7d1bbdb1161017b578063e7572230116100f3578063f3f0c218116100a7578063f9c43bdf1161008c578063f9c43bdf14610e67578063fbfa4b7f14610e87578063fe0cb7dc14610e9c57610509565b8063f3f0c21814610e27578063f58f85b514610e4757610509565b8063f0d3a9df116100d8578063f0d3a9df14610dc2578063f2aa821814610dd7578063f34d4c6314610df757610509565b8063e757223014610d82578063ee95feaf14610da257610509565b8063def936c31161014a578063e1ecc7941161012f578063e1ecc79414610d0b578063e261f1e514610d2b578063e4b2611514610d6257610509565b8063def936c314610cbb578063e165af8714610ceb57610509565b8063d7d1bbdb14610c3e578063dbd0e1b614610c5e578063dd9d122d14610c73578063dec091ad14610c8857610509565b8063b3c8fe8511610229578063c560b4e5116101dd578063cee26ed5116101c2578063cee26ed514610bde578063d1760e6014610bfe578063d713065114610c1e57610509565b8063c560b4e514610b9e578063cd392a8314610bbe57610509565b8063ba49a08c1161020e578063ba49a08c14610b49578063bed403c714610b5e578063c3c5a54714610b7e57610509565b8063b3c8fe8514610af7578063b9209e3314610b2957610509565b8063a47d4c0211610280578063a6dc41fb11610265578063a6dc41fb14610a73578063ab51707414610a93578063b0a5dcd314610ac757610509565b8063a47d4c0214610a33578063a4a0f6c014610a5357610509565b8063941e2426146109c9578063989376b4146109de5780639ae9711e146109fe5780639dc1bfa914610a1357610509565b80634e2cba09116103f25780637910867b1161036a5780638965cde11161031e5780638c5e13e5116103035780638c5e13e5146109695780638cd869a41461098957806393383648146109a957610509565b80638965cde11461092957806389d213541461094957610509565b8063835465011161034f57806383546501146108c95780638491f247146108e957806388b4680e1461090957610509565b80637910867b146108895780637a4a8b66146108a957610509565b80636490c7a8116103c15780636814800b116103a65780636814800b1461081657806368cfe6ee146108365780636cbf6cf81461086957610509565b80636490c7a8146107e357806367a09c231461080357610509565b80634e2cba0914610761578063601e7c3414610781578063603daf9a146107a157806363f17143146107c357610509565b80632607aafa116104855780633f9b250a116104545780634528b357116104395780634528b3571461070157806348a46bd3146107215780634daa9dae1461074157610509565b80633f9b250a146106c157806344c9af28146106e157610509565b80632607aafa1461063f57806327ebf5311461066c5780632a55feec1461068c5780633410452a146106ac57610509565b80631703e5f9116104dc5780631869a38b116104c15780631869a38b146105ea5780631a07f76e1461060a5780631c9afd0f1461062a57610509565b80631703e5f9146105a8578063170f3909146105c857610509565b806307d56ac01461050e57806311ce462c14610544578063155fec721461056657806316d9d66614610593575b600080fd5b34801561051a57600080fd5b5061052e610529366004613ef5565b610ecf565b60405161053b91906143ed565b60405180910390f35b34801561055057600080fd5b5061056461055f366004613b75565b610ee7565b005b34801561057257600080fd5b50610586610581366004613ef5565b610ff7565b60405161053b91906142d2565b34801561059f57600080fd5b5061052e611016565b3480156105b457600080fd5b506105866105c3366004613a41565b61101d565b3480156105d457600080fd5b506105dd611032565b60405161053b9190614136565b3480156105f657600080fd5b506105dd610605366004613ef5565b611041565b34801561061657600080fd5b50610586610625366004613ef5565b61105c565b34801561063657600080fd5b5061052e611071565b34801561064b57600080fd5b5061065f61065a366004613ef5565b611077565b60405161053b91906142e0565b34801561067857600080fd5b506105dd610687366004613ef5565b611119565b34801561069857600080fd5b506105866106a7366004613a41565b611137565b3480156106b857600080fd5b5061052e611160565b3480156106cd57600080fd5b5061065f6106dc366004613ef5565b611166565b3480156106ed57600080fd5b5061065f6106fc366004613ef5565b6111d1565b34801561070d57600080fd5b506105dd61071c366004613ef5565b61123c565b34801561072d57600080fd5b5061058661073c366004613a41565b61125a565b34801561074d57600080fd5b5061058661075c366004613ef5565b6112a6565b34801561076d57600080fd5b5061056461077c366004613c73565b6112bb565b34801561078d57600080fd5b5061058661079c366004613a41565b6114a5565b3480156107ad57600080fd5b506107b66114ba565b60405161053b91906142ba565b3480156107cf57600080fd5b506105866107de366004613a41565b61151c565b3480156107ef57600080fd5b5061052e6107fe366004613ef5565b611531565b610564610811366004613a67565b611546565b34801561082257600080fd5b50610564610831366004613a41565b611593565b34801561084257600080fd5b50610856610851366004613a41565b611603565b60405161053b97969594939291906142f1565b34801561087557600080fd5b50610586610884366004613ef5565b6119b4565b34801561089557600080fd5b506105866108a4366004613ef5565b6119d3565b3480156108b557600080fd5b506105646108c4366004613d9e565b6119f2565b3480156108d557600080fd5b506105866108e4366004613ef5565b611dd5565b3480156108f557600080fd5b50610564610904366004613f43565b611dea565b34801561091557600080fd5b50610586610924366004613a41565b611f91565b34801561093557600080fd5b50610564610944366004613a41565b611faf565b34801561095557600080fd5b50610586610964366004613ef5565b612014565b34801561097557600080fd5b50610586610984366004613ef5565b612029565b34801561099557600080fd5b506105646109a4366004613a41565b612068565b3480156109b557600080fd5b506105646109c4366004613b75565b612195565b3480156109d557600080fd5b5061052e612377565b3480156109ea57600080fd5b506105866109f9366004613a41565b61237d565b348015610a0a57600080fd5b5061052e612392565b348015610a1f57600080fd5b506105dd610a2e366004613ef5565b612398565b348015610a3f57600080fd5b50610586610a4e366004613a41565b6123b3565b348015610a5f57600080fd5b5061052e610a6e366004613ef5565b6123c8565b348015610a7f57600080fd5b50610586610a8e366004613a41565b6123dd565b348015610a9f57600080fd5b50610ab3610aae366004613a41565b6123f2565b60405161053b98979695949392919061421a565b348015610ad357600080fd5b50610ae7610ae2366004613ef5565b61277e565b60405161053b94939291906143fb565b348015610b0357600080fd5b50610b17610b12366004613a41565b6127b2565b60405161053b96959493929190614373565b348015610b3557600080fd5b50610586610b44366004613a41565b612ac8565b348015610b5557600080fd5b5061052e612b13565b348015610b6a57600080fd5b50610564610b79366004613f13565b612b19565b348015610b8a57600080fd5b50610586610b99366004613a41565b612b81565b348015610baa57600080fd5b50610564610bb9366004613aa1565b612baa565b348015610bca57600080fd5b50610586610bd9366004613ef5565b612c91565b348015610bea57600080fd5b506105dd610bf9366004613ef5565b612cb0565b348015610c0a57600080fd5b50610564610c19366004613a41565b612cd7565b348015610c2a57600080fd5b5061065f610c39366004613ef5565b612d54565b348015610c4a57600080fd5b50610564610c59366004613ef5565b612dc2565b348015610c6a57600080fd5b506107b6612dff565b348015610c7f57600080fd5b5061052e612e5f565b348015610c9457600080fd5b50610ca8610ca3366004613a41565b612e65565b60405161053b9796959493929190614190565b348015610cc757600080fd5b50610cdb610cd6366004613ef5565b61315e565b60405161053b9493929190614430565b348015610cf757600080fd5b50610586610d06366004613a41565b61329c565b348015610d1757600080fd5b50610564610d26366004613a41565b6132bd565b348015610d3757600080fd5b50610d4b610d46366004613ef5565b61333a565b60405161053b9b9a999897969594939291906144e5565b348015610d6e57600080fd5b50610586610d7d366004613a41565b6135c0565b348015610d8e57600080fd5b5061052e610d9d366004613ef5565b6135d5565b348015610dae57600080fd5b50610586610dbd366004613a41565b6135ea565b348015610dce57600080fd5b5061052e613613565b348015610de357600080fd5b506105dd610df2366004613ef5565b613619565b348015610e0357600080fd5b50610e17610e12366004613ef5565b613626565b60405161053b9493929190614152565b348015610e3357600080fd5b50610564610e42366004613a67565b613668565b348015610e5357600080fd5b50610586610e62366004613a41565b61377d565b348015610e7357600080fd5b50610564610e82366004613ef5565b613792565b348015610e9357600080fd5b5061052e6137bf565b348015610ea857600080fd5b50610ebc610eb7366004613ef5565b6137c5565b60405161053b979695949392919061447b565b6000818152602081905260409020600501545b919050565b3360009081526005602052604090205460ff168015610f1c575033600081815260036020526040902054600160a060020a0316145b610f2557600080fd5b3360009081526003602090815260409091208751610f4b92600190920191890190613939565b50336000908152600360208181526040909220600281018890558651610f7993919092019190870190613939565b503360009081526003602090815260409091208451610fa092600490920191860190613939565b503360009081526003602090815260409091208351610fc792600790920191850190613939565b503360009081526003602090815260409091208251610fee92600590920191840190613939565b50505050505050565b6000818152600f602052604081205460ff1615610ee257506001610ee2565b6015545b90565b60116020526000908152604090205460ff1681565b601254600160a060020a031681565b6000908152600d6020526040902054600160a060020a031690565b60106020526000908152604090205460ff1681565b60155481565b6000818152602081815260409182902060070180548351601f600260001961010060018616150201909316929092049182018490048402810184019094528084526060939283018282801561110d5780601f106110e25761010080835404028352916020019161110d565b820191906000526020600020905b8154815290600101906020018083116110f057829003601f168201915b50505050509050919050565b6000908152602081905260409020600a0154600160a060020a031690565b600160a060020a03811660009081526007602052604081205460ff1615610ee257506001610ee2565b60195490565b6000818152602081815260409182902060080180548351601f600260001961010060018616150201909316929092049182018490048402810184019094528084526060939283018282801561110d5780601f106110e25761010080835404028352916020019161110d565b6000818152602081815260409182902060030180548351601f600260001961010060018616150201909316929092049182018490048402810184019094528084526060939283018282801561110d5780601f106110e25761010080835404028352916020019161110d565b600090815260208190526040902060090154600160a060020a031690565b600160a060020a03811660009081526009602052604081205460ff16806112995750600160a060020a0382166000908152600b602052604090205460ff165b15610ee257506001610ee2565b600f6020526000908152604090205460ff1681565b3360008181526005602090815260408083208054600160ff1991821681179092556007845282852080549091168217905560188054820190558151610100810183528581528084018d81528184018d9052606082018c9052608082018b905260a082018a905260c0820189905260e0820188905295855260038452919093208151815473ffffffffffffffffffffffffffffffffffffffff1916600160a060020a039091161781559351805191949361137a9390850192910190613939565b5060408201516002820155606082015180516113a0916003840191602090910190613939565b50608082015180516113bc916004840191602090910190613939565b5060a082015180516113d8916005840191602090910190613939565b5060c082015180516113f4916006840191602090910190613939565b5060e08201518051611410916007840191602090910190613939565b5050601480546001810182556000919091527fce6d7b5282bd9a3661ae061feed1dbda4e52ab073b1f9285be6e155d9c38d4ec01805473ffffffffffffffffffffffffffffffffffffffff1916339081179091556040517f478f5152d8fc568db3f8de9fb402fd9d98a1a7541ecfe434e59cf574fbfc552492506114949190614144565b60405180910390a150505050505050565b60066020526000908152604090205460ff1681565b6060601480548060200260200160405190810160405280929190818152602001828054801561151257602002820191906000526020600020905b8154600160a060020a031681526001909101906020018083116114f4575b5050505050905090565b60096020526000908152604090205460ff1681565b60009081526020819052604090206001015490565b600081815260106020526040808220805460ff1916600117905551600160a060020a038416913480156108fc02929091818181858888f1935050505015801561158e57600080fd5b505050565b61159c3361329c565b6115a557600080fd5b600160a060020a0381166000908152600a602052604090819020805460ff19166001179055517f6a6455914f452787eb3985452aceedc1000fb545e394eb3b370e3d08958e0a5b906115f8908390614136565b60405180910390a150565b600160a060020a03811660009081526003602081815260408084206002808201546001808401805486519281161561010002600019011693909304601f810187900487028201870190955284815260609788978897889788979396889690959385019460058101946006820194600783019460049093019289918301828280156116ce5780601f106116a3576101008083540402835291602001916116ce565b820191906000526020600020905b8154815290600101906020018083116116b157829003601f168201915b5050895460408051602060026001851615610100026000190190941693909304601f8101849004840282018401909252818152959c508b94509250840190508282801561175c5780601f106117315761010080835404028352916020019161175c565b820191906000526020600020905b81548152906001019060200180831161173f57829003601f168201915b5050885460408051602060026001851615610100026000190190941693909304601f8101849004840282018401909252818152959b508a9450925084019050828280156117ea5780601f106117bf576101008083540402835291602001916117ea565b820191906000526020600020905b8154815290600101906020018083116117cd57829003601f168201915b5050875460408051602060026001851615610100026000190190941693909304601f8101849004840282018401909252818152959a50899450925084019050828280156118785780601f1061184d57610100808354040283529160200191611878565b820191906000526020600020905b81548152906001019060200180831161185b57829003601f168201915b5050865460408051602060026001851615610100026000190190941693909304601f8101849004840282018401909252818152959950889450925084019050828280156119065780601f106118db57610100808354040283529160200191611906565b820191906000526020600020905b8154815290600101906020018083116118e957829003601f168201915b5050845460408051602060026001851615610100026000190190941693909304601f8101849004840282018401909252818152959850869450925084019050828280156119945780601f1061196957610100808354040283529160200191611994565b820191906000526020600020905b81548152906001019060200180831161197757829003601f168201915b505050505090509650965096509650965096509650919395979092949650565b6000818152600c602052604081205460ff1615610ee257506001610ee2565b6000818152600e602052604081205460ff1615610ee257506001610ee2565b3360009081526005602052604090205460ff1615611a0f57600080fd5b3360008181526005602090815260408083208054600160ff1991821681179092556007845282852080549091168217905560188054820190558151610100810183528581528084018e81528184018e9052606082018d9052608082018c905260a082018b905260c0820189905260e0820188905295855260038452919093208151815473ffffffffffffffffffffffffffffffffffffffff1916600160a060020a0390911617815593518051919493611ace9390850192910190613939565b506040820151600282015560608201518051611af4916003840191602090910190613939565b5060808201518051611b10916004840191602090910190613939565b5060a08201518051611b2c916005840191602090910190613939565b5060c08201518051611b48916006840191602090910190613939565b5060e08201518051611b64916007840191602090910190613939565b5090505060143390806001815401808255809150509060018203906000526020600020016000909192909190916101000a815481600160a060020a030219169083600160a060020a031602179055505060016006600033600160a060020a0316600160a060020a0316815260200190815260200160002060006101000a81548160ff0219169083151502179055506017600081548092919060010191905055506040518060e0016040528033600160a060020a03168152602001898152602001888152602001868152602001858152602001848152602001838152506002600033600160a060020a0316600160a060020a0316815260200190815260200160002060008201518160000160006101000a815481600160a060020a030219169083600160a060020a031602179055506020820151816001019080519060200190611cae929190613939565b506040820151600282015560608201518051611cd4916003840191602090910190613939565b5060808201518051611cf0916004840191602090910190613939565b5060a08201518051611d0c916005840191602090910190613939565b5060c08201518051611d28916006840191602090910190613939565b50506013805460018181019092557f66de8ffda797e3de9c05e8fc57b3bf0ec28a930d40b0d285d93c06501cf6a09001805473ffffffffffffffffffffffffffffffffffffffff19163390811790915560008181526011602052604090819020805460ff191690931790925590517f478f5152d8fc568db3f8de9fb402fd9d98a1a7541ecfe434e59cf574fbfc55249250611dc39190614144565b60405180910390a15050505050505050565b600c6020526000908152604090205460ff1681565b611df3336135ea565b8015611e035750611e0333612ac8565b611e0c57600080fd5b60158054600190810191829055604080516101608101825283815260208082018e81528284018e8152606084018e9052608084018d905260a084018c905260c084018b905260e084018a9052610100840189905233610120850152600160a060020a0388166101408501526000968752868352939095208251815594519385019390935590518051919392611ea992600285019290910190613939565b5060608201518051611ec5916003840191602090910190613939565b506080820151600482015560a0820151600582015560c0820151600682015560e08201518051611eff916007840191602090910190613939565b506101008201518051611f1c916008840191602090910190613939565b50610120820151600982018054600160a060020a0392831673ffffffffffffffffffffffffffffffffffffffff199182161790915561014090930151600a9092018054929091169183169190911790556015546000908152600d60205260409020805490911633179055505050505050505050565b600160a060020a031660009081526011602052604090205460ff1690565b611fb83361329c565b611fc157600080fd5b600160a060020a0381166000908152600b602052604090819020805460ff19166001179055517faf77f8960cf590e245ec8b6d41c193a5dcacad8986ae4eb57ac9e5be7b6af031906115f8908390614136565b600e6020526000908152604090205460ff1681565b6000818152600d602090815260408083205491839052822060090154600160a060020a039081169116141561206057506001610ee2565b506000610ee2565b6120713361329c565b61207a57600080fd5b600160a060020a0381166000908152601160205260409020805460ff1916905560015b6015548111612191576000818152600d6020526040902054600160a060020a0383811691161415612189576000818152600d60209081526040808320549183905290912060098101805473ffffffffffffffffffffffffffffffffffffffff1916600160a060020a03938416179055600a0154161561215c57600081815260208181526040808320600a0154600d909252909120805473ffffffffffffffffffffffffffffffffffffffff1916600160a060020a039092169190911790555b6000818152602081905260409020600a01805473ffffffffffffffffffffffffffffffffffffffff191690555b60010161209d565b5050565b3360009081526005602052604090205460ff16156121b257600080fd5b3360008181526005602090815260408083208054600160ff199182168117909255600684528285208054909116821790556017805482019055815160e0810183528581528084018c81528184018c9052606082018b9052608082018a905260a0820189905260c0820188905295855260028452919093208151815473ffffffffffffffffffffffffffffffffffffffff1916600160a060020a03909116178155935180519194936122699390850192910190613939565b50604082015160028201556060820151805161228f916003840191602090910190613939565b50608082015180516122ab916004840191602090910190613939565b5060a082015180516122c7916005840191602090910190613939565b5060c082015180516122e3916006840191602090910190613939565b5050601380546001810182556000919091527f66de8ffda797e3de9c05e8fc57b3bf0ec28a930d40b0d285d93c06501cf6a09001805473ffffffffffffffffffffffffffffffffffffffff1916339081179091556040517f478f5152d8fc568db3f8de9fb402fd9d98a1a7541ecfe434e59cf574fbfc552492506123679190614144565b60405180910390a1505050505050565b60165481565b600b6020526000908152604090205460ff1681565b60175481565b600d60205260009081526040902054600160a060020a031681565b60076020526000908152604090205460ff1681565b60009081526020819052604090206006015490565b600a6020526000908152604090205460ff1681565b6003602090815260009182526040918290208054600180830180548651600261010094831615949094026000190190911692909204601f8101869004860283018601909652858252600160a060020a0390921694929390929083018282801561249c5780601f106124715761010080835404028352916020019161249c565b820191906000526020600020905b81548152906001019060200180831161247f57829003601f168201915b505050506002838101546003850180546040805160206001841615610100026000190190931695909504601f8101839004830286018301909152808552959692959294509091908301828280156125345780601f1061250957610100808354040283529160200191612534565b820191906000526020600020905b81548152906001019060200180831161251757829003601f168201915b5050505060048301805460408051602060026001851615610100026000190190941693909304601f81018490048402820184019092528181529495949350908301828280156125c45780601f10612599576101008083540402835291602001916125c4565b820191906000526020600020905b8154815290600101906020018083116125a757829003601f168201915b5050505060058301805460408051602060026001851615610100026000190190941693909304601f81018490048402820184019092528181529495949350908301828280156126545780601f1061262957610100808354040283529160200191612654565b820191906000526020600020905b81548152906001019060200180831161263757829003601f168201915b5050505060068301805460408051602060026001851615610100026000190190941693909304601f81018490048402820184019092528181529495949350908301828280156126e45780601f106126b9576101008083540402835291602001916126e4565b820191906000526020600020905b8154815290600101906020018083116126c757829003601f168201915b5050505060078301805460408051602060026001851615610100026000190190941693909304601f81018490048402820184019092528181529495949350908301828280156127745780601f1061274957610100808354040283529160200191612774565b820191906000526020600020905b81548152906001019060200180831161275757829003601f168201915b5050505050905088565b60046020526000908152604090208054600182015460028301546003909301549192600160a060020a039182169291169084565b600160a060020a0381166000908152600260208181526040808420808401546001808301805485519281161561010002600019011696909604601f8101869004860282018601909452838152606096958795869586958695939460038201936004830193600584019360060192918891908301828280156128745780601f1061284957610100808354040283529160200191612874565b820191906000526020600020905b81548152906001019060200180831161285757829003601f168201915b5050875460408051602060026001851615610100026000190190941693909304601f8101849004840282018401909252818152959b50899450925084019050828280156129025780601f106128d757610100808354040283529160200191612902565b820191906000526020600020905b8154815290600101906020018083116128e557829003601f168201915b5050865460408051602060026001851615610100026000190190941693909304601f8101849004840282018401909252818152959950889450925084019050828280156129905780601f1061296557610100808354040283529160200191612990565b820191906000526020600020905b81548152906001019060200180831161297357829003601f168201915b5050855460408051602060026001851615610100026000190190941693909304601f810184900484028201840190925281815295985087945092508401905082828015612a1e5780601f106129f357610100808354040283529160200191612a1e565b820191906000526020600020905b815481529060010190602001808311612a0157829003601f168201915b5050845460408051602060026001851615610100026000190190941693909304601f810184900484028201840190925281815295975086945092508401905082828015612aac5780601f10612a8157610100808354040283529160200191612aac565b820191906000526020600020905b815481529060010190602001808311612a8f57829003601f168201915b5050505050905095509550955095509550955091939550919395565b600160a060020a03811660009081526008602052604081205460ff16806112995750600160a060020a0382166000908152600a602052604090205460ff1615610ee257506001610ee2565b60185481565b612b223361329c565b612b2b57600080fd5b6000918252600d60208181526040808520805486845291909520600901805473ffffffffffffffffffffffffffffffffffffffff19908116600160a060020a039384161790915592909152835492169116179055565b600160a060020a03811660009081526005602052604081205460ff1615610ee257506001610ee2565b3360009081526005602052604090205460ff168015612bdf575033600081815260026020526040902054600160a060020a0316145b612be857600080fd5b3360009081526002602090815260409091208651612c0e92600190920191880190613939565b503360009081526002602081815260409092209081018690558451612c3b92600390920191860190613939565b503360009081526002602090815260409091208351612c6292600490920191850190613939565b503360009081526002602090815260409091208251612c8992600590920191840190613939565b505050505050565b60008181526010602052604081205460ff1615610ee257506001610ee2565b60138181548110612cbd57fe5b600091825260209091200154600160a060020a0316905081565b612ce03361329c565b612ce957600080fd5b600160a060020a03811660009081526008602090815260408083208054600160ff199182168117909255600a9093529281902080549092169092179055517f6a6455914f452787eb3985452aceedc1000fb545e394eb3b370e3d08958e0a5b906115f8908390614136565b600081815260208181526040918290206002908101805484516001821615610100026000190190911692909204601f8101849004840283018401909452838252606093919290919083018282801561110d5780601f106110e25761010080835404028352916020019161110d565b612dcb336135ea565b8015612ddb5750612ddb33612ac8565b612de457600080fd5b6000908152600e60205260409020805460ff19166001179055565b6060601380548060200260200160405190810160405280929190818152602001828054801561151257602002820191906000526020600020908154600160a060020a031681526001909101906020018083116114f4575050505050905090565b60175490565b6002602081815260009283526040928390208054600180830180548751601f60001994831615610100029490940190911696909604918201859004850286018501909652808552600160a060020a0390911694919392830182828015612f0c5780601f10612ee157610100808354040283529160200191612f0c565b820191906000526020600020905b815481529060010190602001808311612eef57829003601f168201915b505050506002838101546003850180546040805160206001841615610100026000190190931695909504601f810183900483028601830190915280855295969295929450909190830182828015612fa45780601f10612f7957610100808354040283529160200191612fa4565b820191906000526020600020905b815481529060010190602001808311612f8757829003601f168201915b5050505060048301805460408051602060026001851615610100026000190190941693909304601f81018490048402820184019092528181529495949350908301828280156130345780601f1061300957610100808354040283529160200191613034565b820191906000526020600020905b81548152906001019060200180831161301757829003601f168201915b5050505060058301805460408051602060026001851615610100026000190190941693909304601f81018490048402820184019092528181529495949350908301828280156130c45780601f10613099576101008083540402835291602001916130c4565b820191906000526020600020905b8154815290600101906020018083116130a757829003601f168201915b5050505060068301805460408051602060026001851615610100026000190190941693909304601f81018490048402820184019092528181529495949350908301828280156131545780601f1061312957610100808354040283529160200191613154565b820191906000526020600020905b81548152906001019060200180831161313757829003601f168201915b5050505050905087565b600160208181526000928352604092839020805481840180548651600296821615610100026000190190911695909504601f810185900485028601850190965285855290949193929091908301828280156131fa5780601f106131cf576101008083540402835291602001916131fa565b820191906000526020600020905b8154815290600101906020018083116131dd57829003601f168201915b505050506002838101546003850180546040805160206001841615610100026000190190931695909504601f8101839004830286018301909152808552959692959294509091908301828280156132925780601f1061326757610100808354040283529160200191613292565b820191906000526020600020905b81548152906001019060200180831161327557829003601f168201915b5050505050905084565b601254600090600160a060020a038381169116141561206057506001610ee2565b6132c63361329c565b6132cf57600080fd5b600160a060020a03811660009081526009602090815260408083208054600160ff199182168117909255600b9093529281902080549092169092179055517faf77f8960cf590e245ec8b6d41c193a5dcacad8986ae4eb57ac9e5be7b6af031906115f8908390614136565b6000602081815291815260409081902080546001808301546002808501805487519481161561010002600019011691909104601f810188900488028401880190965285835292959094919291908301828280156133d85780601f106133ad576101008083540402835291602001916133d8565b820191906000526020600020905b8154815290600101906020018083116133bb57829003601f168201915b5050505060038301805460408051602060026001851615610100026000190190941693909304601f81018490048402820184019092528181529495949350908301828280156134685780601f1061343d57610100808354040283529160200191613468565b820191906000526020600020905b81548152906001019060200180831161344b57829003601f168201915b505050600484015460058501546006860154600787018054604080516020601f6002600019610100600188161502019095169490940493840181900481028201810190925282815298999598949750929550909183018282801561350d5780601f106134e25761010080835404028352916020019161350d565b820191906000526020600020905b8154815290600101906020018083116134f057829003601f168201915b5050505060088301805460408051602060026001851615610100026000190190941693909304601f810184900484028201840190925281815294959493509083018282801561359d5780601f106135725761010080835404028352916020019161359d565b820191906000526020600020905b81548152906001019060200180831161358057829003601f168201915b505050506009830154600a909301549192600160a060020a03908116921690508b565b60086020526000908152604090205460ff1681565b60009081526020819052604090206004015490565b600160a060020a03811660009081526006602052604081205460ff1615610ee257506001610ee2565b60185490565b60148181548110612cbd57fe5b600090815260046020908152604080832060018101546002820154600390920154600e9094529190932054600160a060020a0391821694919093169260ff1690565b61367133611137565b8015613681575061368133612ac8565b61368a57600080fd5b60198054600190810180835560408051608081018252828152600160a060020a03808816602080840191825233848601908152606085018a8152600097885260048352868820955186559251858901805491861673ffffffffffffffffffffffffffffffffffffffff199283161790559051600286018054919095169116179092555160039092019190915584548352600e8152818320805460ff1990811690915594548352600f9052908190208054909316909117909155517fc67eb70629da758128cec22f7e36ad0676066ad4df9b66e8ba58a30c1ab4075b90613771908490614136565b60405180910390a15050565b60056020526000908152604090205460ff1681565b61379b3361329c565b6137a457600080fd5b6000908152600c60205260409020805460ff19166001179055565b60195481565b6000818152602081815260408083208054600180830154600484015460058501546006860154600280880180548a519781161561010002600019011691909104601f81018b90048b0287018b019099528886528a996060998a998c998a998a9991989197959660039093019591949193909187919083018282801561388b5780601f106138605761010080835404028352916020019161388b565b820191906000526020600020905b81548152906001019060200180831161386e57829003601f168201915b5050875460408051602060026001851615610100026000190190941693909304601f8101849004840282018401909252818152959a50899450925084019050828280156139195780601f106138ee57610100808354040283529160200191613919565b820191906000526020600020905b8154815290600101906020018083116138fc57829003601f168201915b505050505093509650965096509650965096509650919395979092949650565b828054600181600116156101000203166002900490600052602060002090601f016020900481019282601f1061397a57805160ff19168380011785556139a7565b828001600101855582156139a7579182015b828111156139a757825182559160200191906001019061398c565b506139b39291506139b7565b5090565b61101a91905b808211156139b357600081556001016139bd565b80356139dc8161467a565b92915050565b600082601f8301126139f357600080fd5b8135613a06613a01826145cc565b6145a5565b91508082526020830160208301858383011115613a2257600080fd5b613a2d838284614634565b50505092915050565b80356139dc81614691565b600060208284031215613a5357600080fd5b6000613a5f84846139d1565b949350505050565b60008060408385031215613a7a57600080fd5b6000613a8685856139d1565b9250506020613a9785828601613a36565b9150509250929050565b600080600080600060a08688031215613ab957600080fd5b853567ffffffffffffffff811115613ad057600080fd5b613adc888289016139e2565b9550506020613aed88828901613a36565b945050604086013567ffffffffffffffff811115613b0a57600080fd5b613b16888289016139e2565b935050606086013567ffffffffffffffff811115613b3357600080fd5b613b3f888289016139e2565b925050608086013567ffffffffffffffff811115613b5c57600080fd5b613b68888289016139e2565b9150509295509295909350565b60008060008060008060c08789031215613b8e57600080fd5b863567ffffffffffffffff811115613ba557600080fd5b613bb189828a016139e2565b9650506020613bc289828a01613a36565b955050604087013567ffffffffffffffff811115613bdf57600080fd5b613beb89828a016139e2565b945050606087013567ffffffffffffffff811115613c0857600080fd5b613c1489828a016139e2565b935050608087013567ffffffffffffffff811115613c3157600080fd5b613c3d89828a016139e2565b92505060a087013567ffffffffffffffff811115613c5a57600080fd5b613c6689828a016139e2565b9150509295509295509295565b600080600080600080600060e0888a031215613c8e57600080fd5b873567ffffffffffffffff811115613ca557600080fd5b613cb18a828b016139e2565b9750506020613cc28a828b01613a36565b965050604088013567ffffffffffffffff811115613cdf57600080fd5b613ceb8a828b016139e2565b955050606088013567ffffffffffffffff811115613d0857600080fd5b613d148a828b016139e2565b945050608088013567ffffffffffffffff811115613d3157600080fd5b613d3d8a828b016139e2565b93505060a088013567ffffffffffffffff811115613d5a57600080fd5b613d668a828b016139e2565b92505060c088013567ffffffffffffffff811115613d8357600080fd5b613d8f8a828b016139e2565b91505092959891949750929550565b600080600080600080600080610100898b031215613dbb57600080fd5b883567ffffffffffffffff811115613dd257600080fd5b613dde8b828c016139e2565b9850506020613def8b828c01613a36565b975050604089013567ffffffffffffffff811115613e0c57600080fd5b613e188b828c016139e2565b965050606089013567ffffffffffffffff811115613e3557600080fd5b613e418b828c016139e2565b955050608089013567ffffffffffffffff811115613e5e57600080fd5b613e6a8b828c016139e2565b94505060a089013567ffffffffffffffff811115613e8757600080fd5b613e938b828c016139e2565b93505060c089013567ffffffffffffffff811115613eb057600080fd5b613ebc8b828c016139e2565b92505060e089013567ffffffffffffffff811115613ed957600080fd5b613ee58b828c016139e2565b9150509295985092959890939650565b600060208284031215613f0757600080fd5b6000613a5f8484613a36565b60008060408385031215613f2657600080fd5b6000613f328585613a36565b9250506020613a97858286016139d1565b60008060008060008060008060006101208a8c031215613f6257600080fd5b6000613f6e8c8c613a36565b99505060208a013567ffffffffffffffff811115613f8b57600080fd5b613f978c828d016139e2565b98505060408a013567ffffffffffffffff811115613fb457600080fd5b613fc08c828d016139e2565b9750506060613fd18c828d01613a36565b9650506080613fe28c828d01613a36565b95505060a0613ff38c828d01613a36565b94505060c08a013567ffffffffffffffff81111561401057600080fd5b61401c8c828d016139e2565b93505060e08a013567ffffffffffffffff81111561403957600080fd5b6140458c828d016139e2565b9250506101006140578c828d016139d1565b9150509295985092959850929598565b6000614073838361408a565b505060200190565b61408481614623565b82525050565b61408481614607565b600061409e826145fa565b6140a881856145fe565b93506140b3836145f4565b8060005b838110156140e15781516140cb8882614067565b97506140d6836145f4565b9250506001016140b7565b509495945050505050565b61408481614612565b6000614100826145fa565b61410a81856145fe565b935061411a818560208601614640565b61412381614670565b9093019392505050565b6140848161101a565b602081016139dc828461408a565b602081016139dc828461407b565b60808101614160828761408a565b61416d602083018661408a565b61417a604083018561412d565b61418760608301846140ec565b95945050505050565b60e0810161419e828a61408a565b81810360208301526141b081896140f5565b90506141bf604083018861412d565b81810360608301526141d181876140f5565b905081810360808301526141e581866140f5565b905081810360a08301526141f981856140f5565b905081810360c083015261420d81846140f5565b9998505050505050505050565b6101008101614229828b61408a565b818103602083015261423b818a6140f5565b905061424a604083018961412d565b818103606083015261425c81886140f5565b9050818103608083015261427081876140f5565b905081810360a083015261428481866140f5565b905081810360c083015261429881856140f5565b905081810360e08301526142ac81846140f5565b9a9950505050505050505050565b602080825281016142cb8184614093565b9392505050565b602081016139dc82846140ec565b602080825281016142cb81846140f5565b60e08082528101614302818a6140f5565b9050818103602083015261431681896140f5565b9050818103604083015261432a81886140f5565b9050818103606083015261433e81876140f5565b9050818103608083015261435281866140f5565b905061436160a083018561412d565b81810360c083015261420d81846140f5565b60c0808252810161438481896140f5565b9050614393602083018861412d565b81810360408301526143a581876140f5565b905081810360608301526143b981866140f5565b905081810360808301526143cd81856140f5565b905081810360a08301526143e181846140f5565b98975050505050505050565b602081016139dc828461412d565b60808101614409828761412d565b614416602083018661408a565b614423604083018561408a565b614187606083018461412d565b6080810161443e828761412d565b818103602083015261445081866140f5565b905061445f604083018561412d565b818103606083015261447181846140f5565b9695505050505050565b60e08101614489828a61412d565b614496602083018961412d565b81810360408301526144a881886140f5565b905081810360608301526144bc81876140f5565b90506144cb608083018661412d565b6144d860a083018561412d565b6143e160c083018461412d565b61016081016144f4828e61412d565b614501602083018d61412d565b8181036040830152614513818c6140f5565b90508181036060830152614527818b6140f5565b9050614536608083018a61412d565b61454360a083018961412d565b61455060c083018861412d565b81810360e083015261456281876140f5565b905081810361010083015261457781866140f5565b905061458761012083018561408a565b61459561014083018461408a565b9c9b505050505050505050505050565b60405181810167ffffffffffffffff811182821017156145c457600080fd5b604052919050565b600067ffffffffffffffff8211156145e357600080fd5b506020601f91909101601f19160190565b60200190565b5190565b90815260200190565b60006139dc82614617565b151590565b600160a060020a031690565b60006139dc8260006139dc82614607565b82818337506000910152565b60005b8381101561465b578181015183820152602001614643565b8381111561466a576000848401525b50505050565b601f01601f191690565b61468381614607565b811461468e57600080fd5b50565b6146838161101a56fea365627a7a723158202ae0363b72a92ab09e3eb6b0a76050bbefaeec59311f6ba76cbed4eb467e0a766c6578706572696d656e74616cf564736f6c63430005100040",
  "source": "pragma solidity >=0.5.2;\npragma experimental ABIEncoderV2;\n\ncontract Land {\n    struct Landreg {\n        uint256 id;\n        uint256 area;\n        string city;\n        string state;\n        uint256 landPrice;\n        uint256 propertyPID;\n        uint256 physicalSurveyNumber;\n        string ipfsHash;\n        string document;\n        address old_owner;\n        address nominee;\n    }\n\n    struct Buyer {\n        address id;\n        string name;\n        uint256 age;\n        string city;\n        string aadharNumber;\n        string panNumber;\n        string document;\n        string email;\n    }\n\n    struct Seller {\n        address id;\n        string name;\n        uint256 age;\n        string aadharNumber;\n        string panNumber;\n        string landsOwned;\n        string document;\n    }\n\n    struct LandInspector {\n        uint256 id;\n        string name;\n        uint256 age;\n        string designation;\n    }\n\n    struct LandRequest {\n        uint256 reqId;\n        address sellerId;\n        address buyerId;\n        uint256 landId;\n        // bool requestStatus;\n        // bool requested;\n    }\n\n    //key value pairs\n    mapping(uint256 => Landreg) public lands;\n    mapping(uint256 => LandInspector) public InspectorMapping;\n    mapping(address => Seller) public SellerMapping;\n    mapping(address => Buyer) public BuyerMapping;\n    mapping(uint256 => LandRequest) public RequestsMapping;\n\n    mapping(address => bool) public RegisteredAddressMapping;\n    mapping(address => bool) public RegisteredSellerMapping;\n    mapping(address => bool) public RegisteredBuyerMapping;\n    mapping(address => bool) public SellerVerification;\n    mapping(address => bool) public SellerRejection;\n    mapping(address => bool) public BuyerVerification;\n    mapping(address => bool) public BuyerRejection;\n    mapping(uint256 => bool) public LandVerification;\n    mapping(uint256 => address) public LandOwner;\n    mapping(uint256 => bool) public RequestStatus;\n    mapping(uint256 => bool) public RequestedLands;\n    mapping(uint256 => bool) public PaymentReceived;\n    // mapping(address => address) public successors;\n    mapping(address => bool) public isAlive;\n\n    address public Land_Inspector;\n    address[] public sellers;\n    address[] public buyers;\n\n    uint256 public landsCount;\n    uint256 public inspectorsCount;\n    uint256 public sellersCount;\n    uint256 public buyersCount;\n    uint256 public requestsCount;\n\n    event Registration(address _registrationId);\n    event AddingLand(uint256 indexed _landId);\n    event Landrequested(address _sellerId);\n    event requestApproved(address _buyerId);\n    event Verified(address _id);\n    event Rejected(address _id);\n    event Succession(address _Owner);\n\n    constructor() public {\n        Land_Inspector = msg.sender;\n        addLandInspector(\"Inspector 1\", 45, \"Tehsil Manager\");\n    }\n\n    function getPrevious(uint256 i) public view returns (address) {\n        return lands[i].old_owner;\n    }\n\n    function isSame(uint256 i) public view returns (bool) {\n        if (lands[i].old_owner == LandOwner[i]) return true;\n        else return false;\n    }\n\n    // function getDate(uint i) public view returns (uint){\n    //     return lands[i].date;\n    // }\n\n    function addLandInspector(\n        string memory _name,\n        uint256 _age,\n        string memory _designation\n    ) private {\n        inspectorsCount++;\n        InspectorMapping[inspectorsCount] = LandInspector(\n            inspectorsCount,\n            _name,\n            _age,\n            _designation\n        );\n    }\n\n    function getLandsCount() public view returns (uint256) {\n        return landsCount;\n    }\n\n    function getBuyersCount() public view returns (uint256) {\n        return buyersCount;\n    }\n\n    function getSellersCount() public view returns (uint256) {\n        return sellersCount;\n    }\n\n    function getRequestsCount() public view returns (uint256) {\n        return requestsCount;\n    }\n\n    function getNominee(uint256 i) public view returns (address) {\n        return lands[i].nominee;\n    }\n\n    function getArea(uint256 i) public view returns (uint256) {\n        return lands[i].area;\n    }\n\n    function getCity(uint256 i) public view returns (string memory) {\n        return lands[i].city;\n    }\n\n    function getState(uint256 i) public view returns (string memory) {\n        return lands[i].state;\n    }\n\n    // function getStatus(uint i) public view returns (bool) {\n    //     return lands[i].verificationStatus;\n    // }\n    function getPrice(uint256 i) public view returns (uint256) {\n        return lands[i].landPrice;\n    }\n\n    function getPID(uint256 i) public view returns (uint256) {\n        return lands[i].propertyPID;\n    }\n\n    function getSurveyNumber(uint256 i) public view returns (uint256) {\n        return lands[i].physicalSurveyNumber;\n    }\n\n    function getImage(uint256 i) public view returns (string memory) {\n        return lands[i].ipfsHash;\n    }\n\n    function getDocument(uint256 i) public view returns (string memory) {\n        return lands[i].document;\n    }\n\n    function getLandOwner(uint256 id) public view returns (address) {\n        return LandOwner[id];\n    }\n\n    function getAlive(address _Owner) public view returns (bool) {\n        return isAlive[_Owner];\n    }\n\n    function verifySeller(address _sellerId) public {\n        require(isLandInspector(msg.sender));\n\n        SellerVerification[_sellerId] = true;\n        BuyerVerification[_sellerId] = true;\n        emit Verified(_sellerId);\n    }\n\n    function rejectSeller(address _sellerId) public {\n        require(isLandInspector(msg.sender));\n\n        SellerRejection[_sellerId] = true;\n        BuyerRejection[_sellerId] = true;\n        emit Rejected(_sellerId);\n    }\n\n    function verifyBuyer(address _buyerId) public {\n        require(isLandInspector(msg.sender));\n\n        BuyerVerification[_buyerId] = true;\n        emit Verified(_buyerId);\n    }\n\n    function rejectBuyer(address _buyerId) public {\n        require(isLandInspector(msg.sender));\n\n        BuyerRejection[_buyerId] = true;\n        emit Rejected(_buyerId);\n    }\n\n    function verifyLand(uint256 _landId) public {\n        require(isLandInspector(msg.sender));\n\n        LandVerification[_landId] = true;\n    }\n\n    function isLandVerified(uint256 _id) public view returns (bool) {\n        if (LandVerification[_id]) {\n            return true;\n        }\n    }\n\n    function isVerified(address _id) public view returns (bool) {\n        if (SellerVerification[_id] || BuyerVerification[_id]) {\n            return true;\n        }\n    }\n\n    function isRejected(address _id) public view returns (bool) {\n        if (SellerRejection[_id] || BuyerRejection[_id]) {\n            return true;\n        }\n    }\n\n    function isSeller(address _id) public view returns (bool) {\n        if (RegisteredSellerMapping[_id]) {\n            return true;\n        }\n    }\n\n    function isLandInspector(address _id) public view returns (bool) {\n        if (Land_Inspector == _id) {\n            return true;\n        } else {\n            return false;\n        }\n    }\n\n    function isBuyer(address _id) public view returns (bool) {\n        if (RegisteredBuyerMapping[_id]) {\n            return true;\n        }\n    }\n\n    function isRegistered(address _id) public view returns (bool) {\n        if (RegisteredAddressMapping[_id]) {\n            return true;\n        }\n    }\n\n    function addLand(\n        uint256 _area,\n        string memory _city,\n        string memory _state,\n        uint256 landPrice,\n        uint256 _propertyPID,\n        uint256 _surveyNum,\n        string memory _ipfsHash,\n        string memory _document,\n        address _nominee\n    ) public {\n        require((isSeller(msg.sender)) && (isVerified(msg.sender)));\n        landsCount++;\n        lands[landsCount] = Landreg(\n            landsCount,\n            _area,\n            _city,\n            _state,\n            landPrice,\n            _propertyPID,\n            _surveyNum,\n            _ipfsHash,\n            _document,\n            msg.sender,\n            _nominee\n        );\n        LandOwner[landsCount] = msg.sender;\n        // emit AddingLand(landsCount);\n    }\n\n    //registration of seller\n    function registerSeller(\n        string memory _name,\n        uint256 _age,\n        string memory _aadharNumber,\n        string memory _panNumber,\n        string memory _landsOwned,\n        string memory _document\n    ) public {\n        //require that Seller is not already registered\n        require(!RegisteredAddressMapping[msg.sender]);\n\n        RegisteredAddressMapping[msg.sender] = true;\n        RegisteredSellerMapping[msg.sender] = true;\n        sellersCount++;\n        SellerMapping[msg.sender] = Seller(\n            msg.sender,\n            _name,\n            _age,\n            _aadharNumber,\n            _panNumber,\n            _landsOwned,\n            _document\n        );\n        sellers.push(msg.sender);\n        emit Registration(msg.sender);\n    }\n\n    function updateSeller(\n        string memory _name,\n        uint256 _age,\n        string memory _aadharNumber,\n        string memory _panNumber,\n        string memory _landsOwned\n    ) public {\n        //require that Seller is already registered\n        require(\n            RegisteredAddressMapping[msg.sender] &&\n                (SellerMapping[msg.sender].id == msg.sender)\n        );\n\n        SellerMapping[msg.sender].name = _name;\n        SellerMapping[msg.sender].age = _age;\n        SellerMapping[msg.sender].aadharNumber = _aadharNumber;\n        SellerMapping[msg.sender].panNumber = _panNumber;\n        SellerMapping[msg.sender].landsOwned = _landsOwned;\n    }\n\n    function getSeller() public view returns (address[] memory) {\n        return (sellers);\n    }\n\n    function getSellerDetails(address i)\n        public\n        view\n        returns (\n            string memory,\n            uint256,\n            string memory,\n            string memory,\n            string memory,\n            string memory\n        )\n    {\n        return (\n            SellerMapping[i].name,\n            SellerMapping[i].age,\n            SellerMapping[i].aadharNumber,\n            SellerMapping[i].panNumber,\n            SellerMapping[i].landsOwned,\n            SellerMapping[i].document\n        );\n    }\n\n    function getLandDetails(uint256 i)\n        public\n        view\n        returns (\n            uint256,\n            uint256,\n            string memory,\n            string memory,\n            uint256,\n            uint256,\n            uint256\n        )\n    {\n        return (\n            lands[i].id,\n            lands[i].area,\n            lands[i].city,\n            lands[i].state,\n            lands[i].landPrice,\n            lands[i].propertyPID,\n            lands[i].physicalSurveyNumber\n        );\n    }\n\n    function registerBuyer(\n        string memory _name,\n        uint256 _age,\n        string memory _city,\n        string memory _aadharNumber,\n        string memory _panNumber,\n        string memory _document,\n        string memory _email\n    ) public {\n        //require that Buyer is not already registered\n        // require(!RegisteredAddressMapping[msg.sender]);\n\n        RegisteredAddressMapping[msg.sender] = true;\n        RegisteredBuyerMapping[msg.sender] = true;\n        buyersCount++;\n        BuyerMapping[msg.sender] = Buyer(\n            msg.sender,\n            _name,\n            _age,\n            _city,\n            _aadharNumber,\n            _panNumber,\n            _document,\n            _email\n        );\n        buyers.push(msg.sender);\n\n        emit Registration(msg.sender);\n    }\n\n    function registerUser(\n        string memory _name,\n        uint256 _age,\n        string memory _city,\n        string memory _aadharNumber,\n        string memory _panNumber,\n        string memory _landsOwned,\n        string memory _document,\n        string memory _email\n    ) public {\n        // require that Buyer is not already registered\n        require(!RegisteredAddressMapping[msg.sender]);\n\n        RegisteredAddressMapping[msg.sender] = true;\n        RegisteredBuyerMapping[msg.sender] = true;\n        buyersCount++;\n        BuyerMapping[msg.sender] = Buyer(\n            msg.sender,\n            _name,\n            _age,\n            _city,\n            _aadharNumber,\n            _panNumber,\n            _document,\n            _email\n        );\n        buyers.push(msg.sender);\n        RegisteredSellerMapping[msg.sender] = true;\n        sellersCount++;\n        SellerMapping[msg.sender] = Seller(\n            msg.sender,\n            _name,\n            _age,\n            _aadharNumber,\n            _panNumber,\n            _landsOwned,\n            _document\n        );\n        sellers.push(msg.sender);\n        // successors[msg.sender] = _succ;\n        isAlive[msg.sender] = true;\n        emit Registration(msg.sender);\n    }\n\n    function updateBuyer(\n        string memory _name,\n        uint256 _age,\n        string memory _city,\n        string memory _aadharNumber,\n        string memory _email,\n        string memory _panNumber\n    ) public {\n        //require that Buyer is already registered\n        require(\n            RegisteredAddressMapping[msg.sender] &&\n                (BuyerMapping[msg.sender].id == msg.sender)\n        );\n\n        BuyerMapping[msg.sender].name = _name;\n        BuyerMapping[msg.sender].age = _age;\n        BuyerMapping[msg.sender].city = _city;\n        BuyerMapping[msg.sender].aadharNumber = _aadharNumber;\n        BuyerMapping[msg.sender].email = _email;\n        BuyerMapping[msg.sender].panNumber = _panNumber;\n    }\n\n    function getBuyer() public view returns (address[] memory) {\n        return (buyers);\n    }\n\n    // function getSuccessor(address _Owner) public view returns (address) {\n    //     return successors[_Owner];\n    // }\n\n    function getBuyerDetails(address i)\n        public\n        view\n        returns (\n            string memory,\n            string memory,\n            string memory,\n            string memory,\n            string memory,\n            uint256,\n            string memory\n        )\n    {\n        return (\n            BuyerMapping[i].name,\n            BuyerMapping[i].city,\n            BuyerMapping[i].panNumber,\n            BuyerMapping[i].document,\n            BuyerMapping[i].email,\n            BuyerMapping[i].age,\n            BuyerMapping[i].aadharNumber\n        );\n    }\n\n    function requestLand(address _sellerId, uint256 _landId) public {\n        require(isBuyer(msg.sender) && isVerified(msg.sender));\n\n        requestsCount++;\n        RequestsMapping[requestsCount] = LandRequest(\n            requestsCount,\n            _sellerId,\n            msg.sender,\n            _landId\n        );\n        RequestStatus[requestsCount] = false;\n        RequestedLands[requestsCount] = true;\n\n        emit Landrequested(_sellerId);\n    }\n\n    function getRequestDetails(uint256 i)\n        public\n        view\n        returns (\n            address,\n            address,\n            uint256,\n            bool\n        )\n    {\n        return (\n            RequestsMapping[i].sellerId,\n            RequestsMapping[i].buyerId,\n            RequestsMapping[i].landId,\n            RequestStatus[i]\n        );\n    }\n\n    function isRequested(uint256 _id) public view returns (bool) {\n        if (RequestedLands[_id]) {\n            return true;\n        }\n    }\n\n    function isApproved(uint256 _id) public view returns (bool) {\n        if (RequestStatus[_id]) {\n            return true;\n        }\n    }\n\n    function approveRequest(uint256 _reqId) public {\n        require((isSeller(msg.sender)) && (isVerified(msg.sender)));\n\n        RequestStatus[_reqId] = true;\n    }\n\n    function LandOwnershipTransfer(uint256 _landId, address _newOwner) public {\n        require(isLandInspector(msg.sender));\n        lands[_landId].old_owner = LandOwner[_landId];\n        LandOwner[_landId] = _newOwner;\n    }\n\n    function isPaid(uint256 _landId) public view returns (bool) {\n        if (PaymentReceived[_landId]) {\n            return true;\n        }\n    }\n\n    function payment(address payable _receiver, uint256 _landId)\n        public\n        payable\n    {\n        PaymentReceived[_landId] = true;\n        _receiver.transfer(msg.value);\n    }\n\n    // function AfterDeath(address _Owner) public {\n    //     require(isLandInspector(msg.sender));\n\n    //     isAlive[_Owner] = false;\n    //     uint256 i;\n    //     for (i = 1; i <= landsCount; i++) {\n    //         if (LandOwner[i] == _Owner) {\n    //             lands[i].old_owner = LandOwner[i];\n    //             LandOwner[i] = successors[_Owner];\n    //         }\n    //     }\n\n    //     emit Succession(_Owner);\n    // }\n\n    function AfterDeath(address _Owner) public {\n        require(isLandInspector(msg.sender));\n        isAlive[_Owner] = false;\n        uint256 i;\n        for (i = 1; i <= landsCount; i++) {\n            if (LandOwner[i] == _Owner) {\n                lands[i].old_owner = LandOwner[i];\n                if (lands[i].nominee != address(0)) {\n                    LandOwner[i] = lands[i].nominee;\n                }\n                lands[i].nominee = address(0);\n            }\n        }\n    }\n}\n",
  "sourcePath": "/home/dheeraj/PROJECT/Land-Registration-with-Blockchain/contracts/Land.sol",
  "compiler": {
    "name": "solc",
    "version": "0.5.16+commit.9c3226ce.Emscripten.clang"
  },
  "schemaVersion": "3.4.8",
  "updatedAt": "2023-05-04T05:52:08.050Z",
  "networkType": "ethereum",
  "devdoc": {
    "methods": {}
  },
  "userdoc": {
    "methods": {}
  }
}