{
  "contractName": "Land",
  "abi": [
    {
      "inputs": [],
      "payable": false,
      "stateMutability": "nonpayable",
      "type": "constructor"
    },
    {
      "anonymous": false,
      "inputs": [
        {
          "indexed": true,
          "internalType": "uint256",
          "name": "_landId",
          "type": "uint256"
        }
      ],
      "name": "AddingLand",
      "type": "event"
    },
    {
      "anonymous": false,
      "inputs": [
        {
          "indexed": false,
          "internalType": "address",
          "name": "_sellerId",
          "type": "address"
        }
      ],
      "name": "Landrequested",
      "type": "event"
    },
    {
      "anonymous": false,
      "inputs": [
        {
          "indexed": false,
          "internalType": "address",
          "name": "_registrationId",
          "type": "address"
        }
      ],
      "name": "Registration",
      "type": "event"
    },
    {
      "anonymous": false,
      "inputs": [
        {
          "indexed": false,
          "internalType": "address",
          "name": "_id",
          "type": "address"
        }
      ],
      "name": "Rejected",
      "type": "event"
    },
    {
      "anonymous": false,
      "inputs": [
        {
          "indexed": false,
          "internalType": "address",
          "name": "_Owner",
          "type": "address"
        }
      ],
      "name": "Succession",
      "type": "event"
    },
    {
      "anonymous": false,
      "inputs": [
        {
          "indexed": false,
          "internalType": "address",
          "name": "_id",
          "type": "address"
        }
      ],
      "name": "Verified",
      "type": "event"
    },
    {
      "anonymous": false,
      "inputs": [
        {
          "indexed": false,
          "internalType": "address",
          "name": "_buyerId",
          "type": "address"
        }
      ],
      "name": "requestApproved",
      "type": "event"
    },
    {
      "constant": true,
      "inputs": [
        {
          "internalType": "address",
          "name": "",
          "type": "address"
        }
      ],
      "name": "BuyerMapping",
      "outputs": [
        {
          "internalType": "address",
          "name": "id",
          "type": "address"
        },
        {
          "internalType": "string",
          "name": "name",
          "type": "string"
        },
        {
          "internalType": "uint256",
          "name": "age",
          "type": "uint256"
        },
        {
          "internalType": "string",
          "name": "city",
          "type": "string"
        },
        {
          "internalType": "string",
          "name": "aadharNumber",
          "type": "string"
        },
        {
          "internalType": "string",
          "name": "panNumber",
          "type": "string"
        },
        {
          "internalType": "string",
          "name": "document",
          "type": "string"
        },
        {
          "internalType": "string",
          "name": "email",
          "type": "string"
        }
      ],
      "payable": false,
      "stateMutability": "view",
      "type": "function"
    },
    {
      "constant": true,
      "inputs": [
        {
          "internalType": "address",
          "name": "",
          "type": "address"
        }
      ],
      "name": "BuyerRejection",
      "outputs": [
        {
          "internalType": "bool",
          "name": "",
          "type": "bool"
        }
      ],
      "payable": false,
      "stateMutability": "view",
      "type": "function"
    },
    {
      "constant": true,
      "inputs": [
        {
          "internalType": "address",
          "name": "",
          "type": "address"
        }
      ],
      "name": "BuyerVerification",
      "outputs": [
        {
          "internalType": "bool",
          "name": "",
          "type": "bool"
        }
      ],
      "payable": false,
      "stateMutability": "view",
      "type": "function"
    },
    {
      "constant": true,
      "inputs": [
        {
          "internalType": "uint256",
          "name": "",
          "type": "uint256"
        }
      ],
      "name": "InspectorMapping",
      "outputs": [
        {
          "internalType": "uint256",
          "name": "id",
          "type": "uint256"
        },
        {
          "internalType": "string",
          "name": "name",
          "type": "string"
        },
        {
          "internalType": "uint256",
          "name": "age",
          "type": "uint256"
        },
        {
          "internalType": "string",
          "name": "designation",
          "type": "string"
        }
      ],
      "payable": false,
      "stateMutability": "view",
      "type": "function"
    },
    {
      "constant": true,
      "inputs": [
        {
          "internalType": "uint256",
          "name": "",
          "type": "uint256"
        }
      ],
      "name": "LandOwner",
      "outputs": [
        {
          "internalType": "address",
          "name": "",
          "type": "address"
        }
      ],
      "payable": false,
      "stateMutability": "view",
      "type": "function"
    },
    {
      "constant": true,
      "inputs": [
        {
          "internalType": "uint256",
          "name": "",
          "type": "uint256"
        }
      ],
      "name": "LandVerification",
      "outputs": [
        {
          "internalType": "bool",
          "name": "",
          "type": "bool"
        }
      ],
      "payable": false,
      "stateMutability": "view",
      "type": "function"
    },
    {
      "constant": true,
      "inputs": [],
      "name": "Land_Inspector",
      "outputs": [
        {
          "internalType": "address",
          "name": "",
          "type": "address"
        }
      ],
      "payable": false,
      "stateMutability": "view",
      "type": "function"
    },
    {
      "constant": true,
      "inputs": [
        {
          "internalType": "uint256",
          "name": "",
          "type": "uint256"
        }
      ],
      "name": "PaymentReceived",
      "outputs": [
        {
          "internalType": "bool",
          "name": "",
          "type": "bool"
        }
      ],
      "payable": false,
      "stateMutability": "view",
      "type": "function"
    },
    {
      "constant": true,
      "inputs": [
        {
          "internalType": "address",
          "name": "",
          "type": "address"
        }
      ],
      "name": "RegisteredAddressMapping",
      "outputs": [
        {
          "internalType": "bool",
          "name": "",
          "type": "bool"
        }
      ],
      "payable": false,
      "stateMutability": "view",
      "type": "function"
    },
    {
      "constant": true,
      "inputs": [
        {
          "internalType": "address",
          "name": "",
          "type": "address"
        }
      ],
      "name": "RegisteredBuyerMapping",
      "outputs": [
        {
          "internalType": "bool",
          "name": "",
          "type": "bool"
        }
      ],
      "payable": false,
      "stateMutability": "view",
      "type": "function"
    },
    {
      "constant": true,
      "inputs": [
        {
          "internalType": "address",
          "name": "",
          "type": "address"
        }
      ],
      "name": "RegisteredSellerMapping",
      "outputs": [
        {
          "internalType": "bool",
          "name": "",
          "type": "bool"
        }
      ],
      "payable": false,
      "stateMutability": "view",
      "type": "function"
    },
    {
      "constant": true,
      "inputs": [
        {
          "internalType": "uint256",
          "name": "",
          "type": "uint256"
        }
      ],
      "name": "RequestStatus",
      "outputs": [
        {
          "internalType": "bool",
          "name": "",
          "type": "bool"
        }
      ],
      "payable": false,
      "stateMutability": "view",
      "type": "function"
    },
    {
      "constant": true,
      "inputs": [
        {
          "internalType": "uint256",
          "name": "",
          "type": "uint256"
        }
      ],
      "name": "RequestedLands",
      "outputs": [
        {
          "internalType": "bool",
          "name": "",
          "type": "bool"
        }
      ],
      "payable": false,
      "stateMutability": "view",
      "type": "function"
    },
    {
      "constant": true,
      "inputs": [
        {
          "internalType": "uint256",
          "name": "",
          "type": "uint256"
        }
      ],
      "name": "RequestsMapping",
      "outputs": [
        {
          "internalType": "uint256",
          "name": "reqId",
          "type": "uint256"
        },
        {
          "internalType": "address",
          "name": "sellerId",
          "type": "address"
        },
        {
          "internalType": "address",
          "name": "buyerId",
          "type": "address"
        },
        {
          "internalType": "uint256",
          "name": "landId",
          "type": "uint256"
        }
      ],
      "payable": false,
      "stateMutability": "view",
      "type": "function"
    },
    {
      "constant": true,
      "inputs": [
        {
          "internalType": "address",
          "name": "",
          "type": "address"
        }
      ],
      "name": "SellerMapping",
      "outputs": [
        {
          "internalType": "address",
          "name": "id",
          "type": "address"
        },
        {
          "internalType": "string",
          "name": "name",
          "type": "string"
        },
        {
          "internalType": "uint256",
          "name": "age",
          "type": "uint256"
        },
        {
          "internalType": "string",
          "name": "aadharNumber",
          "type": "string"
        },
        {
          "internalType": "string",
          "name": "panNumber",
          "type": "string"
        },
        {
          "internalType": "string",
          "name": "landsOwned",
          "type": "string"
        },
        {
          "internalType": "string",
          "name": "document",
          "type": "string"
        }
      ],
      "payable": false,
      "stateMutability": "view",
      "type": "function"
    },
    {
      "constant": true,
      "inputs": [
        {
          "internalType": "address",
          "name": "",
          "type": "address"
        }
      ],
      "name": "SellerRejection",
      "outputs": [
        {
          "internalType": "bool",
          "name": "",
          "type": "bool"
        }
      ],
      "payable": false,
      "stateMutability": "view",
      "type": "function"
    },
    {
      "constant": true,
      "inputs": [
        {
          "internalType": "address",
          "name": "",
          "type": "address"
        }
      ],
      "name": "SellerVerification",
      "outputs": [
        {
          "internalType": "bool",
          "name": "",
          "type": "bool"
        }
      ],
      "payable": false,
      "stateMutability": "view",
      "type": "function"
    },
    {
      "constant": true,
      "inputs": [
        {
          "internalType": "uint256",
          "name": "",
          "type": "uint256"
        }
      ],
      "name": "buyers",
      "outputs": [
        {
          "internalType": "address",
          "name": "",
          "type": "address"
        }
      ],
      "payable": false,
      "stateMutability": "view",
      "type": "function"
    },
    {
      "constant": true,
      "inputs": [],
      "name": "buyersCount",
      "outputs": [
        {
          "internalType": "uint256",
          "name": "",
          "type": "uint256"
        }
      ],
      "payable": false,
      "stateMutability": "view",
      "type": "function"
    },
    {
      "constant": true,
      "inputs": [
        {
          "internalType": "uint256",
          "name": "",
          "type": "uint256"
        }
      ],
      "name": "details",
      "outputs": [
        {
          "internalType": "uint256",
          "name": "id",
          "type": "uint256"
        },
        {
          "internalType": "uint256",
          "name": "ownerCount",
          "type": "uint256"
        }
      ],
      "payable": false,
      "stateMutability": "view",
      "type": "function"
    },
    {
      "constant": true,
      "inputs": [],
      "name": "inspectorsCount",
      "outputs": [
        {
          "internalType": "uint256",
          "name": "",
          "type": "uint256"
        }
      ],
      "payable": false,
      "stateMutability": "view",
      "type": "function"
    },
    {
      "constant": true,
      "inputs": [
        {
          "internalType": "address",
          "name": "",
          "type": "address"
        }
      ],
      "name": "isAlive",
      "outputs": [
        {
          "internalType": "bool",
          "name": "",
          "type": "bool"
        }
      ],
      "payable": false,
      "stateMutability": "view",
      "type": "function"
    },
    {
      "constant": true,
      "inputs": [
        {
          "internalType": "uint256",
          "name": "",
          "type": "uint256"
        }
      ],
      "name": "lands",
      "outputs": [
        {
          "internalType": "uint256",
          "name": "id",
          "type": "uint256"
        },
        {
          "internalType": "uint256",
          "name": "area",
          "type": "uint256"
        },
        {
          "internalType": "string",
          "name": "state",
          "type": "string"
        },
        {
          "internalType": "uint256",
          "name": "landPrice",
          "type": "uint256"
        },
        {
          "internalType": "uint256",
          "name": "propertyPID",
          "type": "uint256"
        },
        {
          "internalType": "uint256",
          "name": "physicalSurveyNumber",
          "type": "uint256"
        },
        {
          "internalType": "string",
          "name": "ipfsHash",
          "type": "string"
        },
        {
          "internalType": "string",
          "name": "document",
          "type": "string"
        },
        {
          "internalType": "address",
          "name": "old_owner",
          "type": "address"
        },
        {
          "internalType": "address",
          "name": "nominee",
          "type": "address"
        },
        {
          "internalType": "string",
          "name": "lat",
          "type": "string"
        },
        {
          "internalType": "string",
          "name": "lng",
          "type": "string"
        }
      ],
      "payable": false,
      "stateMutability": "view",
      "type": "function"
    },
    {
      "constant": true,
      "inputs": [],
      "name": "landsCount",
      "outputs": [
        {
          "internalType": "uint256",
          "name": "",
          "type": "uint256"
        }
      ],
      "payable": false,
      "stateMutability": "view",
      "type": "function"
    },
    {
      "constant": true,
      "inputs": [
        {
          "internalType": "uint256",
          "name": "",
          "type": "uint256"
        },
        {
          "internalType": "uint256",
          "name": "",
          "type": "uint256"
        }
      ],
      "name": "owners",
      "outputs": [
        {
          "internalType": "address",
          "name": "",
          "type": "address"
        }
      ],
      "payable": false,
      "stateMutability": "view",
      "type": "function"
    },
    {
      "constant": true,
      "inputs": [],
      "name": "requestsCount",
      "outputs": [
        {
          "internalType": "uint256",
          "name": "",
          "type": "uint256"
        }
      ],
      "payable": false,
      "stateMutability": "view",
      "type": "function"
    },
    {
      "constant": true,
      "inputs": [
        {
          "internalType": "uint256",
          "name": "",
          "type": "uint256"
        }
      ],
      "name": "sellers",
      "outputs": [
        {
          "internalType": "address",
          "name": "",
          "type": "address"
        }
      ],
      "payable": false,
      "stateMutability": "view",
      "type": "function"
    },
    {
      "constant": true,
      "inputs": [],
      "name": "sellersCount",
      "outputs": [
        {
          "internalType": "uint256",
          "name": "",
          "type": "uint256"
        }
      ],
      "payable": false,
      "stateMutability": "view",
      "type": "function"
    },
    {
      "constant": true,
      "inputs": [
        {
          "internalType": "uint256",
          "name": "i",
          "type": "uint256"
        }
      ],
      "name": "getPrevious",
      "outputs": [
        {
          "internalType": "address",
          "name": "",
          "type": "address"
        }
      ],
      "payable": false,
      "stateMutability": "view",
      "type": "function"
    },
    {
      "constant": true,
      "inputs": [
        {
          "internalType": "uint256",
          "name": "i",
          "type": "uint256"
        }
      ],
      "name": "isSame",
      "outputs": [
        {
          "internalType": "bool",
          "name": "",
          "type": "bool"
        }
      ],
      "payable": false,
      "stateMutability": "view",
      "type": "function"
    },
    {
      "constant": true,
      "inputs": [],
      "name": "getLandsCount",
      "outputs": [
        {
          "internalType": "uint256",
          "name": "",
          "type": "uint256"
        }
      ],
      "payable": false,
      "stateMutability": "view",
      "type": "function"
    },
    {
      "constant": true,
      "inputs": [],
      "name": "getBuyersCount",
      "outputs": [
        {
          "internalType": "uint256",
          "name": "",
          "type": "uint256"
        }
      ],
      "payable": false,
      "stateMutability": "view",
      "type": "function"
    },
    {
      "constant": true,
      "inputs": [],
      "name": "getSellersCount",
      "outputs": [
        {
          "internalType": "uint256",
          "name": "",
          "type": "uint256"
        }
      ],
      "payable": false,
      "stateMutability": "view",
      "type": "function"
    },
    {
      "constant": true,
      "inputs": [],
      "name": "getRequestsCount",
      "outputs": [
        {
          "internalType": "uint256",
          "name": "",
          "type": "uint256"
        }
      ],
      "payable": false,
      "stateMutability": "view",
      "type": "function"
    },
    {
      "constant": true,
      "inputs": [
        {
          "internalType": "uint256",
          "name": "i",
          "type": "uint256"
        }
      ],
      "name": "getNominee",
      "outputs": [
        {
          "internalType": "address",
          "name": "",
          "type": "address"
        }
      ],
      "payable": false,
      "stateMutability": "view",
      "type": "function"
    },
    {
      "constant": true,
      "inputs": [
        {
          "internalType": "uint256",
          "name": "i",
          "type": "uint256"
        }
      ],
      "name": "getArea",
      "outputs": [
        {
          "internalType": "uint256",
          "name": "",
          "type": "uint256"
        }
      ],
      "payable": false,
      "stateMutability": "view",
      "type": "function"
    },
    {
      "constant": true,
      "inputs": [
        {
          "internalType": "uint256",
          "name": "i",
          "type": "uint256"
        }
      ],
      "name": "getState",
      "outputs": [
        {
          "internalType": "string",
          "name": "",
          "type": "string"
        }
      ],
      "payable": false,
      "stateMutability": "view",
      "type": "function"
    },
    {
      "constant": true,
      "inputs": [
        {
          "internalType": "uint256",
          "name": "i",
          "type": "uint256"
        }
      ],
      "name": "getOwnerCount",
      "outputs": [
        {
          "internalType": "uint256",
          "name": "",
          "type": "uint256"
        }
      ],
      "payable": false,
      "stateMutability": "view",
      "type": "function"
    },
    {
      "constant": true,
      "inputs": [
        {
          "internalType": "uint256",
          "name": "i",
          "type": "uint256"
        },
        {
          "internalType": "uint256",
          "name": "j",
          "type": "uint256"
        }
      ],
      "name": "getOwnerDetails",
      "outputs": [
        {
          "internalType": "address",
          "name": "",
          "type": "address"
        }
      ],
      "payable": false,
      "stateMutability": "view",
      "type": "function"
    },
    {
      "constant": true,
      "inputs": [
        {
          "internalType": "uint256",
          "name": "i",
          "type": "uint256"
        }
      ],
      "name": "getPrice",
      "outputs": [
        {
          "internalType": "uint256",
          "name": "",
          "type": "uint256"
        }
      ],
      "payable": false,
      "stateMutability": "view",
      "type": "function"
    },
    {
      "constant": true,
      "inputs": [
        {
          "internalType": "uint256",
          "name": "i",
          "type": "uint256"
        }
      ],
      "name": "getPID",
      "outputs": [
        {
          "internalType": "uint256",
          "name": "",
          "type": "uint256"
        }
      ],
      "payable": false,
      "stateMutability": "view",
      "type": "function"
    },
    {
      "constant": true,
      "inputs": [
        {
          "internalType": "uint256",
          "name": "i",
          "type": "uint256"
        }
      ],
      "name": "getSurveyNumber",
      "outputs": [
        {
          "internalType": "uint256",
          "name": "",
          "type": "uint256"
        }
      ],
      "payable": false,
      "stateMutability": "view",
      "type": "function"
    },
    {
      "constant": true,
      "inputs": [
        {
          "internalType": "uint256",
          "name": "i",
          "type": "uint256"
        }
      ],
      "name": "getImage",
      "outputs": [
        {
          "internalType": "string",
          "name": "",
          "type": "string"
        }
      ],
      "payable": false,
      "stateMutability": "view",
      "type": "function"
    },
    {
      "constant": true,
      "inputs": [
        {
          "internalType": "uint256",
          "name": "i",
          "type": "uint256"
        }
      ],
      "name": "getDocument",
      "outputs": [
        {
          "internalType": "string",
          "name": "",
          "type": "string"
        }
      ],
      "payable": false,
      "stateMutability": "view",
      "type": "function"
    },
    {
      "constant": true,
      "inputs": [
        {
          "internalType": "uint256",
          "name": "id",
          "type": "uint256"
        }
      ],
      "name": "getLandOwner",
      "outputs": [
        {
          "internalType": "address",
          "name": "",
          "type": "address"
        }
      ],
      "payable": false,
      "stateMutability": "view",
      "type": "function"
    },
    {
      "constant": true,
      "inputs": [
        {
          "internalType": "address",
          "name": "_Owner",
          "type": "address"
        }
      ],
      "name": "getAlive",
      "outputs": [
        {
          "internalType": "bool",
          "name": "",
          "type": "bool"
        }
      ],
      "payable": false,
      "stateMutability": "view",
      "type": "function"
    },
    {
      "constant": false,
      "inputs": [
        {
          "internalType": "address",
          "name": "_sellerId",
          "type": "address"
        }
      ],
      "name": "verifySeller",
      "outputs": [],
      "payable": false,
      "stateMutability": "nonpayable",
      "type": "function"
    },
    {
      "constant": false,
      "inputs": [
        {
          "internalType": "address",
          "name": "_sellerId",
          "type": "address"
        }
      ],
      "name": "rejectSeller",
      "outputs": [],
      "payable": false,
      "stateMutability": "nonpayable",
      "type": "function"
    },
    {
      "constant": false,
      "inputs": [
        {
          "internalType": "address",
          "name": "_buyerId",
          "type": "address"
        }
      ],
      "name": "verifyBuyer",
      "outputs": [],
      "payable": false,
      "stateMutability": "nonpayable",
      "type": "function"
    },
    {
      "constant": false,
      "inputs": [
        {
          "internalType": "address",
          "name": "_buyerId",
          "type": "address"
        }
      ],
      "name": "rejectBuyer",
      "outputs": [],
      "payable": false,
      "stateMutability": "nonpayable",
      "type": "function"
    },
    {
      "constant": false,
      "inputs": [
        {
          "internalType": "uint256",
          "name": "_landId",
          "type": "uint256"
        }
      ],
      "name": "verifyLand",
      "outputs": [],
      "payable": false,
      "stateMutability": "nonpayable",
      "type": "function"
    },
    {
      "constant": true,
      "inputs": [
        {
          "internalType": "uint256",
          "name": "_id",
          "type": "uint256"
        }
      ],
      "name": "isLandVerified",
      "outputs": [
        {
          "internalType": "bool",
          "name": "",
          "type": "bool"
        }
      ],
      "payable": false,
      "stateMutability": "view",
      "type": "function"
    },
    {
      "constant": true,
      "inputs": [
        {
          "internalType": "address",
          "name": "_id",
          "type": "address"
        }
      ],
      "name": "isVerified",
      "outputs": [
        {
          "internalType": "bool",
          "name": "",
          "type": "bool"
        }
      ],
      "payable": false,
      "stateMutability": "view",
      "type": "function"
    },
    {
      "constant": true,
      "inputs": [
        {
          "internalType": "address",
          "name": "_id",
          "type": "address"
        }
      ],
      "name": "isRejected",
      "outputs": [
        {
          "internalType": "bool",
          "name": "",
          "type": "bool"
        }
      ],
      "payable": false,
      "stateMutability": "view",
      "type": "function"
    },
    {
      "constant": true,
      "inputs": [
        {
          "internalType": "address",
          "name": "_id",
          "type": "address"
        }
      ],
      "name": "isSeller",
      "outputs": [
        {
          "internalType": "bool",
          "name": "",
          "type": "bool"
        }
      ],
      "payable": false,
      "stateMutability": "view",
      "type": "function"
    },
    {
      "constant": true,
      "inputs": [
        {
          "internalType": "address",
          "name": "_id",
          "type": "address"
        }
      ],
      "name": "isLandInspector",
      "outputs": [
        {
          "internalType": "bool",
          "name": "",
          "type": "bool"
        }
      ],
      "payable": false,
      "stateMutability": "view",
      "type": "function"
    },
    {
      "constant": true,
      "inputs": [
        {
          "internalType": "address",
          "name": "_id",
          "type": "address"
        }
      ],
      "name": "isBuyer",
      "outputs": [
        {
          "internalType": "bool",
          "name": "",
          "type": "bool"
        }
      ],
      "payable": false,
      "stateMutability": "view",
      "type": "function"
    },
    {
      "constant": true,
      "inputs": [
        {
          "internalType": "address",
          "name": "_id",
          "type": "address"
        }
      ],
      "name": "isRegistered",
      "outputs": [
        {
          "internalType": "bool",
          "name": "",
          "type": "bool"
        }
      ],
      "payable": false,
      "stateMutability": "view",
      "type": "function"
    },
    {
      "constant": false,
      "inputs": [
        {
          "internalType": "uint256",
          "name": "_area",
          "type": "uint256"
        },
        {
          "internalType": "string",
          "name": "_state",
          "type": "string"
        },
        {
          "internalType": "uint256",
          "name": "landPrice",
          "type": "uint256"
        },
        {
          "internalType": "uint256",
          "name": "_propertyPID",
          "type": "uint256"
        },
        {
          "internalType": "uint256",
          "name": "_surveyNum",
          "type": "uint256"
        },
        {
          "internalType": "string",
          "name": "_ipfsHash",
          "type": "string"
        },
        {
          "internalType": "string",
          "name": "_document",
          "type": "string"
        },
        {
          "internalType": "address",
          "name": "_nominee",
          "type": "address"
        },
        {
          "internalType": "string",
          "name": "_lat",
          "type": "string"
        },
        {
          "internalType": "string",
          "name": "_lng",
          "type": "string"
        }
      ],
      "name": "addLand",
      "outputs": [],
      "payable": false,
      "stateMutability": "nonpayable",
      "type": "function"
    },
    {
      "constant": true,
      "inputs": [
        {
          "internalType": "uint256",
          "name": "i",
          "type": "uint256"
        }
      ],
      "name": "getLandDetails",
      "outputs": [
        {
          "internalType": "uint256",
          "name": "",
          "type": "uint256"
        },
        {
          "internalType": "uint256",
          "name": "",
          "type": "uint256"
        },
        {
          "internalType": "string",
          "name": "",
          "type": "string"
        },
        {
          "internalType": "string",
          "name": "",
          "type": "string"
        },
        {
          "internalType": "uint256",
          "name": "",
          "type": "uint256"
        },
        {
          "internalType": "string",
          "name": "",
          "type": "string"
        },
        {
          "internalType": "string",
          "name": "",
          "type": "string"
        }
      ],
      "payable": false,
      "stateMutability": "view",
      "type": "function"
    },
    {
      "constant": true,
      "inputs": [
        {
          "internalType": "uint256",
          "name": "i",
          "type": "uint256"
        }
      ],
      "name": "getLandOwnerDetails",
      "outputs": [
        {
          "internalType": "uint256",
          "name": "",
          "type": "uint256"
        },
        {
          "internalType": "uint256",
          "name": "",
          "type": "uint256"
        },
        {
          "internalType": "string",
          "name": "",
          "type": "string"
        },
        {
          "internalType": "string",
          "name": "",
          "type": "string"
        },
        {
          "internalType": "uint256",
          "name": "",
          "type": "uint256"
        },
        {
          "internalType": "string",
          "name": "",
          "type": "string"
        },
        {
          "internalType": "string",
          "name": "",
          "type": "string"
        }
      ],
      "payable": false,
      "stateMutability": "view",
      "type": "function"
    },
    {
      "constant": false,
      "inputs": [
        {
          "internalType": "string",
          "name": "_name",
          "type": "string"
        },
        {
          "internalType": "uint256",
          "name": "_age",
          "type": "uint256"
        },
        {
          "internalType": "string",
          "name": "_aadharNumber",
          "type": "string"
        },
        {
          "internalType": "string",
          "name": "_panNumber",
          "type": "string"
        },
        {
          "internalType": "string",
          "name": "_landsOwned",
          "type": "string"
        },
        {
          "internalType": "string",
          "name": "_document",
          "type": "string"
        }
      ],
      "name": "registerSeller",
      "outputs": [],
      "payable": false,
      "stateMutability": "nonpayable",
      "type": "function"
    },
    {
      "constant": false,
      "inputs": [
        {
          "internalType": "string",
          "name": "_name",
          "type": "string"
        },
        {
          "internalType": "uint256",
          "name": "_age",
          "type": "uint256"
        },
        {
          "internalType": "string",
          "name": "_aadharNumber",
          "type": "string"
        },
        {
          "internalType": "string",
          "name": "_panNumber",
          "type": "string"
        },
        {
          "internalType": "string",
          "name": "_landsOwned",
          "type": "string"
        }
      ],
      "name": "updateSeller",
      "outputs": [],
      "payable": false,
      "stateMutability": "nonpayable",
      "type": "function"
    },
    {
      "constant": true,
      "inputs": [],
      "name": "getSeller",
      "outputs": [
        {
          "internalType": "address[]",
          "name": "",
          "type": "address[]"
        }
      ],
      "payable": false,
      "stateMutability": "view",
      "type": "function"
    },
    {
      "constant": true,
      "inputs": [
        {
          "internalType": "address",
          "name": "i",
          "type": "address"
        }
      ],
      "name": "getSellerDetails",
      "outputs": [
        {
          "internalType": "string",
          "name": "",
          "type": "string"
        },
        {
          "internalType": "uint256",
          "name": "",
          "type": "uint256"
        },
        {
          "internalType": "string",
          "name": "",
          "type": "string"
        },
        {
          "internalType": "string",
          "name": "",
          "type": "string"
        },
        {
          "internalType": "string",
          "name": "",
          "type": "string"
        },
        {
          "internalType": "string",
          "name": "",
          "type": "string"
        }
      ],
      "payable": false,
      "stateMutability": "view",
      "type": "function"
    },
    {
      "constant": false,
      "inputs": [
        {
          "internalType": "string",
          "name": "_name",
          "type": "string"
        },
        {
          "internalType": "uint256",
          "name": "_age",
          "type": "uint256"
        },
        {
          "internalType": "string",
          "name": "_city",
          "type": "string"
        },
        {
          "internalType": "string",
          "name": "_aadharNumber",
          "type": "string"
        },
        {
          "internalType": "string",
          "name": "_panNumber",
          "type": "string"
        },
        {
          "internalType": "string",
          "name": "_document",
          "type": "string"
        },
        {
          "internalType": "string",
          "name": "_email",
          "type": "string"
        }
      ],
      "name": "registerBuyer",
      "outputs": [],
      "payable": false,
      "stateMutability": "nonpayable",
      "type": "function"
    },
    {
      "constant": false,
      "inputs": [
        {
          "internalType": "string",
          "name": "_name",
          "type": "string"
        },
        {
          "internalType": "uint256",
          "name": "_age",
          "type": "uint256"
        },
        {
          "internalType": "string",
          "name": "_city",
          "type": "string"
        },
        {
          "internalType": "string",
          "name": "_aadharNumber",
          "type": "string"
        },
        {
          "internalType": "string",
          "name": "_panNumber",
          "type": "string"
        },
        {
          "internalType": "string",
          "name": "_landsOwned",
          "type": "string"
        },
        {
          "internalType": "string",
          "name": "_document",
          "type": "string"
        },
        {
          "internalType": "string",
          "name": "_email",
          "type": "string"
        }
      ],
      "name": "registerUser",
      "outputs": [],
      "payable": false,
      "stateMutability": "nonpayable",
      "type": "function"
    },
    {
      "constant": false,
      "inputs": [
        {
          "internalType": "string",
          "name": "_name",
          "type": "string"
        },
        {
          "internalType": "uint256",
          "name": "_age",
          "type": "uint256"
        },
        {
          "internalType": "string",
          "name": "_city",
          "type": "string"
        },
        {
          "internalType": "string",
          "name": "_aadharNumber",
          "type": "string"
        },
        {
          "internalType": "string",
          "name": "_email",
          "type": "string"
        },
        {
          "internalType": "string",
          "name": "_panNumber",
          "type": "string"
        }
      ],
      "name": "updateBuyer",
      "outputs": [],
      "payable": false,
      "stateMutability": "nonpayable",
      "type": "function"
    },
    {
      "constant": true,
      "inputs": [],
      "name": "getBuyer",
      "outputs": [
        {
          "internalType": "address[]",
          "name": "",
          "type": "address[]"
        }
      ],
      "payable": false,
      "stateMutability": "view",
      "type": "function"
    },
    {
      "constant": true,
      "inputs": [
        {
          "internalType": "address",
          "name": "i",
          "type": "address"
        }
      ],
      "name": "getBuyerDetails",
      "outputs": [
        {
          "internalType": "string",
          "name": "",
          "type": "string"
        },
        {
          "internalType": "string",
          "name": "",
          "type": "string"
        },
        {
          "internalType": "string",
          "name": "",
          "type": "string"
        },
        {
          "internalType": "string",
          "name": "",
          "type": "string"
        },
        {
          "internalType": "string",
          "name": "",
          "type": "string"
        },
        {
          "internalType": "uint256",
          "name": "",
          "type": "uint256"
        },
        {
          "internalType": "string",
          "name": "",
          "type": "string"
        }
      ],
      "payable": false,
      "stateMutability": "view",
      "type": "function"
    },
    {
      "constant": false,
      "inputs": [
        {
          "internalType": "address",
          "name": "_sellerId",
          "type": "address"
        },
        {
          "internalType": "uint256",
          "name": "_landId",
          "type": "uint256"
        }
      ],
      "name": "requestLand",
      "outputs": [],
      "payable": false,
      "stateMutability": "nonpayable",
      "type": "function"
    },
    {
      "constant": true,
      "inputs": [
        {
          "internalType": "uint256",
          "name": "i",
          "type": "uint256"
        }
      ],
      "name": "getRequestDetails",
      "outputs": [
        {
          "internalType": "address",
          "name": "",
          "type": "address"
        },
        {
          "internalType": "address",
          "name": "",
          "type": "address"
        },
        {
          "internalType": "uint256",
          "name": "",
          "type": "uint256"
        },
        {
          "internalType": "bool",
          "name": "",
          "type": "bool"
        }
      ],
      "payable": false,
      "stateMutability": "view",
      "type": "function"
    },
    {
      "constant": true,
      "inputs": [
        {
          "internalType": "uint256",
          "name": "_id",
          "type": "uint256"
        }
      ],
      "name": "isRequested",
      "outputs": [
        {
          "internalType": "bool",
          "name": "",
          "type": "bool"
        }
      ],
      "payable": false,
      "stateMutability": "view",
      "type": "function"
    },
    {
      "constant": true,
      "inputs": [
        {
          "internalType": "uint256",
          "name": "_id",
          "type": "uint256"
        }
      ],
      "name": "isApproved",
      "outputs": [
        {
          "internalType": "bool",
          "name": "",
          "type": "bool"
        }
      ],
      "payable": false,
      "stateMutability": "view",
      "type": "function"
    },
    {
      "constant": false,
      "inputs": [
        {
          "internalType": "uint256",
          "name": "_reqId",
          "type": "uint256"
        }
      ],
      "name": "approveRequest",
      "outputs": [],
      "payable": false,
      "stateMutability": "nonpayable",
      "type": "function"
    },
    {
      "constant": false,
      "inputs": [
        {
          "internalType": "uint256",
          "name": "_landId",
          "type": "uint256"
        },
        {
          "internalType": "address",
          "name": "_newOwner",
          "type": "address"
        }
      ],
      "name": "LandOwnershipTransfer",
      "outputs": [],
      "payable": false,
      "stateMutability": "nonpayable",
      "type": "function"
    },
    {
      "constant": true,
      "inputs": [
        {
          "internalType": "uint256",
          "name": "_landId",
          "type": "uint256"
        }
      ],
      "name": "isPaid",
      "outputs": [
        {
          "internalType": "bool",
          "name": "",
          "type": "bool"
        }
      ],
      "payable": false,
      "stateMutability": "view",
      "type": "function"
    },
    {
      "constant": false,
      "inputs": [
        {
          "internalType": "address payable",
          "name": "_receiver",
          "type": "address"
        },
        {
          "internalType": "uint256",
          "name": "_landId",
          "type": "uint256"
        }
      ],
      "name": "payment",
      "outputs": [],
      "payable": true,
      "stateMutability": "payable",
      "type": "function"
    },
    {
      "constant": false,
      "inputs": [
        {
          "internalType": "address",
          "name": "_Owner",
          "type": "address"
        }
      ],
      "name": "AfterDeath",
      "outputs": [],
      "payable": false,
      "stateMutability": "nonpayable",
      "type": "function"
    }
  ],
  "bytecode": "0x60806040523480156200001157600080fd5b5060148054600160a060020a03191633179055604080518082018252600b81527f496e73706563746f7220310000000000000000000000000000000000000000006020808301919091528251808401909352600e83527f54656873696c204d616e6167657200000000000000000000000000000000000090830152620000a391602d90640100000000620000a9810204565b620001d8565b60188054600190810191829055604080516080810182528381526020808201888152828401889052606083018790526000958652600382529290942081518155915180519194929362000103939085019291019062000133565b5060408201516002820155606082015180516200012b91600384019160209091019062000133565b505050505050565b828054600181600116156101000203166002900490600052602060002090601f016020900481019282601f106200017657805160ff1916838001178555620001a6565b82800160010185558215620001a6579182015b82811115620001a657825182559160200191906001019062000189565b50620001b4929150620001b8565b5090565b620001d591905b80821115620001b45760008155600101620001bf565b90565b614a7680620001e86000396000f3fe608060405260043610610575576000357c010000000000000000000000000000000000000000000000000000000090048063941e2426116102e7578063d7d1bbdb11610196578063e7572230116100f3578063f3f0c218116100a7578063f9c43bdf1161008c578063f9c43bdf14610f75578063fbfa4b7f14610f95578063fe0cb7dc14610d3857610575565b8063f3f0c21814610f35578063f58f85b514610f5557610575565b8063f0d3a9df116100d8578063f0d3a9df14610ed0578063f2aa821814610ee5578063f34d4c6314610f0557610575565b8063e757223014610e90578063ee95feaf14610eb057610575565b8063def936c31161014a578063e1ecc7941161012f578063e1ecc79414610e18578063e261f1e514610e38578063e4b2611514610e7057610575565b8063def936c314610dc8578063e165af8714610df857610575565b8063dbd0e1b61161017b578063dbd0e1b614610d6b578063dd9d122d14610d80578063dec091ad14610d9557610575565b8063d7d1bbdb14610d18578063daa68ec014610d3857610575565b8063b0a5dcd311610244578063c3c5a547116101f8578063cd392a83116101dd578063cd392a8314610cb8578063cee26ed514610cd8578063d1760e6014610cf857610575565b8063c3c5a54714610c78578063c560b4e514610c9857610575565b8063b9209e3311610229578063b9209e3314610c23578063ba49a08c14610c43578063bed403c714610c5857610575565b8063b0a5dcd314610bc1578063b3c8fe8514610bf157610575565b8063a47d4c021161029b578063a51be0db11610280578063a51be0db14610b4d578063a6dc41fb14610b6d578063ab51707414610b8d57610575565b8063a47d4c0214610b0d578063a4a0f6c014610b2d57610575565b80639ae9711e116102cc5780639ae9711e14610aaa5780639dc1bfa914610abf578063a005ec7a14610adf57610575565b8063941e242614610a75578063989376b414610a8a57610575565b80634daa9dae1161044357806370c15651116103a05780638965cde1116103545780638c5e13e5116103395780638c5e13e514610a155780638cd869a414610a355780639338364814610a5557610575565b80638965cde1146109d557806389d21354146109f557610575565b80637a4a8b66116103855780637a4a8b6614610975578063835465011461099557806388b4680e146109b557610575565b806370c15651146109355780637910867b1461095557610575565b80636490c7a8116103f75780636814800b116103dc5780636814800b146108c257806368cfe6ee146108e25780636cbf6cf81461091557610575565b80636490c7a81461088f57806367a09c23146108af57610575565b8063601e7c3411610428578063601e7c341461082d578063603daf9a1461084d57806363f171431461086f57610575565b80634daa9dae146107ed5780634e2cba091461080d57610575565b80631c9afd0f116104f15780633410452a116104a557806344c9af281161048a57806344c9af281461078d5780634528b357146107ad57806348a46bd3146107cd57610575565b80633410452a146107585780633f9b250a1461076d57610575565b806327ebf531116104d657806327ebf531146106f85780632a55feec1461071857806333764f531461073857610575565b80631c9afd0f146106b65780632607aafa146106cb57610575565b806316d9d66611610548578063170f39091161052d578063170f3909146106545780631869a38b146106765780631a07f76e1461069657610575565b806316d9d6661461061f5780631703e5f91461063457610575565b806307d56ac01461057a57806311ce462c146105b057806313f66c9a146105d2578063155fec72146105f2575b600080fd5b34801561058657600080fd5b5061059a61059536600461421a565b610faa565b6040516105a7919061475e565b60405180910390f35b3480156105bc57600080fd5b506105d06105cb366004613e9a565b610fc2565b005b3480156105de57600080fd5b5061059a6105ed36600461421a565b6110d2565b3480156105fe57600080fd5b5061061261060d36600461421a565b6110e7565b6040516105a79190614643565b34801561062b57600080fd5b5061059a611106565b34801561064057600080fd5b5061061261064f366004613d66565b61110d565b34801561066057600080fd5b50610669611122565b6040516105a791906144a7565b34801561068257600080fd5b5061066961069136600461421a565b611131565b3480156106a257600080fd5b506106126106b136600461421a565b61114c565b3480156106c257600080fd5b5061059a611161565b3480156106d757600080fd5b506106eb6106e636600461421a565b611167565b6040516105a79190614651565b34801561070457600080fd5b5061066961071336600461421a565b611209565b34801561072457600080fd5b50610612610733366004613d66565b611227565b34801561074457600080fd5b506106696107533660046143b9565b611250565b34801561076457600080fd5b5061059a61127b565b34801561077957600080fd5b506106eb61078836600461421a565b611281565b34801561079957600080fd5b506106eb6107a836600461421a565b6112ec565b3480156107b957600080fd5b506106696107c836600461421a565b611356565b3480156107d957600080fd5b506106126107e8366004613d66565b611374565b3480156107f957600080fd5b5061061261080836600461421a565b6113c0565b34801561081957600080fd5b506105d0610828366004613f98565b6113d5565b34801561083957600080fd5b50610612610848366004613d66565b6115bf565b34801561085957600080fd5b506108626115d4565b6040516105a7919061462b565b34801561087b57600080fd5b5061061261088a366004613d66565b611636565b34801561089b57600080fd5b5061059a6108aa36600461421a565b61164b565b6105d06108bd366004613d8c565b611660565b3480156108ce57600080fd5b506105d06108dd366004613d66565b6116ad565b3480156108ee57600080fd5b506109026108fd366004613d66565b61171d565b6040516105a79796959493929190614662565b34801561092157600080fd5b5061061261093036600461421a565b611acf565b34801561094157600080fd5b506106696109503660046143b9565b611aee565b34801561096157600080fd5b5061061261097036600461421a565b611b1b565b34801561098157600080fd5b506105d06109903660046140c3565b611b3a565b3480156109a157600080fd5b506106126109b036600461421a565b611f1d565b3480156109c157600080fd5b506106126109d0366004613d66565b611f32565b3480156109e157600080fd5b506105d06109f0366004613d66565b611f50565b348015610a0157600080fd5b50610612610a1036600461421a565b611fb5565b348015610a2157600080fd5b50610612610a3036600461421a565b611fca565b348015610a4157600080fd5b506105d0610a50366004613d66565b61200a565b348015610a6157600080fd5b506105d0610a70366004613e9a565b61213a565b348015610a8157600080fd5b5061059a61231c565b348015610a9657600080fd5b50610612610aa5366004613d66565b612322565b348015610ab657600080fd5b5061059a612337565b348015610acb57600080fd5b50610669610ada36600461421a565b61233d565b348015610aeb57600080fd5b50610aff610afa36600461421a565b612358565b6040516105a79291906147ec565b348015610b1957600080fd5b50610612610b28366004613d66565b612371565b348015610b3957600080fd5b5061059a610b4836600461421a565b612386565b348015610b5957600080fd5b506105d0610b68366004614268565b61239b565b348015610b7957600080fd5b50610612610b88366004613d66565b6125b7565b348015610b9957600080fd5b50610bad610ba8366004613d66565b6125cc565b6040516105a798979695949392919061458b565b348015610bcd57600080fd5b50610be1610bdc36600461421a565b612958565b6040516105a7949392919061476c565b348015610bfd57600080fd5b50610c11610c0c366004613d66565b61298c565b6040516105a7969594939291906146e4565b348015610c2f57600080fd5b50610612610c3e366004613d66565b612ca2565b348015610c4f57600080fd5b5061059a612ced565b348015610c6457600080fd5b506105d0610c73366004614238565b612cf3565b348015610c8457600080fd5b50610612610c93366004613d66565b612dba565b348015610ca457600080fd5b506105d0610cb3366004613dc6565b612de3565b348015610cc457600080fd5b50610612610cd336600461421a565b612ecb565b348015610ce457600080fd5b50610669610cf336600461421a565b612eea565b348015610d0457600080fd5b506105d0610d13366004613d66565b612f11565b348015610d2457600080fd5b506105d0610d3336600461421a565b612f8e565b348015610d4457600080fd5b50610d58610d5336600461421a565b612fcb565b6040516105a79796959493929190614807565b348015610d7757600080fd5b50610862613205565b348015610d8c57600080fd5b5061059a613265565b348015610da157600080fd5b50610db5610db0366004613d66565b61326b565b6040516105a79796959493929190614501565b348015610dd457600080fd5b50610de8610de336600461421a565b613567565b6040516105a794939291906147a1565b348015610e0457600080fd5b50610612610e13366004613d66565b6136a6565b348015610e2457600080fd5b506105d0610e33366004613d66565b6136c7565b348015610e4457600080fd5b50610e58610e5336600461421a565b613744565b6040516105a79c9b9a99989796959493929190614869565b348015610e7c57600080fd5b50610612610e8b366004613d66565b613a5f565b348015610e9c57600080fd5b5061059a610eab36600461421a565b613a74565b348015610ebc57600080fd5b50610612610ecb366004613d66565b613a89565b348015610edc57600080fd5b5061059a613ab2565b348015610ef157600080fd5b50610669610f0036600461421a565b613ab8565b348015610f1157600080fd5b50610f25610f2036600461421a565b613ac5565b6040516105a794939291906144c3565b348015610f4157600080fd5b506105d0610f50366004613d8c565b613b07565b348015610f6157600080fd5b50610612610f70366004613d66565b613c1c565b348015610f8157600080fd5b506105d0610f9036600461421a565b613c31565b348015610fa157600080fd5b5061059a613c5e565b6000818152600260205260409020600401545b919050565b3360009081526007602052604090205460ff168015610ff7575033600081815260056020526040902054600160a060020a0316145b61100057600080fd5b336000908152600560209081526040909120875161102692600190920191890190613c64565b5033600090815260056020908152604090912060028101879055855161105492600390920191870190613c64565b50336000908152600560209081526040909120845161107b92600490920191860190613c64565b5033600090815260056020908152604090912083516110a292600790920191850190613c64565b5033600090815260056020818152604090922083516110c993919092019190840190613c64565b50505050505050565b60009081526020819052604090206001015490565b60008181526011602052604081205460ff1615610fbd57506001610fbd565b6017545b90565b60136020526000908152604090205460ff1681565b601454600160a060020a031681565b6000908152600f6020526040902054600160a060020a031690565b60126020526000908152604090205460ff1681565b60175481565b600081815260026020818152604092839020600601805484516001821615610100026000190190911693909304601f810183900483028401830190945283835260609390918301828280156111fd5780601f106111d2576101008083540402835291602001916111fd565b820191906000526020600020905b8154815290600101906020018083116111e057829003601f168201915b50505050509050919050565b600090815260026020526040902060090154600160a060020a031690565b600160a060020a03811660009081526009602052604081205460ff1615610fbd57506001610fbd565b600160205281600052604060002081600a811061126957fe5b0154600160a060020a03169150829050565b601b5490565b600081815260026020818152604092839020600701805484516001821615610100026000190190911693909304601f810183900483028401830190945283835260609390918301828280156111fd5780601f106111d2576101008083540402835291602001916111fd565b6000818152600260208181526040928390208201805484516001821615610100026000190190911693909304601f810183900483028401830190945283835260609390918301828280156111fd5780601f106111d2576101008083540402835291602001916111fd565b600090815260026020526040902060080154600160a060020a031690565b600160a060020a0381166000908152600b602052604081205460ff16806113b35750600160a060020a0382166000908152600d602052604090205460ff165b15610fbd57506001610fbd565b60116020526000908152604090205460ff1681565b3360008181526007602090815260408083208054600160ff19918216811790925560098452828520805490911682179055601a8054820190558151610100810183528581528084018d81528184018d9052606082018c9052608082018b905260a082018a905260c0820189905260e0820188905295855260058452919093208151815473ffffffffffffffffffffffffffffffffffffffff1916600160a060020a03909116178155935180519194936114949390850192910190613c64565b5060408201516002820155606082015180516114ba916003840191602090910190613c64565b50608082015180516114d6916004840191602090910190613c64565b5060a082015180516114f2916005840191602090910190613c64565b5060c0820151805161150e916006840191602090910190613c64565b5060e0820151805161152a916007840191602090910190613c64565b5050601680546001810182556000919091527fd833147d7dc355ba459fc788f669e58cfaf9dc25ddcd0702e87d69c7b512428901805473ffffffffffffffffffffffffffffffffffffffff1916339081179091556040517f478f5152d8fc568db3f8de9fb402fd9d98a1a7541ecfe434e59cf574fbfc552492506115ae91906144b5565b60405180910390a150505050505050565b60086020526000908152604090205460ff1681565b6060601680548060200260200160405190810160405280929190818152602001828054801561162c57602002820191906000526020600020905b8154600160a060020a0316815260019091019060200180831161160e575b5050505050905090565b600b6020526000908152604090205460ff1681565b60009081526002602052604090206001015490565b600081815260126020526040808220805460ff1916600117905551600160a060020a038416913480156108fc02929091818181858888f193505050501580156116a857600080fd5b505050565b6116b6336136a6565b6116bf57600080fd5b600160a060020a0381166000908152600c602052604090819020805460ff19166001179055517f6a6455914f452787eb3985452aceedc1000fb545e394eb3b370e3d08958e0a5b906117129083906144a7565b60405180910390a150565b600160a060020a03811660009081526005602081815260408084206002808201546001808401805486519281161561010002600019011693909304601f81018790048702820187019095528481526060978897889788978897939688969095600386019594850194600681019460078201946004909201929189918301828280156117e95780601f106117be576101008083540402835291602001916117e9565b820191906000526020600020905b8154815290600101906020018083116117cc57829003601f168201915b5050895460408051602060026001851615610100026000190190941693909304601f8101849004840282018401909252818152959c508b9450925084019050828280156118775780601f1061184c57610100808354040283529160200191611877565b820191906000526020600020905b81548152906001019060200180831161185a57829003601f168201915b5050885460408051602060026001851615610100026000190190941693909304601f8101849004840282018401909252818152959b508a9450925084019050828280156119055780601f106118da57610100808354040283529160200191611905565b820191906000526020600020905b8154815290600101906020018083116118e857829003601f168201915b5050875460408051602060026001851615610100026000190190941693909304601f8101849004840282018401909252818152959a50899450925084019050828280156119935780601f1061196857610100808354040283529160200191611993565b820191906000526020600020905b81548152906001019060200180831161197657829003601f168201915b5050865460408051602060026001851615610100026000190190941693909304601f810184900484028201840190925281815295995088945092508401905082828015611a215780601f106119f657610100808354040283529160200191611a21565b820191906000526020600020905b815481529060010190602001808311611a0457829003601f168201915b5050845460408051602060026001851615610100026000190190941693909304601f810184900484028201840190925281815295985086945092508401905082828015611aaf5780601f10611a8457610100808354040283529160200191611aaf565b820191906000526020600020905b815481529060010190602001808311611a9257829003601f168201915b505050505090509650965096509650965096509650919395979092949650565b6000818152600e602052604081205460ff1615610fbd57506001610fbd565b600082815260016020526040812082600a8110611b0757fe5b0154600160a060020a031690505b92915050565b60008181526010602052604081205460ff1615610fbd57506001610fbd565b3360009081526007602052604090205460ff1615611b5757600080fd5b3360008181526007602090815260408083208054600160ff19918216811790925560098452828520805490911682179055601a8054820190558151610100810183528581528084018e81528184018e9052606082018d9052608082018c905260a082018b905260c0820189905260e0820188905295855260058452919093208151815473ffffffffffffffffffffffffffffffffffffffff1916600160a060020a0390911617815593518051919493611c169390850192910190613c64565b506040820151600282015560608201518051611c3c916003840191602090910190613c64565b5060808201518051611c58916004840191602090910190613c64565b5060a08201518051611c74916005840191602090910190613c64565b5060c08201518051611c90916006840191602090910190613c64565b5060e08201518051611cac916007840191602090910190613c64565b5090505060163390806001815401808255809150509060018203906000526020600020016000909192909190916101000a815481600160a060020a030219169083600160a060020a031602179055505060016008600033600160a060020a0316600160a060020a0316815260200190815260200160002060006101000a81548160ff0219169083151502179055506019600081548092919060010191905055506040518060e0016040528033600160a060020a03168152602001898152602001888152602001868152602001858152602001848152602001838152506004600033600160a060020a0316600160a060020a0316815260200190815260200160002060008201518160000160006101000a815481600160a060020a030219169083600160a060020a031602179055506020820151816001019080519060200190611df6929190613c64565b506040820151600282015560608201518051611e1c916003840191602090910190613c64565b5060808201518051611e38916004840191602090910190613c64565b5060a08201518051611e54916005840191602090910190613c64565b5060c08201518051611e70916006840191602090910190613c64565b50506015805460018181019092557f55f448fdea98c4d29eb340757ef0a66cd03dbb9538908a6a81d96026b71ec47501805473ffffffffffffffffffffffffffffffffffffffff19163390811790915560008181526013602052604090819020805460ff191690931790925590517f478f5152d8fc568db3f8de9fb402fd9d98a1a7541ecfe434e59cf574fbfc55249250611f0b91906144b5565b60405180910390a15050505050505050565b600e6020526000908152604090205460ff1681565b600160a060020a031660009081526013602052604090205460ff1690565b611f59336136a6565b611f6257600080fd5b600160a060020a0381166000908152600d602052604090819020805460ff19166001179055517faf77f8960cf590e245ec8b6d41c193a5dcacad8986ae4eb57ac9e5be7b6af031906117129083906144a7565b60106020526000908152604090205460ff1681565b6000818152600f60209081526040808320546002909252822060080154600160a060020a039081169116141561200257506001610fbd565b506000610fbd565b612013336136a6565b61201c57600080fd5b600160a060020a0381166000908152601360205260409020805460ff1916905560015b6017548111612136576000818152600f6020526040902054600160a060020a038381169116141561212e576000818152600f6020908152604080832054600290925290912060088101805473ffffffffffffffffffffffffffffffffffffffff1916600160a060020a0393841617905560090154161561210157600081815260026020908152604080832060090154600f909252909120805473ffffffffffffffffffffffffffffffffffffffff1916600160a060020a039092169190911790555b6000818152600260205260409020600901805473ffffffffffffffffffffffffffffffffffffffff191690555b60010161203f565b5050565b3360009081526007602052604090205460ff161561215757600080fd5b3360008181526007602090815260408083208054600160ff199182168117909255600884528285208054909116821790556019805482019055815160e0810183528581528084018c81528184018c9052606082018b9052608082018a905260a0820189905260c0820188905295855260048452919093208151815473ffffffffffffffffffffffffffffffffffffffff1916600160a060020a039091161781559351805191949361220e9390850192910190613c64565b506040820151600282015560608201518051612234916003840191602090910190613c64565b5060808201518051612250916004840191602090910190613c64565b5060a0820151805161226c916005840191602090910190613c64565b5060c08201518051612288916006840191602090910190613c64565b5050601580546001810182556000919091527f55f448fdea98c4d29eb340757ef0a66cd03dbb9538908a6a81d96026b71ec47501805473ffffffffffffffffffffffffffffffffffffffff1916339081179091556040517f478f5152d8fc568db3f8de9fb402fd9d98a1a7541ecfe434e59cf574fbfc5524925061230c91906144b5565b60405180910390a1505050505050565b60185481565b600d6020526000908152604090205460ff1681565b60195481565b600f60205260009081526040902054600160a060020a031681565b6000602081905290815260409020805460019091015482565b60096020526000908152604090205460ff1681565b60009081526002602052604090206005015490565b6123a433613a89565b80156123b457506123b433612ca2565b6123bd57600080fd5b60178054600190810191829055604080516101808101825283815260208082018f81528284018f8152606084018f9052608084018e905260a084018d905260c084018c905260e084018b905233610100850152600160a060020a038a166101208501526101408401899052610160840188905260009687526002808452949096208351815590519481019490945593518051919461246093850192910190613c64565b50606082015160038201556080820151600482015560a0820151600582015560c0820151805161249a916006840191602090910190613c64565b5060e082015180516124b6916007840191602090910190613c64565b50610100820151600882018054600160a060020a0392831673ffffffffffffffffffffffffffffffffffffffff1991821617909155610120840151600984018054919093169116179055610140820151805161251c91600a840191602090910190613c64565b50610160820151805161253991600b840191602090910190613c64565b5050601780546000908152600f6020908152604080832080543373ffffffffffffffffffffffffffffffffffffffff1991821681179092558554855260018085528386208054909216909217905581518083018352945480865285840182815290855292849052922092518355519101555050505050505050505050565b600c6020526000908152604090205460ff1681565b6005602090815260009182526040918290208054600180830180548651600261010094831615949094026000190190911692909204601f8101869004860283018601909652858252600160a060020a039092169492939092908301828280156126765780601f1061264b57610100808354040283529160200191612676565b820191906000526020600020905b81548152906001019060200180831161265957829003601f168201915b505050506002838101546003850180546040805160206001841615610100026000190190931695909504601f81018390048302860183019091528085529596929592945090919083018282801561270e5780601f106126e35761010080835404028352916020019161270e565b820191906000526020600020905b8154815290600101906020018083116126f157829003601f168201915b5050505060048301805460408051602060026001851615610100026000190190941693909304601f810184900484028201840190925281815294959493509083018282801561279e5780601f106127735761010080835404028352916020019161279e565b820191906000526020600020905b81548152906001019060200180831161278157829003601f168201915b5050505060058301805460408051602060026001851615610100026000190190941693909304601f810184900484028201840190925281815294959493509083018282801561282e5780601f106128035761010080835404028352916020019161282e565b820191906000526020600020905b81548152906001019060200180831161281157829003601f168201915b5050505060068301805460408051602060026001851615610100026000190190941693909304601f81018490048402820184019092528181529495949350908301828280156128be5780601f10612893576101008083540402835291602001916128be565b820191906000526020600020905b8154815290600101906020018083116128a157829003601f168201915b5050505060078301805460408051602060026001851615610100026000190190941693909304601f810184900484028201840190925281815294959493509083018282801561294e5780601f106129235761010080835404028352916020019161294e565b820191906000526020600020905b81548152906001019060200180831161293157829003601f168201915b5050505050905088565b60066020526000908152604090208054600182015460028301546003909301549192600160a060020a039182169291169084565b600160a060020a03811660009081526004602081815260408084206002808201546001808401805486519281161561010002600019011693909304601f81018790048702820187019095528481526060979688968796879687969594600382019482019360058301936006909301928891830182828015612a4e5780601f10612a2357610100808354040283529160200191612a4e565b820191906000526020600020905b815481529060010190602001808311612a3157829003601f168201915b5050875460408051602060026001851615610100026000190190941693909304601f8101849004840282018401909252818152959b5089945092508401905082828015612adc5780601f10612ab157610100808354040283529160200191612adc565b820191906000526020600020905b815481529060010190602001808311612abf57829003601f168201915b5050865460408051602060026001851615610100026000190190941693909304601f810184900484028201840190925281815295995088945092508401905082828015612b6a5780601f10612b3f57610100808354040283529160200191612b6a565b820191906000526020600020905b815481529060010190602001808311612b4d57829003601f168201915b5050855460408051602060026001851615610100026000190190941693909304601f810184900484028201840190925281815295985087945092508401905082828015612bf85780601f10612bcd57610100808354040283529160200191612bf8565b820191906000526020600020905b815481529060010190602001808311612bdb57829003601f168201915b5050845460408051602060026001851615610100026000190190941693909304601f810184900484028201840190925281815295975086945092508401905082828015612c865780601f10612c5b57610100808354040283529160200191612c86565b820191906000526020600020905b815481529060010190602001808311612c6957829003601f168201915b5050505050905095509550955095509550955091939550919395565b600160a060020a0381166000908152600a602052604081205460ff16806113b35750600160a060020a0382166000908152600c602052604090205460ff1615610fbd57506001610fbd565b601a5481565b612cfc336136a6565b612d0557600080fd5b6000828152600f60209081526040808320805460028452828520600881018054600160a060020a0393841673ffffffffffffffffffffffffffffffffffffffff1991821617909155835481169288169290921790925560099091018054909116905560018083528184209284905292208201805492830190558291600a8110612d8a57fe5b01805473ffffffffffffffffffffffffffffffffffffffff1916600160a060020a03929092169190911790555050565b600160a060020a03811660009081526007602052604081205460ff1615610fbd57506001610fbd565b3360009081526007602052604090205460ff168015612e18575033600081815260046020526040902054600160a060020a0316145b612e2157600080fd5b3360009081526004602090815260409091208651612e4792600190920191880190613c64565b50336000908152600460209081526040909120600281018690558451612e7592600390920191860190613c64565b503360009081526004602081815260409092208451612e9c93919092019190850190613c64565b503360009081526004602090815260409091208251612ec392600590920191840190613c64565b505050505050565b60008181526012602052604081205460ff1615610fbd57506001610fbd565b60158181548110612ef757fe5b600091825260209091200154600160a060020a0316905081565b612f1a336136a6565b612f2357600080fd5b600160a060020a0381166000908152600a602090815260408083208054600160ff199182168117909255600c9093529281902080549092169092179055517f6a6455914f452787eb3985452aceedc1000fb545e394eb3b370e3d08958e0a5b906117129083906144a7565b612f9733613a89565b8015612fa75750612fa733612ca2565b612fb057600080fd5b6000908152601060205260409020805460ff19166001179055565b600081815260026020818152604080842080546001808301546003840154848801805487519481161561010002600019011698909804601f8101889004880284018801909652858352889760609788978a978997889790969585949093600a840193600b0192918691908301828280156130865780601f1061305b57610100808354040283529160200191613086565b820191906000526020600020905b81548152906001019060200180831161306957829003601f168201915b5050875460408051602060026001851615610100026000190190941693909304601f8101849004840282018401909252818152959a50899450925084019050828280156131145780601f106130e957610100808354040283529160200191613114565b820191906000526020600020905b8154815290600101906020018083116130f757829003601f168201915b5050855460408051602060026001851615610100026000190190941693909304601f8101849004840282018401909252818152959950879450925084019050828280156131a25780601f10613177576101008083540402835291602001916131a2565b820191906000526020600020905b81548152906001019060200180831161318557829003601f168201915b5050845460408051602060026001851615610100026000190190941693909304601f810184900484028201840190925281815295975086945092508401905082828015611aaf5780601f10611a8457610100808354040283529160200191611aaf565b6060601580548060200260200160405190810160405280929190818152602001828054801561162c57602002820191906000526020600020908154600160a060020a0316815260019091019060200180831161160e575050505050905090565b60195490565b6004602090815260009182526040918290208054600180830180548651600261010094831615949094026000190190911692909204601f8101869004860283018601909652858252600160a060020a039092169492939092908301828280156133155780601f106132ea57610100808354040283529160200191613315565b820191906000526020600020905b8154815290600101906020018083116132f857829003601f168201915b505050506002838101546003850180546040805160206001841615610100026000190190931695909504601f8101839004830286018301909152808552959692959294509091908301828280156133ad5780601f10613382576101008083540402835291602001916133ad565b820191906000526020600020905b81548152906001019060200180831161339057829003601f168201915b5050505060048301805460408051602060026001851615610100026000190190941693909304601f810184900484028201840190925281815294959493509083018282801561343d5780601f106134125761010080835404028352916020019161343d565b820191906000526020600020905b81548152906001019060200180831161342057829003601f168201915b5050505060058301805460408051602060026001851615610100026000190190941693909304601f81018490048402820184019092528181529495949350908301828280156134cd5780601f106134a2576101008083540402835291602001916134cd565b820191906000526020600020905b8154815290600101906020018083116134b057829003601f168201915b5050505060068301805460408051602060026001851615610100026000190190941693909304601f810184900484028201840190925281815294959493509083018282801561355d5780601f106135325761010080835404028352916020019161355d565b820191906000526020600020905b81548152906001019060200180831161354057829003601f168201915b5050505050905087565b6003602090815260009182526040918290208054600180830180548651600293821615610100026000190190911692909204601f8101869004860283018601909652858252919492939092908301828280156136045780601f106135d957610100808354040283529160200191613604565b820191906000526020600020905b8154815290600101906020018083116135e757829003601f168201915b505050506002838101546003850180546040805160206001841615610100026000190190931695909504601f81018390048302860183019091528085529596929592945090919083018282801561369c5780601f106136715761010080835404028352916020019161369c565b820191906000526020600020905b81548152906001019060200180831161367f57829003601f168201915b5050505050905084565b601454600090600160a060020a038381169116141561200257506001610fbd565b6136d0336136a6565b6136d957600080fd5b600160a060020a0381166000908152600b602090815260408083208054600160ff199182168117909255600d9093529281902080549092169092179055517faf77f8960cf590e245ec8b6d41c193a5dcacad8986ae4eb57ac9e5be7b6af031906117129083906144a7565b6002602081815260009283526040928390208054600180830154838601805488519381161561010002600019011696909604601f8101869004860283018601909752868252919591949293909291908301828280156137e45780601f106137b9576101008083540402835291602001916137e4565b820191906000526020600020905b8154815290600101906020018083116137c757829003601f168201915b505050600384015460048501546005860154600687018054604080516020601f600260001961010060018816150201909516949094049384018190048102820181019092528281529899959894975092955090918301828280156138895780601f1061385e57610100808354040283529160200191613889565b820191906000526020600020905b81548152906001019060200180831161386c57829003601f168201915b5050505060078301805460408051602060026001851615610100026000190190941693909304601f81018490048402820184019092528181529495949350908301828280156139195780601f106138ee57610100808354040283529160200191613919565b820191906000526020600020905b8154815290600101906020018083116138fc57829003601f168201915b5050505060088301546009840154600a8501805460408051602060026101006001861615026000190190941693909304601f81018490048402820184019092528181529697600160a060020a0395861697959094169550929392908301828280156139c55780601f1061399a576101008083540402835291602001916139c5565b820191906000526020600020905b8154815290600101906020018083116139a857829003601f168201915b50505050600b8301805460408051602060026001851615610100026000190190941693909304601f8101849004840282018401909252818152949594935090830182828015613a555780601f10613a2a57610100808354040283529160200191613a55565b820191906000526020600020905b815481529060010190602001808311613a3857829003601f168201915b505050505090508c565b600a6020526000908152604090205460ff1681565b60009081526002602052604090206003015490565b600160a060020a03811660009081526008602052604081205460ff1615610fbd57506001610fbd565b601a5490565b60168181548110612ef757fe5b60009081526006602090815260408083206001810154600282015460039092015460109094529190932054600160a060020a0391821694919093169260ff1690565b613b1033611227565b8015613b205750613b2033612ca2565b613b2957600080fd5b601b8054600190810180835560408051608081018252828152600160a060020a03808816602080840191825233848601908152606085018a8152600097885260068352868820955186559251858901805491861673ffffffffffffffffffffffffffffffffffffffff19928316179055905160028601805491909516911617909255516003909201919091558454835260108152818320805460ff199081169091559454835260119052908190208054909316909117909155517fc67eb70629da758128cec22f7e36ad0676066ad4df9b66e8ba58a30c1ab4075b90613c109084906144a7565b60405180910390a15050565b60076020526000908152604090205460ff1681565b613c3a336136a6565b613c4357600080fd5b6000908152600e60205260409020805460ff19166001179055565b601b5481565b828054600181600116156101000203166002900490600052602060002090601f016020900481019282601f10613ca557805160ff1916838001178555613cd2565b82800160010185558215613cd2579182015b82811115613cd2578251825591602001919060010190613cb7565b50613cde929150613ce2565b5090565b61110a91905b80821115613cde5760008155600101613ce8565b8035611b1581614a13565b600082601f830112613d1857600080fd5b8135613d2b613d2682614965565b61493e565b91508082526020830160208301858383011115613d4757600080fd5b613d528382846149cd565b50505092915050565b8035611b1581614a2a565b600060208284031215613d7857600080fd5b6000613d848484613cfc565b949350505050565b60008060408385031215613d9f57600080fd5b6000613dab8585613cfc565b9250506020613dbc85828601613d5b565b9150509250929050565b600080600080600060a08688031215613dde57600080fd5b853567ffffffffffffffff811115613df557600080fd5b613e0188828901613d07565b9550506020613e1288828901613d5b565b945050604086013567ffffffffffffffff811115613e2f57600080fd5b613e3b88828901613d07565b935050606086013567ffffffffffffffff811115613e5857600080fd5b613e6488828901613d07565b925050608086013567ffffffffffffffff811115613e8157600080fd5b613e8d88828901613d07565b9150509295509295909350565b60008060008060008060c08789031215613eb357600080fd5b863567ffffffffffffffff811115613eca57600080fd5b613ed689828a01613d07565b9650506020613ee789828a01613d5b565b955050604087013567ffffffffffffffff811115613f0457600080fd5b613f1089828a01613d07565b945050606087013567ffffffffffffffff811115613f2d57600080fd5b613f3989828a01613d07565b935050608087013567ffffffffffffffff811115613f5657600080fd5b613f6289828a01613d07565b92505060a087013567ffffffffffffffff811115613f7f57600080fd5b613f8b89828a01613d07565b9150509295509295509295565b600080600080600080600060e0888a031215613fb357600080fd5b873567ffffffffffffffff811115613fca57600080fd5b613fd68a828b01613d07565b9750506020613fe78a828b01613d5b565b965050604088013567ffffffffffffffff81111561400457600080fd5b6140108a828b01613d07565b955050606088013567ffffffffffffffff81111561402d57600080fd5b6140398a828b01613d07565b945050608088013567ffffffffffffffff81111561405657600080fd5b6140628a828b01613d07565b93505060a088013567ffffffffffffffff81111561407f57600080fd5b61408b8a828b01613d07565b92505060c088013567ffffffffffffffff8111156140a857600080fd5b6140b48a828b01613d07565b91505092959891949750929550565b600080600080600080600080610100898b0312156140e057600080fd5b883567ffffffffffffffff8111156140f757600080fd5b6141038b828c01613d07565b98505060206141148b828c01613d5b565b975050604089013567ffffffffffffffff81111561413157600080fd5b61413d8b828c01613d07565b965050606089013567ffffffffffffffff81111561415a57600080fd5b6141668b828c01613d07565b955050608089013567ffffffffffffffff81111561418357600080fd5b61418f8b828c01613d07565b94505060a089013567ffffffffffffffff8111156141ac57600080fd5b6141b88b828c01613d07565b93505060c089013567ffffffffffffffff8111156141d557600080fd5b6141e18b828c01613d07565b92505060e089013567ffffffffffffffff8111156141fe57600080fd5b61420a8b828c01613d07565b9150509295985092959890939650565b60006020828403121561422c57600080fd5b6000613d848484613d5b565b6000806040838503121561424b57600080fd5b60006142578585613d5b565b9250506020613dbc85828601613cfc565b6000806000806000806000806000806101408b8d03121561428857600080fd5b60006142948d8d613d5b565b9a505060208b013567ffffffffffffffff8111156142b157600080fd5b6142bd8d828e01613d07565b99505060406142ce8d828e01613d5b565b98505060606142df8d828e01613d5b565b97505060806142f08d828e01613d5b565b96505060a08b013567ffffffffffffffff81111561430d57600080fd5b6143198d828e01613d07565b95505060c08b013567ffffffffffffffff81111561433657600080fd5b6143428d828e01613d07565b94505060e06143538d828e01613cfc565b9350506101008b013567ffffffffffffffff81111561437157600080fd5b61437d8d828e01613d07565b9250506101208b013567ffffffffffffffff81111561439b57600080fd5b6143a78d828e01613d07565b9150509295989b9194979a5092959850565b600080604083850312156143cc57600080fd5b6000613dab8585613d5b565b60006143e483836143fb565b505060200190565b6143f5816149bc565b82525050565b6143f5816149a0565b600061440f82614993565b6144198185614997565b93506144248361498d565b8060005b8381101561445257815161443c88826143d8565b97506144478361498d565b925050600101614428565b509495945050505050565b6143f5816149ab565b600061447182614993565b61447b8185614997565b935061448b8185602086016149d9565b61449481614a09565b9093019392505050565b6143f58161110a565b60208101611b1582846143fb565b60208101611b1582846143ec565b608081016144d182876143fb565b6144de60208301866143fb565b6144eb604083018561449e565b6144f8606083018461445d565b95945050505050565b60e0810161450f828a6143fb565b81810360208301526145218189614466565b9050614530604083018861449e565b81810360608301526145428187614466565b905081810360808301526145568186614466565b905081810360a083015261456a8185614466565b905081810360c083015261457e8184614466565b9998505050505050505050565b610100810161459a828b6143fb565b81810360208301526145ac818a614466565b90506145bb604083018961449e565b81810360608301526145cd8188614466565b905081810360808301526145e18187614466565b905081810360a08301526145f58186614466565b905081810360c08301526146098185614466565b905081810360e083015261461d8184614466565b9a9950505050505050505050565b6020808252810161463c8184614404565b9392505050565b60208101611b15828461445d565b6020808252810161463c8184614466565b60e08082528101614673818a614466565b905081810360208301526146878189614466565b9050818103604083015261469b8188614466565b905081810360608301526146af8187614466565b905081810360808301526146c38186614466565b90506146d260a083018561449e565b81810360c083015261457e8184614466565b60c080825281016146f58189614466565b9050614704602083018861449e565b81810360408301526147168187614466565b9050818103606083015261472a8186614466565b9050818103608083015261473e8185614466565b905081810360a08301526147528184614466565b98975050505050505050565b60208101611b15828461449e565b6080810161477a828761449e565b61478760208301866143fb565b61479460408301856143fb565b6144f8606083018461449e565b608081016147af828761449e565b81810360208301526147c18186614466565b90506147d0604083018561449e565b81810360608301526147e28184614466565b9695505050505050565b604081016147fa828561449e565b61463c602083018461449e565b60e08101614815828a61449e565b614822602083018961449e565b81810360408301526148348188614466565b905081810360608301526148488187614466565b9050614857608083018661449e565b81810360a083015261456a8185614466565b6101808101614878828f61449e565b614885602083018e61449e565b8181036040830152614897818d614466565b90506148a6606083018c61449e565b6148b3608083018b61449e565b6148c060a083018a61449e565b81810360c08301526148d28189614466565b905081810360e08301526148e68188614466565b90506148f66101008301876143fb565b6149046101208301866143fb565b8181036101408301526149178185614466565b905081810361016083015261492c8184614466565b9e9d5050505050505050505050505050565b60405181810167ffffffffffffffff8111828210171561495d57600080fd5b604052919050565b600067ffffffffffffffff82111561497c57600080fd5b506020601f91909101601f19160190565b60200190565b5190565b90815260200190565b6000611b15826149b0565b151590565b600160a060020a031690565b6000611b15826000611b15826149a0565b82818337506000910152565b60005b838110156149f45781810151838201526020016149dc565b83811115614a03576000848401525b50505050565b601f01601f191690565b614a1c816149a0565b8114614a2757600080fd5b50565b614a1c8161110a56fea365627a7a72315820c4efc50b85c7c0a7a58c505b1902b5f90f9a085989b5cb2e7aa5120549b219246c6578706572696d656e74616cf564736f6c63430005100040",
  "source": "pragma solidity >=0.5.2;\npragma experimental ABIEncoderV2;\n\ncontract Land {\n    struct Landreg {\n        uint256 id;\n        uint256 area;\n        string state;\n        uint256 landPrice;\n        uint256 propertyPID;\n        uint256 physicalSurveyNumber;\n        string ipfsHash;\n        string document;\n        address old_owner;\n        address nominee;\n        string lat;\n        string lng;\n    }\n\n    struct MoreDetails{\n        uint256 id;\n        uint256 ownerCount;\n    }\n\n    struct Buyer {\n        address id;\n        string name;\n        uint256 age;\n        string city;\n        string aadharNumber;\n        string panNumber;\n        string document;\n        string email;\n    }\n\n    struct Seller {\n        address id;\n        string name;\n        uint256 age;\n        string aadharNumber;\n        string panNumber;\n        string landsOwned;\n        string document;\n    }\n\n    struct LandInspector {\n        uint256 id;\n        string name;\n        uint256 age;\n        string designation;\n    }\n\n    struct LandRequest {\n        uint256 reqId;\n        address sellerId;\n        address buyerId;\n        uint256 landId;\n        // bool requestStatus;\n        // bool requested;\n    }\n\n    //key value pairs\n    mapping(uint256 => MoreDetails) public details;\n    mapping(uint256 => address[10]) public owners;\n\n    mapping(uint256 => Landreg) public lands;\n    mapping(uint256 => LandInspector) public InspectorMapping;\n    mapping(address => Seller) public SellerMapping;\n    mapping(address => Buyer) public BuyerMapping;\n    mapping(uint256 => LandRequest) public RequestsMapping;\n\n    mapping(address => bool) public RegisteredAddressMapping;\n    mapping(address => bool) public RegisteredSellerMapping;\n    mapping(address => bool) public RegisteredBuyerMapping;\n    mapping(address => bool) public SellerVerification;\n    mapping(address => bool) public SellerRejection;\n    mapping(address => bool) public BuyerVerification;\n    mapping(address => bool) public BuyerRejection;\n    mapping(uint256 => bool) public LandVerification;\n    mapping(uint256 => address) public LandOwner;\n    mapping(uint256 => bool) public RequestStatus;\n    mapping(uint256 => bool) public RequestedLands;\n    mapping(uint256 => bool) public PaymentReceived;\n    // mapping(address => address) public successors;\n    mapping(address => bool) public isAlive;\n\n    address public Land_Inspector;\n    address[] public sellers;\n    address[] public buyers;\n\n    uint256 public landsCount;\n    uint256 public inspectorsCount;\n    uint256 public sellersCount;\n    uint256 public buyersCount;\n    uint256 public requestsCount;\n\n    event Registration(address _registrationId);\n    event AddingLand(uint256 indexed _landId);\n    event Landrequested(address _sellerId);\n    event requestApproved(address _buyerId);\n    event Verified(address _id);\n    event Rejected(address _id);\n    event Succession(address _Owner);\n\n    constructor() public {\n        Land_Inspector = msg.sender;\n        addLandInspector(\"Inspector 1\", 45, \"Tehsil Manager\");\n    }\n\n    function getPrevious(uint256 i) public view returns (address) {\n        return lands[i].old_owner;\n    }\n\n    function isSame(uint256 i) public view returns (bool) {\n        if (lands[i].old_owner == LandOwner[i]) return true;\n        else return false;\n    }\n\n    // function getDate(uint i) public view returns (uint){\n    //     return lands[i].date;\n    // }\n\n    function addLandInspector(\n        string memory _name,\n        uint256 _age,\n        string memory _designation\n    ) private {\n        inspectorsCount++;\n        InspectorMapping[inspectorsCount] = LandInspector(\n            inspectorsCount,\n            _name,\n            _age,\n            _designation\n        );\n    }\n\n    function getLandsCount() public view returns (uint256) {\n        return landsCount;\n    }\n\n    function getBuyersCount() public view returns (uint256) {\n        return buyersCount;\n    }\n\n    function getSellersCount() public view returns (uint256) {\n        return sellersCount;\n    }\n\n    function getRequestsCount() public view returns (uint256) {\n        return requestsCount;\n    }\n\n    function getNominee(uint256 i) public view returns (address) {\n        return lands[i].nominee;\n    }\n\n    function getArea(uint256 i) public view returns (uint256) {\n        return lands[i].area;\n    }\n\n    // function getCity(uint256 i) public view returns (string memory) {\n    //     return lands[i].city;\n    // }\n\n    function getState(uint256 i) public view returns (string memory) {\n        return lands[i].state;\n    }\n\n    // function getStatus(uint i) public view returns (bool) {\n    //     return lands[i].verificationStatus;\n\n    // }\n\n    function getOwnerCount(uint256 i) public view returns (uint256) {\n        return details[i].ownerCount;\n    }\n\n    function getOwnerDetails(\n        uint256 i,\n        uint256 j\n    ) public view returns (address) {\n        return (owners[i][j]);\n    }\n\n    function getPrice(uint256 i) public view returns (uint256) {\n        return lands[i].landPrice;\n    }\n\n    function getPID(uint256 i) public view returns (uint256) {\n        return lands[i].propertyPID;\n    }\n\n    function getSurveyNumber(uint256 i) public view returns (uint256) {\n        return lands[i].physicalSurveyNumber;\n    }\n\n    function getImage(uint256 i) public view returns (string memory) {\n        return lands[i].ipfsHash;\n    }\n\n    function getDocument(uint256 i) public view returns (string memory) {\n        return lands[i].document;\n    }\n\n    function getLandOwner(uint256 id) public view returns (address) {\n        return LandOwner[id];\n    }\n\n    function getAlive(address _Owner) public view returns (bool) {\n        return isAlive[_Owner];\n    }\n\n    function verifySeller(address _sellerId) public {\n        require(isLandInspector(msg.sender));\n\n        SellerVerification[_sellerId] = true;\n        BuyerVerification[_sellerId] = true;\n        emit Verified(_sellerId);\n    }\n\n    function rejectSeller(address _sellerId) public {\n        require(isLandInspector(msg.sender));\n\n        SellerRejection[_sellerId] = true;\n        BuyerRejection[_sellerId] = true;\n        emit Rejected(_sellerId);\n    }\n\n    function verifyBuyer(address _buyerId) public {\n        require(isLandInspector(msg.sender));\n\n        BuyerVerification[_buyerId] = true;\n        emit Verified(_buyerId);\n    }\n\n    function rejectBuyer(address _buyerId) public {\n        require(isLandInspector(msg.sender));\n\n        BuyerRejection[_buyerId] = true;\n        emit Rejected(_buyerId);\n    }\n\n    function verifyLand(uint256 _landId) public {\n        require(isLandInspector(msg.sender));\n\n        LandVerification[_landId] = true;\n    }\n\n    function isLandVerified(uint256 _id) public view returns (bool) {\n        if (LandVerification[_id]) {\n            return true;\n        }\n    }\n\n    function isVerified(address _id) public view returns (bool) {\n        if (SellerVerification[_id] || BuyerVerification[_id]) {\n            return true;\n        }\n    }\n\n    function isRejected(address _id) public view returns (bool) {\n        if (SellerRejection[_id] || BuyerRejection[_id]) {\n            return true;\n        }\n    }\n\n    function isSeller(address _id) public view returns (bool) {\n        if (RegisteredSellerMapping[_id]) {\n            return true;\n        }\n    }\n\n    function isLandInspector(address _id) public view returns (bool) {\n        if (Land_Inspector == _id) {\n            return true;\n        } else {\n            return false;\n        }\n    }\n\n    function isBuyer(address _id) public view returns (bool) {\n        if (RegisteredBuyerMapping[_id]) {\n            return true;\n        }\n    }\n\n    function isRegistered(address _id) public view returns (bool) {\n        if (RegisteredAddressMapping[_id]) {\n            return true;\n        }\n    }\n\n    function addLand(\n        uint256 _area,\n        string memory _state,\n        uint256 landPrice,\n        uint256 _propertyPID,\n        uint256 _surveyNum,\n        string memory _ipfsHash,\n        string memory _document,\n        address _nominee,\n        string memory _lat,\n        string memory _lng\n    ) public {\n        require((isSeller(msg.sender)) && (isVerified(msg.sender)));\n        landsCount++;\n        lands[landsCount] = Landreg({\n            id: landsCount,\n            area: _area,\n            state: _state,\n            landPrice: landPrice,\n            propertyPID: _propertyPID,\n            physicalSurveyNumber: _surveyNum,\n            ipfsHash: _ipfsHash,\n            document: _document,\n            old_owner: msg.sender,\n            nominee: _nominee,\n            lat: _lat,\n            lng: _lng\n        });\n        \n        LandOwner[landsCount] = msg.sender;\n        owners[landsCount][0] = msg.sender;\n\n        details[landsCount] = MoreDetails({id: landsCount, ownerCount: 1});\n\n        // emit AddingLand(landsCount);\n    }\n\n    //registration of seller\n\n    function getLandDetails(\n        uint256 i\n    )\n        public\n        view\n        returns (\n            uint256,\n            uint256,\n            string memory,\n            string memory,\n            uint256,\n            string memory,\n            string memory\n        )\n    {\n        return (\n            lands[i].id,\n            lands[i].area,\n            lands[i].state,\n            lands[i].state,\n            lands[i].landPrice,\n            lands[i].lat,\n            lands[i].lng\n        );\n    }\n\n    function getLandOwnerDetails(\n        uint256 i\n    )\n        public\n        view\n        returns (\n            uint256,\n            uint256,\n            string memory,\n            string memory,\n            uint256,\n            string memory,\n            string memory\n        )\n    {\n        return (\n            lands[i].id,\n            lands[i].area,\n            lands[i].state,\n            lands[i].state,\n            lands[i].landPrice,\n            lands[i].lat,\n            lands[i].lng\n        );\n    }\n\n    function registerSeller(\n        string memory _name,\n        uint256 _age,\n        string memory _aadharNumber,\n        string memory _panNumber,\n        string memory _landsOwned,\n        string memory _document\n    ) public {\n        //require that Seller is not already registered\n        require(!RegisteredAddressMapping[msg.sender]);\n\n        RegisteredAddressMapping[msg.sender] = true;\n        RegisteredSellerMapping[msg.sender] = true;\n        sellersCount++;\n        SellerMapping[msg.sender] = Seller(\n            msg.sender,\n            _name,\n            _age,\n            _aadharNumber,\n            _panNumber,\n            _landsOwned,\n            _document\n        );\n        sellers.push(msg.sender);\n        emit Registration(msg.sender);\n    }\n\n    function updateSeller(\n        string memory _name,\n        uint256 _age,\n        string memory _aadharNumber,\n        string memory _panNumber,\n        string memory _landsOwned\n    ) public {\n        //require that Seller is already registered\n        require(\n            RegisteredAddressMapping[msg.sender] &&\n                (SellerMapping[msg.sender].id == msg.sender)\n        );\n\n        SellerMapping[msg.sender].name = _name;\n        SellerMapping[msg.sender].age = _age;\n        SellerMapping[msg.sender].aadharNumber = _aadharNumber;\n        SellerMapping[msg.sender].panNumber = _panNumber;\n        SellerMapping[msg.sender].landsOwned = _landsOwned;\n    }\n\n    function getSeller() public view returns (address[] memory) {\n        return (sellers);\n    }\n\n    function getSellerDetails(\n        address i\n    )\n        public\n        view\n        returns (\n            string memory,\n            uint256,\n            string memory,\n            string memory,\n            string memory,\n            string memory\n        )\n    {\n        return (\n            SellerMapping[i].name,\n            SellerMapping[i].age,\n            SellerMapping[i].aadharNumber,\n            SellerMapping[i].panNumber,\n            SellerMapping[i].landsOwned,\n            SellerMapping[i].document\n        );\n    }\n\n    // function getLandDetails(uint256 i)\n    //     public\n    //     view\n    //     returns (\n    //         uint256,\n    //         uint256,\n    //         string memory,\n    //         string memory,\n    //         uint256,\n    //         uint256,\n    //         uint256\n    //     )\n    // {\n    //     return (\n    //         lands[i].id,\n    //         lands[i].area,\n    //         lands[i].city,\n    //         lands[i].state,\n    //         lands[i].landPrice,\n    //         lands[i].propertyPID,\n    //         lands[i].physicalSurveyNumber\n    //     );\n    // }\n\n    function registerBuyer(\n        string memory _name,\n        uint256 _age,\n        string memory _city,\n        string memory _aadharNumber,\n        string memory _panNumber,\n        string memory _document,\n        string memory _email\n    ) public {\n        //require that Buyer is not already registered\n        // require(!RegisteredAddressMapping[msg.sender]);\n\n        RegisteredAddressMapping[msg.sender] = true;\n        RegisteredBuyerMapping[msg.sender] = true;\n        buyersCount++;\n        BuyerMapping[msg.sender] = Buyer(\n            msg.sender,\n            _name,\n            _age,\n            _city,\n            _aadharNumber,\n            _panNumber,\n            _document,\n            _email\n        );\n        buyers.push(msg.sender);\n\n        emit Registration(msg.sender);\n    }\n\n    function registerUser(\n        string memory _name,\n        uint256 _age,\n        string memory _city,\n        string memory _aadharNumber,\n        string memory _panNumber,\n        string memory _landsOwned,\n        string memory _document,\n        string memory _email\n    ) public {\n        // require that Buyer is not already registered\n        require(!RegisteredAddressMapping[msg.sender]);\n\n        RegisteredAddressMapping[msg.sender] = true;\n        RegisteredBuyerMapping[msg.sender] = true;\n        buyersCount++;\n        BuyerMapping[msg.sender] = Buyer(\n            msg.sender,\n            _name,\n            _age,\n            _city,\n            _aadharNumber,\n            _panNumber,\n            _document,\n            _email\n        );\n        buyers.push(msg.sender);\n        RegisteredSellerMapping[msg.sender] = true;\n        sellersCount++;\n        SellerMapping[msg.sender] = Seller(\n            msg.sender,\n            _name,\n            _age,\n            _aadharNumber,\n            _panNumber,\n            _landsOwned,\n            _document\n        );\n        sellers.push(msg.sender);\n        // successors[msg.sender] = _succ;\n        isAlive[msg.sender] = true;\n        emit Registration(msg.sender);\n    }\n\n    function updateBuyer(\n        string memory _name,\n        uint256 _age,\n        string memory _city,\n        string memory _aadharNumber,\n        string memory _email,\n        string memory _panNumber\n    ) public {\n        //require that Buyer is already registered\n        require(\n            RegisteredAddressMapping[msg.sender] &&\n                (BuyerMapping[msg.sender].id == msg.sender)\n        );\n\n        BuyerMapping[msg.sender].name = _name;\n        BuyerMapping[msg.sender].age = _age;\n        BuyerMapping[msg.sender].city = _city;\n        BuyerMapping[msg.sender].aadharNumber = _aadharNumber;\n        BuyerMapping[msg.sender].email = _email;\n        BuyerMapping[msg.sender].panNumber = _panNumber;\n    }\n\n    function getBuyer() public view returns (address[] memory) {\n        return (buyers);\n    }\n\n    // function getSuccessor(address _Owner) public view returns (address) {\n    //     return successors[_Owner];\n    // }\n\n    function getBuyerDetails(\n        address i\n    )\n        public\n        view\n        returns (\n            string memory,\n            string memory,\n            string memory,\n            string memory,\n            string memory,\n            uint256,\n            string memory\n        )\n    {\n        return (\n            BuyerMapping[i].name,\n            BuyerMapping[i].city,\n            BuyerMapping[i].panNumber,\n            BuyerMapping[i].document,\n            BuyerMapping[i].email,\n            BuyerMapping[i].age,\n            BuyerMapping[i].aadharNumber\n        );\n    }\n\n    function requestLand(address _sellerId, uint256 _landId) public {\n        require(isBuyer(msg.sender) && isVerified(msg.sender));\n\n        requestsCount++;\n        RequestsMapping[requestsCount] = LandRequest(\n            requestsCount,\n            _sellerId,\n            msg.sender,\n            _landId\n        );\n        RequestStatus[requestsCount] = false;\n        RequestedLands[requestsCount] = true;\n\n        emit Landrequested(_sellerId);\n    }\n\n    function getRequestDetails(\n        uint256 i\n    ) public view returns (address, address, uint256, bool) {\n        return (\n            RequestsMapping[i].sellerId,\n            RequestsMapping[i].buyerId,\n            RequestsMapping[i].landId,\n            RequestStatus[i]\n        );\n    }\n\n    function isRequested(uint256 _id) public view returns (bool) {\n        if (RequestedLands[_id]) {\n            return true;\n        }\n    }\n\n    function isApproved(uint256 _id) public view returns (bool) {\n        if (RequestStatus[_id]) {\n            return true;\n        }\n    }\n\n    function approveRequest(uint256 _reqId) public {\n        require((isSeller(msg.sender)) && (isVerified(msg.sender)));\n\n        RequestStatus[_reqId] = true;\n    }\n\n    function LandOwnershipTransfer(uint256 _landId, address _newOwner) public {\n        require(isLandInspector(msg.sender));\n        lands[_landId].old_owner = LandOwner[_landId];\n        LandOwner[_landId] = _newOwner;\n        lands[_landId].nominee = address(0);\n        owners[_landId][details[_landId].ownerCount++] = _newOwner;\n    }\n\n    function isPaid(uint256 _landId) public view returns (bool) {\n        if (PaymentReceived[_landId]) {\n            return true;\n        }\n    }\n\n    function payment(\n        address payable _receiver,\n        uint256 _landId\n    ) public payable {\n        PaymentReceived[_landId] = true;\n        _receiver.transfer(msg.value);\n    }\n\n    // function AfterDeath(address _Owner) public {\n    //     require(isLandInspector(msg.sender));\n\n    //     isAlive[_Owner] = false;\n    //     uint256 i;\n    //     for (i = 1; i <= landsCount; i++) {\n    //         if (LandOwner[i] == _Owner) {\n    //             lands[i].old_owner = LandOwner[i];\n    //             LandOwner[i] = successors[_Owner];\n    //         }\n    //     }\n\n    //     emit Succession(_Owner);\n    // }\n\n    function AfterDeath(address _Owner) public {\n        require(isLandInspector(msg.sender));\n        isAlive[_Owner] = false;\n        uint256 i;\n        for (i = 1; i <= landsCount; i++) {\n            if (LandOwner[i] == _Owner) {\n                lands[i].old_owner = LandOwner[i];\n                if (lands[i].nominee != address(0)) {\n                    LandOwner[i] = lands[i].nominee;\n                }\n                lands[i].nominee = address(0);\n            }\n        }\n    }\n}\n",
  "sourcePath": "/home/dheeraj/PROJECT/Land-Registration-with-Blockchain/contracts/Land.sol",
  "compiler": {
    "name": "solc",
    "version": "0.5.16+commit.9c3226ce.Emscripten.clang"
  },
  "schemaVersion": "3.4.8",
  "updatedAt": "2023-05-14T19:45:09.418Z",
  "networkType": "ethereum",
  "devdoc": {
    "methods": {}
  },
  "userdoc": {
    "methods": {}
  }
}