{
  "contractName": "Land",
  "abi": [
    {
      "inputs": [],
      "payable": false,
      "stateMutability": "nonpayable",
      "type": "constructor"
    },
    {
      "anonymous": false,
      "inputs": [
        {
          "indexed": true,
          "internalType": "uint256",
          "name": "_landId",
          "type": "uint256"
        }
      ],
      "name": "AddingLand",
      "type": "event"
    },
    {
      "anonymous": false,
      "inputs": [
        {
          "indexed": false,
          "internalType": "address",
          "name": "_sellerId",
          "type": "address"
        }
      ],
      "name": "Landrequested",
      "type": "event"
    },
    {
      "anonymous": false,
      "inputs": [
        {
          "indexed": false,
          "internalType": "address",
          "name": "_registrationId",
          "type": "address"
        }
      ],
      "name": "Registration",
      "type": "event"
    },
    {
      "anonymous": false,
      "inputs": [
        {
          "indexed": false,
          "internalType": "address",
          "name": "_id",
          "type": "address"
        }
      ],
      "name": "Rejected",
      "type": "event"
    },
    {
      "anonymous": false,
      "inputs": [
        {
          "indexed": false,
          "internalType": "address",
          "name": "_id",
          "type": "address"
        }
      ],
      "name": "Verified",
      "type": "event"
    },
    {
      "anonymous": false,
      "inputs": [
        {
          "indexed": false,
          "internalType": "address",
          "name": "_buyerId",
          "type": "address"
        }
      ],
      "name": "requestApproved",
      "type": "event"
    },
    {
      "constant": true,
      "inputs": [
        {
          "internalType": "address",
          "name": "",
          "type": "address"
        }
      ],
      "name": "BuyerMapping",
      "outputs": [
        {
          "internalType": "address",
          "name": "id",
          "type": "address"
        },
        {
          "internalType": "string",
          "name": "name",
          "type": "string"
        },
        {
          "internalType": "uint256",
          "name": "age",
          "type": "uint256"
        },
        {
          "internalType": "string",
          "name": "city",
          "type": "string"
        },
        {
          "internalType": "string",
          "name": "aadharNumber",
          "type": "string"
        },
        {
          "internalType": "string",
          "name": "panNumber",
          "type": "string"
        },
        {
          "internalType": "string",
          "name": "document",
          "type": "string"
        },
        {
          "internalType": "string",
          "name": "email",
          "type": "string"
        }
      ],
      "payable": false,
      "stateMutability": "view",
      "type": "function"
    },
    {
      "constant": true,
      "inputs": [
        {
          "internalType": "address",
          "name": "",
          "type": "address"
        }
      ],
      "name": "BuyerRejection",
      "outputs": [
        {
          "internalType": "bool",
          "name": "",
          "type": "bool"
        }
      ],
      "payable": false,
      "stateMutability": "view",
      "type": "function"
    },
    {
      "constant": true,
      "inputs": [
        {
          "internalType": "address",
          "name": "",
          "type": "address"
        }
      ],
      "name": "BuyerVerification",
      "outputs": [
        {
          "internalType": "bool",
          "name": "",
          "type": "bool"
        }
      ],
      "payable": false,
      "stateMutability": "view",
      "type": "function"
    },
    {
      "constant": true,
      "inputs": [
        {
          "internalType": "uint256",
          "name": "",
          "type": "uint256"
        }
      ],
      "name": "InspectorMapping",
      "outputs": [
        {
          "internalType": "uint256",
          "name": "id",
          "type": "uint256"
        },
        {
          "internalType": "string",
          "name": "name",
          "type": "string"
        },
        {
          "internalType": "uint256",
          "name": "age",
          "type": "uint256"
        },
        {
          "internalType": "string",
          "name": "designation",
          "type": "string"
        }
      ],
      "payable": false,
      "stateMutability": "view",
      "type": "function"
    },
    {
      "constant": true,
      "inputs": [
        {
          "internalType": "uint256",
          "name": "",
          "type": "uint256"
        }
      ],
      "name": "LandOwner",
      "outputs": [
        {
          "internalType": "address",
          "name": "",
          "type": "address"
        }
      ],
      "payable": false,
      "stateMutability": "view",
      "type": "function"
    },
    {
      "constant": true,
      "inputs": [
        {
          "internalType": "uint256",
          "name": "",
          "type": "uint256"
        }
      ],
      "name": "LandVerification",
      "outputs": [
        {
          "internalType": "bool",
          "name": "",
          "type": "bool"
        }
      ],
      "payable": false,
      "stateMutability": "view",
      "type": "function"
    },
    {
      "constant": true,
      "inputs": [],
      "name": "Land_Inspector",
      "outputs": [
        {
          "internalType": "address",
          "name": "",
          "type": "address"
        }
      ],
      "payable": false,
      "stateMutability": "view",
      "type": "function"
    },
    {
      "constant": true,
      "inputs": [
        {
          "internalType": "uint256",
          "name": "",
          "type": "uint256"
        }
      ],
      "name": "PaymentReceived",
      "outputs": [
        {
          "internalType": "bool",
          "name": "",
          "type": "bool"
        }
      ],
      "payable": false,
      "stateMutability": "view",
      "type": "function"
    },
    {
      "constant": true,
      "inputs": [
        {
          "internalType": "address",
          "name": "",
          "type": "address"
        }
      ],
      "name": "RegisteredAddressMapping",
      "outputs": [
        {
          "internalType": "bool",
          "name": "",
          "type": "bool"
        }
      ],
      "payable": false,
      "stateMutability": "view",
      "type": "function"
    },
    {
      "constant": true,
      "inputs": [
        {
          "internalType": "address",
          "name": "",
          "type": "address"
        }
      ],
      "name": "RegisteredBuyerMapping",
      "outputs": [
        {
          "internalType": "bool",
          "name": "",
          "type": "bool"
        }
      ],
      "payable": false,
      "stateMutability": "view",
      "type": "function"
    },
    {
      "constant": true,
      "inputs": [
        {
          "internalType": "address",
          "name": "",
          "type": "address"
        }
      ],
      "name": "RegisteredSellerMapping",
      "outputs": [
        {
          "internalType": "bool",
          "name": "",
          "type": "bool"
        }
      ],
      "payable": false,
      "stateMutability": "view",
      "type": "function"
    },
    {
      "constant": true,
      "inputs": [
        {
          "internalType": "uint256",
          "name": "",
          "type": "uint256"
        }
      ],
      "name": "RequestStatus",
      "outputs": [
        {
          "internalType": "bool",
          "name": "",
          "type": "bool"
        }
      ],
      "payable": false,
      "stateMutability": "view",
      "type": "function"
    },
    {
      "constant": true,
      "inputs": [
        {
          "internalType": "uint256",
          "name": "",
          "type": "uint256"
        }
      ],
      "name": "RequestedLands",
      "outputs": [
        {
          "internalType": "bool",
          "name": "",
          "type": "bool"
        }
      ],
      "payable": false,
      "stateMutability": "view",
      "type": "function"
    },
    {
      "constant": true,
      "inputs": [
        {
          "internalType": "uint256",
          "name": "",
          "type": "uint256"
        }
      ],
      "name": "RequestsMapping",
      "outputs": [
        {
          "internalType": "uint256",
          "name": "reqId",
          "type": "uint256"
        },
        {
          "internalType": "address",
          "name": "sellerId",
          "type": "address"
        },
        {
          "internalType": "address",
          "name": "buyerId",
          "type": "address"
        },
        {
          "internalType": "uint256",
          "name": "landId",
          "type": "uint256"
        }
      ],
      "payable": false,
      "stateMutability": "view",
      "type": "function"
    },
    {
      "constant": true,
      "inputs": [
        {
          "internalType": "address",
          "name": "",
          "type": "address"
        }
      ],
      "name": "SellerMapping",
      "outputs": [
        {
          "internalType": "address",
          "name": "id",
          "type": "address"
        },
        {
          "internalType": "string",
          "name": "name",
          "type": "string"
        },
        {
          "internalType": "uint256",
          "name": "age",
          "type": "uint256"
        },
        {
          "internalType": "string",
          "name": "aadharNumber",
          "type": "string"
        },
        {
          "internalType": "string",
          "name": "panNumber",
          "type": "string"
        },
        {
          "internalType": "string",
          "name": "landsOwned",
          "type": "string"
        },
        {
          "internalType": "string",
          "name": "document",
          "type": "string"
        }
      ],
      "payable": false,
      "stateMutability": "view",
      "type": "function"
    },
    {
      "constant": true,
      "inputs": [
        {
          "internalType": "address",
          "name": "",
          "type": "address"
        }
      ],
      "name": "SellerRejection",
      "outputs": [
        {
          "internalType": "bool",
          "name": "",
          "type": "bool"
        }
      ],
      "payable": false,
      "stateMutability": "view",
      "type": "function"
    },
    {
      "constant": true,
      "inputs": [
        {
          "internalType": "address",
          "name": "",
          "type": "address"
        }
      ],
      "name": "SellerVerification",
      "outputs": [
        {
          "internalType": "bool",
          "name": "",
          "type": "bool"
        }
      ],
      "payable": false,
      "stateMutability": "view",
      "type": "function"
    },
    {
      "constant": true,
      "inputs": [
        {
          "internalType": "uint256",
          "name": "",
          "type": "uint256"
        }
      ],
      "name": "buyers",
      "outputs": [
        {
          "internalType": "address",
          "name": "",
          "type": "address"
        }
      ],
      "payable": false,
      "stateMutability": "view",
      "type": "function"
    },
    {
      "constant": true,
      "inputs": [],
      "name": "buyersCount",
      "outputs": [
        {
          "internalType": "uint256",
          "name": "",
          "type": "uint256"
        }
      ],
      "payable": false,
      "stateMutability": "view",
      "type": "function"
    },
    {
      "constant": true,
      "inputs": [],
      "name": "inspectorsCount",
      "outputs": [
        {
          "internalType": "uint256",
          "name": "",
          "type": "uint256"
        }
      ],
      "payable": false,
      "stateMutability": "view",
      "type": "function"
    },
    {
      "constant": true,
      "inputs": [
        {
          "internalType": "uint256",
          "name": "",
          "type": "uint256"
        }
      ],
      "name": "lands",
      "outputs": [
        {
          "internalType": "uint256",
          "name": "id",
          "type": "uint256"
        },
        {
          "internalType": "uint256",
          "name": "area",
          "type": "uint256"
        },
        {
          "internalType": "string",
          "name": "city",
          "type": "string"
        },
        {
          "internalType": "string",
          "name": "state",
          "type": "string"
        },
        {
          "internalType": "uint256",
          "name": "landPrice",
          "type": "uint256"
        },
        {
          "internalType": "uint256",
          "name": "propertyPID",
          "type": "uint256"
        },
        {
          "internalType": "uint256",
          "name": "physicalSurveyNumber",
          "type": "uint256"
        },
        {
          "internalType": "string",
          "name": "ipfsHash",
          "type": "string"
        },
        {
          "internalType": "string",
          "name": "document",
          "type": "string"
        }
      ],
      "payable": false,
      "stateMutability": "view",
      "type": "function"
    },
    {
      "constant": true,
      "inputs": [],
      "name": "landsCount",
      "outputs": [
        {
          "internalType": "uint256",
          "name": "",
          "type": "uint256"
        }
      ],
      "payable": false,
      "stateMutability": "view",
      "type": "function"
    },
    {
      "constant": true,
      "inputs": [],
      "name": "requestsCount",
      "outputs": [
        {
          "internalType": "uint256",
          "name": "",
          "type": "uint256"
        }
      ],
      "payable": false,
      "stateMutability": "view",
      "type": "function"
    },
    {
      "constant": true,
      "inputs": [
        {
          "internalType": "uint256",
          "name": "",
          "type": "uint256"
        }
      ],
      "name": "sellers",
      "outputs": [
        {
          "internalType": "address",
          "name": "",
          "type": "address"
        }
      ],
      "payable": false,
      "stateMutability": "view",
      "type": "function"
    },
    {
      "constant": true,
      "inputs": [],
      "name": "sellersCount",
      "outputs": [
        {
          "internalType": "uint256",
          "name": "",
          "type": "uint256"
        }
      ],
      "payable": false,
      "stateMutability": "view",
      "type": "function"
    },
    {
      "constant": true,
      "inputs": [],
      "name": "getLandsCount",
      "outputs": [
        {
          "internalType": "uint256",
          "name": "",
          "type": "uint256"
        }
      ],
      "payable": false,
      "stateMutability": "view",
      "type": "function"
    },
    {
      "constant": true,
      "inputs": [],
      "name": "getBuyersCount",
      "outputs": [
        {
          "internalType": "uint256",
          "name": "",
          "type": "uint256"
        }
      ],
      "payable": false,
      "stateMutability": "view",
      "type": "function"
    },
    {
      "constant": true,
      "inputs": [],
      "name": "getSellersCount",
      "outputs": [
        {
          "internalType": "uint256",
          "name": "",
          "type": "uint256"
        }
      ],
      "payable": false,
      "stateMutability": "view",
      "type": "function"
    },
    {
      "constant": true,
      "inputs": [],
      "name": "getRequestsCount",
      "outputs": [
        {
          "internalType": "uint256",
          "name": "",
          "type": "uint256"
        }
      ],
      "payable": false,
      "stateMutability": "view",
      "type": "function"
    },
    {
      "constant": true,
      "inputs": [
        {
          "internalType": "uint256",
          "name": "i",
          "type": "uint256"
        }
      ],
      "name": "getArea",
      "outputs": [
        {
          "internalType": "uint256",
          "name": "",
          "type": "uint256"
        }
      ],
      "payable": false,
      "stateMutability": "view",
      "type": "function"
    },
    {
      "constant": true,
      "inputs": [
        {
          "internalType": "uint256",
          "name": "i",
          "type": "uint256"
        }
      ],
      "name": "getCity",
      "outputs": [
        {
          "internalType": "string",
          "name": "",
          "type": "string"
        }
      ],
      "payable": false,
      "stateMutability": "view",
      "type": "function"
    },
    {
      "constant": true,
      "inputs": [
        {
          "internalType": "uint256",
          "name": "i",
          "type": "uint256"
        }
      ],
      "name": "getState",
      "outputs": [
        {
          "internalType": "string",
          "name": "",
          "type": "string"
        }
      ],
      "payable": false,
      "stateMutability": "view",
      "type": "function"
    },
    {
      "constant": true,
      "inputs": [
        {
          "internalType": "uint256",
          "name": "i",
          "type": "uint256"
        }
      ],
      "name": "getPrice",
      "outputs": [
        {
          "internalType": "uint256",
          "name": "",
          "type": "uint256"
        }
      ],
      "payable": false,
      "stateMutability": "view",
      "type": "function"
    },
    {
      "constant": true,
      "inputs": [
        {
          "internalType": "uint256",
          "name": "i",
          "type": "uint256"
        }
      ],
      "name": "getPID",
      "outputs": [
        {
          "internalType": "uint256",
          "name": "",
          "type": "uint256"
        }
      ],
      "payable": false,
      "stateMutability": "view",
      "type": "function"
    },
    {
      "constant": true,
      "inputs": [
        {
          "internalType": "uint256",
          "name": "i",
          "type": "uint256"
        }
      ],
      "name": "getSurveyNumber",
      "outputs": [
        {
          "internalType": "uint256",
          "name": "",
          "type": "uint256"
        }
      ],
      "payable": false,
      "stateMutability": "view",
      "type": "function"
    },
    {
      "constant": true,
      "inputs": [
        {
          "internalType": "uint256",
          "name": "i",
          "type": "uint256"
        }
      ],
      "name": "getImage",
      "outputs": [
        {
          "internalType": "string",
          "name": "",
          "type": "string"
        }
      ],
      "payable": false,
      "stateMutability": "view",
      "type": "function"
    },
    {
      "constant": true,
      "inputs": [
        {
          "internalType": "uint256",
          "name": "i",
          "type": "uint256"
        }
      ],
      "name": "getDocument",
      "outputs": [
        {
          "internalType": "string",
          "name": "",
          "type": "string"
        }
      ],
      "payable": false,
      "stateMutability": "view",
      "type": "function"
    },
    {
      "constant": true,
      "inputs": [
        {
          "internalType": "uint256",
          "name": "id",
          "type": "uint256"
        }
      ],
      "name": "getLandOwner",
      "outputs": [
        {
          "internalType": "address",
          "name": "",
          "type": "address"
        }
      ],
      "payable": false,
      "stateMutability": "view",
      "type": "function"
    },
    {
      "constant": false,
      "inputs": [
        {
          "internalType": "address",
          "name": "_sellerId",
          "type": "address"
        }
      ],
      "name": "verifySeller",
      "outputs": [],
      "payable": false,
      "stateMutability": "nonpayable",
      "type": "function"
    },
    {
      "constant": false,
      "inputs": [
        {
          "internalType": "address",
          "name": "_sellerId",
          "type": "address"
        }
      ],
      "name": "rejectSeller",
      "outputs": [],
      "payable": false,
      "stateMutability": "nonpayable",
      "type": "function"
    },
    {
      "constant": false,
      "inputs": [
        {
          "internalType": "address",
          "name": "_buyerId",
          "type": "address"
        }
      ],
      "name": "verifyBuyer",
      "outputs": [],
      "payable": false,
      "stateMutability": "nonpayable",
      "type": "function"
    },
    {
      "constant": false,
      "inputs": [
        {
          "internalType": "address",
          "name": "_buyerId",
          "type": "address"
        }
      ],
      "name": "rejectBuyer",
      "outputs": [],
      "payable": false,
      "stateMutability": "nonpayable",
      "type": "function"
    },
    {
      "constant": false,
      "inputs": [
        {
          "internalType": "uint256",
          "name": "_landId",
          "type": "uint256"
        }
      ],
      "name": "verifyLand",
      "outputs": [],
      "payable": false,
      "stateMutability": "nonpayable",
      "type": "function"
    },
    {
      "constant": true,
      "inputs": [
        {
          "internalType": "uint256",
          "name": "_id",
          "type": "uint256"
        }
      ],
      "name": "isLandVerified",
      "outputs": [
        {
          "internalType": "bool",
          "name": "",
          "type": "bool"
        }
      ],
      "payable": false,
      "stateMutability": "view",
      "type": "function"
    },
    {
      "constant": true,
      "inputs": [
        {
          "internalType": "address",
          "name": "_id",
          "type": "address"
        }
      ],
      "name": "isVerified",
      "outputs": [
        {
          "internalType": "bool",
          "name": "",
          "type": "bool"
        }
      ],
      "payable": false,
      "stateMutability": "view",
      "type": "function"
    },
    {
      "constant": true,
      "inputs": [
        {
          "internalType": "address",
          "name": "_id",
          "type": "address"
        }
      ],
      "name": "isRejected",
      "outputs": [
        {
          "internalType": "bool",
          "name": "",
          "type": "bool"
        }
      ],
      "payable": false,
      "stateMutability": "view",
      "type": "function"
    },
    {
      "constant": true,
      "inputs": [
        {
          "internalType": "address",
          "name": "_id",
          "type": "address"
        }
      ],
      "name": "isSeller",
      "outputs": [
        {
          "internalType": "bool",
          "name": "",
          "type": "bool"
        }
      ],
      "payable": false,
      "stateMutability": "view",
      "type": "function"
    },
    {
      "constant": true,
      "inputs": [
        {
          "internalType": "address",
          "name": "_id",
          "type": "address"
        }
      ],
      "name": "isLandInspector",
      "outputs": [
        {
          "internalType": "bool",
          "name": "",
          "type": "bool"
        }
      ],
      "payable": false,
      "stateMutability": "view",
      "type": "function"
    },
    {
      "constant": true,
      "inputs": [
        {
          "internalType": "address",
          "name": "_id",
          "type": "address"
        }
      ],
      "name": "isBuyer",
      "outputs": [
        {
          "internalType": "bool",
          "name": "",
          "type": "bool"
        }
      ],
      "payable": false,
      "stateMutability": "view",
      "type": "function"
    },
    {
      "constant": true,
      "inputs": [
        {
          "internalType": "address",
          "name": "_id",
          "type": "address"
        }
      ],
      "name": "isRegistered",
      "outputs": [
        {
          "internalType": "bool",
          "name": "",
          "type": "bool"
        }
      ],
      "payable": false,
      "stateMutability": "view",
      "type": "function"
    },
    {
      "constant": false,
      "inputs": [
        {
          "internalType": "uint256",
          "name": "_area",
          "type": "uint256"
        },
        {
          "internalType": "string",
          "name": "_city",
          "type": "string"
        },
        {
          "internalType": "string",
          "name": "_state",
          "type": "string"
        },
        {
          "internalType": "uint256",
          "name": "landPrice",
          "type": "uint256"
        },
        {
          "internalType": "uint256",
          "name": "_propertyPID",
          "type": "uint256"
        },
        {
          "internalType": "uint256",
          "name": "_surveyNum",
          "type": "uint256"
        },
        {
          "internalType": "string",
          "name": "_ipfsHash",
          "type": "string"
        },
        {
          "internalType": "string",
          "name": "_document",
          "type": "string"
        }
      ],
      "name": "addLand",
      "outputs": [],
      "payable": false,
      "stateMutability": "nonpayable",
      "type": "function"
    },
    {
      "constant": false,
      "inputs": [
        {
          "internalType": "string",
          "name": "_name",
          "type": "string"
        },
        {
          "internalType": "uint256",
          "name": "_age",
          "type": "uint256"
        },
        {
          "internalType": "string",
          "name": "_aadharNumber",
          "type": "string"
        },
        {
          "internalType": "string",
          "name": "_panNumber",
          "type": "string"
        },
        {
          "internalType": "string",
          "name": "_landsOwned",
          "type": "string"
        },
        {
          "internalType": "string",
          "name": "_document",
          "type": "string"
        }
      ],
      "name": "registerSeller",
      "outputs": [],
      "payable": false,
      "stateMutability": "nonpayable",
      "type": "function"
    },
    {
      "constant": false,
      "inputs": [
        {
          "internalType": "string",
          "name": "_name",
          "type": "string"
        },
        {
          "internalType": "uint256",
          "name": "_age",
          "type": "uint256"
        },
        {
          "internalType": "string",
          "name": "_aadharNumber",
          "type": "string"
        },
        {
          "internalType": "string",
          "name": "_panNumber",
          "type": "string"
        },
        {
          "internalType": "string",
          "name": "_landsOwned",
          "type": "string"
        }
      ],
      "name": "updateSeller",
      "outputs": [],
      "payable": false,
      "stateMutability": "nonpayable",
      "type": "function"
    },
    {
      "constant": true,
      "inputs": [],
      "name": "getSeller",
      "outputs": [
        {
          "internalType": "address[]",
          "name": "",
          "type": "address[]"
        }
      ],
      "payable": false,
      "stateMutability": "view",
      "type": "function"
    },
    {
      "constant": true,
      "inputs": [
        {
          "internalType": "address",
          "name": "i",
          "type": "address"
        }
      ],
      "name": "getSellerDetails",
      "outputs": [
        {
          "internalType": "string",
          "name": "",
          "type": "string"
        },
        {
          "internalType": "uint256",
          "name": "",
          "type": "uint256"
        },
        {
          "internalType": "string",
          "name": "",
          "type": "string"
        },
        {
          "internalType": "string",
          "name": "",
          "type": "string"
        },
        {
          "internalType": "string",
          "name": "",
          "type": "string"
        },
        {
          "internalType": "string",
          "name": "",
          "type": "string"
        }
      ],
      "payable": false,
      "stateMutability": "view",
      "type": "function"
    },
    {
      "constant": false,
      "inputs": [
        {
          "internalType": "string",
          "name": "_name",
          "type": "string"
        },
        {
          "internalType": "uint256",
          "name": "_age",
          "type": "uint256"
        },
        {
          "internalType": "string",
          "name": "_city",
          "type": "string"
        },
        {
          "internalType": "string",
          "name": "_aadharNumber",
          "type": "string"
        },
        {
          "internalType": "string",
          "name": "_panNumber",
          "type": "string"
        },
        {
          "internalType": "string",
          "name": "_document",
          "type": "string"
        },
        {
          "internalType": "string",
          "name": "_email",
          "type": "string"
        }
      ],
      "name": "registerBuyer",
      "outputs": [],
      "payable": false,
      "stateMutability": "nonpayable",
      "type": "function"
    },
    {
      "constant": false,
      "inputs": [
        {
          "internalType": "string",
          "name": "_name",
          "type": "string"
        },
        {
          "internalType": "uint256",
          "name": "_age",
          "type": "uint256"
        },
        {
          "internalType": "string",
          "name": "_city",
          "type": "string"
        },
        {
          "internalType": "string",
          "name": "_aadharNumber",
          "type": "string"
        },
        {
          "internalType": "string",
          "name": "_panNumber",
          "type": "string"
        },
        {
          "internalType": "string",
          "name": "_landsOwned",
          "type": "string"
        },
        {
          "internalType": "string",
          "name": "_document",
          "type": "string"
        },
        {
          "internalType": "string",
          "name": "_email",
          "type": "string"
        }
      ],
      "name": "registerUser",
      "outputs": [],
      "payable": false,
      "stateMutability": "nonpayable",
      "type": "function"
    },
    {
      "constant": false,
      "inputs": [
        {
          "internalType": "string",
          "name": "_name",
          "type": "string"
        },
        {
          "internalType": "uint256",
          "name": "_age",
          "type": "uint256"
        },
        {
          "internalType": "string",
          "name": "_city",
          "type": "string"
        },
        {
          "internalType": "string",
          "name": "_aadharNumber",
          "type": "string"
        },
        {
          "internalType": "string",
          "name": "_email",
          "type": "string"
        },
        {
          "internalType": "string",
          "name": "_panNumber",
          "type": "string"
        }
      ],
      "name": "updateBuyer",
      "outputs": [],
      "payable": false,
      "stateMutability": "nonpayable",
      "type": "function"
    },
    {
      "constant": true,
      "inputs": [],
      "name": "getBuyer",
      "outputs": [
        {
          "internalType": "address[]",
          "name": "",
          "type": "address[]"
        }
      ],
      "payable": false,
      "stateMutability": "view",
      "type": "function"
    },
    {
      "constant": true,
      "inputs": [
        {
          "internalType": "address",
          "name": "i",
          "type": "address"
        }
      ],
      "name": "getBuyerDetails",
      "outputs": [
        {
          "internalType": "string",
          "name": "",
          "type": "string"
        },
        {
          "internalType": "string",
          "name": "",
          "type": "string"
        },
        {
          "internalType": "string",
          "name": "",
          "type": "string"
        },
        {
          "internalType": "string",
          "name": "",
          "type": "string"
        },
        {
          "internalType": "string",
          "name": "",
          "type": "string"
        },
        {
          "internalType": "uint256",
          "name": "",
          "type": "uint256"
        },
        {
          "internalType": "string",
          "name": "",
          "type": "string"
        }
      ],
      "payable": false,
      "stateMutability": "view",
      "type": "function"
    },
    {
      "constant": false,
      "inputs": [
        {
          "internalType": "address",
          "name": "_sellerId",
          "type": "address"
        },
        {
          "internalType": "uint256",
          "name": "_landId",
          "type": "uint256"
        }
      ],
      "name": "requestLand",
      "outputs": [],
      "payable": false,
      "stateMutability": "nonpayable",
      "type": "function"
    },
    {
      "constant": true,
      "inputs": [
        {
          "internalType": "uint256",
          "name": "i",
          "type": "uint256"
        }
      ],
      "name": "getRequestDetails",
      "outputs": [
        {
          "internalType": "address",
          "name": "",
          "type": "address"
        },
        {
          "internalType": "address",
          "name": "",
          "type": "address"
        },
        {
          "internalType": "uint256",
          "name": "",
          "type": "uint256"
        },
        {
          "internalType": "bool",
          "name": "",
          "type": "bool"
        }
      ],
      "payable": false,
      "stateMutability": "view",
      "type": "function"
    },
    {
      "constant": true,
      "inputs": [
        {
          "internalType": "uint256",
          "name": "_id",
          "type": "uint256"
        }
      ],
      "name": "isRequested",
      "outputs": [
        {
          "internalType": "bool",
          "name": "",
          "type": "bool"
        }
      ],
      "payable": false,
      "stateMutability": "view",
      "type": "function"
    },
    {
      "constant": true,
      "inputs": [
        {
          "internalType": "uint256",
          "name": "_id",
          "type": "uint256"
        }
      ],
      "name": "isApproved",
      "outputs": [
        {
          "internalType": "bool",
          "name": "",
          "type": "bool"
        }
      ],
      "payable": false,
      "stateMutability": "view",
      "type": "function"
    },
    {
      "constant": false,
      "inputs": [
        {
          "internalType": "uint256",
          "name": "_reqId",
          "type": "uint256"
        }
      ],
      "name": "approveRequest",
      "outputs": [],
      "payable": false,
      "stateMutability": "nonpayable",
      "type": "function"
    },
    {
      "constant": false,
      "inputs": [
        {
          "internalType": "uint256",
          "name": "_landId",
          "type": "uint256"
        },
        {
          "internalType": "address",
          "name": "_newOwner",
          "type": "address"
        }
      ],
      "name": "LandOwnershipTransfer",
      "outputs": [],
      "payable": false,
      "stateMutability": "nonpayable",
      "type": "function"
    },
    {
      "constant": true,
      "inputs": [
        {
          "internalType": "uint256",
          "name": "_landId",
          "type": "uint256"
        }
      ],
      "name": "isPaid",
      "outputs": [
        {
          "internalType": "bool",
          "name": "",
          "type": "bool"
        }
      ],
      "payable": false,
      "stateMutability": "view",
      "type": "function"
    },
    {
      "constant": false,
      "inputs": [
        {
          "internalType": "address payable",
          "name": "_receiver",
          "type": "address"
        },
        {
          "internalType": "uint256",
          "name": "_landId",
          "type": "uint256"
        }
      ],
      "name": "payment",
      "outputs": [],
      "payable": true,
      "stateMutability": "payable",
      "type": "function"
    }
  ],
  "bytecode": "0x60806040523480156200001157600080fd5b5060118054600160a060020a03191633179055604080518082018252600b81527f496e73706563746f7220310000000000000000000000000000000000000000006020808301919091528251808401909352600e83527f54656873696c204d616e6167657200000000000000000000000000000000000090830152620000a391602d90640100000000620000a9810204565b620001d7565b601580546001908101918290556040805160808101825283815260208082018881528284018890526060830187905260009586528482529290942081518155915180519194929362000102939085019291019062000132565b5060408201516002820155606082015180516200012a91600384019160209091019062000132565b505050505050565b828054600181600116156101000203166002900490600052602060002090601f016020900481019282601f106200017557805160ff1916838001178555620001a5565b82800160010185558215620001a5579182015b82811115620001a557825182559160200191906001019062000188565b50620001b3929150620001b7565b5090565b620001d491905b80821115620001b35760008155600101620001be565b90565b61404980620001e76000396000f3fe60806040526004361061044c576000357c010000000000000000000000000000000000000000000000000000000090048063a47d4c0211610245578063dd9d122d11610145578063e7572230116100d8578063f34d4c63116100a7578063f58f85b51161008c578063f58f85b514610cc8578063f9c43bdf14610ce8578063fbfa4b7f14610d085761044c565b8063f34d4c6314610c78578063f3f0c21814610ca85761044c565b8063e757223014610c03578063ee95feaf14610c23578063f0d3a9df14610c43578063f2aa821814610c585761044c565b8063e1ecc79411610114578063e1ecc79414610b6e578063e261f1e514610b8e578063e4b2611514610bc3578063e530c40014610be35761044c565b8063dd9d122d14610ad6578063dec091ad14610aeb578063def936c314610b1e578063e165af8714610b4e5761044c565b8063bed403c7116101d8578063cee26ed5116101a7578063d71306511161018c578063d713065114610a81578063d7d1bbdb14610aa1578063dbd0e1b614610ac15761044c565b8063cee26ed514610a41578063d1760e6014610a615761044c565b8063bed403c7146109c1578063c3c5a547146109e1578063c560b4e514610a01578063cd392a8314610a215761044c565b8063b0a5dcd311610214578063b0a5dcd31461092a578063b3c8fe851461095a578063b9209e331461098c578063ba49a08c146109ac5761044c565b8063a47d4c0214610896578063a4a0f6c0146108b6578063a6dc41fb146108d6578063ab517074146108f65761044c565b8063603daf9a116103505780637a4a8b66116102e357806393383648116102b2578063989376b411610297578063989376b4146108415780639ae9711e146108615780639dc1bfa9146108765761044c565b8063933836481461080c578063941e24261461082c5761044c565b80637a4a8b661461078c57806383546501146107ac5780638965cde1146107cc57806389d21354146107ec5761044c565b80636814800b1161031f5780636814800b146106f957806368cfe6ee146107195780636cbf6cf81461074c5780637910867b1461076c5761044c565b8063603daf9a1461068457806363f17143146106a65780636490c7a8146106c657806367a09c23146106e65761044c565b80632607aafa116103e357806344c9af28116103b25780634daa9dae116103975780634daa9dae146106245780634e2cba0914610644578063601e7c34146106645761044c565b806344c9af28146105e457806348a46bd3146106045761044c565b80632607aafa146105625780632a55feec1461058f5780633410452a146105af5780633f9b250a146105c45761044c565b8063170f39091161041f578063170f3909146104eb5780631869a38b1461050d5780631a07f76e1461052d5780631c9afd0f1461054d5761044c565b806307d56ac01461045157806311ce462c14610487578063155fec72146104a957806316d9d666146104d6575b600080fd5b34801561045d57600080fd5b5061047161046c366004613960565b610d1d565b60405161047e9190613de2565b60405180910390f35b34801561049357600080fd5b506104a76104a23660046135e0565b610d35565b005b3480156104b557600080fd5b506104c96104c4366004613960565b610e45565b60405161047e9190613cc7565b3480156104e257600080fd5b50610471610e64565b3480156104f757600080fd5b50610500610e6b565b60405161047e9190613b2b565b34801561051957600080fd5b50610500610528366004613960565b610e7a565b34801561053957600080fd5b506104c9610548366004613960565b610e95565b34801561055957600080fd5b50610471610eaa565b34801561056e57600080fd5b5061058261057d366004613960565b610eb0565b60405161047e9190613cd5565b34801561059b57600080fd5b506104c96105aa3660046134ac565b610f52565b3480156105bb57600080fd5b50610471610f7b565b3480156105d057600080fd5b506105826105df366004613960565b610f81565b3480156105f057600080fd5b506105826105ff366004613960565b610fec565b34801561061057600080fd5b506104c961061f3660046134ac565b611057565b34801561063057600080fd5b506104c961063f366004613960565b6110a3565b34801561065057600080fd5b506104a761065f3660046136de565b6110b8565b34801561067057600080fd5b506104c961067f3660046134ac565b6112a2565b34801561069057600080fd5b506106996112b7565b60405161047e9190613caf565b3480156106b257600080fd5b506104c96106c13660046134ac565b611319565b3480156106d257600080fd5b506104716106e1366004613960565b61132e565b6104a76106f43660046134d2565b611343565b34801561070557600080fd5b506104a76107143660046134ac565b611390565b34801561072557600080fd5b506107396107343660046134ac565b611400565b60405161047e9796959493929190613ce6565b34801561075857600080fd5b506104c9610767366004613960565b6117b1565b34801561077857600080fd5b506104c9610787366004613960565b6117d0565b34801561079857600080fd5b506104a76107a7366004613809565b6117ef565b3480156107b857600080fd5b506104c96107c7366004613960565b611bbb565b3480156107d857600080fd5b506104a76107e73660046134ac565b611bd0565b3480156107f857600080fd5b506104c9610807366004613960565b611c35565b34801561081857600080fd5b506104a76108273660046135e0565b611c4a565b34801561083857600080fd5b50610471611e2c565b34801561084d57600080fd5b506104c961085c3660046134ac565b611e32565b34801561086d57600080fd5b50610471611e47565b34801561088257600080fd5b50610500610891366004613960565b611e4d565b3480156108a257600080fd5b506104c96108b13660046134ac565b611e68565b3480156108c257600080fd5b506104716108d1366004613960565b611e7d565b3480156108e257600080fd5b506104c96108f13660046134ac565b611e92565b34801561090257600080fd5b506109166109113660046134ac565b611ea7565b60405161047e989796959493929190613c0f565b34801561093657600080fd5b5061094a610945366004613960565b612233565b60405161047e9493929190613df0565b34801561096657600080fd5b5061097a6109753660046134ac565b612267565b60405161047e96959493929190613d68565b34801561099857600080fd5b506104c96109a73660046134ac565b61257d565b3480156109b857600080fd5b506104716125c8565b3480156109cd57600080fd5b506104a76109dc36600461397e565b6125ce565b3480156109ed57600080fd5b506104c96109fc3660046134ac565b61261b565b348015610a0d57600080fd5b506104a7610a1c36600461350c565b612644565b348015610a2d57600080fd5b506104c9610a3c366004613960565b61272b565b348015610a4d57600080fd5b50610500610a5c366004613960565b61274a565b348015610a6d57600080fd5b506104a7610a7c3660046134ac565b612771565b348015610a8d57600080fd5b50610582610a9c366004613960565b6127ee565b348015610aad57600080fd5b506104a7610abc366004613960565b61285c565b348015610acd57600080fd5b50610699612899565b348015610ae257600080fd5b506104716128f9565b348015610af757600080fd5b50610b0b610b063660046134ac565b6128ff565b60405161047e9796959493929190613b85565b348015610b2a57600080fd5b50610b3e610b39366004613960565b612bf8565b60405161047e9493929190613e25565b348015610b5a57600080fd5b506104c9610b693660046134ac565b612d36565b348015610b7a57600080fd5b506104a7610b893660046134ac565b612d5f565b348015610b9a57600080fd5b50610bae610ba9366004613960565b612ddc565b60405161047e99989796959493929190613e70565b348015610bcf57600080fd5b506104c9610bde3660046134ac565b613049565b348015610bef57600080fd5b506104a7610bfe3660046139ae565b61305e565b348015610c0f57600080fd5b50610471610c1e366004613960565b6131b4565b348015610c2f57600080fd5b506104c9610c3e3660046134ac565b6131c9565b348015610c4f57600080fd5b506104716131f2565b348015610c6457600080fd5b50610500610c73366004613960565b6131f8565b348015610c8457600080fd5b50610c98610c93366004613960565b613205565b60405161047e9493929190613b47565b348015610cb457600080fd5b506104a7610cc33660046134d2565b613247565b348015610cd457600080fd5b506104c9610ce33660046134ac565b61335c565b348015610cf457600080fd5b506104a7610d03366004613960565b613371565b348015610d1457600080fd5b5061047161339e565b6000818152602081905260409020600501545b919050565b3360009081526005602052604090205460ff168015610d6a575033600081815260036020526040902054600160a060020a0316145b610d7357600080fd5b3360009081526003602090815260409091208751610d99926001909201918901906133a4565b50336000908152600360208181526040909220600281018890558651610dc7939190920191908701906133a4565b503360009081526003602090815260409091208451610dee926004909201918601906133a4565b503360009081526003602090815260409091208351610e15926007909201918501906133a4565b503360009081526003602090815260409091208251610e3c926005909201918401906133a4565b50505050505050565b6000818152600f602052604081205460ff1615610d3057506001610d30565b6014545b90565b601154600160a060020a031681565b6000908152600d6020526040902054600160a060020a031690565b60106020526000908152604090205460ff1681565b60145481565b6000818152602081815260409182902060070180548351601f6002600019610100600186161502019093169290920491820184900484028101840190945280845260609392830182828015610f465780601f10610f1b57610100808354040283529160200191610f46565b820191906000526020600020905b815481529060010190602001808311610f2957829003601f168201915b50505050509050919050565b600160a060020a03811660009081526007602052604081205460ff1615610d3057506001610d30565b60185490565b6000818152602081815260409182902060080180548351601f6002600019610100600186161502019093169290920491820184900484028101840190945280845260609392830182828015610f465780601f10610f1b57610100808354040283529160200191610f46565b6000818152602081815260409182902060030180548351601f6002600019610100600186161502019093169290920491820184900484028101840190945280845260609392830182828015610f465780601f10610f1b57610100808354040283529160200191610f46565b600160a060020a03811660009081526009602052604081205460ff16806110965750600160a060020a0382166000908152600b602052604090205460ff165b15610d3057506001610d30565b600f6020526000908152604090205460ff1681565b3360008181526005602090815260408083208054600160ff1991821681179092556007845282852080549091168217905560178054820190558151610100810183528581528084018d81528184018d9052606082018c9052608082018b905260a082018a905260c0820189905260e0820188905295855260038452919093208151815473ffffffffffffffffffffffffffffffffffffffff1916600160a060020a039091161781559351805191949361117793908501929101906133a4565b50604082015160028201556060820151805161119d9160038401916020909101906133a4565b50608082015180516111b99160048401916020909101906133a4565b5060a082015180516111d59160058401916020909101906133a4565b5060c082015180516111f19160068401916020909101906133a4565b5060e0820151805161120d9160078401916020909101906133a4565b5050601380546001810182556000919091527f66de8ffda797e3de9c05e8fc57b3bf0ec28a930d40b0d285d93c06501cf6a09001805473ffffffffffffffffffffffffffffffffffffffff1916339081179091556040517f478f5152d8fc568db3f8de9fb402fd9d98a1a7541ecfe434e59cf574fbfc552492506112919190613b39565b60405180910390a150505050505050565b60066020526000908152604090205460ff1681565b6060601380548060200260200160405190810160405280929190818152602001828054801561130f57602002820191906000526020600020905b8154600160a060020a031681526001909101906020018083116112f1575b5050505050905090565b60096020526000908152604090205460ff1681565b60009081526020819052604090206001015490565b600081815260106020526040808220805460ff1916600117905551600160a060020a038416913480156108fc02929091818181858888f1935050505015801561138b57600080fd5b505050565b61139933612d36565b6113a257600080fd5b600160a060020a0381166000908152600a602052604090819020805460ff19166001179055517f6a6455914f452787eb3985452aceedc1000fb545e394eb3b370e3d08958e0a5b906113f5908390613b2b565b60405180910390a150565b600160a060020a03811660009081526003602081815260408084206002808201546001808401805486519281161561010002600019011693909304601f810187900487028201870190955284815260609788978897889788979396889690959385019460058101946006820194600783019460049093019289918301828280156114cb5780601f106114a0576101008083540402835291602001916114cb565b820191906000526020600020905b8154815290600101906020018083116114ae57829003601f168201915b5050895460408051602060026001851615610100026000190190941693909304601f8101849004840282018401909252818152959c508b9450925084019050828280156115595780601f1061152e57610100808354040283529160200191611559565b820191906000526020600020905b81548152906001019060200180831161153c57829003601f168201915b5050885460408051602060026001851615610100026000190190941693909304601f8101849004840282018401909252818152959b508a9450925084019050828280156115e75780601f106115bc576101008083540402835291602001916115e7565b820191906000526020600020905b8154815290600101906020018083116115ca57829003601f168201915b5050875460408051602060026001851615610100026000190190941693909304601f8101849004840282018401909252818152959a50899450925084019050828280156116755780601f1061164a57610100808354040283529160200191611675565b820191906000526020600020905b81548152906001019060200180831161165857829003601f168201915b5050865460408051602060026001851615610100026000190190941693909304601f8101849004840282018401909252818152959950889450925084019050828280156117035780601f106116d857610100808354040283529160200191611703565b820191906000526020600020905b8154815290600101906020018083116116e657829003601f168201915b5050845460408051602060026001851615610100026000190190941693909304601f8101849004840282018401909252818152959850869450925084019050828280156117915780601f1061176657610100808354040283529160200191611791565b820191906000526020600020905b81548152906001019060200180831161177457829003601f168201915b505050505090509650965096509650965096509650919395979092949650565b6000818152600c602052604081205460ff1615610d3057506001610d30565b6000818152600e602052604081205460ff1615610d3057506001610d30565b3360009081526005602052604090205460ff161561180c57600080fd5b3360008181526005602090815260408083208054600160ff1991821681179092556007845282852080549091168217905560178054820190558151610100810183528581528084018e81528184018e9052606082018d9052608082018c905260a082018b905260c0820189905260e0820188905295855260038452919093208151815473ffffffffffffffffffffffffffffffffffffffff1916600160a060020a03909116178155935180519194936118cb93908501929101906133a4565b5060408201516002820155606082015180516118f19160038401916020909101906133a4565b506080820151805161190d9160048401916020909101906133a4565b5060a082015180516119299160058401916020909101906133a4565b5060c082015180516119459160068401916020909101906133a4565b5060e082015180516119619160078401916020909101906133a4565b5090505060133390806001815401808255809150509060018203906000526020600020016000909192909190916101000a815481600160a060020a030219169083600160a060020a031602179055505060016006600033600160a060020a0316600160a060020a0316815260200190815260200160002060006101000a81548160ff0219169083151502179055506016600081548092919060010191905055506040518060e0016040528033600160a060020a03168152602001898152602001888152602001868152602001858152602001848152602001838152506002600033600160a060020a0316600160a060020a0316815260200190815260200160002060008201518160000160006101000a815481600160a060020a030219169083600160a060020a031602179055506020820151816001019080519060200190611aab9291906133a4565b506040820151600282015560608201518051611ad19160038401916020909101906133a4565b5060808201518051611aed9160048401916020909101906133a4565b5060a08201518051611b099160058401916020909101906133a4565b5060c08201518051611b259160068401916020909101906133a4565b5050601280546001810182556000919091527fbb8a6a4669ba250d26cd7a459eca9d215f8307e33aebe50379bc5a3617ec344401805473ffffffffffffffffffffffffffffffffffffffff1916339081179091556040517f478f5152d8fc568db3f8de9fb402fd9d98a1a7541ecfe434e59cf574fbfc55249250611ba99190613b39565b60405180910390a15050505050505050565b600c6020526000908152604090205460ff1681565b611bd933612d36565b611be257600080fd5b600160a060020a0381166000908152600b602052604090819020805460ff19166001179055517faf77f8960cf590e245ec8b6d41c193a5dcacad8986ae4eb57ac9e5be7b6af031906113f5908390613b2b565b600e6020526000908152604090205460ff1681565b3360009081526005602052604090205460ff1615611c6757600080fd5b3360008181526005602090815260408083208054600160ff199182168117909255600684528285208054909116821790556016805482019055815160e0810183528581528084018c81528184018c9052606082018b9052608082018a905260a0820189905260c0820188905295855260028452919093208151815473ffffffffffffffffffffffffffffffffffffffff1916600160a060020a0390911617815593518051919493611d1e93908501929101906133a4565b506040820151600282015560608201518051611d449160038401916020909101906133a4565b5060808201518051611d609160048401916020909101906133a4565b5060a08201518051611d7c9160058401916020909101906133a4565b5060c08201518051611d989160068401916020909101906133a4565b5050601280546001810182556000919091527fbb8a6a4669ba250d26cd7a459eca9d215f8307e33aebe50379bc5a3617ec344401805473ffffffffffffffffffffffffffffffffffffffff1916339081179091556040517f478f5152d8fc568db3f8de9fb402fd9d98a1a7541ecfe434e59cf574fbfc55249250611e1c9190613b39565b60405180910390a1505050505050565b60155481565b600b6020526000908152604090205460ff1681565b60165481565b600d60205260009081526040902054600160a060020a031681565b60076020526000908152604090205460ff1681565b60009081526020819052604090206006015490565b600a6020526000908152604090205460ff1681565b6003602090815260009182526040918290208054600180830180548651600261010094831615949094026000190190911692909204601f8101869004860283018601909652858252600160a060020a03909216949293909290830182828015611f515780601f10611f2657610100808354040283529160200191611f51565b820191906000526020600020905b815481529060010190602001808311611f3457829003601f168201915b505050506002838101546003850180546040805160206001841615610100026000190190931695909504601f810183900483028601830190915280855295969295929450909190830182828015611fe95780601f10611fbe57610100808354040283529160200191611fe9565b820191906000526020600020905b815481529060010190602001808311611fcc57829003601f168201915b5050505060048301805460408051602060026001851615610100026000190190941693909304601f81018490048402820184019092528181529495949350908301828280156120795780601f1061204e57610100808354040283529160200191612079565b820191906000526020600020905b81548152906001019060200180831161205c57829003601f168201915b5050505060058301805460408051602060026001851615610100026000190190941693909304601f81018490048402820184019092528181529495949350908301828280156121095780601f106120de57610100808354040283529160200191612109565b820191906000526020600020905b8154815290600101906020018083116120ec57829003601f168201915b5050505060068301805460408051602060026001851615610100026000190190941693909304601f81018490048402820184019092528181529495949350908301828280156121995780601f1061216e57610100808354040283529160200191612199565b820191906000526020600020905b81548152906001019060200180831161217c57829003601f168201915b5050505060078301805460408051602060026001851615610100026000190190941693909304601f81018490048402820184019092528181529495949350908301828280156122295780601f106121fe57610100808354040283529160200191612229565b820191906000526020600020905b81548152906001019060200180831161220c57829003601f168201915b5050505050905088565b60046020526000908152604090208054600182015460028301546003909301549192600160a060020a039182169291169084565b600160a060020a0381166000908152600260208181526040808420808401546001808301805485519281161561010002600019011696909604601f8101869004860282018601909452838152606096958795869586958695939460038201936004830193600584019360060192918891908301828280156123295780601f106122fe57610100808354040283529160200191612329565b820191906000526020600020905b81548152906001019060200180831161230c57829003601f168201915b5050875460408051602060026001851615610100026000190190941693909304601f8101849004840282018401909252818152959b50899450925084019050828280156123b75780601f1061238c576101008083540402835291602001916123b7565b820191906000526020600020905b81548152906001019060200180831161239a57829003601f168201915b5050865460408051602060026001851615610100026000190190941693909304601f8101849004840282018401909252818152959950889450925084019050828280156124455780601f1061241a57610100808354040283529160200191612445565b820191906000526020600020905b81548152906001019060200180831161242857829003601f168201915b5050855460408051602060026001851615610100026000190190941693909304601f8101849004840282018401909252818152959850879450925084019050828280156124d35780601f106124a8576101008083540402835291602001916124d3565b820191906000526020600020905b8154815290600101906020018083116124b657829003601f168201915b5050845460408051602060026001851615610100026000190190941693909304601f8101849004840282018401909252818152959750869450925084019050828280156125615780601f1061253657610100808354040283529160200191612561565b820191906000526020600020905b81548152906001019060200180831161254457829003601f168201915b5050505050905095509550955095509550955091939550919395565b600160a060020a03811660009081526008602052604081205460ff16806110965750600160a060020a0382166000908152600a602052604090205460ff1615610d3057506001610d30565b60175481565b6125d733612d36565b6125e057600080fd5b6000918252600d6020526040909120805473ffffffffffffffffffffffffffffffffffffffff1916600160a060020a03909216919091179055565b600160a060020a03811660009081526005602052604081205460ff1615610d3057506001610d30565b3360009081526005602052604090205460ff168015612679575033600081815260026020526040902054600160a060020a0316145b61268257600080fd5b33600090815260026020908152604090912086516126a8926001909201918801906133a4565b5033600090815260026020818152604090922090810186905584516126d5926003909201918601906133a4565b5033600090815260026020908152604090912083516126fc926004909201918501906133a4565b503360009081526002602090815260409091208251612723926005909201918401906133a4565b505050505050565b60008181526010602052604081205460ff1615610d3057506001610d30565b6012818154811061275757fe5b600091825260209091200154600160a060020a0316905081565b61277a33612d36565b61278357600080fd5b600160a060020a03811660009081526008602090815260408083208054600160ff199182168117909255600a9093529281902080549092169092179055517f6a6455914f452787eb3985452aceedc1000fb545e394eb3b370e3d08958e0a5b906113f5908390613b2b565b600081815260208181526040918290206002908101805484516001821615610100026000190190911692909204601f81018490048402830184019094528382526060939192909190830182828015610f465780601f10610f1b57610100808354040283529160200191610f46565b612865336131c9565b801561287557506128753361257d565b61287e57600080fd5b6000908152600e60205260409020805460ff19166001179055565b6060601280548060200260200160405190810160405280929190818152602001828054801561130f57602002820191906000526020600020908154600160a060020a031681526001909101906020018083116112f1575050505050905090565b60165490565b6002602081815260009283526040928390208054600180830180548751601f60001994831615610100029490940190911696909604918201859004850286018501909652808552600160a060020a03909116949193928301828280156129a65780601f1061297b576101008083540402835291602001916129a6565b820191906000526020600020905b81548152906001019060200180831161298957829003601f168201915b505050506002838101546003850180546040805160206001841615610100026000190190931695909504601f810183900483028601830190915280855295969295929450909190830182828015612a3e5780601f10612a1357610100808354040283529160200191612a3e565b820191906000526020600020905b815481529060010190602001808311612a2157829003601f168201915b5050505060048301805460408051602060026001851615610100026000190190941693909304601f8101849004840282018401909252818152949594935090830182828015612ace5780601f10612aa357610100808354040283529160200191612ace565b820191906000526020600020905b815481529060010190602001808311612ab157829003601f168201915b5050505060058301805460408051602060026001851615610100026000190190941693909304601f8101849004840282018401909252818152949594935090830182828015612b5e5780601f10612b3357610100808354040283529160200191612b5e565b820191906000526020600020905b815481529060010190602001808311612b4157829003601f168201915b5050505060068301805460408051602060026001851615610100026000190190941693909304601f8101849004840282018401909252818152949594935090830182828015612bee5780601f10612bc357610100808354040283529160200191612bee565b820191906000526020600020905b815481529060010190602001808311612bd157829003601f168201915b5050505050905087565b600160208181526000928352604092839020805481840180548651600296821615610100026000190190911695909504601f81018590048502860185019096528585529094919392909190830182828015612c945780601f10612c6957610100808354040283529160200191612c94565b820191906000526020600020905b815481529060010190602001808311612c7757829003601f168201915b505050506002838101546003850180546040805160206001841615610100026000190190931695909504601f810183900483028601830190915280855295969295929450909190830182828015612d2c5780601f10612d0157610100808354040283529160200191612d2c565b820191906000526020600020905b815481529060010190602001808311612d0f57829003601f168201915b5050505050905084565b601154600090600160a060020a0383811691161415612d5757506001610d30565b506000610d30565b612d6833612d36565b612d7157600080fd5b600160a060020a03811660009081526009602090815260408083208054600160ff199182168117909255600b9093529281902080549092169092179055517faf77f8960cf590e245ec8b6d41c193a5dcacad8986ae4eb57ac9e5be7b6af031906113f5908390613b2b565b6000602081815291815260409081902080546001808301546002808501805487519481161561010002600019011691909104601f81018890048802840188019096528583529295909491929190830182828015612e7a5780601f10612e4f57610100808354040283529160200191612e7a565b820191906000526020600020905b815481529060010190602001808311612e5d57829003601f168201915b5050505060038301805460408051602060026001851615610100026000190190941693909304601f8101849004840282018401909252818152949594935090830182828015612f0a5780601f10612edf57610100808354040283529160200191612f0a565b820191906000526020600020905b815481529060010190602001808311612eed57829003601f168201915b505050600484015460058501546006860154600787018054604080516020601f60026000196101006001881615020190951694909404938401819004810282018101909252828152989995989497509295509091830182828015612faf5780601f10612f8457610100808354040283529160200191612faf565b820191906000526020600020905b815481529060010190602001808311612f9257829003601f168201915b5050505060088301805460408051602060026001851615610100026000190190941693909304601f810184900484028201840190925281815294959493509083018282801561303f5780601f106130145761010080835404028352916020019161303f565b820191906000526020600020905b81548152906001019060200180831161302257829003601f168201915b5050505050905089565b60086020526000908152604090205460ff1681565b613067336131c9565b801561307757506130773361257d565b61308057600080fd5b60148054600190810191829055604080516101208101825283815260208082018d81528284018d8152606084018d9052608084018c905260a084018b905260c084018a905260e0840189905261010084018890526000968752868352939095208251815594519385019390935590518051919392613106926002850192909101906133a4565b50606082015180516131229160038401916020909101906133a4565b506080820151600482015560a0820151600582015560c0820151600682015560e0820151805161315c9160078401916020909101906133a4565b5061010082015180516131799160088401916020909101906133a4565b50506014546000908152600d60205260409020805473ffffffffffffffffffffffffffffffffffffffff191633179055505050505050505050565b60009081526020819052604090206004015490565b600160a060020a03811660009081526006602052604081205460ff1615610d3057506001610d30565b60175490565b6013818154811061275757fe5b600090815260046020908152604080832060018101546002820154600390920154600e9094529190932054600160a060020a0391821694919093169260ff1690565b61325033610f52565b801561326057506132603361257d565b61326957600080fd5b60188054600190810180835560408051608081018252828152600160a060020a03808816602080840191825233848601908152606085018a8152600097885260048352868820955186559251858901805491861673ffffffffffffffffffffffffffffffffffffffff199283161790559051600286018054919095169116179092555160039092019190915584548352600e8152818320805460ff1990811690915594548352600f9052908190208054909316909117909155517fc67eb70629da758128cec22f7e36ad0676066ad4df9b66e8ba58a30c1ab4075b90613350908490613b2b565b60405180910390a15050565b60056020526000908152604090205460ff1681565b61337a33612d36565b61338357600080fd5b6000908152600c60205260409020805460ff19166001179055565b60185481565b828054600181600116156101000203166002900490600052602060002090601f016020900481019282601f106133e557805160ff1916838001178555613412565b82800160010185558215613412579182015b828111156134125782518255916020019190600101906133f7565b5061341e929150613422565b5090565b610e6891905b8082111561341e5760008155600101613428565b803561344781613fe6565b92915050565b600082601f83011261345e57600080fd5b813561347161346c82613f38565b613f11565b9150808252602083016020830185838301111561348d57600080fd5b613498838284613fa0565b50505092915050565b803561344781613ffd565b6000602082840312156134be57600080fd5b60006134ca848461343c565b949350505050565b600080604083850312156134e557600080fd5b60006134f1858561343c565b9250506020613502858286016134a1565b9150509250929050565b600080600080600060a0868803121561352457600080fd5b853567ffffffffffffffff81111561353b57600080fd5b6135478882890161344d565b9550506020613558888289016134a1565b945050604086013567ffffffffffffffff81111561357557600080fd5b6135818882890161344d565b935050606086013567ffffffffffffffff81111561359e57600080fd5b6135aa8882890161344d565b925050608086013567ffffffffffffffff8111156135c757600080fd5b6135d38882890161344d565b9150509295509295909350565b60008060008060008060c087890312156135f957600080fd5b863567ffffffffffffffff81111561361057600080fd5b61361c89828a0161344d565b965050602061362d89828a016134a1565b955050604087013567ffffffffffffffff81111561364a57600080fd5b61365689828a0161344d565b945050606087013567ffffffffffffffff81111561367357600080fd5b61367f89828a0161344d565b935050608087013567ffffffffffffffff81111561369c57600080fd5b6136a889828a0161344d565b92505060a087013567ffffffffffffffff8111156136c557600080fd5b6136d189828a0161344d565b9150509295509295509295565b600080600080600080600060e0888a0312156136f957600080fd5b873567ffffffffffffffff81111561371057600080fd5b61371c8a828b0161344d565b975050602061372d8a828b016134a1565b965050604088013567ffffffffffffffff81111561374a57600080fd5b6137568a828b0161344d565b955050606088013567ffffffffffffffff81111561377357600080fd5b61377f8a828b0161344d565b945050608088013567ffffffffffffffff81111561379c57600080fd5b6137a88a828b0161344d565b93505060a088013567ffffffffffffffff8111156137c557600080fd5b6137d18a828b0161344d565b92505060c088013567ffffffffffffffff8111156137ee57600080fd5b6137fa8a828b0161344d565b91505092959891949750929550565b600080600080600080600080610100898b03121561382657600080fd5b883567ffffffffffffffff81111561383d57600080fd5b6138498b828c0161344d565b985050602061385a8b828c016134a1565b975050604089013567ffffffffffffffff81111561387757600080fd5b6138838b828c0161344d565b965050606089013567ffffffffffffffff8111156138a057600080fd5b6138ac8b828c0161344d565b955050608089013567ffffffffffffffff8111156138c957600080fd5b6138d58b828c0161344d565b94505060a089013567ffffffffffffffff8111156138f257600080fd5b6138fe8b828c0161344d565b93505060c089013567ffffffffffffffff81111561391b57600080fd5b6139278b828c0161344d565b92505060e089013567ffffffffffffffff81111561394457600080fd5b6139508b828c0161344d565b9150509295985092959890939650565b60006020828403121561397257600080fd5b60006134ca84846134a1565b6000806040838503121561399157600080fd5b600061399d85856134a1565b92505060206135028582860161343c565b600080600080600080600080610100898b0312156139cb57600080fd5b60006139d78b8b6134a1565b985050602089013567ffffffffffffffff8111156139f457600080fd5b613a008b828c0161344d565b975050604089013567ffffffffffffffff811115613a1d57600080fd5b613a298b828c0161344d565b9650506060613a3a8b828c016134a1565b9550506080613a4b8b828c016134a1565b94505060a06138fe8b828c016134a1565b6000613a688383613a7f565b505060200190565b613a7981613f8f565b82525050565b613a7981613f73565b6000613a9382613f66565b613a9d8185613f6a565b9350613aa883613f60565b8060005b83811015613ad6578151613ac08882613a5c565b9750613acb83613f60565b925050600101613aac565b509495945050505050565b613a7981613f7e565b6000613af582613f66565b613aff8185613f6a565b9350613b0f818560208601613fac565b613b1881613fdc565b9093019392505050565b613a7981610e68565b602081016134478284613a7f565b602081016134478284613a70565b60808101613b558287613a7f565b613b626020830186613a7f565b613b6f6040830185613b22565b613b7c6060830184613ae1565b95945050505050565b60e08101613b93828a613a7f565b8181036020830152613ba58189613aea565b9050613bb46040830188613b22565b8181036060830152613bc68187613aea565b90508181036080830152613bda8186613aea565b905081810360a0830152613bee8185613aea565b905081810360c0830152613c028184613aea565b9998505050505050505050565b6101008101613c1e828b613a7f565b8181036020830152613c30818a613aea565b9050613c3f6040830189613b22565b8181036060830152613c518188613aea565b90508181036080830152613c658187613aea565b905081810360a0830152613c798186613aea565b905081810360c0830152613c8d8185613aea565b905081810360e0830152613ca18184613aea565b9a9950505050505050505050565b60208082528101613cc08184613a88565b9392505050565b602081016134478284613ae1565b60208082528101613cc08184613aea565b60e08082528101613cf7818a613aea565b90508181036020830152613d0b8189613aea565b90508181036040830152613d1f8188613aea565b90508181036060830152613d338187613aea565b90508181036080830152613d478186613aea565b9050613d5660a0830185613b22565b81810360c0830152613c028184613aea565b60c08082528101613d798189613aea565b9050613d886020830188613b22565b8181036040830152613d9a8187613aea565b90508181036060830152613dae8186613aea565b90508181036080830152613dc28185613aea565b905081810360a0830152613dd68184613aea565b98975050505050505050565b602081016134478284613b22565b60808101613dfe8287613b22565b613e0b6020830186613a7f565b613e186040830185613a7f565b613b7c6060830184613b22565b60808101613e338287613b22565b8181036020830152613e458186613aea565b9050613e546040830185613b22565b8181036060830152613e668184613aea565b9695505050505050565b6101208101613e7f828c613b22565b613e8c602083018b613b22565b8181036040830152613e9e818a613aea565b90508181036060830152613eb28189613aea565b9050613ec16080830188613b22565b613ece60a0830187613b22565b613edb60c0830186613b22565b81810360e0830152613eed8185613aea565b9050818103610100830152613f028184613aea565b9b9a5050505050505050505050565b60405181810167ffffffffffffffff81118282101715613f3057600080fd5b604052919050565b600067ffffffffffffffff821115613f4f57600080fd5b506020601f91909101601f19160190565b60200190565b5190565b90815260200190565b600061344782613f83565b151590565b600160a060020a031690565b600061344782600061344782613f73565b82818337506000910152565b60005b83811015613fc7578181015183820152602001613faf565b83811115613fd6576000848401525b50505050565b601f01601f191690565b613fef81613f73565b8114613ffa57600080fd5b50565b613fef81610e6856fea365627a7a723158207e48925cbab6e1b8a35fe638b35e97a923ffabf5bff9f1a81ddb977ad0a9e1ae6c6578706572696d656e74616cf564736f6c63430005100040",
  "source": "pragma solidity >=0.5.2;\npragma experimental ABIEncoderV2;\n\ncontract Land {\n    struct Landreg {\n        uint256 id;\n        uint256 area;\n        string city;\n        string state;\n        uint256 landPrice;\n        uint256 propertyPID;\n        uint256 physicalSurveyNumber;\n        string ipfsHash;\n        string document;\n    }\n\n    struct Buyer {\n        address id;\n        string name;\n        uint256 age;\n        string city;\n        string aadharNumber;\n        string panNumber;\n        string document;\n        string email;\n    }\n\n    struct Seller {\n        address id;\n        string name;\n        uint256 age;\n        string aadharNumber;\n        string panNumber;\n        string landsOwned;\n        string document;\n    }\n\n    struct LandInspector {\n        uint256 id;\n        string name;\n        uint256 age;\n        string designation;\n    }\n\n    struct LandRequest {\n        uint256 reqId;\n        address sellerId;\n        address buyerId;\n        uint256 landId;\n        // bool requestStatus;\n        // bool requested;\n    }\n\n    //key value pairs\n    mapping(uint256 => Landreg) public lands;\n    mapping(uint256 => LandInspector) public InspectorMapping;\n    mapping(address => Seller) public SellerMapping;\n    mapping(address => Buyer) public BuyerMapping;\n    mapping(uint256 => LandRequest) public RequestsMapping;\n\n    mapping(address => bool) public RegisteredAddressMapping;\n    mapping(address => bool) public RegisteredSellerMapping;\n    mapping(address => bool) public RegisteredBuyerMapping;\n    mapping(address => bool) public SellerVerification;\n    mapping(address => bool) public SellerRejection;\n    mapping(address => bool) public BuyerVerification;\n    mapping(address => bool) public BuyerRejection;\n    mapping(uint256 => bool) public LandVerification;\n    mapping(uint256 => address) public LandOwner;\n    mapping(uint256 => bool) public RequestStatus;\n    mapping(uint256 => bool) public RequestedLands;\n    mapping(uint256 => bool) public PaymentReceived;\n\n    address public Land_Inspector;\n    address[] public sellers;\n    address[] public buyers;\n\n    uint256 public landsCount;\n    uint256 public inspectorsCount;\n    uint256 public sellersCount;\n    uint256 public buyersCount;\n    uint256 public requestsCount;\n\n    event Registration(address _registrationId);\n    event AddingLand(uint256 indexed _landId);\n    event Landrequested(address _sellerId);\n    event requestApproved(address _buyerId);\n    event Verified(address _id);\n    event Rejected(address _id);\n\n    constructor() public {\n        Land_Inspector = msg.sender;\n        addLandInspector(\"Inspector 1\", 45, \"Tehsil Manager\");\n    }\n\n    function addLandInspector(\n        string memory _name,\n        uint256 _age,\n        string memory _designation\n    ) private {\n        inspectorsCount++;\n        InspectorMapping[inspectorsCount] = LandInspector(\n            inspectorsCount,\n            _name,\n            _age,\n            _designation\n        );\n    }\n\n    function getLandsCount() public view returns (uint256) {\n        return landsCount;\n    }\n\n    function getBuyersCount() public view returns (uint256) {\n        return buyersCount;\n    }\n\n    function getSellersCount() public view returns (uint256) {\n        return sellersCount;\n    }\n\n    function getRequestsCount() public view returns (uint256) {\n        return requestsCount;\n    }\n\n    function getArea(uint256 i) public view returns (uint256) {\n        return lands[i].area;\n    }\n\n    function getCity(uint256 i) public view returns (string memory) {\n        return lands[i].city;\n    }\n\n    function getState(uint256 i) public view returns (string memory) {\n        return lands[i].state;\n    }\n\n    // function getStatus(uint i) public view returns (bool) {\n    //     return lands[i].verificationStatus;\n    // }\n    function getPrice(uint256 i) public view returns (uint256) {\n        return lands[i].landPrice;\n    }\n\n    function getPID(uint256 i) public view returns (uint256) {\n        return lands[i].propertyPID;\n    }\n\n    function getSurveyNumber(uint256 i) public view returns (uint256) {\n        return lands[i].physicalSurveyNumber;\n    }\n\n    function getImage(uint256 i) public view returns (string memory) {\n        return lands[i].ipfsHash;\n    }\n\n    function getDocument(uint256 i) public view returns (string memory) {\n        return lands[i].document;\n    }\n\n    function getLandOwner(uint256 id) public view returns (address) {\n        return LandOwner[id];\n    }\n\n    function verifySeller(address _sellerId) public {\n        require(isLandInspector(msg.sender));\n\n        SellerVerification[_sellerId] = true;\n        BuyerVerification[_sellerId] = true;\n        emit Verified(_sellerId);\n    }\n\n    function rejectSeller(address _sellerId) public {\n        require(isLandInspector(msg.sender));\n\n        SellerRejection[_sellerId] = true;\n        BuyerRejection[_sellerId] = true;\n        emit Rejected(_sellerId);\n    }\n\n    function verifyBuyer(address _buyerId) public {\n        require(isLandInspector(msg.sender));\n\n        BuyerVerification[_buyerId] = true;\n        emit Verified(_buyerId);\n    }\n\n    function rejectBuyer(address _buyerId) public {\n        require(isLandInspector(msg.sender));\n\n        BuyerRejection[_buyerId] = true;\n        emit Rejected(_buyerId);\n    }\n\n    function verifyLand(uint256 _landId) public {\n        require(isLandInspector(msg.sender));\n\n        LandVerification[_landId] = true;\n    }\n\n    function isLandVerified(uint256 _id) public view returns (bool) {\n        if (LandVerification[_id]) {\n            return true;\n        }\n    }\n\n    function isVerified(address _id) public view returns (bool) {\n        if (SellerVerification[_id] || BuyerVerification[_id]) {\n            return true;\n        }\n    }\n\n    function isRejected(address _id) public view returns (bool) {\n        if (SellerRejection[_id] || BuyerRejection[_id]) {\n            return true;\n        }\n    }\n\n    function isSeller(address _id) public view returns (bool) {\n        if (RegisteredSellerMapping[_id]) {\n            return true;\n        }\n    }\n\n    function isLandInspector(address _id) public view returns (bool) {\n        if (Land_Inspector == _id) {\n            return true;\n        } else {\n            return false;\n        }\n    }\n\n    function isBuyer(address _id) public view returns (bool) {\n        if (RegisteredBuyerMapping[_id]) {\n            return true;\n        }\n    }\n\n    function isRegistered(address _id) public view returns (bool) {\n        if (RegisteredAddressMapping[_id]) {\n            return true;\n        }\n    }\n\n    function addLand(\n        uint256 _area,\n        string memory _city,\n        string memory _state,\n        uint256 landPrice,\n        uint256 _propertyPID,\n        uint256 _surveyNum,\n        string memory _ipfsHash,\n        string memory _document\n    ) public {\n        require((isSeller(msg.sender)) && (isVerified(msg.sender)));\n        landsCount++;\n        lands[landsCount] = Landreg(\n            landsCount,\n            _area,\n            _city,\n            _state,\n            landPrice,\n            _propertyPID,\n            _surveyNum,\n            _ipfsHash,\n            _document\n        );\n        LandOwner[landsCount] = msg.sender;\n        // emit AddingLand(landsCount);\n    }\n\n    //registration of seller\n    function registerSeller(\n        string memory _name,\n        uint256 _age,\n        string memory _aadharNumber,\n        string memory _panNumber,\n        string memory _landsOwned,\n        string memory _document\n    ) public {\n        //require that Seller is not already registered\n        require(!RegisteredAddressMapping[msg.sender]);\n\n        RegisteredAddressMapping[msg.sender] = true;\n        RegisteredSellerMapping[msg.sender] = true;\n        sellersCount++;\n        SellerMapping[msg.sender] = Seller(\n            msg.sender,\n            _name,\n            _age,\n            _aadharNumber,\n            _panNumber,\n            _landsOwned,\n            _document\n        );\n        sellers.push(msg.sender);\n        emit Registration(msg.sender);\n    }\n\n    function updateSeller(\n        string memory _name,\n        uint256 _age,\n        string memory _aadharNumber,\n        string memory _panNumber,\n        string memory _landsOwned\n    ) public {\n        //require that Seller is already registered\n        require(\n            RegisteredAddressMapping[msg.sender] &&\n                (SellerMapping[msg.sender].id == msg.sender)\n        );\n\n        SellerMapping[msg.sender].name = _name;\n        SellerMapping[msg.sender].age = _age;\n        SellerMapping[msg.sender].aadharNumber = _aadharNumber;\n        SellerMapping[msg.sender].panNumber = _panNumber;\n        SellerMapping[msg.sender].landsOwned = _landsOwned;\n    }\n\n    function getSeller() public view returns (address[] memory) {\n        return (sellers);\n    }\n\n    function getSellerDetails(address i)\n        public\n        view\n        returns (\n            string memory,\n            uint256,\n            string memory,\n            string memory,\n            string memory,\n            string memory\n        )\n    {\n        return (\n            SellerMapping[i].name,\n            SellerMapping[i].age,\n            SellerMapping[i].aadharNumber,\n            SellerMapping[i].panNumber,\n            SellerMapping[i].landsOwned,\n            SellerMapping[i].document\n        );\n    }\n\n    function registerBuyer(\n        string memory _name,\n        uint256 _age,\n        string memory _city,\n        string memory _aadharNumber,\n        string memory _panNumber,\n        string memory _document,\n        string memory _email\n    ) public {\n        //require that Buyer is not already registered\n        // require(!RegisteredAddressMapping[msg.sender]);\n\n        RegisteredAddressMapping[msg.sender] = true;\n        RegisteredBuyerMapping[msg.sender] = true;\n        buyersCount++;\n        BuyerMapping[msg.sender] = Buyer(\n            msg.sender,\n            _name,\n            _age,\n            _city,\n            _aadharNumber,\n            _panNumber,\n            _document,\n            _email\n        );\n        buyers.push(msg.sender);\n\n        emit Registration(msg.sender);\n    }\n\n    function registerUser(\n        string memory _name,\n        uint256 _age,\n        string memory _city,\n        string memory _aadharNumber,\n        string memory _panNumber,\n        string memory _landsOwned,\n        string memory _document,\n        string memory _email\n    ) public {\n        // require that Buyer is not already registered\n        require(!RegisteredAddressMapping[msg.sender]);\n\n        RegisteredAddressMapping[msg.sender] = true;\n        RegisteredBuyerMapping[msg.sender] = true;\n        buyersCount++;\n        BuyerMapping[msg.sender] = Buyer(\n            msg.sender,\n            _name,\n            _age,\n            _city,\n            _aadharNumber,\n            _panNumber,\n            _document,\n            _email\n        );\n        buyers.push(msg.sender);\n        RegisteredSellerMapping[msg.sender] = true;\n        sellersCount++;\n        SellerMapping[msg.sender] = Seller(\n            msg.sender,\n            _name,\n            _age,\n            _aadharNumber,\n            _panNumber,\n            _landsOwned,\n            _document\n        );\n        sellers.push(msg.sender);\n        emit Registration(msg.sender);\n    }\n\n    function updateBuyer(\n        string memory _name,\n        uint256 _age,\n        string memory _city,\n        string memory _aadharNumber,\n        string memory _email,\n        string memory _panNumber\n    ) public {\n        //require that Buyer is already registered\n        require(\n            RegisteredAddressMapping[msg.sender] &&\n                (BuyerMapping[msg.sender].id == msg.sender)\n        );\n\n        BuyerMapping[msg.sender].name = _name;\n        BuyerMapping[msg.sender].age = _age;\n        BuyerMapping[msg.sender].city = _city;\n        BuyerMapping[msg.sender].aadharNumber = _aadharNumber;\n        BuyerMapping[msg.sender].email = _email;\n        BuyerMapping[msg.sender].panNumber = _panNumber;\n    }\n\n    function getBuyer() public view returns (address[] memory) {\n        return (buyers);\n    }\n\n    function getBuyerDetails(address i)\n        public\n        view\n        returns (\n            string memory,\n            string memory,\n            string memory,\n            string memory,\n            string memory,\n            uint256,\n            string memory\n        )\n    {\n        return (\n            BuyerMapping[i].name,\n            BuyerMapping[i].city,\n            BuyerMapping[i].panNumber,\n            BuyerMapping[i].document,\n            BuyerMapping[i].email,\n            BuyerMapping[i].age,\n            BuyerMapping[i].aadharNumber\n        );\n    }\n\n    function requestLand(address _sellerId, uint256 _landId) public {\n        require(isBuyer(msg.sender) && isVerified(msg.sender));\n\n        requestsCount++;\n        RequestsMapping[requestsCount] = LandRequest(\n            requestsCount,\n            _sellerId,\n            msg.sender,\n            _landId\n        );\n        RequestStatus[requestsCount] = false;\n        RequestedLands[requestsCount] = true;\n\n        emit Landrequested(_sellerId);\n    }\n\n    function getRequestDetails(uint256 i)\n        public\n        view\n        returns (\n            address,\n            address,\n            uint256,\n            bool\n        )\n    {\n        return (\n            RequestsMapping[i].sellerId,\n            RequestsMapping[i].buyerId,\n            RequestsMapping[i].landId,\n            RequestStatus[i]\n        );\n    }\n\n    function isRequested(uint256 _id) public view returns (bool) {\n        if (RequestedLands[_id]) {\n            return true;\n        }\n    }\n\n    function isApproved(uint256 _id) public view returns (bool) {\n        if (RequestStatus[_id]) {\n            return true;\n        }\n    }\n\n    function approveRequest(uint256 _reqId) public {\n        require((isSeller(msg.sender)) && (isVerified(msg.sender)));\n\n        RequestStatus[_reqId] = true;\n    }\n\n    function LandOwnershipTransfer(uint256 _landId, address _newOwner) public {\n        require(isLandInspector(msg.sender));\n\n        LandOwner[_landId] = _newOwner;\n    }\n\n    function isPaid(uint256 _landId) public view returns (bool) {\n        if (PaymentReceived[_landId]) {\n            return true;\n        }\n    }\n\n    function payment(address payable _receiver, uint256 _landId)\n        public\n        payable\n    {\n        PaymentReceived[_landId] = true;\n        _receiver.transfer(msg.value);\n    }\n}\n",
  "sourcePath": "/home/dheeraj/PROJECT/Land-Registration-with-Blockchain/contracts/Land.sol",
  "compiler": {
    "name": "solc",
    "version": "0.5.16+commit.9c3226ce.Emscripten.clang"
  },
  "schemaVersion": "3.4.8",
  "updatedAt": "2022-11-21T08:27:34.208Z",
  "networkType": "ethereum",
  "devdoc": {
    "methods": {}
  },
  "userdoc": {
    "methods": {}
  }
}